{
	"format": "sphinx-sol-ct-artifact-1",
	"merkleRoot": "0x79f259a58433a52554bfee8d7594697b9a4d5197de7fe324726712684834adec",
	"address": "0xeb15c1df0f5ae36f525f5f9a03f5c5190ac9a7f8",
	"sourceName": "src/JB721TiersHookProjectDeployer.sol",
	"contractName": "JB721TiersHookProjectDeployer",
	"chainId": "0xa4b1",
	"abi": [
		{
			"inputs": [
				{
					"internalType": "contract IJBDirectory",
					"name": "directory",
					"type": "address"
				},
				{
					"internalType": "contract IJBPermissions",
					"name": "permissions",
					"type": "address"
				},
				{
					"internalType": "contract IJB721TiersHookDeployer",
					"name": "hookDeployer",
					"type": "address"
				},
				{
					"internalType": "address",
					"name": "trustedForwarder",
					"type": "address"
				}
			],
			"stateMutability": "nonpayable",
			"type": "constructor"
		},
		{
			"inputs": [],
			"name": "DIRECTORY",
			"outputs": [
				{
					"internalType": "contract IJBDirectory",
					"name": "",
					"type": "address"
				}
			],
			"stateMutability": "view",
			"type": "function"
		},
		{
			"inputs": [],
			"name": "HOOK_DEPLOYER",
			"outputs": [
				{
					"internalType": "contract IJB721TiersHookDeployer",
					"name": "",
					"type": "address"
				}
			],
			"stateMutability": "view",
			"type": "function"
		},
		{
			"inputs": [],
			"name": "PERMISSIONS",
			"outputs": [
				{
					"internalType": "contract IJBPermissions",
					"name": "",
					"type": "address"
				}
			],
			"stateMutability": "view",
			"type": "function"
		},
		{
			"inputs": [
				{
					"internalType": "address",
					"name": "forwarder",
					"type": "address"
				}
			],
			"name": "isTrustedForwarder",
			"outputs": [
				{
					"internalType": "bool",
					"name": "",
					"type": "bool"
				}
			],
			"stateMutability": "view",
			"type": "function"
		},
		{
			"inputs": [
				{
					"internalType": "address",
					"name": "owner",
					"type": "address"
				},
				{
					"components": [
						{
							"internalType": "string",
							"name": "name",
							"type": "string"
						},
						{
							"internalType": "string",
							"name": "symbol",
							"type": "string"
						},
						{
							"internalType": "string",
							"name": "baseUri",
							"type": "string"
						},
						{
							"internalType": "contract IJB721TokenUriResolver",
							"name": "tokenUriResolver",
							"type": "address"
						},
						{
							"internalType": "string",
							"name": "contractUri",
							"type": "string"
						},
						{
							"components": [
								{
									"components": [
										{
											"internalType": "uint104",
											"name": "price",
											"type": "uint104"
										},
										{
											"internalType": "uint32",
											"name": "initialSupply",
											"type": "uint32"
										},
										{
											"internalType": "uint32",
											"name": "votingUnits",
											"type": "uint32"
										},
										{
											"internalType": "uint16",
											"name": "reserveFrequency",
											"type": "uint16"
										},
										{
											"internalType": "address",
											"name": "reserveBeneficiary",
											"type": "address"
										},
										{
											"internalType": "bytes32",
											"name": "encodedIPFSUri",
											"type": "bytes32"
										},
										{
											"internalType": "uint24",
											"name": "category",
											"type": "uint24"
										},
										{
											"internalType": "uint8",
											"name": "discountPercent",
											"type": "uint8"
										},
										{
											"internalType": "bool",
											"name": "allowOwnerMint",
											"type": "bool"
										},
										{
											"internalType": "bool",
											"name": "useReserveBeneficiaryAsDefault",
											"type": "bool"
										},
										{
											"internalType": "bool",
											"name": "transfersPausable",
											"type": "bool"
										},
										{
											"internalType": "bool",
											"name": "useVotingUnits",
											"type": "bool"
										},
										{
											"internalType": "bool",
											"name": "cannotBeRemoved",
											"type": "bool"
										},
										{
											"internalType": "bool",
											"name": "cannotIncreaseDiscountPercent",
											"type": "bool"
										}
									],
									"internalType": "struct JB721TierConfig[]",
									"name": "tiers",
									"type": "tuple[]"
								},
								{
									"internalType": "uint32",
									"name": "currency",
									"type": "uint32"
								},
								{
									"internalType": "uint8",
									"name": "decimals",
									"type": "uint8"
								},
								{
									"internalType": "contract IJBPrices",
									"name": "prices",
									"type": "address"
								}
							],
							"internalType": "struct JB721InitTiersConfig",
							"name": "tiersConfig",
							"type": "tuple"
						},
						{
							"internalType": "address",
							"name": "reserveBeneficiary",
							"type": "address"
						},
						{
							"components": [
								{
									"internalType": "bool",
									"name": "noNewTiersWithReserves",
									"type": "bool"
								},
								{
									"internalType": "bool",
									"name": "noNewTiersWithVotes",
									"type": "bool"
								},
								{
									"internalType": "bool",
									"name": "noNewTiersWithOwnerMinting",
									"type": "bool"
								},
								{
									"internalType": "bool",
									"name": "preventOverspending",
									"type": "bool"
								}
							],
							"internalType": "struct JB721TiersHookFlags",
							"name": "flags",
							"type": "tuple"
						}
					],
					"internalType": "struct JBDeploy721TiersHookConfig",
					"name": "deployTiersHookConfig",
					"type": "tuple"
				},
				{
					"components": [
						{
							"internalType": "string",
							"name": "projectUri",
							"type": "string"
						},
						{
							"components": [
								{
									"internalType": "uint48",
									"name": "mustStartAtOrAfter",
									"type": "uint48"
								},
								{
									"internalType": "uint32",
									"name": "duration",
									"type": "uint32"
								},
								{
									"internalType": "uint112",
									"name": "weight",
									"type": "uint112"
								},
								{
									"internalType": "uint32",
									"name": "weightCutPercent",
									"type": "uint32"
								},
								{
									"internalType": "contract IJBRulesetApprovalHook",
									"name": "approvalHook",
									"type": "address"
								},
								{
									"components": [
										{
											"internalType": "uint16",
											"name": "reservedPercent",
											"type": "uint16"
										},
										{
											"internalType": "uint16",
											"name": "cashOutTaxRate",
											"type": "uint16"
										},
										{
											"internalType": "uint32",
											"name": "baseCurrency",
											"type": "uint32"
										},
										{
											"internalType": "bool",
											"name": "pausePay",
											"type": "bool"
										},
										{
											"internalType": "bool",
											"name": "pauseCreditTransfers",
											"type": "bool"
										},
										{
											"internalType": "bool",
											"name": "allowOwnerMinting",
											"type": "bool"
										},
										{
											"internalType": "bool",
											"name": "allowTerminalMigration",
											"type": "bool"
										},
										{
											"internalType": "bool",
											"name": "allowSetTerminals",
											"type": "bool"
										},
										{
											"internalType": "bool",
											"name": "allowSetController",
											"type": "bool"
										},
										{
											"internalType": "bool",
											"name": "allowAddAccountingContext",
											"type": "bool"
										},
										{
											"internalType": "bool",
											"name": "allowAddPriceFeed",
											"type": "bool"
										},
										{
											"internalType": "bool",
											"name": "ownerMustSendPayouts",
											"type": "bool"
										},
										{
											"internalType": "bool",
											"name": "holdFees",
											"type": "bool"
										},
										{
											"internalType": "bool",
											"name": "useTotalSurplusForCashOuts",
											"type": "bool"
										},
										{
											"internalType": "bool",
											"name": "useDataHookForCashOut",
											"type": "bool"
										},
										{
											"internalType": "uint16",
											"name": "metadata",
											"type": "uint16"
										}
									],
									"internalType": "struct JBPayDataHookRulesetMetadata",
									"name": "metadata",
									"type": "tuple"
								},
								{
									"components": [
										{
											"internalType": "uint256",
											"name": "groupId",
											"type": "uint256"
										},
										{
											"components": [
												{
													"internalType": "uint32",
													"name": "percent",
													"type": "uint32"
												},
												{
													"internalType": "uint64",
													"name": "projectId",
													"type": "uint64"
												},
												{
													"internalType": "address payable",
													"name": "beneficiary",
													"type": "address"
												},
												{
													"internalType": "bool",
													"name": "preferAddToBalance",
													"type": "bool"
												},
												{
													"internalType": "uint48",
													"name": "lockedUntil",
													"type": "uint48"
												},
												{
													"internalType": "contract IJBSplitHook",
													"name": "hook",
													"type": "address"
												}
											],
											"internalType": "struct JBSplit[]",
											"name": "splits",
											"type": "tuple[]"
										}
									],
									"internalType": "struct JBSplitGroup[]",
									"name": "splitGroups",
									"type": "tuple[]"
								},
								{
									"components": [
										{
											"internalType": "address",
											"name": "terminal",
											"type": "address"
										},
										{
											"internalType": "address",
											"name": "token",
											"type": "address"
										},
										{
											"components": [
												{
													"internalType": "uint224",
													"name": "amount",
													"type": "uint224"
												},
												{
													"internalType": "uint32",
													"name": "currency",
													"type": "uint32"
												}
											],
											"internalType": "struct JBCurrencyAmount[]",
											"name": "payoutLimits",
											"type": "tuple[]"
										},
										{
											"components": [
												{
													"internalType": "uint224",
													"name": "amount",
													"type": "uint224"
												},
												{
													"internalType": "uint32",
													"name": "currency",
													"type": "uint32"
												}
											],
											"internalType": "struct JBCurrencyAmount[]",
											"name": "surplusAllowances",
											"type": "tuple[]"
										}
									],
									"internalType": "struct JBFundAccessLimitGroup[]",
									"name": "fundAccessLimitGroups",
									"type": "tuple[]"
								}
							],
							"internalType": "struct JBPayDataHookRulesetConfig[]",
							"name": "rulesetConfigurations",
							"type": "tuple[]"
						},
						{
							"components": [
								{
									"internalType": "contract IJBTerminal",
									"name": "terminal",
									"type": "address"
								},
								{
									"components": [
										{
											"internalType": "address",
											"name": "token",
											"type": "address"
										},
										{
											"internalType": "uint8",
											"name": "decimals",
											"type": "uint8"
										},
										{
											"internalType": "uint32",
											"name": "currency",
											"type": "uint32"
										}
									],
									"internalType": "struct JBAccountingContext[]",
									"name": "accountingContextsToAccept",
									"type": "tuple[]"
								}
							],
							"internalType": "struct JBTerminalConfig[]",
							"name": "terminalConfigurations",
							"type": "tuple[]"
						},
						{
							"internalType": "string",
							"name": "memo",
							"type": "string"
						}
					],
					"internalType": "struct JBLaunchProjectConfig",
					"name": "launchProjectConfig",
					"type": "tuple"
				},
				{
					"internalType": "contract IJBController",
					"name": "controller",
					"type": "address"
				},
				{
					"internalType": "bytes32",
					"name": "salt",
					"type": "bytes32"
				}
			],
			"name": "launchProjectFor",
			"outputs": [
				{
					"internalType": "uint256",
					"name": "projectId",
					"type": "uint256"
				},
				{
					"internalType": "contract IJB721TiersHook",
					"name": "hook",
					"type": "address"
				}
			],
			"stateMutability": "nonpayable",
			"type": "function"
		},
		{
			"inputs": [
				{
					"internalType": "uint256",
					"name": "projectId",
					"type": "uint256"
				},
				{
					"components": [
						{
							"internalType": "string",
							"name": "name",
							"type": "string"
						},
						{
							"internalType": "string",
							"name": "symbol",
							"type": "string"
						},
						{
							"internalType": "string",
							"name": "baseUri",
							"type": "string"
						},
						{
							"internalType": "contract IJB721TokenUriResolver",
							"name": "tokenUriResolver",
							"type": "address"
						},
						{
							"internalType": "string",
							"name": "contractUri",
							"type": "string"
						},
						{
							"components": [
								{
									"components": [
										{
											"internalType": "uint104",
											"name": "price",
											"type": "uint104"
										},
										{
											"internalType": "uint32",
											"name": "initialSupply",
											"type": "uint32"
										},
										{
											"internalType": "uint32",
											"name": "votingUnits",
											"type": "uint32"
										},
										{
											"internalType": "uint16",
											"name": "reserveFrequency",
											"type": "uint16"
										},
										{
											"internalType": "address",
											"name": "reserveBeneficiary",
											"type": "address"
										},
										{
											"internalType": "bytes32",
											"name": "encodedIPFSUri",
											"type": "bytes32"
										},
										{
											"internalType": "uint24",
											"name": "category",
											"type": "uint24"
										},
										{
											"internalType": "uint8",
											"name": "discountPercent",
											"type": "uint8"
										},
										{
											"internalType": "bool",
											"name": "allowOwnerMint",
											"type": "bool"
										},
										{
											"internalType": "bool",
											"name": "useReserveBeneficiaryAsDefault",
											"type": "bool"
										},
										{
											"internalType": "bool",
											"name": "transfersPausable",
											"type": "bool"
										},
										{
											"internalType": "bool",
											"name": "useVotingUnits",
											"type": "bool"
										},
										{
											"internalType": "bool",
											"name": "cannotBeRemoved",
											"type": "bool"
										},
										{
											"internalType": "bool",
											"name": "cannotIncreaseDiscountPercent",
											"type": "bool"
										}
									],
									"internalType": "struct JB721TierConfig[]",
									"name": "tiers",
									"type": "tuple[]"
								},
								{
									"internalType": "uint32",
									"name": "currency",
									"type": "uint32"
								},
								{
									"internalType": "uint8",
									"name": "decimals",
									"type": "uint8"
								},
								{
									"internalType": "contract IJBPrices",
									"name": "prices",
									"type": "address"
								}
							],
							"internalType": "struct JB721InitTiersConfig",
							"name": "tiersConfig",
							"type": "tuple"
						},
						{
							"internalType": "address",
							"name": "reserveBeneficiary",
							"type": "address"
						},
						{
							"components": [
								{
									"internalType": "bool",
									"name": "noNewTiersWithReserves",
									"type": "bool"
								},
								{
									"internalType": "bool",
									"name": "noNewTiersWithVotes",
									"type": "bool"
								},
								{
									"internalType": "bool",
									"name": "noNewTiersWithOwnerMinting",
									"type": "bool"
								},
								{
									"internalType": "bool",
									"name": "preventOverspending",
									"type": "bool"
								}
							],
							"internalType": "struct JB721TiersHookFlags",
							"name": "flags",
							"type": "tuple"
						}
					],
					"internalType": "struct JBDeploy721TiersHookConfig",
					"name": "deployTiersHookConfig",
					"type": "tuple"
				},
				{
					"components": [
						{
							"internalType": "uint56",
							"name": "projectId",
							"type": "uint56"
						},
						{
							"components": [
								{
									"internalType": "uint48",
									"name": "mustStartAtOrAfter",
									"type": "uint48"
								},
								{
									"internalType": "uint32",
									"name": "duration",
									"type": "uint32"
								},
								{
									"internalType": "uint112",
									"name": "weight",
									"type": "uint112"
								},
								{
									"internalType": "uint32",
									"name": "weightCutPercent",
									"type": "uint32"
								},
								{
									"internalType": "contract IJBRulesetApprovalHook",
									"name": "approvalHook",
									"type": "address"
								},
								{
									"components": [
										{
											"internalType": "uint16",
											"name": "reservedPercent",
											"type": "uint16"
										},
										{
											"internalType": "uint16",
											"name": "cashOutTaxRate",
											"type": "uint16"
										},
										{
											"internalType": "uint32",
											"name": "baseCurrency",
											"type": "uint32"
										},
										{
											"internalType": "bool",
											"name": "pausePay",
											"type": "bool"
										},
										{
											"internalType": "bool",
											"name": "pauseCreditTransfers",
											"type": "bool"
										},
										{
											"internalType": "bool",
											"name": "allowOwnerMinting",
											"type": "bool"
										},
										{
											"internalType": "bool",
											"name": "allowTerminalMigration",
											"type": "bool"
										},
										{
											"internalType": "bool",
											"name": "allowSetTerminals",
											"type": "bool"
										},
										{
											"internalType": "bool",
											"name": "allowSetController",
											"type": "bool"
										},
										{
											"internalType": "bool",
											"name": "allowAddAccountingContext",
											"type": "bool"
										},
										{
											"internalType": "bool",
											"name": "allowAddPriceFeed",
											"type": "bool"
										},
										{
											"internalType": "bool",
											"name": "ownerMustSendPayouts",
											"type": "bool"
										},
										{
											"internalType": "bool",
											"name": "holdFees",
											"type": "bool"
										},
										{
											"internalType": "bool",
											"name": "useTotalSurplusForCashOuts",
											"type": "bool"
										},
										{
											"internalType": "bool",
											"name": "useDataHookForCashOut",
											"type": "bool"
										},
										{
											"internalType": "uint16",
											"name": "metadata",
											"type": "uint16"
										}
									],
									"internalType": "struct JBPayDataHookRulesetMetadata",
									"name": "metadata",
									"type": "tuple"
								},
								{
									"components": [
										{
											"internalType": "uint256",
											"name": "groupId",
											"type": "uint256"
										},
										{
											"components": [
												{
													"internalType": "uint32",
													"name": "percent",
													"type": "uint32"
												},
												{
													"internalType": "uint64",
													"name": "projectId",
													"type": "uint64"
												},
												{
													"internalType": "address payable",
													"name": "beneficiary",
													"type": "address"
												},
												{
													"internalType": "bool",
													"name": "preferAddToBalance",
													"type": "bool"
												},
												{
													"internalType": "uint48",
													"name": "lockedUntil",
													"type": "uint48"
												},
												{
													"internalType": "contract IJBSplitHook",
													"name": "hook",
													"type": "address"
												}
											],
											"internalType": "struct JBSplit[]",
											"name": "splits",
											"type": "tuple[]"
										}
									],
									"internalType": "struct JBSplitGroup[]",
									"name": "splitGroups",
									"type": "tuple[]"
								},
								{
									"components": [
										{
											"internalType": "address",
											"name": "terminal",
											"type": "address"
										},
										{
											"internalType": "address",
											"name": "token",
											"type": "address"
										},
										{
											"components": [
												{
													"internalType": "uint224",
													"name": "amount",
													"type": "uint224"
												},
												{
													"internalType": "uint32",
													"name": "currency",
													"type": "uint32"
												}
											],
											"internalType": "struct JBCurrencyAmount[]",
											"name": "payoutLimits",
											"type": "tuple[]"
										},
										{
											"components": [
												{
													"internalType": "uint224",
													"name": "amount",
													"type": "uint224"
												},
												{
													"internalType": "uint32",
													"name": "currency",
													"type": "uint32"
												}
											],
											"internalType": "struct JBCurrencyAmount[]",
											"name": "surplusAllowances",
											"type": "tuple[]"
										}
									],
									"internalType": "struct JBFundAccessLimitGroup[]",
									"name": "fundAccessLimitGroups",
									"type": "tuple[]"
								}
							],
							"internalType": "struct JBPayDataHookRulesetConfig[]",
							"name": "rulesetConfigurations",
							"type": "tuple[]"
						},
						{
							"components": [
								{
									"internalType": "contract IJBTerminal",
									"name": "terminal",
									"type": "address"
								},
								{
									"components": [
										{
											"internalType": "address",
											"name": "token",
											"type": "address"
										},
										{
											"internalType": "uint8",
											"name": "decimals",
											"type": "uint8"
										},
										{
											"internalType": "uint32",
											"name": "currency",
											"type": "uint32"
										}
									],
									"internalType": "struct JBAccountingContext[]",
									"name": "accountingContextsToAccept",
									"type": "tuple[]"
								}
							],
							"internalType": "struct JBTerminalConfig[]",
							"name": "terminalConfigurations",
							"type": "tuple[]"
						},
						{
							"internalType": "string",
							"name": "memo",
							"type": "string"
						}
					],
					"internalType": "struct JBLaunchRulesetsConfig",
					"name": "launchRulesetsConfig",
					"type": "tuple"
				},
				{
					"internalType": "contract IJBController",
					"name": "controller",
					"type": "address"
				},
				{
					"internalType": "bytes32",
					"name": "salt",
					"type": "bytes32"
				}
			],
			"name": "launchRulesetsFor",
			"outputs": [
				{
					"internalType": "uint256",
					"name": "rulesetId",
					"type": "uint256"
				},
				{
					"internalType": "contract IJB721TiersHook",
					"name": "hook",
					"type": "address"
				}
			],
			"stateMutability": "nonpayable",
			"type": "function"
		},
		{
			"inputs": [
				{
					"internalType": "uint256",
					"name": "projectId",
					"type": "uint256"
				},
				{
					"components": [
						{
							"internalType": "string",
							"name": "name",
							"type": "string"
						},
						{
							"internalType": "string",
							"name": "symbol",
							"type": "string"
						},
						{
							"internalType": "string",
							"name": "baseUri",
							"type": "string"
						},
						{
							"internalType": "contract IJB721TokenUriResolver",
							"name": "tokenUriResolver",
							"type": "address"
						},
						{
							"internalType": "string",
							"name": "contractUri",
							"type": "string"
						},
						{
							"components": [
								{
									"components": [
										{
											"internalType": "uint104",
											"name": "price",
											"type": "uint104"
										},
										{
											"internalType": "uint32",
											"name": "initialSupply",
											"type": "uint32"
										},
										{
											"internalType": "uint32",
											"name": "votingUnits",
											"type": "uint32"
										},
										{
											"internalType": "uint16",
											"name": "reserveFrequency",
											"type": "uint16"
										},
										{
											"internalType": "address",
											"name": "reserveBeneficiary",
											"type": "address"
										},
										{
											"internalType": "bytes32",
											"name": "encodedIPFSUri",
											"type": "bytes32"
										},
										{
											"internalType": "uint24",
											"name": "category",
											"type": "uint24"
										},
										{
											"internalType": "uint8",
											"name": "discountPercent",
											"type": "uint8"
										},
										{
											"internalType": "bool",
											"name": "allowOwnerMint",
											"type": "bool"
										},
										{
											"internalType": "bool",
											"name": "useReserveBeneficiaryAsDefault",
											"type": "bool"
										},
										{
											"internalType": "bool",
											"name": "transfersPausable",
											"type": "bool"
										},
										{
											"internalType": "bool",
											"name": "useVotingUnits",
											"type": "bool"
										},
										{
											"internalType": "bool",
											"name": "cannotBeRemoved",
											"type": "bool"
										},
										{
											"internalType": "bool",
											"name": "cannotIncreaseDiscountPercent",
											"type": "bool"
										}
									],
									"internalType": "struct JB721TierConfig[]",
									"name": "tiers",
									"type": "tuple[]"
								},
								{
									"internalType": "uint32",
									"name": "currency",
									"type": "uint32"
								},
								{
									"internalType": "uint8",
									"name": "decimals",
									"type": "uint8"
								},
								{
									"internalType": "contract IJBPrices",
									"name": "prices",
									"type": "address"
								}
							],
							"internalType": "struct JB721InitTiersConfig",
							"name": "tiersConfig",
							"type": "tuple"
						},
						{
							"internalType": "address",
							"name": "reserveBeneficiary",
							"type": "address"
						},
						{
							"components": [
								{
									"internalType": "bool",
									"name": "noNewTiersWithReserves",
									"type": "bool"
								},
								{
									"internalType": "bool",
									"name": "noNewTiersWithVotes",
									"type": "bool"
								},
								{
									"internalType": "bool",
									"name": "noNewTiersWithOwnerMinting",
									"type": "bool"
								},
								{
									"internalType": "bool",
									"name": "preventOverspending",
									"type": "bool"
								}
							],
							"internalType": "struct JB721TiersHookFlags",
							"name": "flags",
							"type": "tuple"
						}
					],
					"internalType": "struct JBDeploy721TiersHookConfig",
					"name": "deployTiersHookConfig",
					"type": "tuple"
				},
				{
					"components": [
						{
							"internalType": "uint56",
							"name": "projectId",
							"type": "uint56"
						},
						{
							"components": [
								{
									"internalType": "uint48",
									"name": "mustStartAtOrAfter",
									"type": "uint48"
								},
								{
									"internalType": "uint32",
									"name": "duration",
									"type": "uint32"
								},
								{
									"internalType": "uint112",
									"name": "weight",
									"type": "uint112"
								},
								{
									"internalType": "uint32",
									"name": "weightCutPercent",
									"type": "uint32"
								},
								{
									"internalType": "contract IJBRulesetApprovalHook",
									"name": "approvalHook",
									"type": "address"
								},
								{
									"components": [
										{
											"internalType": "uint16",
											"name": "reservedPercent",
											"type": "uint16"
										},
										{
											"internalType": "uint16",
											"name": "cashOutTaxRate",
											"type": "uint16"
										},
										{
											"internalType": "uint32",
											"name": "baseCurrency",
											"type": "uint32"
										},
										{
											"internalType": "bool",
											"name": "pausePay",
											"type": "bool"
										},
										{
											"internalType": "bool",
											"name": "pauseCreditTransfers",
											"type": "bool"
										},
										{
											"internalType": "bool",
											"name": "allowOwnerMinting",
											"type": "bool"
										},
										{
											"internalType": "bool",
											"name": "allowTerminalMigration",
											"type": "bool"
										},
										{
											"internalType": "bool",
											"name": "allowSetTerminals",
											"type": "bool"
										},
										{
											"internalType": "bool",
											"name": "allowSetController",
											"type": "bool"
										},
										{
											"internalType": "bool",
											"name": "allowAddAccountingContext",
											"type": "bool"
										},
										{
											"internalType": "bool",
											"name": "allowAddPriceFeed",
											"type": "bool"
										},
										{
											"internalType": "bool",
											"name": "ownerMustSendPayouts",
											"type": "bool"
										},
										{
											"internalType": "bool",
											"name": "holdFees",
											"type": "bool"
										},
										{
											"internalType": "bool",
											"name": "useTotalSurplusForCashOuts",
											"type": "bool"
										},
										{
											"internalType": "bool",
											"name": "useDataHookForCashOut",
											"type": "bool"
										},
										{
											"internalType": "uint16",
											"name": "metadata",
											"type": "uint16"
										}
									],
									"internalType": "struct JBPayDataHookRulesetMetadata",
									"name": "metadata",
									"type": "tuple"
								},
								{
									"components": [
										{
											"internalType": "uint256",
											"name": "groupId",
											"type": "uint256"
										},
										{
											"components": [
												{
													"internalType": "uint32",
													"name": "percent",
													"type": "uint32"
												},
												{
													"internalType": "uint64",
													"name": "projectId",
													"type": "uint64"
												},
												{
													"internalType": "address payable",
													"name": "beneficiary",
													"type": "address"
												},
												{
													"internalType": "bool",
													"name": "preferAddToBalance",
													"type": "bool"
												},
												{
													"internalType": "uint48",
													"name": "lockedUntil",
													"type": "uint48"
												},
												{
													"internalType": "contract IJBSplitHook",
													"name": "hook",
													"type": "address"
												}
											],
											"internalType": "struct JBSplit[]",
											"name": "splits",
											"type": "tuple[]"
										}
									],
									"internalType": "struct JBSplitGroup[]",
									"name": "splitGroups",
									"type": "tuple[]"
								},
								{
									"components": [
										{
											"internalType": "address",
											"name": "terminal",
											"type": "address"
										},
										{
											"internalType": "address",
											"name": "token",
											"type": "address"
										},
										{
											"components": [
												{
													"internalType": "uint224",
													"name": "amount",
													"type": "uint224"
												},
												{
													"internalType": "uint32",
													"name": "currency",
													"type": "uint32"
												}
											],
											"internalType": "struct JBCurrencyAmount[]",
											"name": "payoutLimits",
											"type": "tuple[]"
										},
										{
											"components": [
												{
													"internalType": "uint224",
													"name": "amount",
													"type": "uint224"
												},
												{
													"internalType": "uint32",
													"name": "currency",
													"type": "uint32"
												}
											],
											"internalType": "struct JBCurrencyAmount[]",
											"name": "surplusAllowances",
											"type": "tuple[]"
										}
									],
									"internalType": "struct JBFundAccessLimitGroup[]",
									"name": "fundAccessLimitGroups",
									"type": "tuple[]"
								}
							],
							"internalType": "struct JBPayDataHookRulesetConfig[]",
							"name": "rulesetConfigurations",
							"type": "tuple[]"
						},
						{
							"internalType": "string",
							"name": "memo",
							"type": "string"
						}
					],
					"internalType": "struct JBQueueRulesetsConfig",
					"name": "queueRulesetsConfig",
					"type": "tuple"
				},
				{
					"internalType": "contract IJBController",
					"name": "controller",
					"type": "address"
				},
				{
					"internalType": "bytes32",
					"name": "salt",
					"type": "bytes32"
				}
			],
			"name": "queueRulesetsOf",
			"outputs": [
				{
					"internalType": "uint256",
					"name": "rulesetId",
					"type": "uint256"
				},
				{
					"internalType": "contract IJB721TiersHook",
					"name": "hook",
					"type": "address"
				}
			],
			"stateMutability": "nonpayable",
			"type": "function"
		},
		{
			"inputs": [],
			"name": "trustedForwarder",
			"outputs": [
				{
					"internalType": "address",
					"name": "",
					"type": "address"
				}
			],
			"stateMutability": "view",
			"type": "function"
		},
		{
			"inputs": [
				{
					"internalType": "address",
					"name": "account",
					"type": "address"
				},
				{
					"internalType": "address",
					"name": "sender",
					"type": "address"
				},
				{
					"internalType": "uint256",
					"name": "projectId",
					"type": "uint256"
				},
				{
					"internalType": "uint256",
					"name": "permissionId",
					"type": "uint256"
				}
			],
			"name": "JBPermissioned_Unauthorized",
			"type": "error"
		}
	],
	"args": [],
	"solcInputHash": "7049ff0cccffb2c4",
	"bytecode": "0x61010060405234801562000011575f80fd5b5060405162002ce938038062002ce9833981016040819052620000349162000070565b6001600160a01b0390811660805291821660a05291811660c0521660e052620000d5565b6001600160a01b03811681146200006d575f80fd5b50565b5f805f806080858703121562000084575f80fd5b8451620000918162000058565b6020860151909450620000a48162000058565b6040860151909350620000b78162000058565b6060860151909250620000ca8162000058565b939692955090935050565b60805160a05160c05160e051612ba2620001475f395f8181610174015281816102e6015281816105a101526107df01525f818161014d015281816101ea0152818161043001526106eb01525f81816101c1015261098b01525f818160990152818161011001526112e20152612ba25ff3fe608060405234801561000f575f80fd5b5060043610610085575f3560e01c8063abf8c5c811610058578063abf8c5c81461016f578063d89acff714610196578063ea38480b146101a9578063f434c914146101bc575f80fd5b8063572b6c05146100895780636386000a146100de5780637da0a8771461010e57806388bc2ef314610148575b5f80fd5b6100c9610097366004611442565b7f00000000000000000000000000000000000000000000000000000000000000006001600160a01b0390811691161490565b60405190151581526020015b60405180910390f35b6100f16100ec36600461147b565b6101e3565b604080519283526001600160a01b039091166020830152016100d5565b7f00000000000000000000000000000000000000000000000000000000000000005b6040516001600160a01b0390911681526020016100d5565b6101307f000000000000000000000000000000000000000000000000000000000000000081565b6101307f000000000000000000000000000000000000000000000000000000000000000081565b6100f16101a4366004611511565b61042b565b6100f16101b7366004611582565b6106e7565b6101307f000000000000000000000000000000000000000000000000000000000000000081565b5f806102dc7f00000000000000000000000000000000000000000000000000000000000000006001600160a01b031663293c49996040518163ffffffff1660e01b8152600401602060405180830381865afa158015610244573d5f803e3d5ffd5b505050506040513d601f19601f8201168201806040525081019061026891906115bd565b6001600160a01b0316636352211e896040518263ffffffff1660e01b815260040161029591815260200190565b602060405180830381865afa1580156102b0573d5f803e3d5ffd5b505050506040513d601f19601f820116820180604052508101906102d491906115bd565b886002610920565b6001600160a01b037f00000000000000000000000000000000000000000000000000000000000000001663ea74b8af888886156103525761031b610a3f565b604080516001600160a01b039092166020830152810188905260600160405160208183030381529060405280519060200120610354565b5f5b6040518463ffffffff1660e01b815260040161037293929190611925565b6020604051808303815f875af115801561038e573d5f803e3d5ffd5b505050506040513d601f19601f820116820180604052508101906103b291906115bd565b6040516351106b4b60e11b8152600481018990529091506001600160a01b0382169063a220d696906024015f604051808303815f87803b1580156103f4575f80fd5b505af1158015610406573d5f803e3d5ffd5b5050505061041f8786610418906121fb565b8387610a4d565b91509550959350505050565b5f805f7f00000000000000000000000000000000000000000000000000000000000000006001600160a01b031663293c49996040518163ffffffff1660e01b8152600401602060405180830381865afa15801561048a573d5f803e3d5ffd5b505050506040513d601f19601f820116820180604052508101906104ae91906115bd565b6040516331a9108f60e11b8152600481018a9052909150610524906001600160a01b03831690636352211e90602401602060405180830381865afa1580156104f8573d5f803e3d5ffd5b505050506040513d601f19601f8201168201806040525081019061051c91906115bd565b896002610920565b6040516331a9108f60e11b815260048101899052610597906001600160a01b03831690636352211e90602401602060405180830381865afa15801561056b573d5f803e3d5ffd5b505050506040513d601f19601f8201168201806040525081019061058f91906115bd565b89600e610920565b6001600160a01b037f00000000000000000000000000000000000000000000000000000000000000001663ea74b8af8989871561060d576105d6610a3f565b604080516001600160a01b03909216602083015281018990526060016040516020818303038152906040528051906020012061060f565b5f5b6040518463ffffffff1660e01b815260040161062d93929190611925565b6020604051808303815f875af1158015610649573d5f803e3d5ffd5b505050506040513d601f19601f8201168201806040525081019061066d91906115bd565b6040516351106b4b60e11b8152600481018a90529092506001600160a01b0383169063a220d696906024015f604051808303815f87803b1580156106af575f80fd5b505af11580156106c1573d5f803e3d5ffd5b505050506106da88876106d3906123cd565b8488610d3a565b9250509550959350505050565b5f807f00000000000000000000000000000000000000000000000000000000000000006001600160a01b031663293c49996040518163ffffffff1660e01b8152600401602060405180830381865afa158015610745573d5f803e3d5ffd5b505050506040513d601f19601f8201168201806040525081019061076991906115bd565b6001600160a01b03166306661abd6040518163ffffffff1660e01b8152600401602060405180830381865afa1580156107a4573d5f803e3d5ffd5b505050506040513d601f19601f820116820180604052508101906107c8919061246b565b6107d3906001612496565b91506001600160a01b037f00000000000000000000000000000000000000000000000000000000000000001663ea74b8af8388861561084b57610814610a3f565b604080516001600160a01b03909216602083015281018890526060016040516020818303038152906040528051906020012061084d565b5f5b6040518463ffffffff1660e01b815260040161086b93929190611925565b6020604051808303815f875af1158015610887573d5f803e3d5ffd5b505050506040513d601f19601f820116820180604052508101906108ab91906115bd565b90506108c1876108ba876124af565b8387610fe2565b6040516351106b4b60e11b8152600481018390526001600160a01b0382169063a220d696906024015f604051808303815f87803b158015610900575f80fd5b505af1158015610912573d5f803e3d5ffd5b505050509550959350505050565b5f610929610a3f565b9050836001600160a01b0316816001600160a01b0316141580156109f65750604051631a45b42760e11b81526001600160a01b0382811660048301528581166024830152604482018590526064820184905260016084830181905260a48301527f0000000000000000000000000000000000000000000000000000000000000000169063348b684e9060c401602060405180830381865afa1580156109d0573d5f803e3d5ffd5b505050506040513d601f19601f820116820180604052508101906109f491906124ff565b155b15610a3957604051631326f75560e11b81526001600160a01b03808616600483015282166024820152604481018490526064810183905260840160405180910390fd5b50505050565b5f610a486112d3565b905090565b5f8084602001515167ffffffffffffffff811115610a6d57610a6d611a4e565b604051908082528060200260200182016040528015610aa657816020015b610a93611346565b815260200190600190039081610a8b5790505b5090505f5b856020015151811015610cbb575f86602001518281518110610acf57610acf61251a565b60200260200101519050604051806101000160405280825f015165ffffffffffff168152602001826020015163ffffffff16815260200182604001516dffffffffffffffffffffffffffff168152602001826060015163ffffffff16815260200182608001516001600160a01b031681526020016040518061026001604052808460a001515f015161ffff1681526020018460a001516020015161ffff1681526020018460a001516040015163ffffffff1681526020018460a0015160600151151581526020018460a0015160800151151581526020018460a0015160a00151151581526020015f151581526020018460a0015160c00151151581526020018460a0015160e00151151581526020018460a001516101000151151581526020018460a001516101200151151581526020018460a001516101400151151581526020018460a001516101600151151581526020018460a001516101800151151581526020018460a001516101a00151151581526020016001151581526020018460a001516101c0015115158152602001896001600160a01b031681526020018460a001516101e0015161ffff1681525081526020018260c0015181526020018260e00151815250838381518110610ca757610ca761251a565b602090810291909101015250600101610aab565b5060408086015190516303141db760e41b81526001600160a01b03851691633141db7091610cf0918a91869190600401612972565b6020604051808303815f875af1158015610d0c573d5f803e3d5ffd5b505050506040513d601f19601f82011682018060405250810190610d30919061246b565b9695505050505050565b5f8084602001515167ffffffffffffffff811115610d5a57610d5a611a4e565b604051908082528060200260200182016040528015610d9357816020015b610d80611346565b815260200190600190039081610d785790505b5090505f5b856020015151811015610fa8575f86602001518281518110610dbc57610dbc61251a565b60200260200101519050604051806101000160405280825f015165ffffffffffff168152602001826020015163ffffffff16815260200182604001516dffffffffffffffffffffffffffff168152602001826060015163ffffffff16815260200182608001516001600160a01b031681526020016040518061026001604052808460a001515f015161ffff1681526020018460a001516020015161ffff1681526020018460a001516040015163ffffffff1681526020018460a0015160600151151581526020018460a0015160800151151581526020018460a0015160a00151151581526020015f151581526020018460a0015160c00151151581526020018460a0015160e00151151581526020018460a001516101000151151581526020018460a001516101200151151581526020018460a001516101400151151581526020018460a001516101600151151581526020018460a001516101800151151581526020018460a001516101a00151151581526020016001151581526020018460a001516101c0015115158152602001896001600160a01b031681526020018460a001516101e0015161ffff1681525081526020018260c0015181526020018260e00151815250838381518110610f9457610f9461251a565b602090810291909101015250600101610d98565b50604080860151606087015191516339284f3560e01b81526001600160a01b038616926339284f3592610cf0928b92879291600401612a4d565b5f83602001515167ffffffffffffffff81111561100157611001611a4e565b60405190808252806020026020018201604052801561103a57816020015b611027611346565b81526020019060019003908161101f5790505b5090505f5b84602001515181101561124f575f856020015182815181106110635761106361251a565b60200260200101519050604051806101000160405280825f015165ffffffffffff168152602001826020015163ffffffff16815260200182604001516dffffffffffffffffffffffffffff168152602001826060015163ffffffff16815260200182608001516001600160a01b031681526020016040518061026001604052808460a001515f015161ffff1681526020018460a001516020015161ffff1681526020018460a001516040015163ffffffff1681526020018460a0015160600151151581526020018460a0015160800151151581526020018460a0015160a00151151581526020015f151581526020018460a0015160c00151151581526020018460a0015160e00151151581526020018460a001516101000151151581526020018460a001516101200151151581526020018460a001516101400151151581526020018460a001516101600151151581526020018460a001516101800151151581526020018460a001516101a00151151581526020016001151581526020018460a001516101c0015115158152602001886001600160a01b031681526020018460a001516101e0015161ffff1681525081526020018260c0015181526020018260e0015181525083838151811061123b5761123b61251a565b60209081029190910101525060010161103f565b50835160408086015160608701519151635c7465e560e01b81526001600160a01b03861693635c7465e59361128b938b93889290600401612a96565b6020604051808303815f875af11580156112a7573d5f803e3d5ffd5b505050506040513d601f19601f820116820180604052508101906112cb919061246b565b505050505050565b5f366014336001600160a01b037f00000000000000000000000000000000000000000000000000000000000000001614801561130f5750808210155b1561133e575f366113208385612afd565b61132b928290612b10565b61133491612b37565b60601c9250505090565b339250505090565b6040805161010080820183525f808352602080840182905283850182905260608085018390526080808601849052865161026081018852848152928301849052958201839052810182905293840181905260a084810182905260c0850182905260e0850182905291840181905261012084018190526101408401819052610160840181905261018084018190526101a084018190526101c084018190526101e0840181905261020084018190526102208401819052610240840152909190820190815260200160608152602001606081525090565b6001600160a01b038116811461142f575f80fd5b50565b803561143d8161141b565b919050565b5f60208284031215611452575f80fd5b813561145d8161141b565b9392505050565b5f6101608284031215611475575f80fd5b50919050565b5f805f805f60a0868803121561148f575f80fd5b85359450602086013567ffffffffffffffff808211156114ad575f80fd5b6114b989838a01611464565b955060408801359150808211156114ce575f80fd5b508601606081890312156114e0575f80fd5b925060608601356114f08161141b565b949793965091946080013592915050565b5f60808284031215611475575f80fd5b5f805f805f60a08688031215611525575f80fd5b85359450602086013567ffffffffffffffff80821115611543575f80fd5b61154f89838a01611464565b95506040880135915080821115611564575f80fd5b5061157188828901611501565b93505060608601356114f08161141b565b5f805f805f60a08688031215611596575f80fd5b85356115a18161141b565b9450602086013567ffffffffffffffff80821115611543575f80fd5b5f602082840312156115cd575f80fd5b815161145d8161141b565b5f808335601e198436030181126115ed575f80fd5b830160208101925035905067ffffffffffffffff81111561160c575f80fd5b80360382131561161a575f80fd5b9250929050565b81835281816020850137505f828201602090810191909152601f909101601f19169091010190565b5f8235607e1983360301811261165d575f80fd5b90910192915050565b80356cffffffffffffffffffffffffff8116811461143d575f80fd5b803563ffffffff8116811461143d575f80fd5b803561ffff8116811461143d575f80fd5b803562ffffff8116811461143d575f80fd5b803560ff8116811461143d575f80fd5b801515811461142f575f80fd5b803561143d816116c8565b5f60808084018335601e198536030181126116f9575f80fd5b8401602081810191359067ffffffffffffffff821115611717575f80fd5b6101c0808302360384131561172a575f80fd5b608089529382905260a0938489015f5b84811015611875576117628261174f88611666565b6cffffffffffffffffffffffffff169052565b61176d848701611682565b63ffffffff16848301526040611784878201611682565b63ffffffff1690830152606061179b878201611695565b61ffff16908301526117ae868901611432565b6001600160a01b031688830152858701358783015260c06117d08188016116a6565b62ffffff169083015260e06117e68782016116b8565b60ff16908301526101006117fb8782016116d5565b15159083015261012061180f8782016116d5565b1515908301526101406118238782016116d5565b1515908301526101606118378782016116d5565b15159083015261018061184b8782016116d5565b1515908301526101a061185f8782016116d5565b151590830152948201949082019060010161173a565b5061188260208a01611682565b63ffffffff811660208c0152965061189c60408a016116b8565b60ff811660408c015296506118b360608a01611432565b6001600160a01b03811660608c015296509998505050505050505050565b80356118dc816116c8565b1515825260208101356118ee816116c8565b151560208301526040810135611903816116c8565b151560408301526060810135611918816116c8565b8015156060840152505050565b838152606060208201525f61193a84856115d8565b61016060608501526119516101c085018284611621565b91505061196160208601866115d8565b605f1980868503016080870152611979848385611621565b935061198860408901896115d8565b93509150808685030160a08701526119a1848484611621565b93506119af60608901611432565b6001600160a01b03811660c088015292506119cd60808901896115d8565b93509150808685030160e08701526119e6848484611621565b93506119f560a0890189611649565b925080868503016101008701525050611a0e82826116e0565b915050611a1d60c08601611432565b6001600160a01b0316610120840152611a3d610140840160e087016118d1565b604092909201929092529392505050565b634e487b7160e01b5f52604160045260245ffd5b604051610200810167ffffffffffffffff81118282101715611a8657611a86611a4e565b60405290565b6040805190810167ffffffffffffffff81118282101715611a8657611a86611a4e565b60405160c0810167ffffffffffffffff81118282101715611a8657611a86611a4e565b6040516080810167ffffffffffffffff81118282101715611a8657611a86611a4e565b604051610100810167ffffffffffffffff81118282101715611a8657611a86611a4e565b6040516060810167ffffffffffffffff81118282101715611a8657611a86611a4e565b604051601f8201601f1916810167ffffffffffffffff81118282101715611b6557611b65611a4e565b604052919050565b803566ffffffffffffff8116811461143d575f80fd5b5f67ffffffffffffffff821115611b9c57611b9c611a4e565b5060051b60200190565b803565ffffffffffff8116811461143d575f80fd5b80356dffffffffffffffffffffffffffff8116811461143d575f80fd5b5f6102008284031215611be9575f80fd5b611bf1611a62565b9050611bfc82611695565b8152611c0a60208301611695565b6020820152611c1b60408301611682565b6040820152611c2c606083016116d5565b6060820152611c3d608083016116d5565b6080820152611c4e60a083016116d5565b60a0820152611c5f60c083016116d5565b60c0820152611c7060e083016116d5565b60e0820152610100611c838184016116d5565b90820152610120611c958382016116d5565b90820152610140611ca78382016116d5565b90820152610160611cb98382016116d5565b90820152610180611ccb8382016116d5565b908201526101a0611cdd8382016116d5565b908201526101c0611cef8382016116d5565b908201526101e0611d01838201611695565b9082015292915050565b5f82601f830112611d1a575f80fd5b81356020611d2f611d2a83611b83565b611b3c565b82815260059290921b84018101918181019086841115611d4d575f80fd5b8286015b84811015611e9c5767ffffffffffffffff8082351115611d6f575f80fd5b813588016040818b03601f19011215611d86575f80fd5b611d8e611a8c565b868201358152604082013583811115611da5575f80fd5b8083019250508a603f830112611db9575f80fd5b86820135611dc9611d2a82611b83565b81815260c0909102830160400190888101908d831115611de7575f80fd5b6040850194505b82851015611e875760c0858f031215611e05575f80fd5b611e0d611aaf565b611e1686611682565b81528a8601358781168114611e29575f80fd5b818c01526040860135611e3b8161141b565b60408201526060860135611e4e816116c8565b6060820152611e5f60808701611ba6565b6080820152611e7060a08701611432565b60a0820152825260c0949094019390890190611dee565b838a0152505085525050918301918301611d51565b509695505050505050565b5f82601f830112611eb6575f80fd5b81356020611ec6611d2a83611b83565b82815260069290921b84018101918181019086841115611ee4575f80fd5b8286015b84811015611e9c5760408189031215611eff575f80fd5b611f07611a8c565b81357bffffffffffffffffffffffffffffffffffffffffffffffffffffffff81168114611f32575f80fd5b8152611f3f828601611682565b81860152835291830191604001611ee8565b5f82601f830112611f60575f80fd5b81356020611f70611d2a83611b83565b82815260059290921b84018101918181019086841115611f8e575f80fd5b8286015b84811015611e9c57803567ffffffffffffffff80821115611fb1575f80fd5b908801906080828b03601f1901811315611fc9575f80fd5b611fd1611ad2565b87840135611fde8161141b565b8152604084810135611fef8161141b565b828a015260608581013585811115612005575f80fd5b6120138f8c838a0101611ea7565b8484015250928501359284841115612029575f80fd5b6120378e8b86890101611ea7565b90830152508652505050918301918301611f92565b5f82601f83011261205b575f80fd5b8135602061206b611d2a83611b83565b82815260059290921b84018101918181019086841115612089575f80fd5b8286015b84811015611e9c57803567ffffffffffffffff808211156120ac575f80fd5b908801906102e0828b03601f19018113156120c5575f80fd5b6120cd611af5565b6120d8888501611ba6565b815260406120e7818601611682565b8983015260606120f8818701611bbb565b828401526080915061210b828701611682565b9083015260a061211c868201611432565b8284015260c091506121308e838801611bd8565b908301526102c085013584811115612146575f80fd5b6121548e8b83890101611d0b565b8284015250508184013591508282111561216c575f80fd5b61217a8c8984870101611f51565b60e0820152865250505091830191830161208d565b5f82601f83011261219e575f80fd5b813567ffffffffffffffff8111156121b8576121b8611a4e565b6121cb601f8201601f1916602001611b3c565b8181528460208386010111156121df575f80fd5b816020850160208301375f918101602001919091529392505050565b5f6060823603121561220b575f80fd5b612213611b19565b61221c83611b6d565b8152602083013567ffffffffffffffff80821115612238575f80fd5b6122443683870161204c565b6020840152604085013591508082111561225c575f80fd5b506122693682860161218f565b60408301525092915050565b5f82601f830112612284575f80fd5b81356020612294611d2a83611b83565b82815260059290921b840181019181810190868411156122b2575f80fd5b8286015b84811015611e9c57803567ffffffffffffffff808211156122d5575f80fd5b908801906040828b03601f19018113156122ed575f80fd5b6122f5611a8c565b878401356123028161141b565b81528382013583811115612314575f80fd5b8085019450508b603f850112612328575f80fd5b87840135925061233a611d2a84611b83565b83815260609093028401820192888101908d851115612357575f80fd5b948301945b848610156123b8576060868f031215612373575f80fd5b61237b611b19565b86356123868161141b565b8152612393878c016116b8565b8b8201526123a2858801611682565b818601528252606095909501949089019061235c565b828a01525086525050509183019183016122b6565b5f608082360312156123dd575f80fd5b6123e5611ad2565b6123ee83611b6d565b8152602083013567ffffffffffffffff8082111561240a575f80fd5b6124163683870161204c565b6020840152604085013591508082111561242e575f80fd5b61243a36838701612275565b60408401526060850135915080821115612452575f80fd5b5061245f3682860161218f565b60608301525092915050565b5f6020828403121561247b575f80fd5b5051919050565b634e487b7160e01b5f52601160045260245ffd5b808201808211156124a9576124a9612482565b92915050565b5f608082360312156124bf575f80fd5b6124c7611ad2565b823567ffffffffffffffff808211156124de575f80fd5b6124ea3683870161218f565b8352602085013591508082111561240a575f80fd5b5f6020828403121561250f575f80fd5b815161145d816116c8565b634e487b7160e01b5f52603260045260245ffd5b805161ffff168252602081015161254b602084018261ffff169052565b506040810151612563604084018263ffffffff169052565b506060810151612577606084018215159052565b50608081015161258b608084018215159052565b5060a081015161259f60a084018215159052565b5060c08101516125b360c084018215159052565b5060e08101516125c760e084018215159052565b5061010081810151151590830152610120808201511515908301526101408082015115159083015261016080820151151590830152610180808201511515908301526101a0808201511515908301526101c0808201511515908301526101e08082015115159083015261020080820151151590830152610220808201516001600160a01b0316908301526102408082015161ffff811682850152610a39565b5f82825180855260208086019550808260051b8401018186015f5b8481101561274157858303601f190189528151805184528401516040858501819052815181860181905291860191606090818701905f5b8181101561272a578551805163ffffffff1684528a81015167ffffffffffffffff168b850152858101516001600160a01b03908116878601528582015115158686015260808083015165ffffffffffff169086015260a09182015116908401529489019460c0909201916001016126b8565b50509b87019b955050509184019150600101612681565b5090979650505050505050565b5f815180845260208085019450602084015f5b838110156127ac57815180517bffffffffffffffffffffffffffffffffffffffffffffffffffffffff16885283015163ffffffff168388015260409096019590820190600101612761565b509495945050505050565b5f82825180855260208086019550808260051b8401018186015f5b8481101561274157601f19868403018952815160806001600160a01b03808351168652808784015116878701525060408083015182828801526128178388018261274e565b9250505060608083015192508582038187015250612835818361274e565b9a86019a94505050908301906001016127d2565b5f82825180855260208086019550808260051b8401018186015f5b8481101561274157601f198684030189528151805165ffffffffffff1684528481015163ffffffff908116868601526040808301516dffffffffffffffffffffffffffff1690860152606080830151909116908501526080808201516001600160a01b03169085015260a08082015161034091906128e48288018261252e565b505060c0820151816103008701526128fe82870182612666565b91505060e0820151915084810361032086015261291b81836127b7565b9a86019a9450505090830190600101612864565b5f81518084525f5b8181101561295357602081850181015186830182015201612937565b505f602082860101526020601f19601f83011685010191505092915050565b838152606060208201525f61298a6060830185612849565b8281036040840152610d30818561292f565b5f82825180855260208086019550808260051b8401018186015f5b8481101561274157858303601f19018952815180516001600160a01b039081168552908501516040868601819052815181870181905291870192909160609190828801905f5b81811015612a355786518051851684528b81015160ff168c85015286015163ffffffff1686840152958a0195918401916001016129fd565b50509c88019c965050509285019250506001016129b7565b848152608060208201525f612a656080830186612849565b8281036040840152612a77818661299c565b90508281036060840152612a8b818561292f565b979650505050505050565b6001600160a01b038616815260a060208201525f612ab760a083018761292f565b8281036040840152612ac98187612849565b90508281036060840152612add818661299c565b90508281036080840152612af1818561292f565b98975050505050505050565b818103818111156124a9576124a9612482565b5f8085851115612b1e575f80fd5b83861115612b2a575f80fd5b5050820193919092039150565b6bffffffffffffffffffffffff198135818116916014851015612b645780818660140360031b1b83161692505b50509291505056fea26469706673582212200f3c7d6d12656f095f1ab689d000841814ca92e368c555cc1a1cd0510b56c4b564736f6c63430008170033",
	"deployedBytecode": "0x608060405234801561000f575f80fd5b5060043610610085575f3560e01c8063abf8c5c811610058578063abf8c5c81461016f578063d89acff714610196578063ea38480b146101a9578063f434c914146101bc575f80fd5b8063572b6c05146100895780636386000a146100de5780637da0a8771461010e57806388bc2ef314610148575b5f80fd5b6100c9610097366004611442565b7f000000000000000000000000c29d6995ab3b0df4650ad643adeac55e7acbb5666001600160a01b0390811691161490565b60405190151581526020015b60405180910390f35b6100f16100ec36600461147b565b6101e3565b604080519283526001600160a01b039091166020830152016100d5565b7f000000000000000000000000c29d6995ab3b0df4650ad643adeac55e7acbb5665b6040516001600160a01b0390911681526020016100d5565b6101307f0000000000000000000000000061e516886a0540f63157f112c0588ee0651dcf81565b6101307f000000000000000000000000792bdd4dd1e52fcf8fb3e80278a2b4e4396d273281565b6100f16101a4366004611511565b61042b565b6100f16101b7366004611582565b6106e7565b6101307f00000000000000000000000004fd6913d6c32d8c216e153a43c04b1857a7793d81565b5f806102dc7f0000000000000000000000000061e516886a0540f63157f112c0588ee0651dcf6001600160a01b031663293c49996040518163ffffffff1660e01b8152600401602060405180830381865afa158015610244573d5f803e3d5ffd5b505050506040513d601f19601f8201168201806040525081019061026891906115bd565b6001600160a01b0316636352211e896040518263ffffffff1660e01b815260040161029591815260200190565b602060405180830381865afa1580156102b0573d5f803e3d5ffd5b505050506040513d601f19601f820116820180604052508101906102d491906115bd565b886002610920565b6001600160a01b037f000000000000000000000000792bdd4dd1e52fcf8fb3e80278a2b4e4396d27321663ea74b8af888886156103525761031b610a3f565b604080516001600160a01b039092166020830152810188905260600160405160208183030381529060405280519060200120610354565b5f5b6040518463ffffffff1660e01b815260040161037293929190611925565b6020604051808303815f875af115801561038e573d5f803e3d5ffd5b505050506040513d601f19601f820116820180604052508101906103b291906115bd565b6040516351106b4b60e11b8152600481018990529091506001600160a01b0382169063a220d696906024015f604051808303815f87803b1580156103f4575f80fd5b505af1158015610406573d5f803e3d5ffd5b5050505061041f8786610418906121fb565b8387610a4d565b91509550959350505050565b5f805f7f0000000000000000000000000061e516886a0540f63157f112c0588ee0651dcf6001600160a01b031663293c49996040518163ffffffff1660e01b8152600401602060405180830381865afa15801561048a573d5f803e3d5ffd5b505050506040513d601f19601f820116820180604052508101906104ae91906115bd565b6040516331a9108f60e11b8152600481018a9052909150610524906001600160a01b03831690636352211e90602401602060405180830381865afa1580156104f8573d5f803e3d5ffd5b505050506040513d601f19601f8201168201806040525081019061051c91906115bd565b896002610920565b6040516331a9108f60e11b815260048101899052610597906001600160a01b03831690636352211e90602401602060405180830381865afa15801561056b573d5f803e3d5ffd5b505050506040513d601f19601f8201168201806040525081019061058f91906115bd565b89600e610920565b6001600160a01b037f000000000000000000000000792bdd4dd1e52fcf8fb3e80278a2b4e4396d27321663ea74b8af8989871561060d576105d6610a3f565b604080516001600160a01b03909216602083015281018990526060016040516020818303038152906040528051906020012061060f565b5f5b6040518463ffffffff1660e01b815260040161062d93929190611925565b6020604051808303815f875af1158015610649573d5f803e3d5ffd5b505050506040513d601f19601f8201168201806040525081019061066d91906115bd565b6040516351106b4b60e11b8152600481018a90529092506001600160a01b0383169063a220d696906024015f604051808303815f87803b1580156106af575f80fd5b505af11580156106c1573d5f803e3d5ffd5b505050506106da88876106d3906123cd565b8488610d3a565b9250509550959350505050565b5f807f0000000000000000000000000061e516886a0540f63157f112c0588ee0651dcf6001600160a01b031663293c49996040518163ffffffff1660e01b8152600401602060405180830381865afa158015610745573d5f803e3d5ffd5b505050506040513d601f19601f8201168201806040525081019061076991906115bd565b6001600160a01b03166306661abd6040518163ffffffff1660e01b8152600401602060405180830381865afa1580156107a4573d5f803e3d5ffd5b505050506040513d601f19601f820116820180604052508101906107c8919061246b565b6107d3906001612496565b91506001600160a01b037f000000000000000000000000792bdd4dd1e52fcf8fb3e80278a2b4e4396d27321663ea74b8af8388861561084b57610814610a3f565b604080516001600160a01b03909216602083015281018890526060016040516020818303038152906040528051906020012061084d565b5f5b6040518463ffffffff1660e01b815260040161086b93929190611925565b6020604051808303815f875af1158015610887573d5f803e3d5ffd5b505050506040513d601f19601f820116820180604052508101906108ab91906115bd565b90506108c1876108ba876124af565b8387610fe2565b6040516351106b4b60e11b8152600481018390526001600160a01b0382169063a220d696906024015f604051808303815f87803b158015610900575f80fd5b505af1158015610912573d5f803e3d5ffd5b505050509550959350505050565b5f610929610a3f565b9050836001600160a01b0316816001600160a01b0316141580156109f65750604051631a45b42760e11b81526001600160a01b0382811660048301528581166024830152604482018590526064820184905260016084830181905260a48301527f00000000000000000000000004fd6913d6c32d8c216e153a43c04b1857a7793d169063348b684e9060c401602060405180830381865afa1580156109d0573d5f803e3d5ffd5b505050506040513d601f19601f820116820180604052508101906109f491906124ff565b155b15610a3957604051631326f75560e11b81526001600160a01b03808616600483015282166024820152604481018490526064810183905260840160405180910390fd5b50505050565b5f610a486112d3565b905090565b5f8084602001515167ffffffffffffffff811115610a6d57610a6d611a4e565b604051908082528060200260200182016040528015610aa657816020015b610a93611346565b815260200190600190039081610a8b5790505b5090505f5b856020015151811015610cbb575f86602001518281518110610acf57610acf61251a565b60200260200101519050604051806101000160405280825f015165ffffffffffff168152602001826020015163ffffffff16815260200182604001516dffffffffffffffffffffffffffff168152602001826060015163ffffffff16815260200182608001516001600160a01b031681526020016040518061026001604052808460a001515f015161ffff1681526020018460a001516020015161ffff1681526020018460a001516040015163ffffffff1681526020018460a0015160600151151581526020018460a0015160800151151581526020018460a0015160a00151151581526020015f151581526020018460a0015160c00151151581526020018460a0015160e00151151581526020018460a001516101000151151581526020018460a001516101200151151581526020018460a001516101400151151581526020018460a001516101600151151581526020018460a001516101800151151581526020018460a001516101a00151151581526020016001151581526020018460a001516101c0015115158152602001896001600160a01b031681526020018460a001516101e0015161ffff1681525081526020018260c0015181526020018260e00151815250838381518110610ca757610ca761251a565b602090810291909101015250600101610aab565b5060408086015190516303141db760e41b81526001600160a01b03851691633141db7091610cf0918a91869190600401612972565b6020604051808303815f875af1158015610d0c573d5f803e3d5ffd5b505050506040513d601f19601f82011682018060405250810190610d30919061246b565b9695505050505050565b5f8084602001515167ffffffffffffffff811115610d5a57610d5a611a4e565b604051908082528060200260200182016040528015610d9357816020015b610d80611346565b815260200190600190039081610d785790505b5090505f5b856020015151811015610fa8575f86602001518281518110610dbc57610dbc61251a565b60200260200101519050604051806101000160405280825f015165ffffffffffff168152602001826020015163ffffffff16815260200182604001516dffffffffffffffffffffffffffff168152602001826060015163ffffffff16815260200182608001516001600160a01b031681526020016040518061026001604052808460a001515f015161ffff1681526020018460a001516020015161ffff1681526020018460a001516040015163ffffffff1681526020018460a0015160600151151581526020018460a0015160800151151581526020018460a0015160a00151151581526020015f151581526020018460a0015160c00151151581526020018460a0015160e00151151581526020018460a001516101000151151581526020018460a001516101200151151581526020018460a001516101400151151581526020018460a001516101600151151581526020018460a001516101800151151581526020018460a001516101a00151151581526020016001151581526020018460a001516101c0015115158152602001896001600160a01b031681526020018460a001516101e0015161ffff1681525081526020018260c0015181526020018260e00151815250838381518110610f9457610f9461251a565b602090810291909101015250600101610d98565b50604080860151606087015191516339284f3560e01b81526001600160a01b038616926339284f3592610cf0928b92879291600401612a4d565b5f83602001515167ffffffffffffffff81111561100157611001611a4e565b60405190808252806020026020018201604052801561103a57816020015b611027611346565b81526020019060019003908161101f5790505b5090505f5b84602001515181101561124f575f856020015182815181106110635761106361251a565b60200260200101519050604051806101000160405280825f015165ffffffffffff168152602001826020015163ffffffff16815260200182604001516dffffffffffffffffffffffffffff168152602001826060015163ffffffff16815260200182608001516001600160a01b031681526020016040518061026001604052808460a001515f015161ffff1681526020018460a001516020015161ffff1681526020018460a001516040015163ffffffff1681526020018460a0015160600151151581526020018460a0015160800151151581526020018460a0015160a00151151581526020015f151581526020018460a0015160c00151151581526020018460a0015160e00151151581526020018460a001516101000151151581526020018460a001516101200151151581526020018460a001516101400151151581526020018460a001516101600151151581526020018460a001516101800151151581526020018460a001516101a00151151581526020016001151581526020018460a001516101c0015115158152602001886001600160a01b031681526020018460a001516101e0015161ffff1681525081526020018260c0015181526020018260e0015181525083838151811061123b5761123b61251a565b60209081029190910101525060010161103f565b50835160408086015160608701519151635c7465e560e01b81526001600160a01b03861693635c7465e59361128b938b93889290600401612a96565b6020604051808303815f875af11580156112a7573d5f803e3d5ffd5b505050506040513d601f19601f820116820180604052508101906112cb919061246b565b505050505050565b5f366014336001600160a01b037f000000000000000000000000c29d6995ab3b0df4650ad643adeac55e7acbb5661614801561130f5750808210155b1561133e575f366113208385612afd565b61132b928290612b10565b61133491612b37565b60601c9250505090565b339250505090565b6040805161010080820183525f808352602080840182905283850182905260608085018390526080808601849052865161026081018852848152928301849052958201839052810182905293840181905260a084810182905260c0850182905260e0850182905291840181905261012084018190526101408401819052610160840181905261018084018190526101a084018190526101c084018190526101e0840181905261020084018190526102208401819052610240840152909190820190815260200160608152602001606081525090565b6001600160a01b038116811461142f575f80fd5b50565b803561143d8161141b565b919050565b5f60208284031215611452575f80fd5b813561145d8161141b565b9392505050565b5f6101608284031215611475575f80fd5b50919050565b5f805f805f60a0868803121561148f575f80fd5b85359450602086013567ffffffffffffffff808211156114ad575f80fd5b6114b989838a01611464565b955060408801359150808211156114ce575f80fd5b508601606081890312156114e0575f80fd5b925060608601356114f08161141b565b949793965091946080013592915050565b5f60808284031215611475575f80fd5b5f805f805f60a08688031215611525575f80fd5b85359450602086013567ffffffffffffffff80821115611543575f80fd5b61154f89838a01611464565b95506040880135915080821115611564575f80fd5b5061157188828901611501565b93505060608601356114f08161141b565b5f805f805f60a08688031215611596575f80fd5b85356115a18161141b565b9450602086013567ffffffffffffffff80821115611543575f80fd5b5f602082840312156115cd575f80fd5b815161145d8161141b565b5f808335601e198436030181126115ed575f80fd5b830160208101925035905067ffffffffffffffff81111561160c575f80fd5b80360382131561161a575f80fd5b9250929050565b81835281816020850137505f828201602090810191909152601f909101601f19169091010190565b5f8235607e1983360301811261165d575f80fd5b90910192915050565b80356cffffffffffffffffffffffffff8116811461143d575f80fd5b803563ffffffff8116811461143d575f80fd5b803561ffff8116811461143d575f80fd5b803562ffffff8116811461143d575f80fd5b803560ff8116811461143d575f80fd5b801515811461142f575f80fd5b803561143d816116c8565b5f60808084018335601e198536030181126116f9575f80fd5b8401602081810191359067ffffffffffffffff821115611717575f80fd5b6101c0808302360384131561172a575f80fd5b608089529382905260a0938489015f5b84811015611875576117628261174f88611666565b6cffffffffffffffffffffffffff169052565b61176d848701611682565b63ffffffff16848301526040611784878201611682565b63ffffffff1690830152606061179b878201611695565b61ffff16908301526117ae868901611432565b6001600160a01b031688830152858701358783015260c06117d08188016116a6565b62ffffff169083015260e06117e68782016116b8565b60ff16908301526101006117fb8782016116d5565b15159083015261012061180f8782016116d5565b1515908301526101406118238782016116d5565b1515908301526101606118378782016116d5565b15159083015261018061184b8782016116d5565b1515908301526101a061185f8782016116d5565b151590830152948201949082019060010161173a565b5061188260208a01611682565b63ffffffff811660208c0152965061189c60408a016116b8565b60ff811660408c015296506118b360608a01611432565b6001600160a01b03811660608c015296509998505050505050505050565b80356118dc816116c8565b1515825260208101356118ee816116c8565b151560208301526040810135611903816116c8565b151560408301526060810135611918816116c8565b8015156060840152505050565b838152606060208201525f61193a84856115d8565b61016060608501526119516101c085018284611621565b91505061196160208601866115d8565b605f1980868503016080870152611979848385611621565b935061198860408901896115d8565b93509150808685030160a08701526119a1848484611621565b93506119af60608901611432565b6001600160a01b03811660c088015292506119cd60808901896115d8565b93509150808685030160e08701526119e6848484611621565b93506119f560a0890189611649565b925080868503016101008701525050611a0e82826116e0565b915050611a1d60c08601611432565b6001600160a01b0316610120840152611a3d610140840160e087016118d1565b604092909201929092529392505050565b634e487b7160e01b5f52604160045260245ffd5b604051610200810167ffffffffffffffff81118282101715611a8657611a86611a4e565b60405290565b6040805190810167ffffffffffffffff81118282101715611a8657611a86611a4e565b60405160c0810167ffffffffffffffff81118282101715611a8657611a86611a4e565b6040516080810167ffffffffffffffff81118282101715611a8657611a86611a4e565b604051610100810167ffffffffffffffff81118282101715611a8657611a86611a4e565b6040516060810167ffffffffffffffff81118282101715611a8657611a86611a4e565b604051601f8201601f1916810167ffffffffffffffff81118282101715611b6557611b65611a4e565b604052919050565b803566ffffffffffffff8116811461143d575f80fd5b5f67ffffffffffffffff821115611b9c57611b9c611a4e565b5060051b60200190565b803565ffffffffffff8116811461143d575f80fd5b80356dffffffffffffffffffffffffffff8116811461143d575f80fd5b5f6102008284031215611be9575f80fd5b611bf1611a62565b9050611bfc82611695565b8152611c0a60208301611695565b6020820152611c1b60408301611682565b6040820152611c2c606083016116d5565b6060820152611c3d608083016116d5565b6080820152611c4e60a083016116d5565b60a0820152611c5f60c083016116d5565b60c0820152611c7060e083016116d5565b60e0820152610100611c838184016116d5565b90820152610120611c958382016116d5565b90820152610140611ca78382016116d5565b90820152610160611cb98382016116d5565b90820152610180611ccb8382016116d5565b908201526101a0611cdd8382016116d5565b908201526101c0611cef8382016116d5565b908201526101e0611d01838201611695565b9082015292915050565b5f82601f830112611d1a575f80fd5b81356020611d2f611d2a83611b83565b611b3c565b82815260059290921b84018101918181019086841115611d4d575f80fd5b8286015b84811015611e9c5767ffffffffffffffff8082351115611d6f575f80fd5b813588016040818b03601f19011215611d86575f80fd5b611d8e611a8c565b868201358152604082013583811115611da5575f80fd5b8083019250508a603f830112611db9575f80fd5b86820135611dc9611d2a82611b83565b81815260c0909102830160400190888101908d831115611de7575f80fd5b6040850194505b82851015611e875760c0858f031215611e05575f80fd5b611e0d611aaf565b611e1686611682565b81528a8601358781168114611e29575f80fd5b818c01526040860135611e3b8161141b565b60408201526060860135611e4e816116c8565b6060820152611e5f60808701611ba6565b6080820152611e7060a08701611432565b60a0820152825260c0949094019390890190611dee565b838a0152505085525050918301918301611d51565b509695505050505050565b5f82601f830112611eb6575f80fd5b81356020611ec6611d2a83611b83565b82815260069290921b84018101918181019086841115611ee4575f80fd5b8286015b84811015611e9c5760408189031215611eff575f80fd5b611f07611a8c565b81357bffffffffffffffffffffffffffffffffffffffffffffffffffffffff81168114611f32575f80fd5b8152611f3f828601611682565b81860152835291830191604001611ee8565b5f82601f830112611f60575f80fd5b81356020611f70611d2a83611b83565b82815260059290921b84018101918181019086841115611f8e575f80fd5b8286015b84811015611e9c57803567ffffffffffffffff80821115611fb1575f80fd5b908801906080828b03601f1901811315611fc9575f80fd5b611fd1611ad2565b87840135611fde8161141b565b8152604084810135611fef8161141b565b828a015260608581013585811115612005575f80fd5b6120138f8c838a0101611ea7565b8484015250928501359284841115612029575f80fd5b6120378e8b86890101611ea7565b90830152508652505050918301918301611f92565b5f82601f83011261205b575f80fd5b8135602061206b611d2a83611b83565b82815260059290921b84018101918181019086841115612089575f80fd5b8286015b84811015611e9c57803567ffffffffffffffff808211156120ac575f80fd5b908801906102e0828b03601f19018113156120c5575f80fd5b6120cd611af5565b6120d8888501611ba6565b815260406120e7818601611682565b8983015260606120f8818701611bbb565b828401526080915061210b828701611682565b9083015260a061211c868201611432565b8284015260c091506121308e838801611bd8565b908301526102c085013584811115612146575f80fd5b6121548e8b83890101611d0b565b8284015250508184013591508282111561216c575f80fd5b61217a8c8984870101611f51565b60e0820152865250505091830191830161208d565b5f82601f83011261219e575f80fd5b813567ffffffffffffffff8111156121b8576121b8611a4e565b6121cb601f8201601f1916602001611b3c565b8181528460208386010111156121df575f80fd5b816020850160208301375f918101602001919091529392505050565b5f6060823603121561220b575f80fd5b612213611b19565b61221c83611b6d565b8152602083013567ffffffffffffffff80821115612238575f80fd5b6122443683870161204c565b6020840152604085013591508082111561225c575f80fd5b506122693682860161218f565b60408301525092915050565b5f82601f830112612284575f80fd5b81356020612294611d2a83611b83565b82815260059290921b840181019181810190868411156122b2575f80fd5b8286015b84811015611e9c57803567ffffffffffffffff808211156122d5575f80fd5b908801906040828b03601f19018113156122ed575f80fd5b6122f5611a8c565b878401356123028161141b565b81528382013583811115612314575f80fd5b8085019450508b603f850112612328575f80fd5b87840135925061233a611d2a84611b83565b83815260609093028401820192888101908d851115612357575f80fd5b948301945b848610156123b8576060868f031215612373575f80fd5b61237b611b19565b86356123868161141b565b8152612393878c016116b8565b8b8201526123a2858801611682565b818601528252606095909501949089019061235c565b828a01525086525050509183019183016122b6565b5f608082360312156123dd575f80fd5b6123e5611ad2565b6123ee83611b6d565b8152602083013567ffffffffffffffff8082111561240a575f80fd5b6124163683870161204c565b6020840152604085013591508082111561242e575f80fd5b61243a36838701612275565b60408401526060850135915080821115612452575f80fd5b5061245f3682860161218f565b60608301525092915050565b5f6020828403121561247b575f80fd5b5051919050565b634e487b7160e01b5f52601160045260245ffd5b808201808211156124a9576124a9612482565b92915050565b5f608082360312156124bf575f80fd5b6124c7611ad2565b823567ffffffffffffffff808211156124de575f80fd5b6124ea3683870161218f565b8352602085013591508082111561240a575f80fd5b5f6020828403121561250f575f80fd5b815161145d816116c8565b634e487b7160e01b5f52603260045260245ffd5b805161ffff168252602081015161254b602084018261ffff169052565b506040810151612563604084018263ffffffff169052565b506060810151612577606084018215159052565b50608081015161258b608084018215159052565b5060a081015161259f60a084018215159052565b5060c08101516125b360c084018215159052565b5060e08101516125c760e084018215159052565b5061010081810151151590830152610120808201511515908301526101408082015115159083015261016080820151151590830152610180808201511515908301526101a0808201511515908301526101c0808201511515908301526101e08082015115159083015261020080820151151590830152610220808201516001600160a01b0316908301526102408082015161ffff811682850152610a39565b5f82825180855260208086019550808260051b8401018186015f5b8481101561274157858303601f190189528151805184528401516040858501819052815181860181905291860191606090818701905f5b8181101561272a578551805163ffffffff1684528a81015167ffffffffffffffff168b850152858101516001600160a01b03908116878601528582015115158686015260808083015165ffffffffffff169086015260a09182015116908401529489019460c0909201916001016126b8565b50509b87019b955050509184019150600101612681565b5090979650505050505050565b5f815180845260208085019450602084015f5b838110156127ac57815180517bffffffffffffffffffffffffffffffffffffffffffffffffffffffff16885283015163ffffffff168388015260409096019590820190600101612761565b509495945050505050565b5f82825180855260208086019550808260051b8401018186015f5b8481101561274157601f19868403018952815160806001600160a01b03808351168652808784015116878701525060408083015182828801526128178388018261274e565b9250505060608083015192508582038187015250612835818361274e565b9a86019a94505050908301906001016127d2565b5f82825180855260208086019550808260051b8401018186015f5b8481101561274157601f198684030189528151805165ffffffffffff1684528481015163ffffffff908116868601526040808301516dffffffffffffffffffffffffffff1690860152606080830151909116908501526080808201516001600160a01b03169085015260a08082015161034091906128e48288018261252e565b505060c0820151816103008701526128fe82870182612666565b91505060e0820151915084810361032086015261291b81836127b7565b9a86019a9450505090830190600101612864565b5f81518084525f5b8181101561295357602081850181015186830182015201612937565b505f602082860101526020601f19601f83011685010191505092915050565b838152606060208201525f61298a6060830185612849565b8281036040840152610d30818561292f565b5f82825180855260208086019550808260051b8401018186015f5b8481101561274157858303601f19018952815180516001600160a01b039081168552908501516040868601819052815181870181905291870192909160609190828801905f5b81811015612a355786518051851684528b81015160ff168c85015286015163ffffffff1686840152958a0195918401916001016129fd565b50509c88019c965050509285019250506001016129b7565b848152608060208201525f612a656080830186612849565b8281036040840152612a77818661299c565b90508281036060840152612a8b818561292f565b979650505050505050565b6001600160a01b038616815260a060208201525f612ab760a083018761292f565b8281036040840152612ac98187612849565b90508281036060840152612add818661299c565b90508281036080840152612af1818561292f565b98975050505050505050565b818103818111156124a9576124a9612482565b5f8085851115612b1e575f80fd5b83861115612b2a575f80fd5b5050820193919092039150565b6bffffffffffffffffffffffff198135818116916014851015612b645780818660140360031b1b83161692505b50509291505056fea26469706673582212200f3c7d6d12656f095f1ab689d000841814ca92e368c555cc1a1cd0510b56c4b564736f6c63430008170033",
	"gitCommit": "76fb97f0dea8d06cf33d6836a80243606f3bb5df",
	"history": [
		{
			"format": "sphinx-sol-ct-artifact-1",
			"merkleRoot": "0x68910dd9cbf900797301bd56919a7311d45e2290035847720d4f907678c52c54",
			"address": "0x048626e715a194fc38dd9be12f516b54b10e725a",
			"sourceName": "src/JB721TiersHookProjectDeployer.sol",
			"contractName": "JB721TiersHookProjectDeployer",
			"chainId": "0xa4b1",
			"abi": [
				{
					"inputs": [
						{
							"internalType": "contract IJBDirectory",
							"name": "directory",
							"type": "address"
						},
						{
							"internalType": "contract IJBPermissions",
							"name": "permissions",
							"type": "address"
						},
						{
							"internalType": "contract IJB721TiersHookDeployer",
							"name": "hookDeployer",
							"type": "address"
						},
						{
							"internalType": "address",
							"name": "trustedForwarder",
							"type": "address"
						}
					],
					"stateMutability": "nonpayable",
					"type": "constructor"
				},
				{
					"inputs": [],
					"name": "DIRECTORY",
					"outputs": [
						{
							"internalType": "contract IJBDirectory",
							"name": "",
							"type": "address"
						}
					],
					"stateMutability": "view",
					"type": "function"
				},
				{
					"inputs": [],
					"name": "HOOK_DEPLOYER",
					"outputs": [
						{
							"internalType": "contract IJB721TiersHookDeployer",
							"name": "",
							"type": "address"
						}
					],
					"stateMutability": "view",
					"type": "function"
				},
				{
					"inputs": [],
					"name": "PERMISSIONS",
					"outputs": [
						{
							"internalType": "contract IJBPermissions",
							"name": "",
							"type": "address"
						}
					],
					"stateMutability": "view",
					"type": "function"
				},
				{
					"inputs": [
						{
							"internalType": "address",
							"name": "forwarder",
							"type": "address"
						}
					],
					"name": "isTrustedForwarder",
					"outputs": [
						{
							"internalType": "bool",
							"name": "",
							"type": "bool"
						}
					],
					"stateMutability": "view",
					"type": "function"
				},
				{
					"inputs": [
						{
							"internalType": "address",
							"name": "owner",
							"type": "address"
						},
						{
							"components": [
								{
									"internalType": "string",
									"name": "name",
									"type": "string"
								},
								{
									"internalType": "string",
									"name": "symbol",
									"type": "string"
								},
								{
									"internalType": "string",
									"name": "baseUri",
									"type": "string"
								},
								{
									"internalType": "contract IJB721TokenUriResolver",
									"name": "tokenUriResolver",
									"type": "address"
								},
								{
									"internalType": "string",
									"name": "contractUri",
									"type": "string"
								},
								{
									"components": [
										{
											"components": [
												{
													"internalType": "uint104",
													"name": "price",
													"type": "uint104"
												},
												{
													"internalType": "uint32",
													"name": "initialSupply",
													"type": "uint32"
												},
												{
													"internalType": "uint32",
													"name": "votingUnits",
													"type": "uint32"
												},
												{
													"internalType": "uint16",
													"name": "reserveFrequency",
													"type": "uint16"
												},
												{
													"internalType": "address",
													"name": "reserveBeneficiary",
													"type": "address"
												},
												{
													"internalType": "bytes32",
													"name": "encodedIPFSUri",
													"type": "bytes32"
												},
												{
													"internalType": "uint24",
													"name": "category",
													"type": "uint24"
												},
												{
													"internalType": "uint8",
													"name": "discountPercent",
													"type": "uint8"
												},
												{
													"internalType": "bool",
													"name": "allowOwnerMint",
													"type": "bool"
												},
												{
													"internalType": "bool",
													"name": "useReserveBeneficiaryAsDefault",
													"type": "bool"
												},
												{
													"internalType": "bool",
													"name": "transfersPausable",
													"type": "bool"
												},
												{
													"internalType": "bool",
													"name": "useVotingUnits",
													"type": "bool"
												},
												{
													"internalType": "bool",
													"name": "cannotBeRemoved",
													"type": "bool"
												},
												{
													"internalType": "bool",
													"name": "cannotIncreaseDiscountPercent",
													"type": "bool"
												}
											],
											"internalType": "struct JB721TierConfig[]",
											"name": "tiers",
											"type": "tuple[]"
										},
										{
											"internalType": "uint32",
											"name": "currency",
											"type": "uint32"
										},
										{
											"internalType": "uint8",
											"name": "decimals",
											"type": "uint8"
										},
										{
											"internalType": "contract IJBPrices",
											"name": "prices",
											"type": "address"
										}
									],
									"internalType": "struct JB721InitTiersConfig",
									"name": "tiersConfig",
									"type": "tuple"
								},
								{
									"internalType": "address",
									"name": "reserveBeneficiary",
									"type": "address"
								},
								{
									"components": [
										{
											"internalType": "bool",
											"name": "noNewTiersWithReserves",
											"type": "bool"
										},
										{
											"internalType": "bool",
											"name": "noNewTiersWithVotes",
											"type": "bool"
										},
										{
											"internalType": "bool",
											"name": "noNewTiersWithOwnerMinting",
											"type": "bool"
										},
										{
											"internalType": "bool",
											"name": "preventOverspending",
											"type": "bool"
										}
									],
									"internalType": "struct JB721TiersHookFlags",
									"name": "flags",
									"type": "tuple"
								}
							],
							"internalType": "struct JBDeploy721TiersHookConfig",
							"name": "deployTiersHookConfig",
							"type": "tuple"
						},
						{
							"components": [
								{
									"internalType": "string",
									"name": "projectUri",
									"type": "string"
								},
								{
									"components": [
										{
											"internalType": "uint48",
											"name": "mustStartAtOrAfter",
											"type": "uint48"
										},
										{
											"internalType": "uint32",
											"name": "duration",
											"type": "uint32"
										},
										{
											"internalType": "uint112",
											"name": "weight",
											"type": "uint112"
										},
										{
											"internalType": "uint32",
											"name": "weightCutPercent",
											"type": "uint32"
										},
										{
											"internalType": "contract IJBRulesetApprovalHook",
											"name": "approvalHook",
											"type": "address"
										},
										{
											"components": [
												{
													"internalType": "uint16",
													"name": "reservedPercent",
													"type": "uint16"
												},
												{
													"internalType": "uint16",
													"name": "cashOutTaxRate",
													"type": "uint16"
												},
												{
													"internalType": "uint32",
													"name": "baseCurrency",
													"type": "uint32"
												},
												{
													"internalType": "bool",
													"name": "pausePay",
													"type": "bool"
												},
												{
													"internalType": "bool",
													"name": "pauseCreditTransfers",
													"type": "bool"
												},
												{
													"internalType": "bool",
													"name": "allowOwnerMinting",
													"type": "bool"
												},
												{
													"internalType": "bool",
													"name": "allowTerminalMigration",
													"type": "bool"
												},
												{
													"internalType": "bool",
													"name": "allowSetTerminals",
													"type": "bool"
												},
												{
													"internalType": "bool",
													"name": "allowSetController",
													"type": "bool"
												},
												{
													"internalType": "bool",
													"name": "allowAddAccountingContext",
													"type": "bool"
												},
												{
													"internalType": "bool",
													"name": "allowAddPriceFeed",
													"type": "bool"
												},
												{
													"internalType": "bool",
													"name": "ownerMustSendPayouts",
													"type": "bool"
												},
												{
													"internalType": "bool",
													"name": "holdFees",
													"type": "bool"
												},
												{
													"internalType": "bool",
													"name": "useTotalSurplusForCashOuts",
													"type": "bool"
												},
												{
													"internalType": "bool",
													"name": "useDataHookForCashOut",
													"type": "bool"
												},
												{
													"internalType": "uint16",
													"name": "metadata",
													"type": "uint16"
												}
											],
											"internalType": "struct JBPayDataHookRulesetMetadata",
											"name": "metadata",
											"type": "tuple"
										},
										{
											"components": [
												{
													"internalType": "uint256",
													"name": "groupId",
													"type": "uint256"
												},
												{
													"components": [
														{
															"internalType": "uint32",
															"name": "percent",
															"type": "uint32"
														},
														{
															"internalType": "uint64",
															"name": "projectId",
															"type": "uint64"
														},
														{
															"internalType": "address payable",
															"name": "beneficiary",
															"type": "address"
														},
														{
															"internalType": "bool",
															"name": "preferAddToBalance",
															"type": "bool"
														},
														{
															"internalType": "uint48",
															"name": "lockedUntil",
															"type": "uint48"
														},
														{
															"internalType": "contract IJBSplitHook",
															"name": "hook",
															"type": "address"
														}
													],
													"internalType": "struct JBSplit[]",
													"name": "splits",
													"type": "tuple[]"
												}
											],
											"internalType": "struct JBSplitGroup[]",
											"name": "splitGroups",
											"type": "tuple[]"
										},
										{
											"components": [
												{
													"internalType": "address",
													"name": "terminal",
													"type": "address"
												},
												{
													"internalType": "address",
													"name": "token",
													"type": "address"
												},
												{
													"components": [
														{
															"internalType": "uint224",
															"name": "amount",
															"type": "uint224"
														},
														{
															"internalType": "uint32",
															"name": "currency",
															"type": "uint32"
														}
													],
													"internalType": "struct JBCurrencyAmount[]",
													"name": "payoutLimits",
													"type": "tuple[]"
												},
												{
													"components": [
														{
															"internalType": "uint224",
															"name": "amount",
															"type": "uint224"
														},
														{
															"internalType": "uint32",
															"name": "currency",
															"type": "uint32"
														}
													],
													"internalType": "struct JBCurrencyAmount[]",
													"name": "surplusAllowances",
													"type": "tuple[]"
												}
											],
											"internalType": "struct JBFundAccessLimitGroup[]",
											"name": "fundAccessLimitGroups",
											"type": "tuple[]"
										}
									],
									"internalType": "struct JBPayDataHookRulesetConfig[]",
									"name": "rulesetConfigurations",
									"type": "tuple[]"
								},
								{
									"components": [
										{
											"internalType": "contract IJBTerminal",
											"name": "terminal",
											"type": "address"
										},
										{
											"components": [
												{
													"internalType": "address",
													"name": "token",
													"type": "address"
												},
												{
													"internalType": "uint8",
													"name": "decimals",
													"type": "uint8"
												},
												{
													"internalType": "uint32",
													"name": "currency",
													"type": "uint32"
												}
											],
											"internalType": "struct JBAccountingContext[]",
											"name": "accountingContextsToAccept",
											"type": "tuple[]"
										}
									],
									"internalType": "struct JBTerminalConfig[]",
									"name": "terminalConfigurations",
									"type": "tuple[]"
								},
								{
									"internalType": "string",
									"name": "memo",
									"type": "string"
								}
							],
							"internalType": "struct JBLaunchProjectConfig",
							"name": "launchProjectConfig",
							"type": "tuple"
						},
						{
							"internalType": "contract IJBController",
							"name": "controller",
							"type": "address"
						},
						{
							"internalType": "bytes32",
							"name": "salt",
							"type": "bytes32"
						}
					],
					"name": "launchProjectFor",
					"outputs": [
						{
							"internalType": "uint256",
							"name": "projectId",
							"type": "uint256"
						},
						{
							"internalType": "contract IJB721TiersHook",
							"name": "hook",
							"type": "address"
						}
					],
					"stateMutability": "nonpayable",
					"type": "function"
				},
				{
					"inputs": [
						{
							"internalType": "uint256",
							"name": "projectId",
							"type": "uint256"
						},
						{
							"components": [
								{
									"internalType": "string",
									"name": "name",
									"type": "string"
								},
								{
									"internalType": "string",
									"name": "symbol",
									"type": "string"
								},
								{
									"internalType": "string",
									"name": "baseUri",
									"type": "string"
								},
								{
									"internalType": "contract IJB721TokenUriResolver",
									"name": "tokenUriResolver",
									"type": "address"
								},
								{
									"internalType": "string",
									"name": "contractUri",
									"type": "string"
								},
								{
									"components": [
										{
											"components": [
												{
													"internalType": "uint104",
													"name": "price",
													"type": "uint104"
												},
												{
													"internalType": "uint32",
													"name": "initialSupply",
													"type": "uint32"
												},
												{
													"internalType": "uint32",
													"name": "votingUnits",
													"type": "uint32"
												},
												{
													"internalType": "uint16",
													"name": "reserveFrequency",
													"type": "uint16"
												},
												{
													"internalType": "address",
													"name": "reserveBeneficiary",
													"type": "address"
												},
												{
													"internalType": "bytes32",
													"name": "encodedIPFSUri",
													"type": "bytes32"
												},
												{
													"internalType": "uint24",
													"name": "category",
													"type": "uint24"
												},
												{
													"internalType": "uint8",
													"name": "discountPercent",
													"type": "uint8"
												},
												{
													"internalType": "bool",
													"name": "allowOwnerMint",
													"type": "bool"
												},
												{
													"internalType": "bool",
													"name": "useReserveBeneficiaryAsDefault",
													"type": "bool"
												},
												{
													"internalType": "bool",
													"name": "transfersPausable",
													"type": "bool"
												},
												{
													"internalType": "bool",
													"name": "useVotingUnits",
													"type": "bool"
												},
												{
													"internalType": "bool",
													"name": "cannotBeRemoved",
													"type": "bool"
												},
												{
													"internalType": "bool",
													"name": "cannotIncreaseDiscountPercent",
													"type": "bool"
												}
											],
											"internalType": "struct JB721TierConfig[]",
											"name": "tiers",
											"type": "tuple[]"
										},
										{
											"internalType": "uint32",
											"name": "currency",
											"type": "uint32"
										},
										{
											"internalType": "uint8",
											"name": "decimals",
											"type": "uint8"
										},
										{
											"internalType": "contract IJBPrices",
											"name": "prices",
											"type": "address"
										}
									],
									"internalType": "struct JB721InitTiersConfig",
									"name": "tiersConfig",
									"type": "tuple"
								},
								{
									"internalType": "address",
									"name": "reserveBeneficiary",
									"type": "address"
								},
								{
									"components": [
										{
											"internalType": "bool",
											"name": "noNewTiersWithReserves",
											"type": "bool"
										},
										{
											"internalType": "bool",
											"name": "noNewTiersWithVotes",
											"type": "bool"
										},
										{
											"internalType": "bool",
											"name": "noNewTiersWithOwnerMinting",
											"type": "bool"
										},
										{
											"internalType": "bool",
											"name": "preventOverspending",
											"type": "bool"
										}
									],
									"internalType": "struct JB721TiersHookFlags",
									"name": "flags",
									"type": "tuple"
								}
							],
							"internalType": "struct JBDeploy721TiersHookConfig",
							"name": "deployTiersHookConfig",
							"type": "tuple"
						},
						{
							"components": [
								{
									"internalType": "uint56",
									"name": "projectId",
									"type": "uint56"
								},
								{
									"components": [
										{
											"internalType": "uint48",
											"name": "mustStartAtOrAfter",
											"type": "uint48"
										},
										{
											"internalType": "uint32",
											"name": "duration",
											"type": "uint32"
										},
										{
											"internalType": "uint112",
											"name": "weight",
											"type": "uint112"
										},
										{
											"internalType": "uint32",
											"name": "weightCutPercent",
											"type": "uint32"
										},
										{
											"internalType": "contract IJBRulesetApprovalHook",
											"name": "approvalHook",
											"type": "address"
										},
										{
											"components": [
												{
													"internalType": "uint16",
													"name": "reservedPercent",
													"type": "uint16"
												},
												{
													"internalType": "uint16",
													"name": "cashOutTaxRate",
													"type": "uint16"
												},
												{
													"internalType": "uint32",
													"name": "baseCurrency",
													"type": "uint32"
												},
												{
													"internalType": "bool",
													"name": "pausePay",
													"type": "bool"
												},
												{
													"internalType": "bool",
													"name": "pauseCreditTransfers",
													"type": "bool"
												},
												{
													"internalType": "bool",
													"name": "allowOwnerMinting",
													"type": "bool"
												},
												{
													"internalType": "bool",
													"name": "allowTerminalMigration",
													"type": "bool"
												},
												{
													"internalType": "bool",
													"name": "allowSetTerminals",
													"type": "bool"
												},
												{
													"internalType": "bool",
													"name": "allowSetController",
													"type": "bool"
												},
												{
													"internalType": "bool",
													"name": "allowAddAccountingContext",
													"type": "bool"
												},
												{
													"internalType": "bool",
													"name": "allowAddPriceFeed",
													"type": "bool"
												},
												{
													"internalType": "bool",
													"name": "ownerMustSendPayouts",
													"type": "bool"
												},
												{
													"internalType": "bool",
													"name": "holdFees",
													"type": "bool"
												},
												{
													"internalType": "bool",
													"name": "useTotalSurplusForCashOuts",
													"type": "bool"
												},
												{
													"internalType": "bool",
													"name": "useDataHookForCashOut",
													"type": "bool"
												},
												{
													"internalType": "uint16",
													"name": "metadata",
													"type": "uint16"
												}
											],
											"internalType": "struct JBPayDataHookRulesetMetadata",
											"name": "metadata",
											"type": "tuple"
										},
										{
											"components": [
												{
													"internalType": "uint256",
													"name": "groupId",
													"type": "uint256"
												},
												{
													"components": [
														{
															"internalType": "uint32",
															"name": "percent",
															"type": "uint32"
														},
														{
															"internalType": "uint64",
															"name": "projectId",
															"type": "uint64"
														},
														{
															"internalType": "address payable",
															"name": "beneficiary",
															"type": "address"
														},
														{
															"internalType": "bool",
															"name": "preferAddToBalance",
															"type": "bool"
														},
														{
															"internalType": "uint48",
															"name": "lockedUntil",
															"type": "uint48"
														},
														{
															"internalType": "contract IJBSplitHook",
															"name": "hook",
															"type": "address"
														}
													],
													"internalType": "struct JBSplit[]",
													"name": "splits",
													"type": "tuple[]"
												}
											],
											"internalType": "struct JBSplitGroup[]",
											"name": "splitGroups",
											"type": "tuple[]"
										},
										{
											"components": [
												{
													"internalType": "address",
													"name": "terminal",
													"type": "address"
												},
												{
													"internalType": "address",
													"name": "token",
													"type": "address"
												},
												{
													"components": [
														{
															"internalType": "uint224",
															"name": "amount",
															"type": "uint224"
														},
														{
															"internalType": "uint32",
															"name": "currency",
															"type": "uint32"
														}
													],
													"internalType": "struct JBCurrencyAmount[]",
													"name": "payoutLimits",
													"type": "tuple[]"
												},
												{
													"components": [
														{
															"internalType": "uint224",
															"name": "amount",
															"type": "uint224"
														},
														{
															"internalType": "uint32",
															"name": "currency",
															"type": "uint32"
														}
													],
													"internalType": "struct JBCurrencyAmount[]",
													"name": "surplusAllowances",
													"type": "tuple[]"
												}
											],
											"internalType": "struct JBFundAccessLimitGroup[]",
											"name": "fundAccessLimitGroups",
											"type": "tuple[]"
										}
									],
									"internalType": "struct JBPayDataHookRulesetConfig[]",
									"name": "rulesetConfigurations",
									"type": "tuple[]"
								},
								{
									"components": [
										{
											"internalType": "contract IJBTerminal",
											"name": "terminal",
											"type": "address"
										},
										{
											"components": [
												{
													"internalType": "address",
													"name": "token",
													"type": "address"
												},
												{
													"internalType": "uint8",
													"name": "decimals",
													"type": "uint8"
												},
												{
													"internalType": "uint32",
													"name": "currency",
													"type": "uint32"
												}
											],
											"internalType": "struct JBAccountingContext[]",
											"name": "accountingContextsToAccept",
											"type": "tuple[]"
										}
									],
									"internalType": "struct JBTerminalConfig[]",
									"name": "terminalConfigurations",
									"type": "tuple[]"
								},
								{
									"internalType": "string",
									"name": "memo",
									"type": "string"
								}
							],
							"internalType": "struct JBLaunchRulesetsConfig",
							"name": "launchRulesetsConfig",
							"type": "tuple"
						},
						{
							"internalType": "contract IJBController",
							"name": "controller",
							"type": "address"
						},
						{
							"internalType": "bytes32",
							"name": "salt",
							"type": "bytes32"
						}
					],
					"name": "launchRulesetsFor",
					"outputs": [
						{
							"internalType": "uint256",
							"name": "rulesetId",
							"type": "uint256"
						},
						{
							"internalType": "contract IJB721TiersHook",
							"name": "hook",
							"type": "address"
						}
					],
					"stateMutability": "nonpayable",
					"type": "function"
				},
				{
					"inputs": [
						{
							"internalType": "uint256",
							"name": "projectId",
							"type": "uint256"
						},
						{
							"components": [
								{
									"internalType": "string",
									"name": "name",
									"type": "string"
								},
								{
									"internalType": "string",
									"name": "symbol",
									"type": "string"
								},
								{
									"internalType": "string",
									"name": "baseUri",
									"type": "string"
								},
								{
									"internalType": "contract IJB721TokenUriResolver",
									"name": "tokenUriResolver",
									"type": "address"
								},
								{
									"internalType": "string",
									"name": "contractUri",
									"type": "string"
								},
								{
									"components": [
										{
											"components": [
												{
													"internalType": "uint104",
													"name": "price",
													"type": "uint104"
												},
												{
													"internalType": "uint32",
													"name": "initialSupply",
													"type": "uint32"
												},
												{
													"internalType": "uint32",
													"name": "votingUnits",
													"type": "uint32"
												},
												{
													"internalType": "uint16",
													"name": "reserveFrequency",
													"type": "uint16"
												},
												{
													"internalType": "address",
													"name": "reserveBeneficiary",
													"type": "address"
												},
												{
													"internalType": "bytes32",
													"name": "encodedIPFSUri",
													"type": "bytes32"
												},
												{
													"internalType": "uint24",
													"name": "category",
													"type": "uint24"
												},
												{
													"internalType": "uint8",
													"name": "discountPercent",
													"type": "uint8"
												},
												{
													"internalType": "bool",
													"name": "allowOwnerMint",
													"type": "bool"
												},
												{
													"internalType": "bool",
													"name": "useReserveBeneficiaryAsDefault",
													"type": "bool"
												},
												{
													"internalType": "bool",
													"name": "transfersPausable",
													"type": "bool"
												},
												{
													"internalType": "bool",
													"name": "useVotingUnits",
													"type": "bool"
												},
												{
													"internalType": "bool",
													"name": "cannotBeRemoved",
													"type": "bool"
												},
												{
													"internalType": "bool",
													"name": "cannotIncreaseDiscountPercent",
													"type": "bool"
												}
											],
											"internalType": "struct JB721TierConfig[]",
											"name": "tiers",
											"type": "tuple[]"
										},
										{
											"internalType": "uint32",
											"name": "currency",
											"type": "uint32"
										},
										{
											"internalType": "uint8",
											"name": "decimals",
											"type": "uint8"
										},
										{
											"internalType": "contract IJBPrices",
											"name": "prices",
											"type": "address"
										}
									],
									"internalType": "struct JB721InitTiersConfig",
									"name": "tiersConfig",
									"type": "tuple"
								},
								{
									"internalType": "address",
									"name": "reserveBeneficiary",
									"type": "address"
								},
								{
									"components": [
										{
											"internalType": "bool",
											"name": "noNewTiersWithReserves",
											"type": "bool"
										},
										{
											"internalType": "bool",
											"name": "noNewTiersWithVotes",
											"type": "bool"
										},
										{
											"internalType": "bool",
											"name": "noNewTiersWithOwnerMinting",
											"type": "bool"
										},
										{
											"internalType": "bool",
											"name": "preventOverspending",
											"type": "bool"
										}
									],
									"internalType": "struct JB721TiersHookFlags",
									"name": "flags",
									"type": "tuple"
								}
							],
							"internalType": "struct JBDeploy721TiersHookConfig",
							"name": "deployTiersHookConfig",
							"type": "tuple"
						},
						{
							"components": [
								{
									"internalType": "uint56",
									"name": "projectId",
									"type": "uint56"
								},
								{
									"components": [
										{
											"internalType": "uint48",
											"name": "mustStartAtOrAfter",
											"type": "uint48"
										},
										{
											"internalType": "uint32",
											"name": "duration",
											"type": "uint32"
										},
										{
											"internalType": "uint112",
											"name": "weight",
											"type": "uint112"
										},
										{
											"internalType": "uint32",
											"name": "weightCutPercent",
											"type": "uint32"
										},
										{
											"internalType": "contract IJBRulesetApprovalHook",
											"name": "approvalHook",
											"type": "address"
										},
										{
											"components": [
												{
													"internalType": "uint16",
													"name": "reservedPercent",
													"type": "uint16"
												},
												{
													"internalType": "uint16",
													"name": "cashOutTaxRate",
													"type": "uint16"
												},
												{
													"internalType": "uint32",
													"name": "baseCurrency",
													"type": "uint32"
												},
												{
													"internalType": "bool",
													"name": "pausePay",
													"type": "bool"
												},
												{
													"internalType": "bool",
													"name": "pauseCreditTransfers",
													"type": "bool"
												},
												{
													"internalType": "bool",
													"name": "allowOwnerMinting",
													"type": "bool"
												},
												{
													"internalType": "bool",
													"name": "allowTerminalMigration",
													"type": "bool"
												},
												{
													"internalType": "bool",
													"name": "allowSetTerminals",
													"type": "bool"
												},
												{
													"internalType": "bool",
													"name": "allowSetController",
													"type": "bool"
												},
												{
													"internalType": "bool",
													"name": "allowAddAccountingContext",
													"type": "bool"
												},
												{
													"internalType": "bool",
													"name": "allowAddPriceFeed",
													"type": "bool"
												},
												{
													"internalType": "bool",
													"name": "ownerMustSendPayouts",
													"type": "bool"
												},
												{
													"internalType": "bool",
													"name": "holdFees",
													"type": "bool"
												},
												{
													"internalType": "bool",
													"name": "useTotalSurplusForCashOuts",
													"type": "bool"
												},
												{
													"internalType": "bool",
													"name": "useDataHookForCashOut",
													"type": "bool"
												},
												{
													"internalType": "uint16",
													"name": "metadata",
													"type": "uint16"
												}
											],
											"internalType": "struct JBPayDataHookRulesetMetadata",
											"name": "metadata",
											"type": "tuple"
										},
										{
											"components": [
												{
													"internalType": "uint256",
													"name": "groupId",
													"type": "uint256"
												},
												{
													"components": [
														{
															"internalType": "uint32",
															"name": "percent",
															"type": "uint32"
														},
														{
															"internalType": "uint64",
															"name": "projectId",
															"type": "uint64"
														},
														{
															"internalType": "address payable",
															"name": "beneficiary",
															"type": "address"
														},
														{
															"internalType": "bool",
															"name": "preferAddToBalance",
															"type": "bool"
														},
														{
															"internalType": "uint48",
															"name": "lockedUntil",
															"type": "uint48"
														},
														{
															"internalType": "contract IJBSplitHook",
															"name": "hook",
															"type": "address"
														}
													],
													"internalType": "struct JBSplit[]",
													"name": "splits",
													"type": "tuple[]"
												}
											],
											"internalType": "struct JBSplitGroup[]",
											"name": "splitGroups",
											"type": "tuple[]"
										},
										{
											"components": [
												{
													"internalType": "address",
													"name": "terminal",
													"type": "address"
												},
												{
													"internalType": "address",
													"name": "token",
													"type": "address"
												},
												{
													"components": [
														{
															"internalType": "uint224",
															"name": "amount",
															"type": "uint224"
														},
														{
															"internalType": "uint32",
															"name": "currency",
															"type": "uint32"
														}
													],
													"internalType": "struct JBCurrencyAmount[]",
													"name": "payoutLimits",
													"type": "tuple[]"
												},
												{
													"components": [
														{
															"internalType": "uint224",
															"name": "amount",
															"type": "uint224"
														},
														{
															"internalType": "uint32",
															"name": "currency",
															"type": "uint32"
														}
													],
													"internalType": "struct JBCurrencyAmount[]",
													"name": "surplusAllowances",
													"type": "tuple[]"
												}
											],
											"internalType": "struct JBFundAccessLimitGroup[]",
											"name": "fundAccessLimitGroups",
											"type": "tuple[]"
										}
									],
									"internalType": "struct JBPayDataHookRulesetConfig[]",
									"name": "rulesetConfigurations",
									"type": "tuple[]"
								},
								{
									"internalType": "string",
									"name": "memo",
									"type": "string"
								}
							],
							"internalType": "struct JBQueueRulesetsConfig",
							"name": "queueRulesetsConfig",
							"type": "tuple"
						},
						{
							"internalType": "contract IJBController",
							"name": "controller",
							"type": "address"
						},
						{
							"internalType": "bytes32",
							"name": "salt",
							"type": "bytes32"
						}
					],
					"name": "queueRulesetsOf",
					"outputs": [
						{
							"internalType": "uint256",
							"name": "rulesetId",
							"type": "uint256"
						},
						{
							"internalType": "contract IJB721TiersHook",
							"name": "hook",
							"type": "address"
						}
					],
					"stateMutability": "nonpayable",
					"type": "function"
				},
				{
					"inputs": [],
					"name": "trustedForwarder",
					"outputs": [
						{
							"internalType": "address",
							"name": "",
							"type": "address"
						}
					],
					"stateMutability": "view",
					"type": "function"
				},
				{
					"inputs": [
						{
							"internalType": "address",
							"name": "account",
							"type": "address"
						},
						{
							"internalType": "address",
							"name": "sender",
							"type": "address"
						},
						{
							"internalType": "uint256",
							"name": "projectId",
							"type": "uint256"
						},
						{
							"internalType": "uint256",
							"name": "permissionId",
							"type": "uint256"
						}
					],
					"name": "JBPermissioned_Unauthorized",
					"type": "error"
				}
			],
			"args": [],
			"solcInputHash": "4101812ded0792a599ee6d22d3ae1b63",
			"receipt": {
				"type": "0x2",
				"status": "0x1",
				"cumulativeGasUsed": "0x468223",
				"logs": [
					{
						"address": "0xa2ea7657440875bf916cbfc0cfa88f13e38ad463",
						"topics": [
							"0x572f161235911da04685a68c06adf558fc7e4a36909dca394650e0adc19cc93d",
							"0x000000000000000000000000755ff2f75a0a586ecfa2b9a3c959cb662458a105",
							"0x000000000000000000000000691d6d2e1f0fb22b67e7471310ddcb3a881cc968",
							"0x91bb96d9222c0fc62c60c2e5cc456dd54b0fde9bf1ecb6c29c39f25a51b15058"
						],
						"data": "0x0000000000000000000000000000000000000000000000000000000000000000",
						"blockHash": "0x8b3f2d000590b75766dacccbd064075c1003542553da6c23a249733d5837e058",
						"blockNumber": "0x16846f90",
						"blockTimestamp": "0x68c1d17d",
						"transactionHash": "0xcbfec4a76827777ac654ee1f67d4ff575d0b8b3bb8508bbb9a7dcfdf21e6d777",
						"transactionIndex": "0x13",
						"logIndex": "0x8",
						"removed": false
					},
					{
						"address": "0x80a8f7a4bd75b539ce26937016df607fdc9abeb5",
						"topics": [
							"0x6895c13664aa4f67288b25d7a21d7aaa34916e355fb9b6fae0a139a9085becb8",
							"0x000000000000000000000000691d6d2e1f0fb22b67e7471310ddcb3a881cc968"
						],
						"data": "0x",
						"blockHash": "0x8b3f2d000590b75766dacccbd064075c1003542553da6c23a249733d5837e058",
						"blockNumber": "0x16846f90",
						"blockTimestamp": "0x68c1d17d",
						"transactionHash": "0xcbfec4a76827777ac654ee1f67d4ff575d0b8b3bb8508bbb9a7dcfdf21e6d777",
						"transactionIndex": "0x13",
						"logIndex": "0x9",
						"removed": false
					},
					{
						"address": "0x691d6d2e1f0fb22b67e7471310ddcb3a881cc968",
						"topics": [
							"0xa65fb05c5808f5f389d72edeaf719ce38f4cc55c1f69ca3cbfb31c21501caa07",
							"0x68910dd9cbf900797301bd56919a7311d45e2290035847720d4f907678c52c54"
						],
						"data": "0x0000000000000000000000000000000000000000000000000000000000000004",
						"blockHash": "0x8b3f2d000590b75766dacccbd064075c1003542553da6c23a249733d5837e058",
						"blockNumber": "0x16846f90",
						"blockTimestamp": "0x68c1d17d",
						"transactionHash": "0xcbfec4a76827777ac654ee1f67d4ff575d0b8b3bb8508bbb9a7dcfdf21e6d777",
						"transactionIndex": "0x13",
						"logIndex": "0xa",
						"removed": false
					},
					{
						"address": "0x691d6d2e1f0fb22b67e7471310ddcb3a881cc968",
						"topics": [
							"0x4383d976757d67ca920616be0b6430a681ea9d3dcce8d6d61d4603ca4a9bff63",
							"0x68910dd9cbf900797301bd56919a7311d45e2290035847720d4f907678c52c54"
						],
						"data": "0x",
						"blockHash": "0x8b3f2d000590b75766dacccbd064075c1003542553da6c23a249733d5837e058",
						"blockNumber": "0x16846f90",
						"blockTimestamp": "0x68c1d17d",
						"transactionHash": "0xcbfec4a76827777ac654ee1f67d4ff575d0b8b3bb8508bbb9a7dcfdf21e6d777",
						"transactionIndex": "0x13",
						"logIndex": "0xb",
						"removed": false
					}
				],
				"logsBloom": "0x00000000000010000000000000080000000800000000000000000000000404000000000000000000000000000040000000000000000000000000000000000000000000000000200000000000000000000000000000000000000000000000000800000000000000000080000000000001000000000000000000080000000000000800000000000000000104000000100000000000100000000020000000000000004000840000000000000000000000002200000000000000000000000044000000000002004000000000000000000000000000000000000000000000000000020001000000000008000100000000000200000000000080000000000008000000",
				"transactionHash": "0xcbfec4a76827777ac654ee1f67d4ff575d0b8b3bb8508bbb9a7dcfdf21e6d777",
				"transactionIndex": "0x13",
				"blockHash": "0x8b3f2d000590b75766dacccbd064075c1003542553da6c23a249733d5837e058",
				"blockNumber": "0x16846f90",
				"gasUsed": "0x2a3ef8",
				"effectiveGasPrice": "0xb38120",
				"from": "0x755ff2f75a0a586ecfa2b9a3c959cb662458a105",
				"to": "0xa2ea7657440875bf916cbfc0cfa88f13e38ad463",
				"contractAddress": null
			},
			"bytecode": "0x61010060405234801562000011575f80fd5b5060405162002ce938038062002ce9833981016040819052620000349162000070565b6001600160a01b0390811660805291821660a05291811660c0521660e052620000d5565b6001600160a01b03811681146200006d575f80fd5b50565b5f805f806080858703121562000084575f80fd5b8451620000918162000058565b6020860151909450620000a48162000058565b6040860151909350620000b78162000058565b6060860151909250620000ca8162000058565b939692955090935050565b60805160a05160c05160e051612ba2620001475f395f8181610174015281816102e6015281816105a101526107df01525f818161014d015281816101ea0152818161043001526106eb01525f81816101c1015261098b01525f818160990152818161011001526112e20152612ba25ff3fe608060405234801561000f575f80fd5b5060043610610085575f3560e01c8063abf8c5c811610058578063abf8c5c81461016f578063d89acff714610196578063ea38480b146101a9578063f434c914146101bc575f80fd5b8063572b6c05146100895780636386000a146100de5780637da0a8771461010e57806388bc2ef314610148575b5f80fd5b6100c9610097366004611442565b7f00000000000000000000000000000000000000000000000000000000000000006001600160a01b0390811691161490565b60405190151581526020015b60405180910390f35b6100f16100ec36600461147b565b6101e3565b604080519283526001600160a01b039091166020830152016100d5565b7f00000000000000000000000000000000000000000000000000000000000000005b6040516001600160a01b0390911681526020016100d5565b6101307f000000000000000000000000000000000000000000000000000000000000000081565b6101307f000000000000000000000000000000000000000000000000000000000000000081565b6100f16101a4366004611511565b61042b565b6100f16101b7366004611582565b6106e7565b6101307f000000000000000000000000000000000000000000000000000000000000000081565b5f806102dc7f00000000000000000000000000000000000000000000000000000000000000006001600160a01b031663293c49996040518163ffffffff1660e01b8152600401602060405180830381865afa158015610244573d5f803e3d5ffd5b505050506040513d601f19601f8201168201806040525081019061026891906115bd565b6001600160a01b0316636352211e896040518263ffffffff1660e01b815260040161029591815260200190565b602060405180830381865afa1580156102b0573d5f803e3d5ffd5b505050506040513d601f19601f820116820180604052508101906102d491906115bd565b886002610920565b6001600160a01b037f00000000000000000000000000000000000000000000000000000000000000001663ea74b8af888886156103525761031b610a3f565b604080516001600160a01b039092166020830152810188905260600160405160208183030381529060405280519060200120610354565b5f5b6040518463ffffffff1660e01b815260040161037293929190611925565b6020604051808303815f875af115801561038e573d5f803e3d5ffd5b505050506040513d601f19601f820116820180604052508101906103b291906115bd565b6040516351106b4b60e11b8152600481018990529091506001600160a01b0382169063a220d696906024015f604051808303815f87803b1580156103f4575f80fd5b505af1158015610406573d5f803e3d5ffd5b5050505061041f8786610418906121fb565b8387610a4d565b91509550959350505050565b5f805f7f00000000000000000000000000000000000000000000000000000000000000006001600160a01b031663293c49996040518163ffffffff1660e01b8152600401602060405180830381865afa15801561048a573d5f803e3d5ffd5b505050506040513d601f19601f820116820180604052508101906104ae91906115bd565b6040516331a9108f60e11b8152600481018a9052909150610524906001600160a01b03831690636352211e90602401602060405180830381865afa1580156104f8573d5f803e3d5ffd5b505050506040513d601f19601f8201168201806040525081019061051c91906115bd565b896002610920565b6040516331a9108f60e11b815260048101899052610597906001600160a01b03831690636352211e90602401602060405180830381865afa15801561056b573d5f803e3d5ffd5b505050506040513d601f19601f8201168201806040525081019061058f91906115bd565b89600e610920565b6001600160a01b037f00000000000000000000000000000000000000000000000000000000000000001663ea74b8af8989871561060d576105d6610a3f565b604080516001600160a01b03909216602083015281018990526060016040516020818303038152906040528051906020012061060f565b5f5b6040518463ffffffff1660e01b815260040161062d93929190611925565b6020604051808303815f875af1158015610649573d5f803e3d5ffd5b505050506040513d601f19601f8201168201806040525081019061066d91906115bd565b6040516351106b4b60e11b8152600481018a90529092506001600160a01b0383169063a220d696906024015f604051808303815f87803b1580156106af575f80fd5b505af11580156106c1573d5f803e3d5ffd5b505050506106da88876106d3906123cd565b8488610d3a565b9250509550959350505050565b5f807f00000000000000000000000000000000000000000000000000000000000000006001600160a01b031663293c49996040518163ffffffff1660e01b8152600401602060405180830381865afa158015610745573d5f803e3d5ffd5b505050506040513d601f19601f8201168201806040525081019061076991906115bd565b6001600160a01b03166306661abd6040518163ffffffff1660e01b8152600401602060405180830381865afa1580156107a4573d5f803e3d5ffd5b505050506040513d601f19601f820116820180604052508101906107c8919061246b565b6107d3906001612496565b91506001600160a01b037f00000000000000000000000000000000000000000000000000000000000000001663ea74b8af8388861561084b57610814610a3f565b604080516001600160a01b03909216602083015281018890526060016040516020818303038152906040528051906020012061084d565b5f5b6040518463ffffffff1660e01b815260040161086b93929190611925565b6020604051808303815f875af1158015610887573d5f803e3d5ffd5b505050506040513d601f19601f820116820180604052508101906108ab91906115bd565b90506108c1876108ba876124af565b8387610fe2565b6040516351106b4b60e11b8152600481018390526001600160a01b0382169063a220d696906024015f604051808303815f87803b158015610900575f80fd5b505af1158015610912573d5f803e3d5ffd5b505050509550959350505050565b5f610929610a3f565b9050836001600160a01b0316816001600160a01b0316141580156109f65750604051631a45b42760e11b81526001600160a01b0382811660048301528581166024830152604482018590526064820184905260016084830181905260a48301527f0000000000000000000000000000000000000000000000000000000000000000169063348b684e9060c401602060405180830381865afa1580156109d0573d5f803e3d5ffd5b505050506040513d601f19601f820116820180604052508101906109f491906124ff565b155b15610a3957604051631326f75560e11b81526001600160a01b03808616600483015282166024820152604481018490526064810183905260840160405180910390fd5b50505050565b5f610a486112d3565b905090565b5f8084602001515167ffffffffffffffff811115610a6d57610a6d611a4e565b604051908082528060200260200182016040528015610aa657816020015b610a93611346565b815260200190600190039081610a8b5790505b5090505f5b856020015151811015610cbb575f86602001518281518110610acf57610acf61251a565b60200260200101519050604051806101000160405280825f015165ffffffffffff168152602001826020015163ffffffff16815260200182604001516dffffffffffffffffffffffffffff168152602001826060015163ffffffff16815260200182608001516001600160a01b031681526020016040518061026001604052808460a001515f015161ffff1681526020018460a001516020015161ffff1681526020018460a001516040015163ffffffff1681526020018460a0015160600151151581526020018460a0015160800151151581526020018460a0015160a00151151581526020015f151581526020018460a0015160c00151151581526020018460a0015160e00151151581526020018460a001516101000151151581526020018460a001516101200151151581526020018460a001516101400151151581526020018460a001516101600151151581526020018460a001516101800151151581526020018460a001516101a00151151581526020016001151581526020018460a001516101c0015115158152602001896001600160a01b031681526020018460a001516101e0015161ffff1681525081526020018260c0015181526020018260e00151815250838381518110610ca757610ca761251a565b602090810291909101015250600101610aab565b5060408086015190516303141db760e41b81526001600160a01b03851691633141db7091610cf0918a91869190600401612972565b6020604051808303815f875af1158015610d0c573d5f803e3d5ffd5b505050506040513d601f19601f82011682018060405250810190610d30919061246b565b9695505050505050565b5f8084602001515167ffffffffffffffff811115610d5a57610d5a611a4e565b604051908082528060200260200182016040528015610d9357816020015b610d80611346565b815260200190600190039081610d785790505b5090505f5b856020015151811015610fa8575f86602001518281518110610dbc57610dbc61251a565b60200260200101519050604051806101000160405280825f015165ffffffffffff168152602001826020015163ffffffff16815260200182604001516dffffffffffffffffffffffffffff168152602001826060015163ffffffff16815260200182608001516001600160a01b031681526020016040518061026001604052808460a001515f015161ffff1681526020018460a001516020015161ffff1681526020018460a001516040015163ffffffff1681526020018460a0015160600151151581526020018460a0015160800151151581526020018460a0015160a00151151581526020015f151581526020018460a0015160c00151151581526020018460a0015160e00151151581526020018460a001516101000151151581526020018460a001516101200151151581526020018460a001516101400151151581526020018460a001516101600151151581526020018460a001516101800151151581526020018460a001516101a00151151581526020016001151581526020018460a001516101c0015115158152602001896001600160a01b031681526020018460a001516101e0015161ffff1681525081526020018260c0015181526020018260e00151815250838381518110610f9457610f9461251a565b602090810291909101015250600101610d98565b50604080860151606087015191516339284f3560e01b81526001600160a01b038616926339284f3592610cf0928b92879291600401612a4d565b5f83602001515167ffffffffffffffff81111561100157611001611a4e565b60405190808252806020026020018201604052801561103a57816020015b611027611346565b81526020019060019003908161101f5790505b5090505f5b84602001515181101561124f575f856020015182815181106110635761106361251a565b60200260200101519050604051806101000160405280825f015165ffffffffffff168152602001826020015163ffffffff16815260200182604001516dffffffffffffffffffffffffffff168152602001826060015163ffffffff16815260200182608001516001600160a01b031681526020016040518061026001604052808460a001515f015161ffff1681526020018460a001516020015161ffff1681526020018460a001516040015163ffffffff1681526020018460a0015160600151151581526020018460a0015160800151151581526020018460a0015160a00151151581526020015f151581526020018460a0015160c00151151581526020018460a0015160e00151151581526020018460a001516101000151151581526020018460a001516101200151151581526020018460a001516101400151151581526020018460a001516101600151151581526020018460a001516101800151151581526020018460a001516101a00151151581526020016001151581526020018460a001516101c0015115158152602001886001600160a01b031681526020018460a001516101e0015161ffff1681525081526020018260c0015181526020018260e0015181525083838151811061123b5761123b61251a565b60209081029190910101525060010161103f565b50835160408086015160608701519151635c7465e560e01b81526001600160a01b03861693635c7465e59361128b938b93889290600401612a96565b6020604051808303815f875af11580156112a7573d5f803e3d5ffd5b505050506040513d601f19601f820116820180604052508101906112cb919061246b565b505050505050565b5f366014336001600160a01b037f00000000000000000000000000000000000000000000000000000000000000001614801561130f5750808210155b1561133e575f366113208385612afd565b61132b928290612b10565b61133491612b37565b60601c9250505090565b339250505090565b6040805161010080820183525f808352602080840182905283850182905260608085018390526080808601849052865161026081018852848152928301849052958201839052810182905293840181905260a084810182905260c0850182905260e0850182905291840181905261012084018190526101408401819052610160840181905261018084018190526101a084018190526101c084018190526101e0840181905261020084018190526102208401819052610240840152909190820190815260200160608152602001606081525090565b6001600160a01b038116811461142f575f80fd5b50565b803561143d8161141b565b919050565b5f60208284031215611452575f80fd5b813561145d8161141b565b9392505050565b5f6101608284031215611475575f80fd5b50919050565b5f805f805f60a0868803121561148f575f80fd5b85359450602086013567ffffffffffffffff808211156114ad575f80fd5b6114b989838a01611464565b955060408801359150808211156114ce575f80fd5b508601606081890312156114e0575f80fd5b925060608601356114f08161141b565b949793965091946080013592915050565b5f60808284031215611475575f80fd5b5f805f805f60a08688031215611525575f80fd5b85359450602086013567ffffffffffffffff80821115611543575f80fd5b61154f89838a01611464565b95506040880135915080821115611564575f80fd5b5061157188828901611501565b93505060608601356114f08161141b565b5f805f805f60a08688031215611596575f80fd5b85356115a18161141b565b9450602086013567ffffffffffffffff80821115611543575f80fd5b5f602082840312156115cd575f80fd5b815161145d8161141b565b5f808335601e198436030181126115ed575f80fd5b830160208101925035905067ffffffffffffffff81111561160c575f80fd5b80360382131561161a575f80fd5b9250929050565b81835281816020850137505f828201602090810191909152601f909101601f19169091010190565b5f8235607e1983360301811261165d575f80fd5b90910192915050565b80356cffffffffffffffffffffffffff8116811461143d575f80fd5b803563ffffffff8116811461143d575f80fd5b803561ffff8116811461143d575f80fd5b803562ffffff8116811461143d575f80fd5b803560ff8116811461143d575f80fd5b801515811461142f575f80fd5b803561143d816116c8565b5f60808084018335601e198536030181126116f9575f80fd5b8401602081810191359067ffffffffffffffff821115611717575f80fd5b6101c0808302360384131561172a575f80fd5b608089529382905260a0938489015f5b84811015611875576117628261174f88611666565b6cffffffffffffffffffffffffff169052565b61176d848701611682565b63ffffffff16848301526040611784878201611682565b63ffffffff1690830152606061179b878201611695565b61ffff16908301526117ae868901611432565b6001600160a01b031688830152858701358783015260c06117d08188016116a6565b62ffffff169083015260e06117e68782016116b8565b60ff16908301526101006117fb8782016116d5565b15159083015261012061180f8782016116d5565b1515908301526101406118238782016116d5565b1515908301526101606118378782016116d5565b15159083015261018061184b8782016116d5565b1515908301526101a061185f8782016116d5565b151590830152948201949082019060010161173a565b5061188260208a01611682565b63ffffffff811660208c0152965061189c60408a016116b8565b60ff811660408c015296506118b360608a01611432565b6001600160a01b03811660608c015296509998505050505050505050565b80356118dc816116c8565b1515825260208101356118ee816116c8565b151560208301526040810135611903816116c8565b151560408301526060810135611918816116c8565b8015156060840152505050565b838152606060208201525f61193a84856115d8565b61016060608501526119516101c085018284611621565b91505061196160208601866115d8565b605f1980868503016080870152611979848385611621565b935061198860408901896115d8565b93509150808685030160a08701526119a1848484611621565b93506119af60608901611432565b6001600160a01b03811660c088015292506119cd60808901896115d8565b93509150808685030160e08701526119e6848484611621565b93506119f560a0890189611649565b925080868503016101008701525050611a0e82826116e0565b915050611a1d60c08601611432565b6001600160a01b0316610120840152611a3d610140840160e087016118d1565b604092909201929092529392505050565b634e487b7160e01b5f52604160045260245ffd5b604051610200810167ffffffffffffffff81118282101715611a8657611a86611a4e565b60405290565b6040805190810167ffffffffffffffff81118282101715611a8657611a86611a4e565b60405160c0810167ffffffffffffffff81118282101715611a8657611a86611a4e565b6040516080810167ffffffffffffffff81118282101715611a8657611a86611a4e565b604051610100810167ffffffffffffffff81118282101715611a8657611a86611a4e565b6040516060810167ffffffffffffffff81118282101715611a8657611a86611a4e565b604051601f8201601f1916810167ffffffffffffffff81118282101715611b6557611b65611a4e565b604052919050565b803566ffffffffffffff8116811461143d575f80fd5b5f67ffffffffffffffff821115611b9c57611b9c611a4e565b5060051b60200190565b803565ffffffffffff8116811461143d575f80fd5b80356dffffffffffffffffffffffffffff8116811461143d575f80fd5b5f6102008284031215611be9575f80fd5b611bf1611a62565b9050611bfc82611695565b8152611c0a60208301611695565b6020820152611c1b60408301611682565b6040820152611c2c606083016116d5565b6060820152611c3d608083016116d5565b6080820152611c4e60a083016116d5565b60a0820152611c5f60c083016116d5565b60c0820152611c7060e083016116d5565b60e0820152610100611c838184016116d5565b90820152610120611c958382016116d5565b90820152610140611ca78382016116d5565b90820152610160611cb98382016116d5565b90820152610180611ccb8382016116d5565b908201526101a0611cdd8382016116d5565b908201526101c0611cef8382016116d5565b908201526101e0611d01838201611695565b9082015292915050565b5f82601f830112611d1a575f80fd5b81356020611d2f611d2a83611b83565b611b3c565b82815260059290921b84018101918181019086841115611d4d575f80fd5b8286015b84811015611e9c5767ffffffffffffffff8082351115611d6f575f80fd5b813588016040818b03601f19011215611d86575f80fd5b611d8e611a8c565b868201358152604082013583811115611da5575f80fd5b8083019250508a603f830112611db9575f80fd5b86820135611dc9611d2a82611b83565b81815260c0909102830160400190888101908d831115611de7575f80fd5b6040850194505b82851015611e875760c0858f031215611e05575f80fd5b611e0d611aaf565b611e1686611682565b81528a8601358781168114611e29575f80fd5b818c01526040860135611e3b8161141b565b60408201526060860135611e4e816116c8565b6060820152611e5f60808701611ba6565b6080820152611e7060a08701611432565b60a0820152825260c0949094019390890190611dee565b838a0152505085525050918301918301611d51565b509695505050505050565b5f82601f830112611eb6575f80fd5b81356020611ec6611d2a83611b83565b82815260069290921b84018101918181019086841115611ee4575f80fd5b8286015b84811015611e9c5760408189031215611eff575f80fd5b611f07611a8c565b81357bffffffffffffffffffffffffffffffffffffffffffffffffffffffff81168114611f32575f80fd5b8152611f3f828601611682565b81860152835291830191604001611ee8565b5f82601f830112611f60575f80fd5b81356020611f70611d2a83611b83565b82815260059290921b84018101918181019086841115611f8e575f80fd5b8286015b84811015611e9c57803567ffffffffffffffff80821115611fb1575f80fd5b908801906080828b03601f1901811315611fc9575f80fd5b611fd1611ad2565b87840135611fde8161141b565b8152604084810135611fef8161141b565b828a015260608581013585811115612005575f80fd5b6120138f8c838a0101611ea7565b8484015250928501359284841115612029575f80fd5b6120378e8b86890101611ea7565b90830152508652505050918301918301611f92565b5f82601f83011261205b575f80fd5b8135602061206b611d2a83611b83565b82815260059290921b84018101918181019086841115612089575f80fd5b8286015b84811015611e9c57803567ffffffffffffffff808211156120ac575f80fd5b908801906102e0828b03601f19018113156120c5575f80fd5b6120cd611af5565b6120d8888501611ba6565b815260406120e7818601611682565b8983015260606120f8818701611bbb565b828401526080915061210b828701611682565b9083015260a061211c868201611432565b8284015260c091506121308e838801611bd8565b908301526102c085013584811115612146575f80fd5b6121548e8b83890101611d0b565b8284015250508184013591508282111561216c575f80fd5b61217a8c8984870101611f51565b60e0820152865250505091830191830161208d565b5f82601f83011261219e575f80fd5b813567ffffffffffffffff8111156121b8576121b8611a4e565b6121cb601f8201601f1916602001611b3c565b8181528460208386010111156121df575f80fd5b816020850160208301375f918101602001919091529392505050565b5f6060823603121561220b575f80fd5b612213611b19565b61221c83611b6d565b8152602083013567ffffffffffffffff80821115612238575f80fd5b6122443683870161204c565b6020840152604085013591508082111561225c575f80fd5b506122693682860161218f565b60408301525092915050565b5f82601f830112612284575f80fd5b81356020612294611d2a83611b83565b82815260059290921b840181019181810190868411156122b2575f80fd5b8286015b84811015611e9c57803567ffffffffffffffff808211156122d5575f80fd5b908801906040828b03601f19018113156122ed575f80fd5b6122f5611a8c565b878401356123028161141b565b81528382013583811115612314575f80fd5b8085019450508b603f850112612328575f80fd5b87840135925061233a611d2a84611b83565b83815260609093028401820192888101908d851115612357575f80fd5b948301945b848610156123b8576060868f031215612373575f80fd5b61237b611b19565b86356123868161141b565b8152612393878c016116b8565b8b8201526123a2858801611682565b818601528252606095909501949089019061235c565b828a01525086525050509183019183016122b6565b5f608082360312156123dd575f80fd5b6123e5611ad2565b6123ee83611b6d565b8152602083013567ffffffffffffffff8082111561240a575f80fd5b6124163683870161204c565b6020840152604085013591508082111561242e575f80fd5b61243a36838701612275565b60408401526060850135915080821115612452575f80fd5b5061245f3682860161218f565b60608301525092915050565b5f6020828403121561247b575f80fd5b5051919050565b634e487b7160e01b5f52601160045260245ffd5b808201808211156124a9576124a9612482565b92915050565b5f608082360312156124bf575f80fd5b6124c7611ad2565b823567ffffffffffffffff808211156124de575f80fd5b6124ea3683870161218f565b8352602085013591508082111561240a575f80fd5b5f6020828403121561250f575f80fd5b815161145d816116c8565b634e487b7160e01b5f52603260045260245ffd5b805161ffff168252602081015161254b602084018261ffff169052565b506040810151612563604084018263ffffffff169052565b506060810151612577606084018215159052565b50608081015161258b608084018215159052565b5060a081015161259f60a084018215159052565b5060c08101516125b360c084018215159052565b5060e08101516125c760e084018215159052565b5061010081810151151590830152610120808201511515908301526101408082015115159083015261016080820151151590830152610180808201511515908301526101a0808201511515908301526101c0808201511515908301526101e08082015115159083015261020080820151151590830152610220808201516001600160a01b0316908301526102408082015161ffff811682850152610a39565b5f82825180855260208086019550808260051b8401018186015f5b8481101561274157858303601f190189528151805184528401516040858501819052815181860181905291860191606090818701905f5b8181101561272a578551805163ffffffff1684528a81015167ffffffffffffffff168b850152858101516001600160a01b03908116878601528582015115158686015260808083015165ffffffffffff169086015260a09182015116908401529489019460c0909201916001016126b8565b50509b87019b955050509184019150600101612681565b5090979650505050505050565b5f815180845260208085019450602084015f5b838110156127ac57815180517bffffffffffffffffffffffffffffffffffffffffffffffffffffffff16885283015163ffffffff168388015260409096019590820190600101612761565b509495945050505050565b5f82825180855260208086019550808260051b8401018186015f5b8481101561274157601f19868403018952815160806001600160a01b03808351168652808784015116878701525060408083015182828801526128178388018261274e565b9250505060608083015192508582038187015250612835818361274e565b9a86019a94505050908301906001016127d2565b5f82825180855260208086019550808260051b8401018186015f5b8481101561274157601f198684030189528151805165ffffffffffff1684528481015163ffffffff908116868601526040808301516dffffffffffffffffffffffffffff1690860152606080830151909116908501526080808201516001600160a01b03169085015260a08082015161034091906128e48288018261252e565b505060c0820151816103008701526128fe82870182612666565b91505060e0820151915084810361032086015261291b81836127b7565b9a86019a9450505090830190600101612864565b5f81518084525f5b8181101561295357602081850181015186830182015201612937565b505f602082860101526020601f19601f83011685010191505092915050565b838152606060208201525f61298a6060830185612849565b8281036040840152610d30818561292f565b5f82825180855260208086019550808260051b8401018186015f5b8481101561274157858303601f19018952815180516001600160a01b039081168552908501516040868601819052815181870181905291870192909160609190828801905f5b81811015612a355786518051851684528b81015160ff168c85015286015163ffffffff1686840152958a0195918401916001016129fd565b50509c88019c965050509285019250506001016129b7565b848152608060208201525f612a656080830186612849565b8281036040840152612a77818661299c565b90508281036060840152612a8b818561292f565b979650505050505050565b6001600160a01b038616815260a060208201525f612ab760a083018761292f565b8281036040840152612ac98187612849565b90508281036060840152612add818661299c565b90508281036080840152612af1818561292f565b98975050505050505050565b818103818111156124a9576124a9612482565b5f8085851115612b1e575f80fd5b83861115612b2a575f80fd5b5050820193919092039150565b6bffffffffffffffffffffffff198135818116916014851015612b645780818660140360031b1b83161692505b50509291505056fea26469706673582212200f3c7d6d12656f095f1ab689d000841814ca92e368c555cc1a1cd0510b56c4b564736f6c63430008170033",
			"deployedBytecode": "0x608060405234801561000f575f80fd5b5060043610610085575f3560e01c8063abf8c5c811610058578063abf8c5c81461016f578063d89acff714610196578063ea38480b146101a9578063f434c914146101bc575f80fd5b8063572b6c05146100895780636386000a146100de5780637da0a8771461010e57806388bc2ef314610148575b5f80fd5b6100c9610097366004611442565b7f000000000000000000000000c29d6995ab3b0df4650ad643adeac55e7acbb5666001600160a01b0390811691161490565b60405190151581526020015b60405180910390f35b6100f16100ec36600461147b565b6101e3565b604080519283526001600160a01b039091166020830152016100d5565b7f000000000000000000000000c29d6995ab3b0df4650ad643adeac55e7acbb5665b6040516001600160a01b0390911681526020016100d5565b6101307f0000000000000000000000000061e516886a0540f63157f112c0588ee0651dcf81565b6101307f000000000000000000000000ef60878d00378ac5f93d209f4616450ee8d41ca781565b6100f16101a4366004611511565b61042b565b6100f16101b7366004611582565b6106e7565b6101307f00000000000000000000000004fd6913d6c32d8c216e153a43c04b1857a7793d81565b5f806102dc7f0000000000000000000000000061e516886a0540f63157f112c0588ee0651dcf6001600160a01b031663293c49996040518163ffffffff1660e01b8152600401602060405180830381865afa158015610244573d5f803e3d5ffd5b505050506040513d601f19601f8201168201806040525081019061026891906115bd565b6001600160a01b0316636352211e896040518263ffffffff1660e01b815260040161029591815260200190565b602060405180830381865afa1580156102b0573d5f803e3d5ffd5b505050506040513d601f19601f820116820180604052508101906102d491906115bd565b886002610920565b6001600160a01b037f000000000000000000000000ef60878d00378ac5f93d209f4616450ee8d41ca71663ea74b8af888886156103525761031b610a3f565b604080516001600160a01b039092166020830152810188905260600160405160208183030381529060405280519060200120610354565b5f5b6040518463ffffffff1660e01b815260040161037293929190611925565b6020604051808303815f875af115801561038e573d5f803e3d5ffd5b505050506040513d601f19601f820116820180604052508101906103b291906115bd565b6040516351106b4b60e11b8152600481018990529091506001600160a01b0382169063a220d696906024015f604051808303815f87803b1580156103f4575f80fd5b505af1158015610406573d5f803e3d5ffd5b5050505061041f8786610418906121fb565b8387610a4d565b91509550959350505050565b5f805f7f0000000000000000000000000061e516886a0540f63157f112c0588ee0651dcf6001600160a01b031663293c49996040518163ffffffff1660e01b8152600401602060405180830381865afa15801561048a573d5f803e3d5ffd5b505050506040513d601f19601f820116820180604052508101906104ae91906115bd565b6040516331a9108f60e11b8152600481018a9052909150610524906001600160a01b03831690636352211e90602401602060405180830381865afa1580156104f8573d5f803e3d5ffd5b505050506040513d601f19601f8201168201806040525081019061051c91906115bd565b896002610920565b6040516331a9108f60e11b815260048101899052610597906001600160a01b03831690636352211e90602401602060405180830381865afa15801561056b573d5f803e3d5ffd5b505050506040513d601f19601f8201168201806040525081019061058f91906115bd565b89600e610920565b6001600160a01b037f000000000000000000000000ef60878d00378ac5f93d209f4616450ee8d41ca71663ea74b8af8989871561060d576105d6610a3f565b604080516001600160a01b03909216602083015281018990526060016040516020818303038152906040528051906020012061060f565b5f5b6040518463ffffffff1660e01b815260040161062d93929190611925565b6020604051808303815f875af1158015610649573d5f803e3d5ffd5b505050506040513d601f19601f8201168201806040525081019061066d91906115bd565b6040516351106b4b60e11b8152600481018a90529092506001600160a01b0383169063a220d696906024015f604051808303815f87803b1580156106af575f80fd5b505af11580156106c1573d5f803e3d5ffd5b505050506106da88876106d3906123cd565b8488610d3a565b9250509550959350505050565b5f807f0000000000000000000000000061e516886a0540f63157f112c0588ee0651dcf6001600160a01b031663293c49996040518163ffffffff1660e01b8152600401602060405180830381865afa158015610745573d5f803e3d5ffd5b505050506040513d601f19601f8201168201806040525081019061076991906115bd565b6001600160a01b03166306661abd6040518163ffffffff1660e01b8152600401602060405180830381865afa1580156107a4573d5f803e3d5ffd5b505050506040513d601f19601f820116820180604052508101906107c8919061246b565b6107d3906001612496565b91506001600160a01b037f000000000000000000000000ef60878d00378ac5f93d209f4616450ee8d41ca71663ea74b8af8388861561084b57610814610a3f565b604080516001600160a01b03909216602083015281018890526060016040516020818303038152906040528051906020012061084d565b5f5b6040518463ffffffff1660e01b815260040161086b93929190611925565b6020604051808303815f875af1158015610887573d5f803e3d5ffd5b505050506040513d601f19601f820116820180604052508101906108ab91906115bd565b90506108c1876108ba876124af565b8387610fe2565b6040516351106b4b60e11b8152600481018390526001600160a01b0382169063a220d696906024015f604051808303815f87803b158015610900575f80fd5b505af1158015610912573d5f803e3d5ffd5b505050509550959350505050565b5f610929610a3f565b9050836001600160a01b0316816001600160a01b0316141580156109f65750604051631a45b42760e11b81526001600160a01b0382811660048301528581166024830152604482018590526064820184905260016084830181905260a48301527f00000000000000000000000004fd6913d6c32d8c216e153a43c04b1857a7793d169063348b684e9060c401602060405180830381865afa1580156109d0573d5f803e3d5ffd5b505050506040513d601f19601f820116820180604052508101906109f491906124ff565b155b15610a3957604051631326f75560e11b81526001600160a01b03808616600483015282166024820152604481018490526064810183905260840160405180910390fd5b50505050565b5f610a486112d3565b905090565b5f8084602001515167ffffffffffffffff811115610a6d57610a6d611a4e565b604051908082528060200260200182016040528015610aa657816020015b610a93611346565b815260200190600190039081610a8b5790505b5090505f5b856020015151811015610cbb575f86602001518281518110610acf57610acf61251a565b60200260200101519050604051806101000160405280825f015165ffffffffffff168152602001826020015163ffffffff16815260200182604001516dffffffffffffffffffffffffffff168152602001826060015163ffffffff16815260200182608001516001600160a01b031681526020016040518061026001604052808460a001515f015161ffff1681526020018460a001516020015161ffff1681526020018460a001516040015163ffffffff1681526020018460a0015160600151151581526020018460a0015160800151151581526020018460a0015160a00151151581526020015f151581526020018460a0015160c00151151581526020018460a0015160e00151151581526020018460a001516101000151151581526020018460a001516101200151151581526020018460a001516101400151151581526020018460a001516101600151151581526020018460a001516101800151151581526020018460a001516101a00151151581526020016001151581526020018460a001516101c0015115158152602001896001600160a01b031681526020018460a001516101e0015161ffff1681525081526020018260c0015181526020018260e00151815250838381518110610ca757610ca761251a565b602090810291909101015250600101610aab565b5060408086015190516303141db760e41b81526001600160a01b03851691633141db7091610cf0918a91869190600401612972565b6020604051808303815f875af1158015610d0c573d5f803e3d5ffd5b505050506040513d601f19601f82011682018060405250810190610d30919061246b565b9695505050505050565b5f8084602001515167ffffffffffffffff811115610d5a57610d5a611a4e565b604051908082528060200260200182016040528015610d9357816020015b610d80611346565b815260200190600190039081610d785790505b5090505f5b856020015151811015610fa8575f86602001518281518110610dbc57610dbc61251a565b60200260200101519050604051806101000160405280825f015165ffffffffffff168152602001826020015163ffffffff16815260200182604001516dffffffffffffffffffffffffffff168152602001826060015163ffffffff16815260200182608001516001600160a01b031681526020016040518061026001604052808460a001515f015161ffff1681526020018460a001516020015161ffff1681526020018460a001516040015163ffffffff1681526020018460a0015160600151151581526020018460a0015160800151151581526020018460a0015160a00151151581526020015f151581526020018460a0015160c00151151581526020018460a0015160e00151151581526020018460a001516101000151151581526020018460a001516101200151151581526020018460a001516101400151151581526020018460a001516101600151151581526020018460a001516101800151151581526020018460a001516101a00151151581526020016001151581526020018460a001516101c0015115158152602001896001600160a01b031681526020018460a001516101e0015161ffff1681525081526020018260c0015181526020018260e00151815250838381518110610f9457610f9461251a565b602090810291909101015250600101610d98565b50604080860151606087015191516339284f3560e01b81526001600160a01b038616926339284f3592610cf0928b92879291600401612a4d565b5f83602001515167ffffffffffffffff81111561100157611001611a4e565b60405190808252806020026020018201604052801561103a57816020015b611027611346565b81526020019060019003908161101f5790505b5090505f5b84602001515181101561124f575f856020015182815181106110635761106361251a565b60200260200101519050604051806101000160405280825f015165ffffffffffff168152602001826020015163ffffffff16815260200182604001516dffffffffffffffffffffffffffff168152602001826060015163ffffffff16815260200182608001516001600160a01b031681526020016040518061026001604052808460a001515f015161ffff1681526020018460a001516020015161ffff1681526020018460a001516040015163ffffffff1681526020018460a0015160600151151581526020018460a0015160800151151581526020018460a0015160a00151151581526020015f151581526020018460a0015160c00151151581526020018460a0015160e00151151581526020018460a001516101000151151581526020018460a001516101200151151581526020018460a001516101400151151581526020018460a001516101600151151581526020018460a001516101800151151581526020018460a001516101a00151151581526020016001151581526020018460a001516101c0015115158152602001886001600160a01b031681526020018460a001516101e0015161ffff1681525081526020018260c0015181526020018260e0015181525083838151811061123b5761123b61251a565b60209081029190910101525060010161103f565b50835160408086015160608701519151635c7465e560e01b81526001600160a01b03861693635c7465e59361128b938b93889290600401612a96565b6020604051808303815f875af11580156112a7573d5f803e3d5ffd5b505050506040513d601f19601f820116820180604052508101906112cb919061246b565b505050505050565b5f366014336001600160a01b037f000000000000000000000000c29d6995ab3b0df4650ad643adeac55e7acbb5661614801561130f5750808210155b1561133e575f366113208385612afd565b61132b928290612b10565b61133491612b37565b60601c9250505090565b339250505090565b6040805161010080820183525f808352602080840182905283850182905260608085018390526080808601849052865161026081018852848152928301849052958201839052810182905293840181905260a084810182905260c0850182905260e0850182905291840181905261012084018190526101408401819052610160840181905261018084018190526101a084018190526101c084018190526101e0840181905261020084018190526102208401819052610240840152909190820190815260200160608152602001606081525090565b6001600160a01b038116811461142f575f80fd5b50565b803561143d8161141b565b919050565b5f60208284031215611452575f80fd5b813561145d8161141b565b9392505050565b5f6101608284031215611475575f80fd5b50919050565b5f805f805f60a0868803121561148f575f80fd5b85359450602086013567ffffffffffffffff808211156114ad575f80fd5b6114b989838a01611464565b955060408801359150808211156114ce575f80fd5b508601606081890312156114e0575f80fd5b925060608601356114f08161141b565b949793965091946080013592915050565b5f60808284031215611475575f80fd5b5f805f805f60a08688031215611525575f80fd5b85359450602086013567ffffffffffffffff80821115611543575f80fd5b61154f89838a01611464565b95506040880135915080821115611564575f80fd5b5061157188828901611501565b93505060608601356114f08161141b565b5f805f805f60a08688031215611596575f80fd5b85356115a18161141b565b9450602086013567ffffffffffffffff80821115611543575f80fd5b5f602082840312156115cd575f80fd5b815161145d8161141b565b5f808335601e198436030181126115ed575f80fd5b830160208101925035905067ffffffffffffffff81111561160c575f80fd5b80360382131561161a575f80fd5b9250929050565b81835281816020850137505f828201602090810191909152601f909101601f19169091010190565b5f8235607e1983360301811261165d575f80fd5b90910192915050565b80356cffffffffffffffffffffffffff8116811461143d575f80fd5b803563ffffffff8116811461143d575f80fd5b803561ffff8116811461143d575f80fd5b803562ffffff8116811461143d575f80fd5b803560ff8116811461143d575f80fd5b801515811461142f575f80fd5b803561143d816116c8565b5f60808084018335601e198536030181126116f9575f80fd5b8401602081810191359067ffffffffffffffff821115611717575f80fd5b6101c0808302360384131561172a575f80fd5b608089529382905260a0938489015f5b84811015611875576117628261174f88611666565b6cffffffffffffffffffffffffff169052565b61176d848701611682565b63ffffffff16848301526040611784878201611682565b63ffffffff1690830152606061179b878201611695565b61ffff16908301526117ae868901611432565b6001600160a01b031688830152858701358783015260c06117d08188016116a6565b62ffffff169083015260e06117e68782016116b8565b60ff16908301526101006117fb8782016116d5565b15159083015261012061180f8782016116d5565b1515908301526101406118238782016116d5565b1515908301526101606118378782016116d5565b15159083015261018061184b8782016116d5565b1515908301526101a061185f8782016116d5565b151590830152948201949082019060010161173a565b5061188260208a01611682565b63ffffffff811660208c0152965061189c60408a016116b8565b60ff811660408c015296506118b360608a01611432565b6001600160a01b03811660608c015296509998505050505050505050565b80356118dc816116c8565b1515825260208101356118ee816116c8565b151560208301526040810135611903816116c8565b151560408301526060810135611918816116c8565b8015156060840152505050565b838152606060208201525f61193a84856115d8565b61016060608501526119516101c085018284611621565b91505061196160208601866115d8565b605f1980868503016080870152611979848385611621565b935061198860408901896115d8565b93509150808685030160a08701526119a1848484611621565b93506119af60608901611432565b6001600160a01b03811660c088015292506119cd60808901896115d8565b93509150808685030160e08701526119e6848484611621565b93506119f560a0890189611649565b925080868503016101008701525050611a0e82826116e0565b915050611a1d60c08601611432565b6001600160a01b0316610120840152611a3d610140840160e087016118d1565b604092909201929092529392505050565b634e487b7160e01b5f52604160045260245ffd5b604051610200810167ffffffffffffffff81118282101715611a8657611a86611a4e565b60405290565b6040805190810167ffffffffffffffff81118282101715611a8657611a86611a4e565b60405160c0810167ffffffffffffffff81118282101715611a8657611a86611a4e565b6040516080810167ffffffffffffffff81118282101715611a8657611a86611a4e565b604051610100810167ffffffffffffffff81118282101715611a8657611a86611a4e565b6040516060810167ffffffffffffffff81118282101715611a8657611a86611a4e565b604051601f8201601f1916810167ffffffffffffffff81118282101715611b6557611b65611a4e565b604052919050565b803566ffffffffffffff8116811461143d575f80fd5b5f67ffffffffffffffff821115611b9c57611b9c611a4e565b5060051b60200190565b803565ffffffffffff8116811461143d575f80fd5b80356dffffffffffffffffffffffffffff8116811461143d575f80fd5b5f6102008284031215611be9575f80fd5b611bf1611a62565b9050611bfc82611695565b8152611c0a60208301611695565b6020820152611c1b60408301611682565b6040820152611c2c606083016116d5565b6060820152611c3d608083016116d5565b6080820152611c4e60a083016116d5565b60a0820152611c5f60c083016116d5565b60c0820152611c7060e083016116d5565b60e0820152610100611c838184016116d5565b90820152610120611c958382016116d5565b90820152610140611ca78382016116d5565b90820152610160611cb98382016116d5565b90820152610180611ccb8382016116d5565b908201526101a0611cdd8382016116d5565b908201526101c0611cef8382016116d5565b908201526101e0611d01838201611695565b9082015292915050565b5f82601f830112611d1a575f80fd5b81356020611d2f611d2a83611b83565b611b3c565b82815260059290921b84018101918181019086841115611d4d575f80fd5b8286015b84811015611e9c5767ffffffffffffffff8082351115611d6f575f80fd5b813588016040818b03601f19011215611d86575f80fd5b611d8e611a8c565b868201358152604082013583811115611da5575f80fd5b8083019250508a603f830112611db9575f80fd5b86820135611dc9611d2a82611b83565b81815260c0909102830160400190888101908d831115611de7575f80fd5b6040850194505b82851015611e875760c0858f031215611e05575f80fd5b611e0d611aaf565b611e1686611682565b81528a8601358781168114611e29575f80fd5b818c01526040860135611e3b8161141b565b60408201526060860135611e4e816116c8565b6060820152611e5f60808701611ba6565b6080820152611e7060a08701611432565b60a0820152825260c0949094019390890190611dee565b838a0152505085525050918301918301611d51565b509695505050505050565b5f82601f830112611eb6575f80fd5b81356020611ec6611d2a83611b83565b82815260069290921b84018101918181019086841115611ee4575f80fd5b8286015b84811015611e9c5760408189031215611eff575f80fd5b611f07611a8c565b81357bffffffffffffffffffffffffffffffffffffffffffffffffffffffff81168114611f32575f80fd5b8152611f3f828601611682565b81860152835291830191604001611ee8565b5f82601f830112611f60575f80fd5b81356020611f70611d2a83611b83565b82815260059290921b84018101918181019086841115611f8e575f80fd5b8286015b84811015611e9c57803567ffffffffffffffff80821115611fb1575f80fd5b908801906080828b03601f1901811315611fc9575f80fd5b611fd1611ad2565b87840135611fde8161141b565b8152604084810135611fef8161141b565b828a015260608581013585811115612005575f80fd5b6120138f8c838a0101611ea7565b8484015250928501359284841115612029575f80fd5b6120378e8b86890101611ea7565b90830152508652505050918301918301611f92565b5f82601f83011261205b575f80fd5b8135602061206b611d2a83611b83565b82815260059290921b84018101918181019086841115612089575f80fd5b8286015b84811015611e9c57803567ffffffffffffffff808211156120ac575f80fd5b908801906102e0828b03601f19018113156120c5575f80fd5b6120cd611af5565b6120d8888501611ba6565b815260406120e7818601611682565b8983015260606120f8818701611bbb565b828401526080915061210b828701611682565b9083015260a061211c868201611432565b8284015260c091506121308e838801611bd8565b908301526102c085013584811115612146575f80fd5b6121548e8b83890101611d0b565b8284015250508184013591508282111561216c575f80fd5b61217a8c8984870101611f51565b60e0820152865250505091830191830161208d565b5f82601f83011261219e575f80fd5b813567ffffffffffffffff8111156121b8576121b8611a4e565b6121cb601f8201601f1916602001611b3c565b8181528460208386010111156121df575f80fd5b816020850160208301375f918101602001919091529392505050565b5f6060823603121561220b575f80fd5b612213611b19565b61221c83611b6d565b8152602083013567ffffffffffffffff80821115612238575f80fd5b6122443683870161204c565b6020840152604085013591508082111561225c575f80fd5b506122693682860161218f565b60408301525092915050565b5f82601f830112612284575f80fd5b81356020612294611d2a83611b83565b82815260059290921b840181019181810190868411156122b2575f80fd5b8286015b84811015611e9c57803567ffffffffffffffff808211156122d5575f80fd5b908801906040828b03601f19018113156122ed575f80fd5b6122f5611a8c565b878401356123028161141b565b81528382013583811115612314575f80fd5b8085019450508b603f850112612328575f80fd5b87840135925061233a611d2a84611b83565b83815260609093028401820192888101908d851115612357575f80fd5b948301945b848610156123b8576060868f031215612373575f80fd5b61237b611b19565b86356123868161141b565b8152612393878c016116b8565b8b8201526123a2858801611682565b818601528252606095909501949089019061235c565b828a01525086525050509183019183016122b6565b5f608082360312156123dd575f80fd5b6123e5611ad2565b6123ee83611b6d565b8152602083013567ffffffffffffffff8082111561240a575f80fd5b6124163683870161204c565b6020840152604085013591508082111561242e575f80fd5b61243a36838701612275565b60408401526060850135915080821115612452575f80fd5b5061245f3682860161218f565b60608301525092915050565b5f6020828403121561247b575f80fd5b5051919050565b634e487b7160e01b5f52601160045260245ffd5b808201808211156124a9576124a9612482565b92915050565b5f608082360312156124bf575f80fd5b6124c7611ad2565b823567ffffffffffffffff808211156124de575f80fd5b6124ea3683870161218f565b8352602085013591508082111561240a575f80fd5b5f6020828403121561250f575f80fd5b815161145d816116c8565b634e487b7160e01b5f52603260045260245ffd5b805161ffff168252602081015161254b602084018261ffff169052565b506040810151612563604084018263ffffffff169052565b506060810151612577606084018215159052565b50608081015161258b608084018215159052565b5060a081015161259f60a084018215159052565b5060c08101516125b360c084018215159052565b5060e08101516125c760e084018215159052565b5061010081810151151590830152610120808201511515908301526101408082015115159083015261016080820151151590830152610180808201511515908301526101a0808201511515908301526101c0808201511515908301526101e08082015115159083015261020080820151151590830152610220808201516001600160a01b0316908301526102408082015161ffff811682850152610a39565b5f82825180855260208086019550808260051b8401018186015f5b8481101561274157858303601f190189528151805184528401516040858501819052815181860181905291860191606090818701905f5b8181101561272a578551805163ffffffff1684528a81015167ffffffffffffffff168b850152858101516001600160a01b03908116878601528582015115158686015260808083015165ffffffffffff169086015260a09182015116908401529489019460c0909201916001016126b8565b50509b87019b955050509184019150600101612681565b5090979650505050505050565b5f815180845260208085019450602084015f5b838110156127ac57815180517bffffffffffffffffffffffffffffffffffffffffffffffffffffffff16885283015163ffffffff168388015260409096019590820190600101612761565b509495945050505050565b5f82825180855260208086019550808260051b8401018186015f5b8481101561274157601f19868403018952815160806001600160a01b03808351168652808784015116878701525060408083015182828801526128178388018261274e565b9250505060608083015192508582038187015250612835818361274e565b9a86019a94505050908301906001016127d2565b5f82825180855260208086019550808260051b8401018186015f5b8481101561274157601f198684030189528151805165ffffffffffff1684528481015163ffffffff908116868601526040808301516dffffffffffffffffffffffffffff1690860152606080830151909116908501526080808201516001600160a01b03169085015260a08082015161034091906128e48288018261252e565b505060c0820151816103008701526128fe82870182612666565b91505060e0820151915084810361032086015261291b81836127b7565b9a86019a9450505090830190600101612864565b5f81518084525f5b8181101561295357602081850181015186830182015201612937565b505f602082860101526020601f19601f83011685010191505092915050565b838152606060208201525f61298a6060830185612849565b8281036040840152610d30818561292f565b5f82825180855260208086019550808260051b8401018186015f5b8481101561274157858303601f19018952815180516001600160a01b039081168552908501516040868601819052815181870181905291870192909160609190828801905f5b81811015612a355786518051851684528b81015160ff168c85015286015163ffffffff1686840152958a0195918401916001016129fd565b50509c88019c965050509285019250506001016129b7565b848152608060208201525f612a656080830186612849565b8281036040840152612a77818661299c565b90508281036060840152612a8b818561292f565b979650505050505050565b6001600160a01b038616815260a060208201525f612ab760a083018761292f565b8281036040840152612ac98187612849565b90508281036060840152612add818661299c565b90508281036080840152612af1818561292f565b98975050505050505050565b818103818111156124a9576124a9612482565b5f8085851115612b1e575f80fd5b83861115612b2a575f80fd5b5050820193919092039150565b6bffffffffffffffffffffffff198135818116916014851015612b645780818660140360031b1b83161692505b50509291505056fea26469706673582212200f3c7d6d12656f095f1ab689d000841814ca92e368c555cc1a1cd0510b56c4b564736f6c63430008170033",
			"metadata": "{\"compiler\":{\"version\":\"0.8.23+commit.f704f362\"},\"language\":\"Solidity\",\"output\":{\"abi\":[{\"inputs\":[{\"internalType\":\"contract IJBDirectory\",\"name\":\"directory\",\"type\":\"address\"},{\"internalType\":\"contract IJBPermissions\",\"name\":\"permissions\",\"type\":\"address\"},{\"internalType\":\"contract IJB721TiersHookDeployer\",\"name\":\"hookDeployer\",\"type\":\"address\"},{\"internalType\":\"address\",\"name\":\"trustedForwarder\",\"type\":\"address\"}],\"stateMutability\":\"nonpayable\",\"type\":\"constructor\"},{\"inputs\":[{\"internalType\":\"address\",\"name\":\"account\",\"type\":\"address\"},{\"internalType\":\"address\",\"name\":\"sender\",\"type\":\"address\"},{\"internalType\":\"uint256\",\"name\":\"projectId\",\"type\":\"uint256\"},{\"internalType\":\"uint256\",\"name\":\"permissionId\",\"type\":\"uint256\"}],\"name\":\"JBPermissioned_Unauthorized\",\"type\":\"error\"},{\"inputs\":[],\"name\":\"DIRECTORY\",\"outputs\":[{\"internalType\":\"contract IJBDirectory\",\"name\":\"\",\"type\":\"address\"}],\"stateMutability\":\"view\",\"type\":\"function\"},{\"inputs\":[],\"name\":\"HOOK_DEPLOYER\",\"outputs\":[{\"internalType\":\"contract IJB721TiersHookDeployer\",\"name\":\"\",\"type\":\"address\"}],\"stateMutability\":\"view\",\"type\":\"function\"},{\"inputs\":[],\"name\":\"PERMISSIONS\",\"outputs\":[{\"internalType\":\"contract IJBPermissions\",\"name\":\"\",\"type\":\"address\"}],\"stateMutability\":\"view\",\"type\":\"function\"},{\"inputs\":[{\"internalType\":\"address\",\"name\":\"forwarder\",\"type\":\"address\"}],\"name\":\"isTrustedForwarder\",\"outputs\":[{\"internalType\":\"bool\",\"name\":\"\",\"type\":\"bool\"}],\"stateMutability\":\"view\",\"type\":\"function\"},{\"inputs\":[{\"internalType\":\"address\",\"name\":\"owner\",\"type\":\"address\"},{\"components\":[{\"internalType\":\"string\",\"name\":\"name\",\"type\":\"string\"},{\"internalType\":\"string\",\"name\":\"symbol\",\"type\":\"string\"},{\"internalType\":\"string\",\"name\":\"baseUri\",\"type\":\"string\"},{\"internalType\":\"contract IJB721TokenUriResolver\",\"name\":\"tokenUriResolver\",\"type\":\"address\"},{\"internalType\":\"string\",\"name\":\"contractUri\",\"type\":\"string\"},{\"components\":[{\"components\":[{\"internalType\":\"uint104\",\"name\":\"price\",\"type\":\"uint104\"},{\"internalType\":\"uint32\",\"name\":\"initialSupply\",\"type\":\"uint32\"},{\"internalType\":\"uint32\",\"name\":\"votingUnits\",\"type\":\"uint32\"},{\"internalType\":\"uint16\",\"name\":\"reserveFrequency\",\"type\":\"uint16\"},{\"internalType\":\"address\",\"name\":\"reserveBeneficiary\",\"type\":\"address\"},{\"internalType\":\"bytes32\",\"name\":\"encodedIPFSUri\",\"type\":\"bytes32\"},{\"internalType\":\"uint24\",\"name\":\"category\",\"type\":\"uint24\"},{\"internalType\":\"uint8\",\"name\":\"discountPercent\",\"type\":\"uint8\"},{\"internalType\":\"bool\",\"name\":\"allowOwnerMint\",\"type\":\"bool\"},{\"internalType\":\"bool\",\"name\":\"useReserveBeneficiaryAsDefault\",\"type\":\"bool\"},{\"internalType\":\"bool\",\"name\":\"transfersPausable\",\"type\":\"bool\"},{\"internalType\":\"bool\",\"name\":\"useVotingUnits\",\"type\":\"bool\"},{\"internalType\":\"bool\",\"name\":\"cannotBeRemoved\",\"type\":\"bool\"},{\"internalType\":\"bool\",\"name\":\"cannotIncreaseDiscountPercent\",\"type\":\"bool\"}],\"internalType\":\"struct JB721TierConfig[]\",\"name\":\"tiers\",\"type\":\"tuple[]\"},{\"internalType\":\"uint32\",\"name\":\"currency\",\"type\":\"uint32\"},{\"internalType\":\"uint8\",\"name\":\"decimals\",\"type\":\"uint8\"},{\"internalType\":\"contract IJBPrices\",\"name\":\"prices\",\"type\":\"address\"}],\"internalType\":\"struct JB721InitTiersConfig\",\"name\":\"tiersConfig\",\"type\":\"tuple\"},{\"internalType\":\"address\",\"name\":\"reserveBeneficiary\",\"type\":\"address\"},{\"components\":[{\"internalType\":\"bool\",\"name\":\"noNewTiersWithReserves\",\"type\":\"bool\"},{\"internalType\":\"bool\",\"name\":\"noNewTiersWithVotes\",\"type\":\"bool\"},{\"internalType\":\"bool\",\"name\":\"noNewTiersWithOwnerMinting\",\"type\":\"bool\"},{\"internalType\":\"bool\",\"name\":\"preventOverspending\",\"type\":\"bool\"}],\"internalType\":\"struct JB721TiersHookFlags\",\"name\":\"flags\",\"type\":\"tuple\"}],\"internalType\":\"struct JBDeploy721TiersHookConfig\",\"name\":\"deployTiersHookConfig\",\"type\":\"tuple\"},{\"components\":[{\"internalType\":\"string\",\"name\":\"projectUri\",\"type\":\"string\"},{\"components\":[{\"internalType\":\"uint48\",\"name\":\"mustStartAtOrAfter\",\"type\":\"uint48\"},{\"internalType\":\"uint32\",\"name\":\"duration\",\"type\":\"uint32\"},{\"internalType\":\"uint112\",\"name\":\"weight\",\"type\":\"uint112\"},{\"internalType\":\"uint32\",\"name\":\"weightCutPercent\",\"type\":\"uint32\"},{\"internalType\":\"contract IJBRulesetApprovalHook\",\"name\":\"approvalHook\",\"type\":\"address\"},{\"components\":[{\"internalType\":\"uint16\",\"name\":\"reservedPercent\",\"type\":\"uint16\"},{\"internalType\":\"uint16\",\"name\":\"cashOutTaxRate\",\"type\":\"uint16\"},{\"internalType\":\"uint32\",\"name\":\"baseCurrency\",\"type\":\"uint32\"},{\"internalType\":\"bool\",\"name\":\"pausePay\",\"type\":\"bool\"},{\"internalType\":\"bool\",\"name\":\"pauseCreditTransfers\",\"type\":\"bool\"},{\"internalType\":\"bool\",\"name\":\"allowOwnerMinting\",\"type\":\"bool\"},{\"internalType\":\"bool\",\"name\":\"allowTerminalMigration\",\"type\":\"bool\"},{\"internalType\":\"bool\",\"name\":\"allowSetTerminals\",\"type\":\"bool\"},{\"internalType\":\"bool\",\"name\":\"allowSetController\",\"type\":\"bool\"},{\"internalType\":\"bool\",\"name\":\"allowAddAccountingContext\",\"type\":\"bool\"},{\"internalType\":\"bool\",\"name\":\"allowAddPriceFeed\",\"type\":\"bool\"},{\"internalType\":\"bool\",\"name\":\"ownerMustSendPayouts\",\"type\":\"bool\"},{\"internalType\":\"bool\",\"name\":\"holdFees\",\"type\":\"bool\"},{\"internalType\":\"bool\",\"name\":\"useTotalSurplusForCashOuts\",\"type\":\"bool\"},{\"internalType\":\"bool\",\"name\":\"useDataHookForCashOut\",\"type\":\"bool\"},{\"internalType\":\"uint16\",\"name\":\"metadata\",\"type\":\"uint16\"}],\"internalType\":\"struct JBPayDataHookRulesetMetadata\",\"name\":\"metadata\",\"type\":\"tuple\"},{\"components\":[{\"internalType\":\"uint256\",\"name\":\"groupId\",\"type\":\"uint256\"},{\"components\":[{\"internalType\":\"uint32\",\"name\":\"percent\",\"type\":\"uint32\"},{\"internalType\":\"uint64\",\"name\":\"projectId\",\"type\":\"uint64\"},{\"internalType\":\"address payable\",\"name\":\"beneficiary\",\"type\":\"address\"},{\"internalType\":\"bool\",\"name\":\"preferAddToBalance\",\"type\":\"bool\"},{\"internalType\":\"uint48\",\"name\":\"lockedUntil\",\"type\":\"uint48\"},{\"internalType\":\"contract IJBSplitHook\",\"name\":\"hook\",\"type\":\"address\"}],\"internalType\":\"struct JBSplit[]\",\"name\":\"splits\",\"type\":\"tuple[]\"}],\"internalType\":\"struct JBSplitGroup[]\",\"name\":\"splitGroups\",\"type\":\"tuple[]\"},{\"components\":[{\"internalType\":\"address\",\"name\":\"terminal\",\"type\":\"address\"},{\"internalType\":\"address\",\"name\":\"token\",\"type\":\"address\"},{\"components\":[{\"internalType\":\"uint224\",\"name\":\"amount\",\"type\":\"uint224\"},{\"internalType\":\"uint32\",\"name\":\"currency\",\"type\":\"uint32\"}],\"internalType\":\"struct JBCurrencyAmount[]\",\"name\":\"payoutLimits\",\"type\":\"tuple[]\"},{\"components\":[{\"internalType\":\"uint224\",\"name\":\"amount\",\"type\":\"uint224\"},{\"internalType\":\"uint32\",\"name\":\"currency\",\"type\":\"uint32\"}],\"internalType\":\"struct JBCurrencyAmount[]\",\"name\":\"surplusAllowances\",\"type\":\"tuple[]\"}],\"internalType\":\"struct JBFundAccessLimitGroup[]\",\"name\":\"fundAccessLimitGroups\",\"type\":\"tuple[]\"}],\"internalType\":\"struct JBPayDataHookRulesetConfig[]\",\"name\":\"rulesetConfigurations\",\"type\":\"tuple[]\"},{\"components\":[{\"internalType\":\"contract IJBTerminal\",\"name\":\"terminal\",\"type\":\"address\"},{\"components\":[{\"internalType\":\"address\",\"name\":\"token\",\"type\":\"address\"},{\"internalType\":\"uint8\",\"name\":\"decimals\",\"type\":\"uint8\"},{\"internalType\":\"uint32\",\"name\":\"currency\",\"type\":\"uint32\"}],\"internalType\":\"struct JBAccountingContext[]\",\"name\":\"accountingContextsToAccept\",\"type\":\"tuple[]\"}],\"internalType\":\"struct JBTerminalConfig[]\",\"name\":\"terminalConfigurations\",\"type\":\"tuple[]\"},{\"internalType\":\"string\",\"name\":\"memo\",\"type\":\"string\"}],\"internalType\":\"struct JBLaunchProjectConfig\",\"name\":\"launchProjectConfig\",\"type\":\"tuple\"},{\"internalType\":\"contract IJBController\",\"name\":\"controller\",\"type\":\"address\"},{\"internalType\":\"bytes32\",\"name\":\"salt\",\"type\":\"bytes32\"}],\"name\":\"launchProjectFor\",\"outputs\":[{\"internalType\":\"uint256\",\"name\":\"projectId\",\"type\":\"uint256\"},{\"internalType\":\"contract IJB721TiersHook\",\"name\":\"hook\",\"type\":\"address\"}],\"stateMutability\":\"nonpayable\",\"type\":\"function\"},{\"inputs\":[{\"internalType\":\"uint256\",\"name\":\"projectId\",\"type\":\"uint256\"},{\"components\":[{\"internalType\":\"string\",\"name\":\"name\",\"type\":\"string\"},{\"internalType\":\"string\",\"name\":\"symbol\",\"type\":\"string\"},{\"internalType\":\"string\",\"name\":\"baseUri\",\"type\":\"string\"},{\"internalType\":\"contract IJB721TokenUriResolver\",\"name\":\"tokenUriResolver\",\"type\":\"address\"},{\"internalType\":\"string\",\"name\":\"contractUri\",\"type\":\"string\"},{\"components\":[{\"components\":[{\"internalType\":\"uint104\",\"name\":\"price\",\"type\":\"uint104\"},{\"internalType\":\"uint32\",\"name\":\"initialSupply\",\"type\":\"uint32\"},{\"internalType\":\"uint32\",\"name\":\"votingUnits\",\"type\":\"uint32\"},{\"internalType\":\"uint16\",\"name\":\"reserveFrequency\",\"type\":\"uint16\"},{\"internalType\":\"address\",\"name\":\"reserveBeneficiary\",\"type\":\"address\"},{\"internalType\":\"bytes32\",\"name\":\"encodedIPFSUri\",\"type\":\"bytes32\"},{\"internalType\":\"uint24\",\"name\":\"category\",\"type\":\"uint24\"},{\"internalType\":\"uint8\",\"name\":\"discountPercent\",\"type\":\"uint8\"},{\"internalType\":\"bool\",\"name\":\"allowOwnerMint\",\"type\":\"bool\"},{\"internalType\":\"bool\",\"name\":\"useReserveBeneficiaryAsDefault\",\"type\":\"bool\"},{\"internalType\":\"bool\",\"name\":\"transfersPausable\",\"type\":\"bool\"},{\"internalType\":\"bool\",\"name\":\"useVotingUnits\",\"type\":\"bool\"},{\"internalType\":\"bool\",\"name\":\"cannotBeRemoved\",\"type\":\"bool\"},{\"internalType\":\"bool\",\"name\":\"cannotIncreaseDiscountPercent\",\"type\":\"bool\"}],\"internalType\":\"struct JB721TierConfig[]\",\"name\":\"tiers\",\"type\":\"tuple[]\"},{\"internalType\":\"uint32\",\"name\":\"currency\",\"type\":\"uint32\"},{\"internalType\":\"uint8\",\"name\":\"decimals\",\"type\":\"uint8\"},{\"internalType\":\"contract IJBPrices\",\"name\":\"prices\",\"type\":\"address\"}],\"internalType\":\"struct JB721InitTiersConfig\",\"name\":\"tiersConfig\",\"type\":\"tuple\"},{\"internalType\":\"address\",\"name\":\"reserveBeneficiary\",\"type\":\"address\"},{\"components\":[{\"internalType\":\"bool\",\"name\":\"noNewTiersWithReserves\",\"type\":\"bool\"},{\"internalType\":\"bool\",\"name\":\"noNewTiersWithVotes\",\"type\":\"bool\"},{\"internalType\":\"bool\",\"name\":\"noNewTiersWithOwnerMinting\",\"type\":\"bool\"},{\"internalType\":\"bool\",\"name\":\"preventOverspending\",\"type\":\"bool\"}],\"internalType\":\"struct JB721TiersHookFlags\",\"name\":\"flags\",\"type\":\"tuple\"}],\"internalType\":\"struct JBDeploy721TiersHookConfig\",\"name\":\"deployTiersHookConfig\",\"type\":\"tuple\"},{\"components\":[{\"internalType\":\"uint56\",\"name\":\"projectId\",\"type\":\"uint56\"},{\"components\":[{\"internalType\":\"uint48\",\"name\":\"mustStartAtOrAfter\",\"type\":\"uint48\"},{\"internalType\":\"uint32\",\"name\":\"duration\",\"type\":\"uint32\"},{\"internalType\":\"uint112\",\"name\":\"weight\",\"type\":\"uint112\"},{\"internalType\":\"uint32\",\"name\":\"weightCutPercent\",\"type\":\"uint32\"},{\"internalType\":\"contract IJBRulesetApprovalHook\",\"name\":\"approvalHook\",\"type\":\"address\"},{\"components\":[{\"internalType\":\"uint16\",\"name\":\"reservedPercent\",\"type\":\"uint16\"},{\"internalType\":\"uint16\",\"name\":\"cashOutTaxRate\",\"type\":\"uint16\"},{\"internalType\":\"uint32\",\"name\":\"baseCurrency\",\"type\":\"uint32\"},{\"internalType\":\"bool\",\"name\":\"pausePay\",\"type\":\"bool\"},{\"internalType\":\"bool\",\"name\":\"pauseCreditTransfers\",\"type\":\"bool\"},{\"internalType\":\"bool\",\"name\":\"allowOwnerMinting\",\"type\":\"bool\"},{\"internalType\":\"bool\",\"name\":\"allowTerminalMigration\",\"type\":\"bool\"},{\"internalType\":\"bool\",\"name\":\"allowSetTerminals\",\"type\":\"bool\"},{\"internalType\":\"bool\",\"name\":\"allowSetController\",\"type\":\"bool\"},{\"internalType\":\"bool\",\"name\":\"allowAddAccountingContext\",\"type\":\"bool\"},{\"internalType\":\"bool\",\"name\":\"allowAddPriceFeed\",\"type\":\"bool\"},{\"internalType\":\"bool\",\"name\":\"ownerMustSendPayouts\",\"type\":\"bool\"},{\"internalType\":\"bool\",\"name\":\"holdFees\",\"type\":\"bool\"},{\"internalType\":\"bool\",\"name\":\"useTotalSurplusForCashOuts\",\"type\":\"bool\"},{\"internalType\":\"bool\",\"name\":\"useDataHookForCashOut\",\"type\":\"bool\"},{\"internalType\":\"uint16\",\"name\":\"metadata\",\"type\":\"uint16\"}],\"internalType\":\"struct JBPayDataHookRulesetMetadata\",\"name\":\"metadata\",\"type\":\"tuple\"},{\"components\":[{\"internalType\":\"uint256\",\"name\":\"groupId\",\"type\":\"uint256\"},{\"components\":[{\"internalType\":\"uint32\",\"name\":\"percent\",\"type\":\"uint32\"},{\"internalType\":\"uint64\",\"name\":\"projectId\",\"type\":\"uint64\"},{\"internalType\":\"address payable\",\"name\":\"beneficiary\",\"type\":\"address\"},{\"internalType\":\"bool\",\"name\":\"preferAddToBalance\",\"type\":\"bool\"},{\"internalType\":\"uint48\",\"name\":\"lockedUntil\",\"type\":\"uint48\"},{\"internalType\":\"contract IJBSplitHook\",\"name\":\"hook\",\"type\":\"address\"}],\"internalType\":\"struct JBSplit[]\",\"name\":\"splits\",\"type\":\"tuple[]\"}],\"internalType\":\"struct JBSplitGroup[]\",\"name\":\"splitGroups\",\"type\":\"tuple[]\"},{\"components\":[{\"internalType\":\"address\",\"name\":\"terminal\",\"type\":\"address\"},{\"internalType\":\"address\",\"name\":\"token\",\"type\":\"address\"},{\"components\":[{\"internalType\":\"uint224\",\"name\":\"amount\",\"type\":\"uint224\"},{\"internalType\":\"uint32\",\"name\":\"currency\",\"type\":\"uint32\"}],\"internalType\":\"struct JBCurrencyAmount[]\",\"name\":\"payoutLimits\",\"type\":\"tuple[]\"},{\"components\":[{\"internalType\":\"uint224\",\"name\":\"amount\",\"type\":\"uint224\"},{\"internalType\":\"uint32\",\"name\":\"currency\",\"type\":\"uint32\"}],\"internalType\":\"struct JBCurrencyAmount[]\",\"name\":\"surplusAllowances\",\"type\":\"tuple[]\"}],\"internalType\":\"struct JBFundAccessLimitGroup[]\",\"name\":\"fundAccessLimitGroups\",\"type\":\"tuple[]\"}],\"internalType\":\"struct JBPayDataHookRulesetConfig[]\",\"name\":\"rulesetConfigurations\",\"type\":\"tuple[]\"},{\"components\":[{\"internalType\":\"contract IJBTerminal\",\"name\":\"terminal\",\"type\":\"address\"},{\"components\":[{\"internalType\":\"address\",\"name\":\"token\",\"type\":\"address\"},{\"internalType\":\"uint8\",\"name\":\"decimals\",\"type\":\"uint8\"},{\"internalType\":\"uint32\",\"name\":\"currency\",\"type\":\"uint32\"}],\"internalType\":\"struct JBAccountingContext[]\",\"name\":\"accountingContextsToAccept\",\"type\":\"tuple[]\"}],\"internalType\":\"struct JBTerminalConfig[]\",\"name\":\"terminalConfigurations\",\"type\":\"tuple[]\"},{\"internalType\":\"string\",\"name\":\"memo\",\"type\":\"string\"}],\"internalType\":\"struct JBLaunchRulesetsConfig\",\"name\":\"launchRulesetsConfig\",\"type\":\"tuple\"},{\"internalType\":\"contract IJBController\",\"name\":\"controller\",\"type\":\"address\"},{\"internalType\":\"bytes32\",\"name\":\"salt\",\"type\":\"bytes32\"}],\"name\":\"launchRulesetsFor\",\"outputs\":[{\"internalType\":\"uint256\",\"name\":\"rulesetId\",\"type\":\"uint256\"},{\"internalType\":\"contract IJB721TiersHook\",\"name\":\"hook\",\"type\":\"address\"}],\"stateMutability\":\"nonpayable\",\"type\":\"function\"},{\"inputs\":[{\"internalType\":\"uint256\",\"name\":\"projectId\",\"type\":\"uint256\"},{\"components\":[{\"internalType\":\"string\",\"name\":\"name\",\"type\":\"string\"},{\"internalType\":\"string\",\"name\":\"symbol\",\"type\":\"string\"},{\"internalType\":\"string\",\"name\":\"baseUri\",\"type\":\"string\"},{\"internalType\":\"contract IJB721TokenUriResolver\",\"name\":\"tokenUriResolver\",\"type\":\"address\"},{\"internalType\":\"string\",\"name\":\"contractUri\",\"type\":\"string\"},{\"components\":[{\"components\":[{\"internalType\":\"uint104\",\"name\":\"price\",\"type\":\"uint104\"},{\"internalType\":\"uint32\",\"name\":\"initialSupply\",\"type\":\"uint32\"},{\"internalType\":\"uint32\",\"name\":\"votingUnits\",\"type\":\"uint32\"},{\"internalType\":\"uint16\",\"name\":\"reserveFrequency\",\"type\":\"uint16\"},{\"internalType\":\"address\",\"name\":\"reserveBeneficiary\",\"type\":\"address\"},{\"internalType\":\"bytes32\",\"name\":\"encodedIPFSUri\",\"type\":\"bytes32\"},{\"internalType\":\"uint24\",\"name\":\"category\",\"type\":\"uint24\"},{\"internalType\":\"uint8\",\"name\":\"discountPercent\",\"type\":\"uint8\"},{\"internalType\":\"bool\",\"name\":\"allowOwnerMint\",\"type\":\"bool\"},{\"internalType\":\"bool\",\"name\":\"useReserveBeneficiaryAsDefault\",\"type\":\"bool\"},{\"internalType\":\"bool\",\"name\":\"transfersPausable\",\"type\":\"bool\"},{\"internalType\":\"bool\",\"name\":\"useVotingUnits\",\"type\":\"bool\"},{\"internalType\":\"bool\",\"name\":\"cannotBeRemoved\",\"type\":\"bool\"},{\"internalType\":\"bool\",\"name\":\"cannotIncreaseDiscountPercent\",\"type\":\"bool\"}],\"internalType\":\"struct JB721TierConfig[]\",\"name\":\"tiers\",\"type\":\"tuple[]\"},{\"internalType\":\"uint32\",\"name\":\"currency\",\"type\":\"uint32\"},{\"internalType\":\"uint8\",\"name\":\"decimals\",\"type\":\"uint8\"},{\"internalType\":\"contract IJBPrices\",\"name\":\"prices\",\"type\":\"address\"}],\"internalType\":\"struct JB721InitTiersConfig\",\"name\":\"tiersConfig\",\"type\":\"tuple\"},{\"internalType\":\"address\",\"name\":\"reserveBeneficiary\",\"type\":\"address\"},{\"components\":[{\"internalType\":\"bool\",\"name\":\"noNewTiersWithReserves\",\"type\":\"bool\"},{\"internalType\":\"bool\",\"name\":\"noNewTiersWithVotes\",\"type\":\"bool\"},{\"internalType\":\"bool\",\"name\":\"noNewTiersWithOwnerMinting\",\"type\":\"bool\"},{\"internalType\":\"bool\",\"name\":\"preventOverspending\",\"type\":\"bool\"}],\"internalType\":\"struct JB721TiersHookFlags\",\"name\":\"flags\",\"type\":\"tuple\"}],\"internalType\":\"struct JBDeploy721TiersHookConfig\",\"name\":\"deployTiersHookConfig\",\"type\":\"tuple\"},{\"components\":[{\"internalType\":\"uint56\",\"name\":\"projectId\",\"type\":\"uint56\"},{\"components\":[{\"internalType\":\"uint48\",\"name\":\"mustStartAtOrAfter\",\"type\":\"uint48\"},{\"internalType\":\"uint32\",\"name\":\"duration\",\"type\":\"uint32\"},{\"internalType\":\"uint112\",\"name\":\"weight\",\"type\":\"uint112\"},{\"internalType\":\"uint32\",\"name\":\"weightCutPercent\",\"type\":\"uint32\"},{\"internalType\":\"contract IJBRulesetApprovalHook\",\"name\":\"approvalHook\",\"type\":\"address\"},{\"components\":[{\"internalType\":\"uint16\",\"name\":\"reservedPercent\",\"type\":\"uint16\"},{\"internalType\":\"uint16\",\"name\":\"cashOutTaxRate\",\"type\":\"uint16\"},{\"internalType\":\"uint32\",\"name\":\"baseCurrency\",\"type\":\"uint32\"},{\"internalType\":\"bool\",\"name\":\"pausePay\",\"type\":\"bool\"},{\"internalType\":\"bool\",\"name\":\"pauseCreditTransfers\",\"type\":\"bool\"},{\"internalType\":\"bool\",\"name\":\"allowOwnerMinting\",\"type\":\"bool\"},{\"internalType\":\"bool\",\"name\":\"allowTerminalMigration\",\"type\":\"bool\"},{\"internalType\":\"bool\",\"name\":\"allowSetTerminals\",\"type\":\"bool\"},{\"internalType\":\"bool\",\"name\":\"allowSetController\",\"type\":\"bool\"},{\"internalType\":\"bool\",\"name\":\"allowAddAccountingContext\",\"type\":\"bool\"},{\"internalType\":\"bool\",\"name\":\"allowAddPriceFeed\",\"type\":\"bool\"},{\"internalType\":\"bool\",\"name\":\"ownerMustSendPayouts\",\"type\":\"bool\"},{\"internalType\":\"bool\",\"name\":\"holdFees\",\"type\":\"bool\"},{\"internalType\":\"bool\",\"name\":\"useTotalSurplusForCashOuts\",\"type\":\"bool\"},{\"internalType\":\"bool\",\"name\":\"useDataHookForCashOut\",\"type\":\"bool\"},{\"internalType\":\"uint16\",\"name\":\"metadata\",\"type\":\"uint16\"}],\"internalType\":\"struct JBPayDataHookRulesetMetadata\",\"name\":\"metadata\",\"type\":\"tuple\"},{\"components\":[{\"internalType\":\"uint256\",\"name\":\"groupId\",\"type\":\"uint256\"},{\"components\":[{\"internalType\":\"uint32\",\"name\":\"percent\",\"type\":\"uint32\"},{\"internalType\":\"uint64\",\"name\":\"projectId\",\"type\":\"uint64\"},{\"internalType\":\"address payable\",\"name\":\"beneficiary\",\"type\":\"address\"},{\"internalType\":\"bool\",\"name\":\"preferAddToBalance\",\"type\":\"bool\"},{\"internalType\":\"uint48\",\"name\":\"lockedUntil\",\"type\":\"uint48\"},{\"internalType\":\"contract IJBSplitHook\",\"name\":\"hook\",\"type\":\"address\"}],\"internalType\":\"struct JBSplit[]\",\"name\":\"splits\",\"type\":\"tuple[]\"}],\"internalType\":\"struct JBSplitGroup[]\",\"name\":\"splitGroups\",\"type\":\"tuple[]\"},{\"components\":[{\"internalType\":\"address\",\"name\":\"terminal\",\"type\":\"address\"},{\"internalType\":\"address\",\"name\":\"token\",\"type\":\"address\"},{\"components\":[{\"internalType\":\"uint224\",\"name\":\"amount\",\"type\":\"uint224\"},{\"internalType\":\"uint32\",\"name\":\"currency\",\"type\":\"uint32\"}],\"internalType\":\"struct JBCurrencyAmount[]\",\"name\":\"payoutLimits\",\"type\":\"tuple[]\"},{\"components\":[{\"internalType\":\"uint224\",\"name\":\"amount\",\"type\":\"uint224\"},{\"internalType\":\"uint32\",\"name\":\"currency\",\"type\":\"uint32\"}],\"internalType\":\"struct JBCurrencyAmount[]\",\"name\":\"surplusAllowances\",\"type\":\"tuple[]\"}],\"internalType\":\"struct JBFundAccessLimitGroup[]\",\"name\":\"fundAccessLimitGroups\",\"type\":\"tuple[]\"}],\"internalType\":\"struct JBPayDataHookRulesetConfig[]\",\"name\":\"rulesetConfigurations\",\"type\":\"tuple[]\"},{\"internalType\":\"string\",\"name\":\"memo\",\"type\":\"string\"}],\"internalType\":\"struct JBQueueRulesetsConfig\",\"name\":\"queueRulesetsConfig\",\"type\":\"tuple\"},{\"internalType\":\"contract IJBController\",\"name\":\"controller\",\"type\":\"address\"},{\"internalType\":\"bytes32\",\"name\":\"salt\",\"type\":\"bytes32\"}],\"name\":\"queueRulesetsOf\",\"outputs\":[{\"internalType\":\"uint256\",\"name\":\"rulesetId\",\"type\":\"uint256\"},{\"internalType\":\"contract IJB721TiersHook\",\"name\":\"hook\",\"type\":\"address\"}],\"stateMutability\":\"nonpayable\",\"type\":\"function\"},{\"inputs\":[],\"name\":\"trustedForwarder\",\"outputs\":[{\"internalType\":\"address\",\"name\":\"\",\"type\":\"address\"}],\"stateMutability\":\"view\",\"type\":\"function\"}],\"devdoc\":{\"kind\":\"dev\",\"methods\":{\"constructor\":{\"params\":{\"directory\":\"The directory of terminals and controllers for projects.\",\"hookDeployer\":\"The 721 tiers hook deployer.\",\"permissions\":\"A contract storing permissions.\",\"trustedForwarder\":\"The trusted forwarder for the ERC2771Context.\"}},\"isTrustedForwarder(address)\":{\"details\":\"Indicates whether any particular address is the trusted forwarder.\"},\"launchProjectFor(address,(string,string,string,address,string,((uint104,uint32,uint32,uint16,address,bytes32,uint24,uint8,bool,bool,bool,bool,bool,bool)[],uint32,uint8,address),address,(bool,bool,bool,bool)),(string,(uint48,uint32,uint112,uint32,address,(uint16,uint16,uint32,bool,bool,bool,bool,bool,bool,bool,bool,bool,bool,bool,bool,uint16),(uint256,(uint32,uint64,address,bool,uint48,address)[])[],(address,address,(uint224,uint32)[],(uint224,uint32)[])[])[],(address,(address,uint8,uint32)[])[],string),address,bytes32)\":{\"params\":{\"controller\":\"The controller that the project's rulesets will be queued with.\",\"deployTiersHookConfig\":\"Configuration which dictates the behavior of the 721 tiers hook which is being deployed.\",\"launchProjectConfig\":\"Configuration which dictates the behavior of the project which is being launched.\",\"owner\":\"The address to set as the owner of the project. The ERC-721 which confers this project's ownership will be sent to this address.\",\"salt\":\"A salt to use for the deterministic deployment.\"},\"returns\":{\"hook\":\"The 721 tiers hook that was deployed for the project.\",\"projectId\":\"The ID of the newly launched project.\"}},\"launchRulesetsFor(uint256,(string,string,string,address,string,((uint104,uint32,uint32,uint16,address,bytes32,uint24,uint8,bool,bool,bool,bool,bool,bool)[],uint32,uint8,address),address,(bool,bool,bool,bool)),(uint56,(uint48,uint32,uint112,uint32,address,(uint16,uint16,uint32,bool,bool,bool,bool,bool,bool,bool,bool,bool,bool,bool,bool,uint16),(uint256,(uint32,uint64,address,bool,uint48,address)[])[],(address,address,(uint224,uint32)[],(uint224,uint32)[])[])[],(address,(address,uint8,uint32)[])[],string),address,bytes32)\":{\"details\":\"Only a project's owner or an operator with the `QUEUE_RULESETS & SET_TERMINALS` permission can launch its rulesets.\",\"params\":{\"controller\":\"The controller that the project's rulesets will be queued with.\",\"deployTiersHookConfig\":\"Configuration which dictates the behavior of the 721 tiers hook which is being deployed.\",\"launchRulesetsConfig\":\"Configuration which dictates the project's new rulesets.\",\"projectId\":\"The ID of the project that rulesets are being launched for.\",\"salt\":\"A salt to use for the deterministic deployment.\"},\"returns\":{\"hook\":\"The 721 tiers hook that was deployed for the project.\",\"rulesetId\":\"The ID of the successfully created ruleset.\"}},\"queueRulesetsOf(uint256,(string,string,string,address,string,((uint104,uint32,uint32,uint16,address,bytes32,uint24,uint8,bool,bool,bool,bool,bool,bool)[],uint32,uint8,address),address,(bool,bool,bool,bool)),(uint56,(uint48,uint32,uint112,uint32,address,(uint16,uint16,uint32,bool,bool,bool,bool,bool,bool,bool,bool,bool,bool,bool,bool,uint16),(uint256,(uint32,uint64,address,bool,uint48,address)[])[],(address,address,(uint224,uint32)[],(uint224,uint32)[])[])[],string),address,bytes32)\":{\"details\":\"Only a project's owner or an operator with the `QUEUE_RULESETS` permission can queue its rulesets.\",\"params\":{\"controller\":\"The controller that the project's rulesets will be queued with.\",\"deployTiersHookConfig\":\"Configuration which dictates the behavior of the 721 tiers hook which is being deployed.\",\"projectId\":\"The ID of the project that rulesets are being queued for.\",\"queueRulesetsConfig\":\"Configuration which dictates the project's newly queued rulesets.\",\"salt\":\"A salt to use for the deterministic deployment.\"},\"returns\":{\"hook\":\"The 721 tiers hook that was deployed for the project.\",\"rulesetId\":\"The ID of the successfully created ruleset.\"}},\"trustedForwarder()\":{\"details\":\"Returns the address of the trusted forwarder.\"}},\"version\":1},\"userdoc\":{\"kind\":\"user\",\"methods\":{\"DIRECTORY()\":{\"notice\":\"The directory of terminals and controllers for projects.\"},\"HOOK_DEPLOYER()\":{\"notice\":\"The 721 tiers hook deployer.\"},\"PERMISSIONS()\":{\"notice\":\"A contract storing permissions.\"},\"launchProjectFor(address,(string,string,string,address,string,((uint104,uint32,uint32,uint16,address,bytes32,uint24,uint8,bool,bool,bool,bool,bool,bool)[],uint32,uint8,address),address,(bool,bool,bool,bool)),(string,(uint48,uint32,uint112,uint32,address,(uint16,uint16,uint32,bool,bool,bool,bool,bool,bool,bool,bool,bool,bool,bool,bool,uint16),(uint256,(uint32,uint64,address,bool,uint48,address)[])[],(address,address,(uint224,uint32)[],(uint224,uint32)[])[])[],(address,(address,uint8,uint32)[])[],string),address,bytes32)\":{\"notice\":\"Launches a new project with a 721 tiers hook attached.\"},\"launchRulesetsFor(uint256,(string,string,string,address,string,((uint104,uint32,uint32,uint16,address,bytes32,uint24,uint8,bool,bool,bool,bool,bool,bool)[],uint32,uint8,address),address,(bool,bool,bool,bool)),(uint56,(uint48,uint32,uint112,uint32,address,(uint16,uint16,uint32,bool,bool,bool,bool,bool,bool,bool,bool,bool,bool,bool,bool,uint16),(uint256,(uint32,uint64,address,bool,uint48,address)[])[],(address,address,(uint224,uint32)[],(uint224,uint32)[])[])[],(address,(address,uint8,uint32)[])[],string),address,bytes32)\":{\"notice\":\"Launches rulesets for a project with an attached 721 tiers hook.\"},\"queueRulesetsOf(uint256,(string,string,string,address,string,((uint104,uint32,uint32,uint16,address,bytes32,uint24,uint8,bool,bool,bool,bool,bool,bool)[],uint32,uint8,address),address,(bool,bool,bool,bool)),(uint56,(uint48,uint32,uint112,uint32,address,(uint16,uint16,uint32,bool,bool,bool,bool,bool,bool,bool,bool,bool,bool,bool,bool,uint16),(uint256,(uint32,uint64,address,bool,uint48,address)[])[],(address,address,(uint224,uint32)[],(uint224,uint32)[])[])[],string),address,bytes32)\":{\"notice\":\"Queues rulesets for a project with an attached 721 tiers hook.\"}},\"version\":1}},\"settings\":{\"compilationTarget\":{\"src/JB721TiersHookProjectDeployer.sol\":\"JB721TiersHookProjectDeployer\"},\"evmVersion\":\"shanghai\",\"libraries\":{},\"metadata\":{\"bytecodeHash\":\"ipfs\"},\"optimizer\":{\"enabled\":true,\"runs\":800},\"remappings\":[\"@arbitrum/=node_modules/@arbitrum/\",\"@bananapus/=node_modules/@bananapus/\",\"@chainlink/=node_modules/@chainlink/\",\"@eth-optimism/=node_modules/@eth-optimism/\",\"@offchainlabs/=node_modules/@offchainlabs/\",\"@openzeppelin/=node_modules/@openzeppelin/\",\"@prb/=node_modules/@prb/\",\"@scroll-tech/=node_modules/@scroll-tech/\",\"@sphinx-labs/contracts/=node_modules/@sphinx-labs/contracts/contracts/foundry/\",\"@uniswap/=node_modules/@uniswap/\",\"@zksync/=node_modules/@zksync/\",\"ds-test/=lib/forge-std/lib/ds-test/src/\",\"forge-std/=lib/forge-std/src/\",\"hardhat/=node_modules/hardhat/\",\"solady/=node_modules/solady/\",\"solmate/=node_modules/solmate/\",\"sphinx/=lib/sphinx/packages/contracts/contracts/forge-std/src/\"]},\"sources\":{\"node_modules/@bananapus/core-v5/src/abstract/JBPermissioned.sol\":{\"keccak256\":\"0xbaaa61c6aa043522617d3c1a86960c23b9978ee2a6c9d593b00beeeb6ce64423\",\"license\":\"MIT\",\"urls\":[\"bzz-raw://09beed8608e02ce9dbf28814309aaf62c9eec67e0701a26113bdbb4cbae56c42\",\"dweb:/ipfs/QmZrHFnpjX9uBzbFrSjqQgQBkvpJ1ZyvjtT9RfneNGv32S\"]},\"node_modules/@bananapus/core-v5/src/enums/JBApprovalStatus.sol\":{\"keccak256\":\"0x61c69b6bac7d24b566d87cda23a77e4ca9cdb87200b106aba8534cb9a0973e33\",\"license\":\"MIT\",\"urls\":[\"bzz-raw://6a9ca7249de76f77a8252eefe6bd1b63d47952f25a2acfa2c8db967cdff4470c\",\"dweb:/ipfs/QmaxSxptRQNj8bNy96EreENmrnRWdKmhyihBcxyWzBX5BN\"]},\"node_modules/@bananapus/core-v5/src/interfaces/IJBCashOutHook.sol\":{\"keccak256\":\"0x6c516b030f55065eb169d666d11dbd82c4a0b8cea7782ebc5e79433cade38670\",\"license\":\"MIT\",\"urls\":[\"bzz-raw://fa0659eb08477176f130ccaf387d4bde71f0ecca2b24f61124d225f2f50397a3\",\"dweb:/ipfs/QmRNBRGhdGpLQLkC4wK4VrgNEw4EdSiJ4ZZJfiJU4aNt2L\"]},\"node_modules/@bananapus/core-v5/src/interfaces/IJBController.sol\":{\"keccak256\":\"0xc903b660dccd57e610e1d834407b2bead1fc456153e106f2582407e505a39a96\",\"license\":\"MIT\",\"urls\":[\"bzz-raw://624bb32a7cd93ce056ea2705332821abd9cd7c83f419bbb279ad96e47c2b6013\",\"dweb:/ipfs/QmXKmQAGecR2zYAXMZ54erg5QnYoWNue4Ek3jCJCUyfW7q\"]},\"node_modules/@bananapus/core-v5/src/interfaces/IJBDirectory.sol\":{\"keccak256\":\"0xcb97db460d2948a7f51c660fe0d1b1749047a419027711c476b86ad3573534c5\",\"license\":\"MIT\",\"urls\":[\"bzz-raw://a909c7a3d471054537894dca827e6e018e92ac25299b43026e5b1e335ec4de68\",\"dweb:/ipfs/QmU1GT3F8PNMjSiPPP5cSLLofefHYFJXnywMCdqqM9xUeh\"]},\"node_modules/@bananapus/core-v5/src/interfaces/IJBDirectoryAccessControl.sol\":{\"keccak256\":\"0x1ea768919979d9f625920c05a5e633739febc822ce14b1e4724d739b19c10fb8\",\"license\":\"MIT\",\"urls\":[\"bzz-raw://7c5391a510bd610a97978245b7306d8d21c79d7c45c15f590ba9b603ea751154\",\"dweb:/ipfs/QmPSJvVWswqzv3bVq422UhA2BybMsiHoYFWGPp5Jh6Xs6a\"]},\"node_modules/@bananapus/core-v5/src/interfaces/IJBFundAccessLimits.sol\":{\"keccak256\":\"0xfd8ea4cffd289e7fef6e53b5c8983eb6b941de306517f40c047048d3a8a2ca08\",\"license\":\"MIT\",\"urls\":[\"bzz-raw://2765cdee206f8b1b53874448e2481db001cd3706753190cfc9381318c7a7c41c\",\"dweb:/ipfs/QmQ5UYSadtzrb7BcTR93KnAYKXawdyDUG5HjjASV1zbys5\"]},\"node_modules/@bananapus/core-v5/src/interfaces/IJBPayHook.sol\":{\"keccak256\":\"0x9438866782c652c2942f4d114e35f393cd3c8b0334abce8387eed90bca35e8b2\",\"license\":\"MIT\",\"urls\":[\"bzz-raw://cfd99daf57213f92325aad7d7d16e98476d38e870470e95ba01e3ae3cdecc95d\",\"dweb:/ipfs/QmUKKAVGf7ki8BHksr99tFcRW8APveeB5tNH63ctTbbCW8\"]},\"node_modules/@bananapus/core-v5/src/interfaces/IJBPermissioned.sol\":{\"keccak256\":\"0x5b038d4dee116584e88b230920e56d48e135053e3f7e5642eaea14a775c1dad7\",\"license\":\"MIT\",\"urls\":[\"bzz-raw://19e43102f349fd4a1da1c0943ffb8f2950007fe4bb4bb7e8f74fc142575d091b\",\"dweb:/ipfs/QmXHAt4KzDTdDZgDDefEXH2WKi7NcfkJb9R7nxW5uDqsNp\"]},\"node_modules/@bananapus/core-v5/src/interfaces/IJBPermissions.sol\":{\"keccak256\":\"0x49d2b91a866004af098a6770b28040071885b048b4b50744b12a1e5b212c5e5e\",\"license\":\"MIT\",\"urls\":[\"bzz-raw://089b4dda50be91412ffe1fbe333f78cc894f073c1a7afe469f10a2cee12fbf9e\",\"dweb:/ipfs/QmYPPBZ6HwBa1RNkNGqGcR2xgj4fnWBzrPHHoJG3kZA6AN\"]},\"node_modules/@bananapus/core-v5/src/interfaces/IJBPriceFeed.sol\":{\"keccak256\":\"0x4bd84c0f1a5d4729ed709bcddd43f4c50ec4a165ece79780af8dce482ed07d4a\",\"license\":\"MIT\",\"urls\":[\"bzz-raw://62bac4bfb6982fb002f620c77e5c445e62d50241a5aa64a07e51d929f5a42180\",\"dweb:/ipfs/QmWgJUDreVY2BuMX38a1iUUR5kNbMwGnKG3VvurB7oZtuM\"]},\"node_modules/@bananapus/core-v5/src/interfaces/IJBPrices.sol\":{\"keccak256\":\"0xb4d5244daa52aafab0c9b8806b7f973afa6a3b298add5966d586d27b78424cfb\",\"license\":\"MIT\",\"urls\":[\"bzz-raw://a819f74455aaa4f679ded378424702f3992608a640d7f943b19938eb4ff711da\",\"dweb:/ipfs/QmSMGvVTsMW3L5YSUyXTKoEsgNpGEutnq4frEZHuDdeDvz\"]},\"node_modules/@bananapus/core-v5/src/interfaces/IJBProjectUriRegistry.sol\":{\"keccak256\":\"0xc9ab647179d7d0c857fdd881d6ce96f06254739440ed08e85a1c2042218f7c7d\",\"license\":\"MIT\",\"urls\":[\"bzz-raw://8529368f30c98c8d5a69acdbe4ac79e3eeb4afa5a9cd278325c5f2184ef3d50f\",\"dweb:/ipfs/QmfUaozYiAGt1UwBDUEZvon1tEBS5sLPzqpN9dNdjQotPN\"]},\"node_modules/@bananapus/core-v5/src/interfaces/IJBProjects.sol\":{\"keccak256\":\"0x4ae42a9cc29b517b26d2b9b635deb82c16696b777deeca92dfcad33b0f81c0a0\",\"license\":\"MIT\",\"urls\":[\"bzz-raw://1dcbd860e7d7f05232d90c5e9cfd3d01e2ce986ffcdb053473d8a4d387b1a48a\",\"dweb:/ipfs/QmWKWoSJJbVWDumbnzXJBJyXmAacgC97bxMtchh8te41bn\"]},\"node_modules/@bananapus/core-v5/src/interfaces/IJBRulesetApprovalHook.sol\":{\"keccak256\":\"0x5f0dc5968277b572ba5dc74518906dfb33a9684b7a199c7843f4e66af1c11fb9\",\"license\":\"MIT\",\"urls\":[\"bzz-raw://323ce3731aebdf5bf8055b8550055e856feed700d293af8beaf8a750625a0975\",\"dweb:/ipfs/QmU2ErV2uzvXnsJt1qBKm73H2qWcEqYtQGHtZEpx93DaWJ\"]},\"node_modules/@bananapus/core-v5/src/interfaces/IJBRulesetDataHook.sol\":{\"keccak256\":\"0x45a88aa9f26512f7fc3deff6d00be9a292fc07a76c8311f175249400e83d1837\",\"license\":\"MIT\",\"urls\":[\"bzz-raw://1e88b996c3a05f87f7391ebcb9cd6d46c6ce8768083945f26a98c4ac4509e64c\",\"dweb:/ipfs/QmbpuYi6mYV8K8qrh8syWvbPc34pFrXG6QeC23m4MsX3r9\"]},\"node_modules/@bananapus/core-v5/src/interfaces/IJBRulesets.sol\":{\"keccak256\":\"0xf287c7a4a162cd58084ed10ee5f9f31c992addff0ce2f2ac7e810cc393546f30\",\"license\":\"MIT\",\"urls\":[\"bzz-raw://c851b72de52c3ceb73c6b1849ad0cc7c0832fd126ee52cc838a163ab6d3055b8\",\"dweb:/ipfs/Qmbv6k6pSeNMwZoTUKzDNb18DMGR8DboRMrYQBydATuVZw\"]},\"node_modules/@bananapus/core-v5/src/interfaces/IJBSplitHook.sol\":{\"keccak256\":\"0xeb8dfac7a4b81897a1c3b5d0d853a406bcff33720fb187d5ca5bb3dcc0ba3a12\",\"license\":\"MIT\",\"urls\":[\"bzz-raw://36aaeef6107cfe5b0127e063ea215aac7200f8af02e28a48e61111abd3254688\",\"dweb:/ipfs/QmQ8yQANXnhQCAWBGKsKCDsJ3A8hnTKNg5tyo79GfWXTcV\"]},\"node_modules/@bananapus/core-v5/src/interfaces/IJBSplits.sol\":{\"keccak256\":\"0x424e6d1189b9ba7a5d441e7675ae09ff893c13c62b9ddde4dd6bc2690e96c6f3\",\"license\":\"MIT\",\"urls\":[\"bzz-raw://7e30ed7ab1daf20ff324aacfef7150a243b5db496eceaf032c7012ccb3c4227d\",\"dweb:/ipfs/QmRj5EZKmDjJy8tpvKbpz8vPSKHR5C9Q5ENe7oSLij4H8M\"]},\"node_modules/@bananapus/core-v5/src/interfaces/IJBTerminal.sol\":{\"keccak256\":\"0x5a4c0ef6c8fd10069a408cc42a862909f7b47aba46327da5003203508d8f17d9\",\"license\":\"MIT\",\"urls\":[\"bzz-raw://09d8854151c21046b6b939189ad2139c669888e6baf47034a0cb754104d1efe6\",\"dweb:/ipfs/QmaMrxnf6K6znvDBwdAqsw5x6yuR4SY1BdNtyz226siAt5\"]},\"node_modules/@bananapus/core-v5/src/interfaces/IJBToken.sol\":{\"keccak256\":\"0xc2c0a75d97e3a20fd6964b09381736de03f56e58c27a874a0c96a21e02d0e577\",\"license\":\"MIT\",\"urls\":[\"bzz-raw://6ef8d476174aca6c35f7fb24ff8be619191bfd22038d3729ca4803252d3dae6a\",\"dweb:/ipfs/QmdWtAwf2A4P88of9gUyWY6hodT9fqpxJK4NBVQt9ys2Jd\"]},\"node_modules/@bananapus/core-v5/src/interfaces/IJBTokenUriResolver.sol\":{\"keccak256\":\"0xfa5cb00dcd6085d1ef912d071fe73c63f9478a2cd0f9d8bddaf659b6af2d0967\",\"license\":\"MIT\",\"urls\":[\"bzz-raw://282e4e7c342d65f77cde0e9a08fcaf20ef5cf379c7a48b639842c0ffd0b2afb8\",\"dweb:/ipfs/QmbnN3PEQeZaXdPLT75V1J79kMg7KqSMru37RHrL3z8Yf2\"]},\"node_modules/@bananapus/core-v5/src/interfaces/IJBTokens.sol\":{\"keccak256\":\"0xe3f0cca072afcac9ee3c875b7439a6edb4a9276e9dba01184d11e8270a25f258\",\"license\":\"MIT\",\"urls\":[\"bzz-raw://bc3e437b8588965b911a750dc632ac1aca4f9348a137877047a62df598a17bc7\",\"dweb:/ipfs/QmdXjVMdCFcw8HFbhxZZbj9KzxNx2ThjVfcDhFBt1khfvL\"]},\"node_modules/@bananapus/core-v5/src/structs/JBAccountingContext.sol\":{\"keccak256\":\"0x9c47e048a719f784f601df69a583505432217b9868a0244876d277f84dd1ebdf\",\"license\":\"MIT\",\"urls\":[\"bzz-raw://8565f194b87914da9a02af2e760ae2ed2a9d185c6f11229f7035140776d2fec9\",\"dweb:/ipfs/QmPs2fic8W3F5e5zNRwmGmJFjb3JWGPWJ3YUe5o82nQgEn\"]},\"node_modules/@bananapus/core-v5/src/structs/JBAfterCashOutRecordedContext.sol\":{\"keccak256\":\"0xa1acdb1a5670f66f730e71f8eff120766b6f5c934e6cd699c7f1a7cc93adf658\",\"license\":\"MIT\",\"urls\":[\"bzz-raw://a9c7655c9c42b30132688b395251748c809c334370ee584cb9bac46e1fb8f162\",\"dweb:/ipfs/QmbMV1wg1Fm236HaA6nnMSvRkzeYCKPRhMYDbqkAxieY7x\"]},\"node_modules/@bananapus/core-v5/src/structs/JBAfterPayRecordedContext.sol\":{\"keccak256\":\"0x3bfc01ae9944a0ff5c41125e18ebb8efca58d7aa4e471d2ffa6d8588afb689ab\",\"license\":\"MIT\",\"urls\":[\"bzz-raw://beb21399142d9b89539cfc8aa94119bc106bd1ea847b922d4c78f3f8804a5cba\",\"dweb:/ipfs/QmXDwJXrzCb6zh1KYwVdN2PEY86uK62MTfYF1M2MBtbEP7\"]},\"node_modules/@bananapus/core-v5/src/structs/JBBeforeCashOutRecordedContext.sol\":{\"keccak256\":\"0x7b2119f3e0725becc552ed5dcfa51683960a8772550c95ac5e2f75240ced367c\",\"license\":\"MIT\",\"urls\":[\"bzz-raw://03369dd07a9126ce453d83ac409919326f0aaa48ff9eac5c703092b3824d79c9\",\"dweb:/ipfs/Qmc1QKw6FfmeBD372RnDyeW27QyzEUjMX5up5rk8SHRYGa\"]},\"node_modules/@bananapus/core-v5/src/structs/JBBeforePayRecordedContext.sol\":{\"keccak256\":\"0xbc98b968d84be2f0ddbb24240723c7179ec9c5e02e5fbd5843dd0e76623a3ea5\",\"license\":\"MIT\",\"urls\":[\"bzz-raw://1310e522696a9fc6f7f96b04c293fab3b4cf1e722bdbb7aa1eec7b3ecc25402f\",\"dweb:/ipfs/QmTYiijDJRuQcMhLrmpbHzHAQFPq6jurPP5HjyYtnzbpnK\"]},\"node_modules/@bananapus/core-v5/src/structs/JBCashOutHookSpecification.sol\":{\"keccak256\":\"0x67a6e781019979e626eaa81d84a800b2656603c23ae455e15d0fa1a6f03c1736\",\"license\":\"MIT\",\"urls\":[\"bzz-raw://b43ce54447dda62d449a1e3575a9e4cb9c5a2adb41b45423dcefeb7d9afe8336\",\"dweb:/ipfs/QmW77REnQcvsfv4gwTLj2CyynmaGC3a6om7zCFWmERhrPY\"]},\"node_modules/@bananapus/core-v5/src/structs/JBCurrencyAmount.sol\":{\"keccak256\":\"0x7f321bbcbd13abfbc8f0d08a5adaaf8ef312db5bb899012fcffb6170fbb962a9\",\"license\":\"MIT\",\"urls\":[\"bzz-raw://bf9301ef1dbb3abda7b492585377617508ba048c6170f21a5e7d2b3c034eb384\",\"dweb:/ipfs/QmcetEFxSYLLNSZzPBpNn3Fc8sFcrFE8A8h12ZSj2tLgxD\"]},\"node_modules/@bananapus/core-v5/src/structs/JBFundAccessLimitGroup.sol\":{\"keccak256\":\"0x9fdaa8d017b72da25f583700a444a86849df053f7fb8eac874ec5139bcf651e5\",\"license\":\"MIT\",\"urls\":[\"bzz-raw://c8e44c49ee444a98424a0dbeb6897a76a0bf00d88a613f62ac2012afdac754ee\",\"dweb:/ipfs/QmdYkAiRi5bXM1YYNkc7BiqimHSFodMGn1cjHR5hcpm4xH\"]},\"node_modules/@bananapus/core-v5/src/structs/JBPayHookSpecification.sol\":{\"keccak256\":\"0x955f0bfca97300b9e5927dc181753830ee362f83fa9ca32a90daade32aa0cfd5\",\"license\":\"MIT\",\"urls\":[\"bzz-raw://f517af1597c7c40f8d3da53f7a6684a3e162950a16559d6bf6ea3b727bb11546\",\"dweb:/ipfs/QmRWo2ZTYXmVZTzNJDYhsJNsEaHphjpUfx9eNz2cciyz86\"]},\"node_modules/@bananapus/core-v5/src/structs/JBPermissionsData.sol\":{\"keccak256\":\"0x65e26b78a1f00d81a21abd255c9670b600efca60cf36a993b8f48ecb268464a4\",\"license\":\"MIT\",\"urls\":[\"bzz-raw://d108c721c4281b13de34641befd2a1e9fac73a70195ef5ca957abda6fca9acca\",\"dweb:/ipfs/QmWoJo7wzSKY3z4YCpFvR8DoCUTKviiuFEj2tBkcgKUqW1\"]},\"node_modules/@bananapus/core-v5/src/structs/JBRuleset.sol\":{\"keccak256\":\"0x2d1f0a8457e94addae51a8222b1837e372847624fde96bb3178e7aee52ab2b24\",\"license\":\"MIT\",\"urls\":[\"bzz-raw://bbb1478e8f5d1c20f981e5a0d5e526d002add1e05ddced87ccd45543ed00c9e4\",\"dweb:/ipfs/QmZkgaYdwkbnvW2MGwVe9FeHjac8XyZTP1YZcWUApiGZgE\"]},\"node_modules/@bananapus/core-v5/src/structs/JBRulesetConfig.sol\":{\"keccak256\":\"0xeba54f25ad84b9c6009f62ded187b58f97e0822e9b19ab0986aee6603ca5400a\",\"license\":\"MIT\",\"urls\":[\"bzz-raw://5a51743febf78f2ede92d32a2b18c3c5f06f02c413c2d01f28dc296840b068ef\",\"dweb:/ipfs/QmVSRDtB7xUgaLGW5tSJr7PhW5XPxkWg226Sk2g75qWpxh\"]},\"node_modules/@bananapus/core-v5/src/structs/JBRulesetMetadata.sol\":{\"keccak256\":\"0x318f0b75275c3822df53a02e98782c9e98e7961116f2ad66a528c6adcd14c946\",\"license\":\"MIT\",\"urls\":[\"bzz-raw://d60f62390e43d182bfe875d1ac57e9de10426d81038ba7d8c3727b22392299e2\",\"dweb:/ipfs/QmUtE6fcP25wEhVJNEbrPHyFPkg5hp2PFf5xcwBeHPmNAf\"]},\"node_modules/@bananapus/core-v5/src/structs/JBRulesetWithMetadata.sol\":{\"keccak256\":\"0x1bcfadf20488f6df65227f8d4d0fbf9b7539456a2389567f7fe3900d23289bc3\",\"license\":\"MIT\",\"urls\":[\"bzz-raw://0a15c399a71e5373f8c0484c6d6b83521eda31e063a2c53e4c5cec4e74550343\",\"dweb:/ipfs/QmQwi8zkjoTVXbK89NeETYimWCacTrNsesJdpLSvGdqMPX\"]},\"node_modules/@bananapus/core-v5/src/structs/JBSplit.sol\":{\"keccak256\":\"0xfcedbb8b6937ee00578a4c3ec70e2555a2c0a5c18f1eba3b96701b07c1dd94a4\",\"license\":\"MIT\",\"urls\":[\"bzz-raw://7014a7b6f30f35941898eea1d9d32a2d75c807f59e2f0fcb430efc8c25edc1da\",\"dweb:/ipfs/QmWitPTxQCDUfoWrRRrYvE9YhuTcwCAXxVvkVLNk9Jsem1\"]},\"node_modules/@bananapus/core-v5/src/structs/JBSplitGroup.sol\":{\"keccak256\":\"0x8dc98fa9e730bee8bcc0a8acf1bc4db1c9b0edf307d969c9c9caa4d6b8d856d9\",\"license\":\"MIT\",\"urls\":[\"bzz-raw://66f4306e0e69c82033927952564fd617e7c4b29aa8b165d5b53a0ebe3109ea12\",\"dweb:/ipfs/QmQqN1u7FHAdEtEZNRcKvZwYtXEQVQnLd6FMzHESP7wDtx\"]},\"node_modules/@bananapus/core-v5/src/structs/JBSplitHookContext.sol\":{\"keccak256\":\"0x1cef82bf434f91d518092ea7e57db4a72ce7654f48a7db9bf44882900b6b6623\",\"license\":\"MIT\",\"urls\":[\"bzz-raw://cc5012008ab7e74cf766fe1c202a23e3a73365356bcf1e0b04ec01baf21b204b\",\"dweb:/ipfs/QmSwJvd6Yrg9XZMhjquBcak5sfUswbR5nPEuJBfpjM54VT\"]},\"node_modules/@bananapus/core-v5/src/structs/JBTerminalConfig.sol\":{\"keccak256\":\"0x9e31505080d3754b6d7db96095b0545930ef6dbc035b91fcc32fdc76a0e7c2a5\",\"license\":\"MIT\",\"urls\":[\"bzz-raw://f7702ab33a1b713c37e5397a55d8ef089289f4da8034cfe9622cbc69a98c47de\",\"dweb:/ipfs/QmXyiXps4aJyiM7vtDC373QUoqwB4DMETaZzC5cZPJKaAK\"]},\"node_modules/@bananapus/core-v5/src/structs/JBTokenAmount.sol\":{\"keccak256\":\"0xc61593d33d5ec30e695d382948a1b944d01e29a8f2bfd29f75ecebcdbc7816de\",\"license\":\"MIT\",\"urls\":[\"bzz-raw://8992c1e5fca0c2342ecc0e734dfba6a2a752e4c29184784931d0971e44305051\",\"dweb:/ipfs/QmYNcaW3qeCkgAExUaFTq238fgfJuoYCTwjCn7jm94U4dJ\"]},\"node_modules/@bananapus/ownable-v5/src/JBOwnable.sol\":{\"keccak256\":\"0xad1f9fcc7cfa404a6c20b0eafbc71a2c90a4a3f9aebeaa4b2cab63355892ed30\",\"license\":\"MIT\",\"urls\":[\"bzz-raw://cd0ef227f070c6c68c998c711e70e61850eabe789a026e34f11e8e0d506739a6\",\"dweb:/ipfs/QmPeZXX7Lq8Q3jHSMvQR5W6UprCy5z5BPY8tz6KXEt4a5S\"]},\"node_modules/@bananapus/ownable-v5/src/JBOwnableOverrides.sol\":{\"keccak256\":\"0x3ccb51dfe5ea52398b63013dba97552f5b1a443bc6df8713458ee5ce75230bd0\",\"license\":\"MIT\",\"urls\":[\"bzz-raw://cd2985c7e5783482a64b774d3be8bcf6736c5e754ffd4c0baa3647fb0ff53b69\",\"dweb:/ipfs/QmfEYE8EXGPbvNcWZj4H4DX2HLxscYcFSckpAGwttt4SRS\"]},\"node_modules/@bananapus/ownable-v5/src/interfaces/IJBOwnable.sol\":{\"keccak256\":\"0xa94807eab5362c523d403a10902db431753b9b1e4b73259d4d7e217fc6cdf766\",\"license\":\"MIT\",\"urls\":[\"bzz-raw://d5cd284927df617997d055dfaa5f17b9c22c5ce678b9c87b627d14aaa87fa8d2\",\"dweb:/ipfs/Qma1M9MV1FFsaPF5oAMDL7KdidFzCjZ6EZ8mdLo9MXkgxa\"]},\"node_modules/@bananapus/ownable-v5/src/structs/JBOwner.sol\":{\"keccak256\":\"0x535d669344addf9ce4a62320960699ae8c47b4a615327a1cb32590b4e046c069\",\"license\":\"MIT\",\"urls\":[\"bzz-raw://64e228cc198dafde001eb65092eebf6e99f91420b993deb9c5dc8204cf2469ce\",\"dweb:/ipfs/QmWpKRsMt3SwToaVyNjF6ZJZaL3Kz2QDfee8BBN2FExV3i\"]},\"node_modules/@bananapus/permission-ids-v5/src/JBPermissionIds.sol\":{\"keccak256\":\"0x03d598c570091f294bebe9c7b59bfc2d907d5b70a3193c3bdb9ddec67edae1e0\",\"license\":\"MIT\",\"urls\":[\"bzz-raw://afb1aefda01e53fa79441bab1fa9cb46154e0db9d16bec8f9b7fa80d200916db\",\"dweb:/ipfs/Qmbkt9HgWmz5rgehRttkzFqW9SkwRYvXYqtHmuxHVxz8ZD\"]},\"node_modules/@openzeppelin/contracts/metatx/ERC2771Context.sol\":{\"keccak256\":\"0x0b030a33274bde015419d99e54c9164f876a7d10eb590317b79b1d5e4ab23d99\",\"license\":\"MIT\",\"urls\":[\"bzz-raw://68e5f96988198e8efd25ddef0d89750b4daebb7fd1204fa7f5eaccdfcb3398c8\",\"dweb:/ipfs/QmaM6nNkf9UmEtQraopuZamEWCdTWp7GvuN3pjMQrNCHxm\"]},\"node_modules/@openzeppelin/contracts/token/ERC721/IERC721.sol\":{\"keccak256\":\"0x5dc63d1c6a12fe1b17793e1745877b2fcbe1964c3edfd0a482fac21ca8f18261\",\"license\":\"MIT\",\"urls\":[\"bzz-raw://6b7f97c5960a50fd1822cb298551ffc908e37b7893a68d6d08bce18a11cb0f11\",\"dweb:/ipfs/QmQQvxBytoY1eBt3pRQDmvH2hZ2yjhs12YqVfzGm7KSURq\"]},\"node_modules/@openzeppelin/contracts/utils/Context.sol\":{\"keccak256\":\"0x493033a8d1b176a037b2cc6a04dad01a5c157722049bbecf632ca876224dd4b2\",\"license\":\"MIT\",\"urls\":[\"bzz-raw://6a708e8a5bdb1011c2c381c9a5cfd8a9a956d7d0a9dc1bd8bcdaf52f76ef2f12\",\"dweb:/ipfs/Qmax9WHBnVsZP46ZxEMNRQpLQnrdE4dK8LehML1Py8FowF\"]},\"node_modules/@openzeppelin/contracts/utils/introspection/IERC165.sol\":{\"keccak256\":\"0x79796192ec90263f21b464d5bc90b777a525971d3de8232be80d9c4f9fb353b8\",\"license\":\"MIT\",\"urls\":[\"bzz-raw://f6fda447a62815e8064f47eff0dd1cf58d9207ad69b5d32280f8d7ed1d1e4621\",\"dweb:/ipfs/QmfDRc7pxfaXB2Dh9np5Uf29Na3pQ7tafRS684wd3GLjVL\"]},\"src/JB721TiersHookProjectDeployer.sol\":{\"keccak256\":\"0x24b6f4b339027178696134485d68bf0a166127e3df26527549320ab76290ff98\",\"license\":\"MIT\",\"urls\":[\"bzz-raw://af020100cdc360fb2a0e7420814ddf9060cb506ebe369a118c9749eed956997a\",\"dweb:/ipfs/QmWvvrvTB67Rjhb3cakCWHnJuHg4Dr7guov8dYUh5qzm5c\"]},\"src/interfaces/IJB721Hook.sol\":{\"keccak256\":\"0x1e7b684c86c0f44b0b680c7aba9e511c89892bc0638424722920368911a087f2\",\"license\":\"MIT\",\"urls\":[\"bzz-raw://96995e70a8f15d5600b509ad689c8f2ea6f8116cc7cce9c529b7a41c12c854dc\",\"dweb:/ipfs/QmaAARj3BDSQNsPwkFxauDpWBNgb4kYdzo19tUNdBbc6cX\"]},\"src/interfaces/IJB721TiersHook.sol\":{\"keccak256\":\"0x107f91c5a0674717684d75e0c71106dd1d2937c0089366c7bb555be7fffdd6b2\",\"license\":\"MIT\",\"urls\":[\"bzz-raw://3ce29d75e454845d0636e671c60c7a691e4a77d1c88fe17dbc435945890465b1\",\"dweb:/ipfs/QmewJn8HeiqKggWA8scLUbwv1TMiit8Va8A5A3K7N9Euss\"]},\"src/interfaces/IJB721TiersHookDeployer.sol\":{\"keccak256\":\"0x8dfdc8e1182e6ea80806e62c2e216fea1da3f6166d764134e243a5372ef05f02\",\"license\":\"MIT\",\"urls\":[\"bzz-raw://9b53d7bd32017f23fb633903004fc476bb8ba166d90c4ae08ccb6ce7f2941adc\",\"dweb:/ipfs/QmeUu6tW6FA6b61DMgBTyRFZM8duae7J7rLyz4x9GZFAbn\"]},\"src/interfaces/IJB721TiersHookProjectDeployer.sol\":{\"keccak256\":\"0x2855e0060657259e733b8ce6195a033d4d7f6dcc59862ff37bb2fc56a6cf5d77\",\"license\":\"MIT\",\"urls\":[\"bzz-raw://dc0ba39254bf5429f581ac875d2870b96c4fdce67590d8e36529c1ab24d6e26a\",\"dweb:/ipfs/QmZy4uZMbu3n8VEg4XTzszqj8gpws8tUprLHytJuvqG6iq\"]},\"src/interfaces/IJB721TiersHookStore.sol\":{\"keccak256\":\"0x01d419bf6b9dce2ab162f8aac82f0e4a6d948f53819a42ed023e8f23e358c9c2\",\"license\":\"MIT\",\"urls\":[\"bzz-raw://0e0b14b2ae2032bd256614522078cf0f831c35d1f64d1ea2050227117d08c060\",\"dweb:/ipfs/QmP1xbw5597GDvNVgT5Te6w8LBqeXHq4x6HeXYmqLqw2RC\"]},\"src/interfaces/IJB721TokenUriResolver.sol\":{\"keccak256\":\"0xfa599167098f4459320ec4141a98a17b2dfffbce422baa27d8b4e4530f61ece1\",\"license\":\"MIT\",\"urls\":[\"bzz-raw://8b758b161f4c7b520b2c34b4d91e585e961b8f4ca278eebb91d791f7f2f45140\",\"dweb:/ipfs/QmcD9DF7NJ9QykQpT4KPzm4bs3fkjzukdAUWwdU6Atfw85\"]},\"src/structs/JB721InitTiersConfig.sol\":{\"keccak256\":\"0xfe7147d09467fd8f9b755d2a1485f22bb4a8797acd0e97623258498ddac2e441\",\"license\":\"MIT\",\"urls\":[\"bzz-raw://9ee21464af9e6c78f580c6920757017cdfbd276728773338a67660fedfea0fd2\",\"dweb:/ipfs/QmVYviC7uQ7rEvdpzD6U4BN19P5f8uMuC7jWffzQWvuFcu\"]},\"src/structs/JB721Tier.sol\":{\"keccak256\":\"0x99232aa73d5715977332dc7c93b03552a93259e59ae00e86b4ddc200f06adaf1\",\"license\":\"MIT\",\"urls\":[\"bzz-raw://721c0cf10a29fa11677718faafb3a2ecfcb4fbe4e1c09e70a7fac681c80fcc94\",\"dweb:/ipfs/QmSUR77E9PqnpB5kBcKNz2CGBjG9XL9FH57RWVYu3Q7GMR\"]},\"src/structs/JB721TierConfig.sol\":{\"keccak256\":\"0x86e54a0de4deab9d105bf276586aebe256188b193e83eb7a6f6f93e4a29ae9c5\",\"license\":\"MIT\",\"urls\":[\"bzz-raw://04bfcc07d452c26dfc50d3a5eb62df4b3b81e063defd752e0aa5ed049a78eef4\",\"dweb:/ipfs/QmWd5nJHUvZPHxJXkrYCboXaqdtiWWkQG26sNM6qkJuAgD\"]},\"src/structs/JB721TiersHookFlags.sol\":{\"keccak256\":\"0x283d8429f31bd58875c056515aa42abd09c95362bd929e85cfc44a0d92585766\",\"license\":\"MIT\",\"urls\":[\"bzz-raw://9a580b89fe99d9f8e930c58a4d0d63a5ff7c01c79d210af01373d066c9e72ed6\",\"dweb:/ipfs/QmdY1eSGSoTjv4KSdsG4Tm5CzJN6iqk3qTRga5ZWNbejRz\"]},\"src/structs/JB721TiersMintReservesConfig.sol\":{\"keccak256\":\"0x86fe586a05e6d4bc6fab9b68996a7f4b74c5362ca6f24b9d8057ed7e4cd1c5ac\",\"license\":\"MIT\",\"urls\":[\"bzz-raw://0915f17d1f958ab1fe6b214d99ed62f1f858684898c803f1a8a6a557472dd140\",\"dweb:/ipfs/QmUhdnSV8UzkgvbtkYEKHrpyDEmc2aJxW5HQ1gucuxxu5A\"]},\"src/structs/JB721TiersSetDiscountPercentConfig.sol\":{\"keccak256\":\"0x4672eacb6b0cda5e6f5f72ddb91463c52fb90b4df421053e3b40024f19a59954\",\"license\":\"MIT\",\"urls\":[\"bzz-raw://9d8e3a0b35d6b2a6ec66527594263400189b6c766bfd6943c83704380a989aec\",\"dweb:/ipfs/QmUE7NhFWsxjFRzTuRyHJ7oRx3JXD9CnG83t29PjGAhwPR\"]},\"src/structs/JBDeploy721TiersHookConfig.sol\":{\"keccak256\":\"0x0ce457736946394772afe54d575b68a74269cbf37a250de2d27dca6d9dd45005\",\"license\":\"MIT\",\"urls\":[\"bzz-raw://2010a8f6e19354038d3906ddb174f34464c5f341103313a5c4d628aa7732d5a8\",\"dweb:/ipfs/QmU9m18oWtYNV7UHLcW9kdwE3uzoQuGBe6sASvQTk8GZRL\"]},\"src/structs/JBLaunchProjectConfig.sol\":{\"keccak256\":\"0xf671b41a02209c38171be1c390b247ddd0e4424e3c032b1b898ac519bfd87932\",\"license\":\"MIT\",\"urls\":[\"bzz-raw://81f9d439880dc0f498cb6b66d742739dfe10f8bc97532f39eb0f5c7df75c4ab0\",\"dweb:/ipfs/QmYY4jj1SxgrFhQHpKFwmv7qmb2cpnSeDcpPCobAFXgzmX\"]},\"src/structs/JBLaunchRulesetsConfig.sol\":{\"keccak256\":\"0x0925c76058be4438aaa3ba8d1f6816cde12730b025c487f1897319bdc22b054a\",\"license\":\"MIT\",\"urls\":[\"bzz-raw://f67ed8c1d06c2ea2318c4e2da5f03053c035f68f50f1fee546c60c7a4cb37982\",\"dweb:/ipfs/QmdL1Vp6aAh4EXr6ZnBxVeXGq5gDzPwbmCb8wH7iUD3h2Y\"]},\"src/structs/JBPayDataHookRulesetConfig.sol\":{\"keccak256\":\"0xb8c9b727af33c31e5de91f3fe276aa52abcad3ea2aa010a0652a5ba532d805ee\",\"license\":\"MIT\",\"urls\":[\"bzz-raw://500635eaafbf6c37a5f51ca36618b04e87fae5e59030d7d2b20d9eb989e4c17d\",\"dweb:/ipfs/QmcPa3aczMHMpQEt4aQLzXyVLk4buCuRwtfpczSWMeYMnG\"]},\"src/structs/JBPayDataHookRulesetMetadata.sol\":{\"keccak256\":\"0x8e96cc925255913471645456563fabf7183782a1266b64322e3a96c241af1089\",\"license\":\"MIT\",\"urls\":[\"bzz-raw://925d629f24110f98f97296eecbb4241048296088f7326fc459b330aeb45b3f0e\",\"dweb:/ipfs/QmbtCnFCTACsufCvV4CTDhNzW1bF1miHpA9ZC6nV5XCK4v\"]},\"src/structs/JBQueueRulesetsConfig.sol\":{\"keccak256\":\"0x3ad05bfa31a90070eb4a026a13d508f9a68ca2474c3737bcda97a07307ffa554\",\"license\":\"MIT\",\"urls\":[\"bzz-raw://357f0193da0840e4b012ff1f97c65c8b6f5fea39e323a3777baf2b0625491f12\",\"dweb:/ipfs/QmZkJb8MuZ3wimiV6kry4RMp9ZkUFQA9yhfJDVUWTBWFcq\"]}},\"version\":1}",
			"gitCommit": "6440e6ca00fa1c67d04c269726bb3639c165efc9",
			"history": []
		}
	]
}