{
	"format": "sphinx-sol-ct-artifact-1",
	"merkleRoot": "0x73a360f5941893049c4f5b5d3f6cb4523570dc9bf5c0e713e6c39ab7d42b4761",
	"address": "0x792bdd4dd1e52fcf8fb3e80278a2b4e4396d2732",
	"sourceName": "src/JB721TiersHookDeployer.sol",
	"contractName": "JB721TiersHookDeployer",
	"chainId": "0xaa36a7",
	"abi": [
		{
			"inputs": [
				{
					"internalType": "contract JB721TiersHook",
					"name": "hook",
					"type": "address"
				},
				{
					"internalType": "contract IJB721TiersHookStore",
					"name": "store",
					"type": "address"
				},
				{
					"internalType": "contract IJBAddressRegistry",
					"name": "addressRegistry",
					"type": "address"
				},
				{
					"internalType": "address",
					"name": "trustedForwarder",
					"type": "address"
				}
			],
			"stateMutability": "nonpayable",
			"type": "constructor"
		},
		{
			"inputs": [],
			"name": "ADDRESS_REGISTRY",
			"outputs": [
				{
					"internalType": "contract IJBAddressRegistry",
					"name": "",
					"type": "address"
				}
			],
			"stateMutability": "view",
			"type": "function"
		},
		{
			"inputs": [],
			"name": "HOOK",
			"outputs": [
				{
					"internalType": "contract JB721TiersHook",
					"name": "",
					"type": "address"
				}
			],
			"stateMutability": "view",
			"type": "function"
		},
		{
			"inputs": [],
			"name": "STORE",
			"outputs": [
				{
					"internalType": "contract IJB721TiersHookStore",
					"name": "",
					"type": "address"
				}
			],
			"stateMutability": "view",
			"type": "function"
		},
		{
			"inputs": [
				{
					"internalType": "uint256",
					"name": "projectId",
					"type": "uint256"
				},
				{
					"components": [
						{
							"internalType": "string",
							"name": "name",
							"type": "string"
						},
						{
							"internalType": "string",
							"name": "symbol",
							"type": "string"
						},
						{
							"internalType": "string",
							"name": "baseUri",
							"type": "string"
						},
						{
							"internalType": "contract IJB721TokenUriResolver",
							"name": "tokenUriResolver",
							"type": "address"
						},
						{
							"internalType": "string",
							"name": "contractUri",
							"type": "string"
						},
						{
							"components": [
								{
									"components": [
										{
											"internalType": "uint104",
											"name": "price",
											"type": "uint104"
										},
										{
											"internalType": "uint32",
											"name": "initialSupply",
											"type": "uint32"
										},
										{
											"internalType": "uint32",
											"name": "votingUnits",
											"type": "uint32"
										},
										{
											"internalType": "uint16",
											"name": "reserveFrequency",
											"type": "uint16"
										},
										{
											"internalType": "address",
											"name": "reserveBeneficiary",
											"type": "address"
										},
										{
											"internalType": "bytes32",
											"name": "encodedIPFSUri",
											"type": "bytes32"
										},
										{
											"internalType": "uint24",
											"name": "category",
											"type": "uint24"
										},
										{
											"internalType": "uint8",
											"name": "discountPercent",
											"type": "uint8"
										},
										{
											"internalType": "bool",
											"name": "allowOwnerMint",
											"type": "bool"
										},
										{
											"internalType": "bool",
											"name": "useReserveBeneficiaryAsDefault",
											"type": "bool"
										},
										{
											"internalType": "bool",
											"name": "transfersPausable",
											"type": "bool"
										},
										{
											"internalType": "bool",
											"name": "useVotingUnits",
											"type": "bool"
										},
										{
											"internalType": "bool",
											"name": "cannotBeRemoved",
											"type": "bool"
										},
										{
											"internalType": "bool",
											"name": "cannotIncreaseDiscountPercent",
											"type": "bool"
										}
									],
									"internalType": "struct JB721TierConfig[]",
									"name": "tiers",
									"type": "tuple[]"
								},
								{
									"internalType": "uint32",
									"name": "currency",
									"type": "uint32"
								},
								{
									"internalType": "uint8",
									"name": "decimals",
									"type": "uint8"
								},
								{
									"internalType": "contract IJBPrices",
									"name": "prices",
									"type": "address"
								}
							],
							"internalType": "struct JB721InitTiersConfig",
							"name": "tiersConfig",
							"type": "tuple"
						},
						{
							"internalType": "address",
							"name": "reserveBeneficiary",
							"type": "address"
						},
						{
							"components": [
								{
									"internalType": "bool",
									"name": "noNewTiersWithReserves",
									"type": "bool"
								},
								{
									"internalType": "bool",
									"name": "noNewTiersWithVotes",
									"type": "bool"
								},
								{
									"internalType": "bool",
									"name": "noNewTiersWithOwnerMinting",
									"type": "bool"
								},
								{
									"internalType": "bool",
									"name": "preventOverspending",
									"type": "bool"
								}
							],
							"internalType": "struct JB721TiersHookFlags",
							"name": "flags",
							"type": "tuple"
						}
					],
					"internalType": "struct JBDeploy721TiersHookConfig",
					"name": "deployTiersHookConfig",
					"type": "tuple"
				},
				{
					"internalType": "bytes32",
					"name": "salt",
					"type": "bytes32"
				}
			],
			"name": "deployHookFor",
			"outputs": [
				{
					"internalType": "contract IJB721TiersHook",
					"name": "newHook",
					"type": "address"
				}
			],
			"stateMutability": "nonpayable",
			"type": "function"
		},
		{
			"inputs": [
				{
					"internalType": "address",
					"name": "forwarder",
					"type": "address"
				}
			],
			"name": "isTrustedForwarder",
			"outputs": [
				{
					"internalType": "bool",
					"name": "",
					"type": "bool"
				}
			],
			"stateMutability": "view",
			"type": "function"
		},
		{
			"inputs": [],
			"name": "trustedForwarder",
			"outputs": [
				{
					"internalType": "address",
					"name": "",
					"type": "address"
				}
			],
			"stateMutability": "view",
			"type": "function"
		},
		{
			"anonymous": false,
			"inputs": [
				{
					"indexed": true,
					"internalType": "uint256",
					"name": "projectId",
					"type": "uint256"
				},
				{
					"indexed": false,
					"internalType": "contract IJB721TiersHook",
					"name": "hook",
					"type": "address"
				},
				{
					"indexed": false,
					"internalType": "address",
					"name": "caller",
					"type": "address"
				}
			],
			"name": "HookDeployed",
			"type": "event"
		}
	],
	"args": [],
	"solcInputHash": "7049ff0cccffb2c4",
	"bytecode": "0x610100604052348015610010575f80fd5b50604051610d55380380610d5583398101604081905261002f91610069565b6001600160a01b0390811660805292831660c05290821660e0521660a0526100c5565b6001600160a01b0381168114610066575f80fd5b50565b5f805f806080858703121561007c575f80fd5b845161008781610052565b602086015190945061009881610052565b60408601519093506100a981610052565b60608601519092506100ba81610052565b939692955090935050565b60805160a05160c05160e051610c2e6101275f395f607801525f818161015901528181610196015281816101fe015261044601525f8181610132015281816103bd01526104ff01525f818160c701528181610109015261056c0152610c2e5ff3fe608060405234801561000f575f80fd5b506004361061006f575f3560e01c806389a56bbc1161004d57806389a56bbc1461012d578063a54eb24214610154578063ea74b8af1461017b575f80fd5b8063507f146514610073578063572b6c05146100b75780637da0a87714610107575b5f80fd5b61009a7f000000000000000000000000000000000000000000000000000000000000000081565b6040516001600160a01b0390911681526020015b60405180910390f35b6100f76100c53660046106b5565b7f00000000000000000000000000000000000000000000000000000000000000006001600160a01b0390811691161490565b60405190151581526020016100ae565b7f000000000000000000000000000000000000000000000000000000000000000061009a565b61009a7f000000000000000000000000000000000000000000000000000000000000000081565b61009a7f000000000000000000000000000000000000000000000000000000000000000081565b61009a6101893660046106d0565b5f81156101f9576101f45f7f00000000000000000000000000000000000000000000000000000000000000006101bd610566565b604080516001600160a01b0390921660208301528101869052606001604051602081830303815290604052805190602001206105d9565b610222565b6102227f000000000000000000000000000000000000000000000000000000000000000061062c565b604080516001600160a01b038316815233602082015291925085917fd76d022c77a474d529a79581eb88a726ad929fd23efbcb6a1f852d2d936299a5910160405180910390a26001600160a01b03811663462e3af8856102828680610722565b61028f6020890189610722565b61029c60408b018b610722565b6102ac60808d0160608e016106b5565b6102b960808e018e610722565b8e8060a001906102c9919061076c565b8f60e0016040518d63ffffffff1660e01b81526004016102f49c9b9a999897969594939291906109c9565b5f604051808303815f87803b15801561030b575f80fd5b505af115801561031d573d5f803e3d5ffd5b50505050806001600160a01b031663f2fde38b610338610566565b6040517fffffffff0000000000000000000000000000000000000000000000000000000060e084901b1681526001600160a01b0390911660048201526024015f604051808303815f87803b15801561038e575f80fd5b505af11580156103a0573d5f803e3d5ffd5b505050505f8081546103b190610b0d565b9091555081156104e0577f00000000000000000000000000000000000000000000000000000000000000006001600160a01b031663da3c8b0a306103f3610566565b604080516001600160a01b039092166020830152810186905260600160408051601f198184030181528282528051602090910120775af43d3d93803e602a57fd5bf30000000000000000000000838301527f0000000000000000000000000000000000000000000000000000000000000000602884015273602c3d8160093d39f33d3d3d3d363d3d37363d7360148401526035835260608301909152906040518463ffffffff1660e01b81526004016104ae93929190610b25565b5f604051808303815f87803b1580156104c5575f80fd5b505af11580156104d7573d5f803e3d5ffd5b5050505061055f565b5f5460405163b94417ab60e01b815230600482015260248101919091527f00000000000000000000000000000000000000000000000000000000000000006001600160a01b03169063b94417ab906044015f604051808303815f87803b158015610548575f80fd5b505af115801561055a573d5f803e3d5ffd5b505050505b9392505050565b5f3660147f00000000000000000000000000000000000000000000000000000000000000006001600160a01b0316331480156105a25750808210155b156105d1575f366105b38385610b89565b6105be928290610b9c565b6105c791610bc3565b60601c9250505090565b339250505090565b5f6c5af43d3d93803e602a57fd5bf36021528260145273602c3d8160093d39f33d3d3d3d363d3d37363d735f52816035600c86f59050806106215763301164255f526004601cfd5b5f6021529392505050565b5f6106375f8361063d565b92915050565b5f6c5af43d3d93803e602a57fd5bf36021528160145273602c3d8160093d39f33d3d3d3d363d3d37363d735f526035600c84f09050806106845763301164255f526004601cfd5b5f60215292915050565b6001600160a01b03811681146106a2575f80fd5b50565b80356106b08161068e565b919050565b5f602082840312156106c5575f80fd5b813561055f8161068e565b5f805f606084860312156106e2575f80fd5b83359250602084013567ffffffffffffffff8111156106ff575f80fd5b84016101608187031215610711575f80fd5b929592945050506040919091013590565b5f808335601e19843603018112610737575f80fd5b83018035915067ffffffffffffffff821115610751575f80fd5b602001915036819003821315610765575f80fd5b9250929050565b5f8235607e19833603018112610780575f80fd5b9190910192915050565b81835281816020850137505f828201602090810191909152601f909101601f19169091010190565b80356cffffffffffffffffffffffffff811681146106b0575f80fd5b803563ffffffff811681146106b0575f80fd5b803561ffff811681146106b0575f80fd5b803562ffffff811681146106b0575f80fd5b803560ff811681146106b0575f80fd5b803580151581146106b0575f80fd5b8183525f60208085019450825f5b858110156109745761085987610846846107b2565b6cffffffffffffffffffffffffff169052565b6108648383016107ce565b63ffffffff1683880152604061087b8382016107ce565b63ffffffff169088015260606108928382016107e1565b61ffff169088015260806108a78382016106a5565b6001600160a01b03169088015260a0828101359088015260c06108cb8184016107f2565b62ffffff169088015260e06108e1838201610804565b60ff16908801526101006108f6838201610814565b15159088015261012061090a838201610814565b15159088015261014061091e838201610814565b151590880152610160610932838201610814565b151590880152610180610946838201610814565b1515908801526101a061095a838201610814565b1515908801526101c0968701969190910190600101610831565b509495945050505050565b61098881610814565b1515825261099860208201610814565b151560208301526109ab60408201610814565b151560408301526109be60608201610814565b151560608301525050565b8c815261016060208201525f6109e461016083018d8f61078a565b82810360408401526109f7818c8e61078a565b90508281036060840152610a0c818a8c61078a565b90506001600160a01b038816608084015282810360a0840152610a3081878961078a565b905082810360c08401528435601e19863603018112610a4d575f80fd5b850160208101903567ffffffffffffffff811115610a69575f80fd5b6101c081023603821315610a7b575f80fd5b60808352610a8d608084018284610823565b915050610a9c602087016107ce565b63ffffffff166020830152610ab360408701610804565b60ff166040830152610ac7606087016106a5565b6001600160a01b0381166060840152509150610ae8905060e083018461097f565b9d9c50505050505050505050505050565b634e487b7160e01b5f52601160045260245ffd5b5f60018201610b1e57610b1e610af9565b5060010190565b6001600160a01b03841681525f60208460208401526060604084015283518060608501525f5b81811015610b6757858101830151858201608001528201610b4b565b505f608082860101526080601f19601f83011685010192505050949350505050565b8181038181111561063757610637610af9565b5f8085851115610baa575f80fd5b83861115610bb6575f80fd5b5050820193919092039150565b6bffffffffffffffffffffffff198135818116916014851015610bf05780818660140360031b1b83161692505b50509291505056fea2646970667358221220ffdf235f047ad92de06e4bb81672e695183dc4f2073bfcbb66840fd0fb99613f64736f6c63430008170033",
	"deployedBytecode": "0x608060405234801561000f575f80fd5b506004361061006f575f3560e01c806389a56bbc1161004d57806389a56bbc1461012d578063a54eb24214610154578063ea74b8af1461017b575f80fd5b8063507f146514610073578063572b6c05146100b75780637da0a87714610107575b5f80fd5b61009a7f0000000000000000000000002bc696b0af74042b30b2687ab5817cc824eba8ee81565b6040516001600160a01b0390911681526020015b60405180910390f35b6100f76100c53660046106b5565b7f000000000000000000000000c29d6995ab3b0df4650ad643adeac55e7acbb5666001600160a01b0390811691161490565b60405190151581526020016100ae565b7f000000000000000000000000c29d6995ab3b0df4650ad643adeac55e7acbb56661009a565b61009a7f0000000000000000000000002d9b78cb37ca724cfb9b32cd8e9a5dc1c88bc7bb81565b61009a7f000000000000000000000000749ac9c5ef5ef41f402c70a5bc460c5a1d8eb25b81565b61009a6101893660046106d0565b5f81156101f9576101f45f7f000000000000000000000000749ac9c5ef5ef41f402c70a5bc460c5a1d8eb25b6101bd610566565b604080516001600160a01b0390921660208301528101869052606001604051602081830303815290604052805190602001206105d9565b610222565b6102227f000000000000000000000000749ac9c5ef5ef41f402c70a5bc460c5a1d8eb25b61062c565b604080516001600160a01b038316815233602082015291925085917fd76d022c77a474d529a79581eb88a726ad929fd23efbcb6a1f852d2d936299a5910160405180910390a26001600160a01b03811663462e3af8856102828680610722565b61028f6020890189610722565b61029c60408b018b610722565b6102ac60808d0160608e016106b5565b6102b960808e018e610722565b8e8060a001906102c9919061076c565b8f60e0016040518d63ffffffff1660e01b81526004016102f49c9b9a999897969594939291906109c9565b5f604051808303815f87803b15801561030b575f80fd5b505af115801561031d573d5f803e3d5ffd5b50505050806001600160a01b031663f2fde38b610338610566565b6040517fffffffff0000000000000000000000000000000000000000000000000000000060e084901b1681526001600160a01b0390911660048201526024015f604051808303815f87803b15801561038e575f80fd5b505af11580156103a0573d5f803e3d5ffd5b505050505f8081546103b190610b0d565b9091555081156104e0577f0000000000000000000000002d9b78cb37ca724cfb9b32cd8e9a5dc1c88bc7bb6001600160a01b031663da3c8b0a306103f3610566565b604080516001600160a01b039092166020830152810186905260600160408051601f198184030181528282528051602090910120775af43d3d93803e602a57fd5bf30000000000000000000000838301527f000000000000000000000000749ac9c5ef5ef41f402c70a5bc460c5a1d8eb25b602884015273602c3d8160093d39f33d3d3d3d363d3d37363d7360148401526035835260608301909152906040518463ffffffff1660e01b81526004016104ae93929190610b25565b5f604051808303815f87803b1580156104c5575f80fd5b505af11580156104d7573d5f803e3d5ffd5b5050505061055f565b5f5460405163b94417ab60e01b815230600482015260248101919091527f0000000000000000000000002d9b78cb37ca724cfb9b32cd8e9a5dc1c88bc7bb6001600160a01b03169063b94417ab906044015f604051808303815f87803b158015610548575f80fd5b505af115801561055a573d5f803e3d5ffd5b505050505b9392505050565b5f3660147f000000000000000000000000c29d6995ab3b0df4650ad643adeac55e7acbb5666001600160a01b0316331480156105a25750808210155b156105d1575f366105b38385610b89565b6105be928290610b9c565b6105c791610bc3565b60601c9250505090565b339250505090565b5f6c5af43d3d93803e602a57fd5bf36021528260145273602c3d8160093d39f33d3d3d3d363d3d37363d735f52816035600c86f59050806106215763301164255f526004601cfd5b5f6021529392505050565b5f6106375f8361063d565b92915050565b5f6c5af43d3d93803e602a57fd5bf36021528160145273602c3d8160093d39f33d3d3d3d363d3d37363d735f526035600c84f09050806106845763301164255f526004601cfd5b5f60215292915050565b6001600160a01b03811681146106a2575f80fd5b50565b80356106b08161068e565b919050565b5f602082840312156106c5575f80fd5b813561055f8161068e565b5f805f606084860312156106e2575f80fd5b83359250602084013567ffffffffffffffff8111156106ff575f80fd5b84016101608187031215610711575f80fd5b929592945050506040919091013590565b5f808335601e19843603018112610737575f80fd5b83018035915067ffffffffffffffff821115610751575f80fd5b602001915036819003821315610765575f80fd5b9250929050565b5f8235607e19833603018112610780575f80fd5b9190910192915050565b81835281816020850137505f828201602090810191909152601f909101601f19169091010190565b80356cffffffffffffffffffffffffff811681146106b0575f80fd5b803563ffffffff811681146106b0575f80fd5b803561ffff811681146106b0575f80fd5b803562ffffff811681146106b0575f80fd5b803560ff811681146106b0575f80fd5b803580151581146106b0575f80fd5b8183525f60208085019450825f5b858110156109745761085987610846846107b2565b6cffffffffffffffffffffffffff169052565b6108648383016107ce565b63ffffffff1683880152604061087b8382016107ce565b63ffffffff169088015260606108928382016107e1565b61ffff169088015260806108a78382016106a5565b6001600160a01b03169088015260a0828101359088015260c06108cb8184016107f2565b62ffffff169088015260e06108e1838201610804565b60ff16908801526101006108f6838201610814565b15159088015261012061090a838201610814565b15159088015261014061091e838201610814565b151590880152610160610932838201610814565b151590880152610180610946838201610814565b1515908801526101a061095a838201610814565b1515908801526101c0968701969190910190600101610831565b509495945050505050565b61098881610814565b1515825261099860208201610814565b151560208301526109ab60408201610814565b151560408301526109be60608201610814565b151560608301525050565b8c815261016060208201525f6109e461016083018d8f61078a565b82810360408401526109f7818c8e61078a565b90508281036060840152610a0c818a8c61078a565b90506001600160a01b038816608084015282810360a0840152610a3081878961078a565b905082810360c08401528435601e19863603018112610a4d575f80fd5b850160208101903567ffffffffffffffff811115610a69575f80fd5b6101c081023603821315610a7b575f80fd5b60808352610a8d608084018284610823565b915050610a9c602087016107ce565b63ffffffff166020830152610ab360408701610804565b60ff166040830152610ac7606087016106a5565b6001600160a01b0381166060840152509150610ae8905060e083018461097f565b9d9c50505050505050505050505050565b634e487b7160e01b5f52601160045260245ffd5b5f60018201610b1e57610b1e610af9565b5060010190565b6001600160a01b03841681525f60208460208401526060604084015283518060608501525f5b81811015610b6757858101830151858201608001528201610b4b565b505f608082860101526080601f19601f83011685010192505050949350505050565b8181038181111561063757610637610af9565b5f8085851115610baa575f80fd5b83861115610bb6575f80fd5b5050820193919092039150565b6bffffffffffffffffffffffff198135818116916014851015610bf05780818660140360031b1b83161692505b50509291505056fea2646970667358221220ffdf235f047ad92de06e4bb81672e695183dc4f2073bfcbb66840fd0fb99613f64736f6c63430008170033",
	"gitCommit": "76fb97f0dea8d06cf33d6836a80243606f3bb5df",
	"history": [
		{
			"format": "sphinx-sol-ct-artifact-1",
			"merkleRoot": "0x67860454993c605165008d5f511c7deea857487d819b99956c15c8cde5ab449e",
			"address": "0xef60878d00378ac5f93d209f4616450ee8d41ca7",
			"sourceName": "src/JB721TiersHookDeployer.sol",
			"contractName": "JB721TiersHookDeployer",
			"chainId": "0xaa36a7",
			"abi": [
				{
					"inputs": [
						{
							"internalType": "contract JB721TiersHook",
							"name": "hook",
							"type": "address"
						},
						{
							"internalType": "contract IJB721TiersHookStore",
							"name": "store",
							"type": "address"
						},
						{
							"internalType": "contract IJBAddressRegistry",
							"name": "addressRegistry",
							"type": "address"
						},
						{
							"internalType": "address",
							"name": "trustedForwarder",
							"type": "address"
						}
					],
					"stateMutability": "nonpayable",
					"type": "constructor"
				},
				{
					"inputs": [],
					"name": "ADDRESS_REGISTRY",
					"outputs": [
						{
							"internalType": "contract IJBAddressRegistry",
							"name": "",
							"type": "address"
						}
					],
					"stateMutability": "view",
					"type": "function"
				},
				{
					"inputs": [],
					"name": "HOOK",
					"outputs": [
						{
							"internalType": "contract JB721TiersHook",
							"name": "",
							"type": "address"
						}
					],
					"stateMutability": "view",
					"type": "function"
				},
				{
					"inputs": [],
					"name": "STORE",
					"outputs": [
						{
							"internalType": "contract IJB721TiersHookStore",
							"name": "",
							"type": "address"
						}
					],
					"stateMutability": "view",
					"type": "function"
				},
				{
					"inputs": [
						{
							"internalType": "uint256",
							"name": "projectId",
							"type": "uint256"
						},
						{
							"components": [
								{
									"internalType": "string",
									"name": "name",
									"type": "string"
								},
								{
									"internalType": "string",
									"name": "symbol",
									"type": "string"
								},
								{
									"internalType": "string",
									"name": "baseUri",
									"type": "string"
								},
								{
									"internalType": "contract IJB721TokenUriResolver",
									"name": "tokenUriResolver",
									"type": "address"
								},
								{
									"internalType": "string",
									"name": "contractUri",
									"type": "string"
								},
								{
									"components": [
										{
											"components": [
												{
													"internalType": "uint104",
													"name": "price",
													"type": "uint104"
												},
												{
													"internalType": "uint32",
													"name": "initialSupply",
													"type": "uint32"
												},
												{
													"internalType": "uint32",
													"name": "votingUnits",
													"type": "uint32"
												},
												{
													"internalType": "uint16",
													"name": "reserveFrequency",
													"type": "uint16"
												},
												{
													"internalType": "address",
													"name": "reserveBeneficiary",
													"type": "address"
												},
												{
													"internalType": "bytes32",
													"name": "encodedIPFSUri",
													"type": "bytes32"
												},
												{
													"internalType": "uint24",
													"name": "category",
													"type": "uint24"
												},
												{
													"internalType": "uint8",
													"name": "discountPercent",
													"type": "uint8"
												},
												{
													"internalType": "bool",
													"name": "allowOwnerMint",
													"type": "bool"
												},
												{
													"internalType": "bool",
													"name": "useReserveBeneficiaryAsDefault",
													"type": "bool"
												},
												{
													"internalType": "bool",
													"name": "transfersPausable",
													"type": "bool"
												},
												{
													"internalType": "bool",
													"name": "useVotingUnits",
													"type": "bool"
												},
												{
													"internalType": "bool",
													"name": "cannotBeRemoved",
													"type": "bool"
												},
												{
													"internalType": "bool",
													"name": "cannotIncreaseDiscountPercent",
													"type": "bool"
												}
											],
											"internalType": "struct JB721TierConfig[]",
											"name": "tiers",
											"type": "tuple[]"
										},
										{
											"internalType": "uint32",
											"name": "currency",
											"type": "uint32"
										},
										{
											"internalType": "uint8",
											"name": "decimals",
											"type": "uint8"
										},
										{
											"internalType": "contract IJBPrices",
											"name": "prices",
											"type": "address"
										}
									],
									"internalType": "struct JB721InitTiersConfig",
									"name": "tiersConfig",
									"type": "tuple"
								},
								{
									"internalType": "address",
									"name": "reserveBeneficiary",
									"type": "address"
								},
								{
									"components": [
										{
											"internalType": "bool",
											"name": "noNewTiersWithReserves",
											"type": "bool"
										},
										{
											"internalType": "bool",
											"name": "noNewTiersWithVotes",
											"type": "bool"
										},
										{
											"internalType": "bool",
											"name": "noNewTiersWithOwnerMinting",
											"type": "bool"
										},
										{
											"internalType": "bool",
											"name": "preventOverspending",
											"type": "bool"
										}
									],
									"internalType": "struct JB721TiersHookFlags",
									"name": "flags",
									"type": "tuple"
								}
							],
							"internalType": "struct JBDeploy721TiersHookConfig",
							"name": "deployTiersHookConfig",
							"type": "tuple"
						},
						{
							"internalType": "bytes32",
							"name": "salt",
							"type": "bytes32"
						}
					],
					"name": "deployHookFor",
					"outputs": [
						{
							"internalType": "contract IJB721TiersHook",
							"name": "newHook",
							"type": "address"
						}
					],
					"stateMutability": "nonpayable",
					"type": "function"
				},
				{
					"inputs": [
						{
							"internalType": "address",
							"name": "forwarder",
							"type": "address"
						}
					],
					"name": "isTrustedForwarder",
					"outputs": [
						{
							"internalType": "bool",
							"name": "",
							"type": "bool"
						}
					],
					"stateMutability": "view",
					"type": "function"
				},
				{
					"inputs": [],
					"name": "trustedForwarder",
					"outputs": [
						{
							"internalType": "address",
							"name": "",
							"type": "address"
						}
					],
					"stateMutability": "view",
					"type": "function"
				},
				{
					"anonymous": false,
					"inputs": [
						{
							"indexed": true,
							"internalType": "uint256",
							"name": "projectId",
							"type": "uint256"
						},
						{
							"indexed": false,
							"internalType": "contract IJB721TiersHook",
							"name": "hook",
							"type": "address"
						},
						{
							"indexed": false,
							"internalType": "address",
							"name": "caller",
							"type": "address"
						}
					],
					"name": "HookDeployed",
					"type": "event"
				}
			],
			"args": [],
			"solcInputHash": "4101812ded0792a599ee6d22d3ae1b63",
			"receipt": {
				"type": "0x2",
				"status": "0x1",
				"cumulativeGasUsed": "0x1180e9",
				"logs": [
					{
						"address": "0xa2ea7657440875bf916cbfc0cfa88f13e38ad463",
						"topics": [
							"0x572f161235911da04685a68c06adf558fc7e4a36909dca394650e0adc19cc93d",
							"0x000000000000000000000000755ff2f75a0a586ecfa2b9a3c959cb662458a105",
							"0x000000000000000000000000691d6d2e1f0fb22b67e7471310ddcb3a881cc968",
							"0x042f1dec9e27c6c44f1ee17232efbd0f8bc82548f38f47ecde1ff9c65de29080"
						],
						"data": "0x0000000000000000000000000000000000000000000000000000000000000000",
						"blockHash": "0xc214f32e7f294f4e3150ba0dfbdd960f57e41cd90a16c8d75fb84700ba0bfad7",
						"blockNumber": "0x8c048f",
						"blockTimestamp": "0x68c1d170",
						"transactionHash": "0x83495e9ea9a0b7d8bd428bb1017ac9cb312d279e5bf19e5e17b66fbd4fb0b3f6",
						"transactionIndex": "0x2",
						"logIndex": "0x4",
						"removed": false
					},
					{
						"address": "0x80a8f7a4bd75b539ce26937016df607fdc9abeb5",
						"topics": [
							"0x6895c13664aa4f67288b25d7a21d7aaa34916e355fb9b6fae0a139a9085becb8",
							"0x000000000000000000000000691d6d2e1f0fb22b67e7471310ddcb3a881cc968"
						],
						"data": "0x",
						"blockHash": "0xc214f32e7f294f4e3150ba0dfbdd960f57e41cd90a16c8d75fb84700ba0bfad7",
						"blockNumber": "0x8c048f",
						"blockTimestamp": "0x68c1d170",
						"transactionHash": "0x83495e9ea9a0b7d8bd428bb1017ac9cb312d279e5bf19e5e17b66fbd4fb0b3f6",
						"transactionIndex": "0x2",
						"logIndex": "0x5",
						"removed": false
					},
					{
						"address": "0x691d6d2e1f0fb22b67e7471310ddcb3a881cc968",
						"topics": [
							"0xa65fb05c5808f5f389d72edeaf719ce38f4cc55c1f69ca3cbfb31c21501caa07",
							"0x67860454993c605165008d5f511c7deea857487d819b99956c15c8cde5ab449e"
						],
						"data": "0x0000000000000000000000000000000000000000000000000000000000000003",
						"blockHash": "0xc214f32e7f294f4e3150ba0dfbdd960f57e41cd90a16c8d75fb84700ba0bfad7",
						"blockNumber": "0x8c048f",
						"blockTimestamp": "0x68c1d170",
						"transactionHash": "0x83495e9ea9a0b7d8bd428bb1017ac9cb312d279e5bf19e5e17b66fbd4fb0b3f6",
						"transactionIndex": "0x2",
						"logIndex": "0x6",
						"removed": false
					}
				],
				"logsBloom": "0x000000000000100000000000000800000008000000000000000000000004000000000000000000000000000040400000000000000000000000000000000000000000000000002000000000000000000000000000000000000000000000000000000000000000000000000000000000000000000000000000000000000000000008000000000000000001040000001000000000011020000000200040000000000040000c0000000000000000000000002200000000000000000000000044000000000003004000000000000000000000000000000000000000000000000000020000000000000000000100000000000200000000000080000000000000000000",
				"transactionHash": "0x83495e9ea9a0b7d8bd428bb1017ac9cb312d279e5bf19e5e17b66fbd4fb0b3f6",
				"transactionIndex": "0x2",
				"blockHash": "0xc214f32e7f294f4e3150ba0dfbdd960f57e41cd90a16c8d75fb84700ba0bfad7",
				"blockNumber": "0x8c048f",
				"gasUsed": "0xc9f24",
				"effectiveGasPrice": "0x2cb714f0a",
				"from": "0x755ff2f75a0a586ecfa2b9a3c959cb662458a105",
				"to": "0xa2ea7657440875bf916cbfc0cfa88f13e38ad463",
				"contractAddress": null
			},
			"bytecode": "0x610100604052348015610010575f80fd5b50604051610d55380380610d5583398101604081905261002f91610069565b6001600160a01b0390811660805292831660c05290821660e0521660a0526100c5565b6001600160a01b0381168114610066575f80fd5b50565b5f805f806080858703121561007c575f80fd5b845161008781610052565b602086015190945061009881610052565b60408601519093506100a981610052565b60608601519092506100ba81610052565b939692955090935050565b60805160a05160c05160e051610c2e6101275f395f607801525f818161015901528181610196015281816101fe015261044601525f8181610132015281816103bd01526104ff01525f818160c701528181610109015261056c0152610c2e5ff3fe608060405234801561000f575f80fd5b506004361061006f575f3560e01c806389a56bbc1161004d57806389a56bbc1461012d578063a54eb24214610154578063ea74b8af1461017b575f80fd5b8063507f146514610073578063572b6c05146100b75780637da0a87714610107575b5f80fd5b61009a7f000000000000000000000000000000000000000000000000000000000000000081565b6040516001600160a01b0390911681526020015b60405180910390f35b6100f76100c53660046106b5565b7f00000000000000000000000000000000000000000000000000000000000000006001600160a01b0390811691161490565b60405190151581526020016100ae565b7f000000000000000000000000000000000000000000000000000000000000000061009a565b61009a7f000000000000000000000000000000000000000000000000000000000000000081565b61009a7f000000000000000000000000000000000000000000000000000000000000000081565b61009a6101893660046106d0565b5f81156101f9576101f45f7f00000000000000000000000000000000000000000000000000000000000000006101bd610566565b604080516001600160a01b0390921660208301528101869052606001604051602081830303815290604052805190602001206105d9565b610222565b6102227f000000000000000000000000000000000000000000000000000000000000000061062c565b604080516001600160a01b038316815233602082015291925085917fd76d022c77a474d529a79581eb88a726ad929fd23efbcb6a1f852d2d936299a5910160405180910390a26001600160a01b03811663462e3af8856102828680610722565b61028f6020890189610722565b61029c60408b018b610722565b6102ac60808d0160608e016106b5565b6102b960808e018e610722565b8e8060a001906102c9919061076c565b8f60e0016040518d63ffffffff1660e01b81526004016102f49c9b9a999897969594939291906109c9565b5f604051808303815f87803b15801561030b575f80fd5b505af115801561031d573d5f803e3d5ffd5b50505050806001600160a01b031663f2fde38b610338610566565b6040517fffffffff0000000000000000000000000000000000000000000000000000000060e084901b1681526001600160a01b0390911660048201526024015f604051808303815f87803b15801561038e575f80fd5b505af11580156103a0573d5f803e3d5ffd5b505050505f8081546103b190610b0d565b9091555081156104e0577f00000000000000000000000000000000000000000000000000000000000000006001600160a01b031663da3c8b0a306103f3610566565b604080516001600160a01b039092166020830152810186905260600160408051601f198184030181528282528051602090910120775af43d3d93803e602a57fd5bf30000000000000000000000838301527f0000000000000000000000000000000000000000000000000000000000000000602884015273602c3d8160093d39f33d3d3d3d363d3d37363d7360148401526035835260608301909152906040518463ffffffff1660e01b81526004016104ae93929190610b25565b5f604051808303815f87803b1580156104c5575f80fd5b505af11580156104d7573d5f803e3d5ffd5b5050505061055f565b5f5460405163b94417ab60e01b815230600482015260248101919091527f00000000000000000000000000000000000000000000000000000000000000006001600160a01b03169063b94417ab906044015f604051808303815f87803b158015610548575f80fd5b505af115801561055a573d5f803e3d5ffd5b505050505b9392505050565b5f3660147f00000000000000000000000000000000000000000000000000000000000000006001600160a01b0316331480156105a25750808210155b156105d1575f366105b38385610b89565b6105be928290610b9c565b6105c791610bc3565b60601c9250505090565b339250505090565b5f6c5af43d3d93803e602a57fd5bf36021528260145273602c3d8160093d39f33d3d3d3d363d3d37363d735f52816035600c86f59050806106215763301164255f526004601cfd5b5f6021529392505050565b5f6106375f8361063d565b92915050565b5f6c5af43d3d93803e602a57fd5bf36021528160145273602c3d8160093d39f33d3d3d3d363d3d37363d735f526035600c84f09050806106845763301164255f526004601cfd5b5f60215292915050565b6001600160a01b03811681146106a2575f80fd5b50565b80356106b08161068e565b919050565b5f602082840312156106c5575f80fd5b813561055f8161068e565b5f805f606084860312156106e2575f80fd5b83359250602084013567ffffffffffffffff8111156106ff575f80fd5b84016101608187031215610711575f80fd5b929592945050506040919091013590565b5f808335601e19843603018112610737575f80fd5b83018035915067ffffffffffffffff821115610751575f80fd5b602001915036819003821315610765575f80fd5b9250929050565b5f8235607e19833603018112610780575f80fd5b9190910192915050565b81835281816020850137505f828201602090810191909152601f909101601f19169091010190565b80356cffffffffffffffffffffffffff811681146106b0575f80fd5b803563ffffffff811681146106b0575f80fd5b803561ffff811681146106b0575f80fd5b803562ffffff811681146106b0575f80fd5b803560ff811681146106b0575f80fd5b803580151581146106b0575f80fd5b8183525f60208085019450825f5b858110156109745761085987610846846107b2565b6cffffffffffffffffffffffffff169052565b6108648383016107ce565b63ffffffff1683880152604061087b8382016107ce565b63ffffffff169088015260606108928382016107e1565b61ffff169088015260806108a78382016106a5565b6001600160a01b03169088015260a0828101359088015260c06108cb8184016107f2565b62ffffff169088015260e06108e1838201610804565b60ff16908801526101006108f6838201610814565b15159088015261012061090a838201610814565b15159088015261014061091e838201610814565b151590880152610160610932838201610814565b151590880152610180610946838201610814565b1515908801526101a061095a838201610814565b1515908801526101c0968701969190910190600101610831565b509495945050505050565b61098881610814565b1515825261099860208201610814565b151560208301526109ab60408201610814565b151560408301526109be60608201610814565b151560608301525050565b8c815261016060208201525f6109e461016083018d8f61078a565b82810360408401526109f7818c8e61078a565b90508281036060840152610a0c818a8c61078a565b90506001600160a01b038816608084015282810360a0840152610a3081878961078a565b905082810360c08401528435601e19863603018112610a4d575f80fd5b850160208101903567ffffffffffffffff811115610a69575f80fd5b6101c081023603821315610a7b575f80fd5b60808352610a8d608084018284610823565b915050610a9c602087016107ce565b63ffffffff166020830152610ab360408701610804565b60ff166040830152610ac7606087016106a5565b6001600160a01b0381166060840152509150610ae8905060e083018461097f565b9d9c50505050505050505050505050565b634e487b7160e01b5f52601160045260245ffd5b5f60018201610b1e57610b1e610af9565b5060010190565b6001600160a01b03841681525f60208460208401526060604084015283518060608501525f5b81811015610b6757858101830151858201608001528201610b4b565b505f608082860101526080601f19601f83011685010192505050949350505050565b8181038181111561063757610637610af9565b5f8085851115610baa575f80fd5b83861115610bb6575f80fd5b5050820193919092039150565b6bffffffffffffffffffffffff198135818116916014851015610bf05780818660140360031b1b83161692505b50509291505056fea2646970667358221220ffdf235f047ad92de06e4bb81672e695183dc4f2073bfcbb66840fd0fb99613f64736f6c63430008170033",
			"deployedBytecode": "0x608060405234801561000f575f80fd5b506004361061006f575f3560e01c806389a56bbc1161004d57806389a56bbc1461012d578063a54eb24214610154578063ea74b8af1461017b575f80fd5b8063507f146514610073578063572b6c05146100b75780637da0a87714610107575b5f80fd5b61009a7f0000000000000000000000002bc696b0af74042b30b2687ab5817cc824eba8ee81565b6040516001600160a01b0390911681526020015b60405180910390f35b6100f76100c53660046106b5565b7f000000000000000000000000c29d6995ab3b0df4650ad643adeac55e7acbb5666001600160a01b0390811691161490565b60405190151581526020016100ae565b7f000000000000000000000000c29d6995ab3b0df4650ad643adeac55e7acbb56661009a565b61009a7f0000000000000000000000002d9b78cb37ca724cfb9b32cd8e9a5dc1c88bc7bb81565b61009a7f000000000000000000000000e9485c121082d3beb57d6eac267b04a0f59d176081565b61009a6101893660046106d0565b5f81156101f9576101f45f7f000000000000000000000000e9485c121082d3beb57d6eac267b04a0f59d17606101bd610566565b604080516001600160a01b0390921660208301528101869052606001604051602081830303815290604052805190602001206105d9565b610222565b6102227f000000000000000000000000e9485c121082d3beb57d6eac267b04a0f59d176061062c565b604080516001600160a01b038316815233602082015291925085917fd76d022c77a474d529a79581eb88a726ad929fd23efbcb6a1f852d2d936299a5910160405180910390a26001600160a01b03811663462e3af8856102828680610722565b61028f6020890189610722565b61029c60408b018b610722565b6102ac60808d0160608e016106b5565b6102b960808e018e610722565b8e8060a001906102c9919061076c565b8f60e0016040518d63ffffffff1660e01b81526004016102f49c9b9a999897969594939291906109c9565b5f604051808303815f87803b15801561030b575f80fd5b505af115801561031d573d5f803e3d5ffd5b50505050806001600160a01b031663f2fde38b610338610566565b6040517fffffffff0000000000000000000000000000000000000000000000000000000060e084901b1681526001600160a01b0390911660048201526024015f604051808303815f87803b15801561038e575f80fd5b505af11580156103a0573d5f803e3d5ffd5b505050505f8081546103b190610b0d565b9091555081156104e0577f0000000000000000000000002d9b78cb37ca724cfb9b32cd8e9a5dc1c88bc7bb6001600160a01b031663da3c8b0a306103f3610566565b604080516001600160a01b039092166020830152810186905260600160408051601f198184030181528282528051602090910120775af43d3d93803e602a57fd5bf30000000000000000000000838301527f000000000000000000000000e9485c121082d3beb57d6eac267b04a0f59d1760602884015273602c3d8160093d39f33d3d3d3d363d3d37363d7360148401526035835260608301909152906040518463ffffffff1660e01b81526004016104ae93929190610b25565b5f604051808303815f87803b1580156104c5575f80fd5b505af11580156104d7573d5f803e3d5ffd5b5050505061055f565b5f5460405163b94417ab60e01b815230600482015260248101919091527f0000000000000000000000002d9b78cb37ca724cfb9b32cd8e9a5dc1c88bc7bb6001600160a01b03169063b94417ab906044015f604051808303815f87803b158015610548575f80fd5b505af115801561055a573d5f803e3d5ffd5b505050505b9392505050565b5f3660147f000000000000000000000000c29d6995ab3b0df4650ad643adeac55e7acbb5666001600160a01b0316331480156105a25750808210155b156105d1575f366105b38385610b89565b6105be928290610b9c565b6105c791610bc3565b60601c9250505090565b339250505090565b5f6c5af43d3d93803e602a57fd5bf36021528260145273602c3d8160093d39f33d3d3d3d363d3d37363d735f52816035600c86f59050806106215763301164255f526004601cfd5b5f6021529392505050565b5f6106375f8361063d565b92915050565b5f6c5af43d3d93803e602a57fd5bf36021528160145273602c3d8160093d39f33d3d3d3d363d3d37363d735f526035600c84f09050806106845763301164255f526004601cfd5b5f60215292915050565b6001600160a01b03811681146106a2575f80fd5b50565b80356106b08161068e565b919050565b5f602082840312156106c5575f80fd5b813561055f8161068e565b5f805f606084860312156106e2575f80fd5b83359250602084013567ffffffffffffffff8111156106ff575f80fd5b84016101608187031215610711575f80fd5b929592945050506040919091013590565b5f808335601e19843603018112610737575f80fd5b83018035915067ffffffffffffffff821115610751575f80fd5b602001915036819003821315610765575f80fd5b9250929050565b5f8235607e19833603018112610780575f80fd5b9190910192915050565b81835281816020850137505f828201602090810191909152601f909101601f19169091010190565b80356cffffffffffffffffffffffffff811681146106b0575f80fd5b803563ffffffff811681146106b0575f80fd5b803561ffff811681146106b0575f80fd5b803562ffffff811681146106b0575f80fd5b803560ff811681146106b0575f80fd5b803580151581146106b0575f80fd5b8183525f60208085019450825f5b858110156109745761085987610846846107b2565b6cffffffffffffffffffffffffff169052565b6108648383016107ce565b63ffffffff1683880152604061087b8382016107ce565b63ffffffff169088015260606108928382016107e1565b61ffff169088015260806108a78382016106a5565b6001600160a01b03169088015260a0828101359088015260c06108cb8184016107f2565b62ffffff169088015260e06108e1838201610804565b60ff16908801526101006108f6838201610814565b15159088015261012061090a838201610814565b15159088015261014061091e838201610814565b151590880152610160610932838201610814565b151590880152610180610946838201610814565b1515908801526101a061095a838201610814565b1515908801526101c0968701969190910190600101610831565b509495945050505050565b61098881610814565b1515825261099860208201610814565b151560208301526109ab60408201610814565b151560408301526109be60608201610814565b151560608301525050565b8c815261016060208201525f6109e461016083018d8f61078a565b82810360408401526109f7818c8e61078a565b90508281036060840152610a0c818a8c61078a565b90506001600160a01b038816608084015282810360a0840152610a3081878961078a565b905082810360c08401528435601e19863603018112610a4d575f80fd5b850160208101903567ffffffffffffffff811115610a69575f80fd5b6101c081023603821315610a7b575f80fd5b60808352610a8d608084018284610823565b915050610a9c602087016107ce565b63ffffffff166020830152610ab360408701610804565b60ff166040830152610ac7606087016106a5565b6001600160a01b0381166060840152509150610ae8905060e083018461097f565b9d9c50505050505050505050505050565b634e487b7160e01b5f52601160045260245ffd5b5f60018201610b1e57610b1e610af9565b5060010190565b6001600160a01b03841681525f60208460208401526060604084015283518060608501525f5b81811015610b6757858101830151858201608001528201610b4b565b505f608082860101526080601f19601f83011685010192505050949350505050565b8181038181111561063757610637610af9565b5f8085851115610baa575f80fd5b83861115610bb6575f80fd5b5050820193919092039150565b6bffffffffffffffffffffffff198135818116916014851015610bf05780818660140360031b1b83161692505b50509291505056fea2646970667358221220ffdf235f047ad92de06e4bb81672e695183dc4f2073bfcbb66840fd0fb99613f64736f6c63430008170033",
			"metadata": "{\"compiler\":{\"version\":\"0.8.23+commit.f704f362\"},\"language\":\"Solidity\",\"output\":{\"abi\":[{\"inputs\":[{\"internalType\":\"contract JB721TiersHook\",\"name\":\"hook\",\"type\":\"address\"},{\"internalType\":\"contract IJB721TiersHookStore\",\"name\":\"store\",\"type\":\"address\"},{\"internalType\":\"contract IJBAddressRegistry\",\"name\":\"addressRegistry\",\"type\":\"address\"},{\"internalType\":\"address\",\"name\":\"trustedForwarder\",\"type\":\"address\"}],\"stateMutability\":\"nonpayable\",\"type\":\"constructor\"},{\"anonymous\":false,\"inputs\":[{\"indexed\":true,\"internalType\":\"uint256\",\"name\":\"projectId\",\"type\":\"uint256\"},{\"indexed\":false,\"internalType\":\"contract IJB721TiersHook\",\"name\":\"hook\",\"type\":\"address\"},{\"indexed\":false,\"internalType\":\"address\",\"name\":\"caller\",\"type\":\"address\"}],\"name\":\"HookDeployed\",\"type\":\"event\"},{\"inputs\":[],\"name\":\"ADDRESS_REGISTRY\",\"outputs\":[{\"internalType\":\"contract IJBAddressRegistry\",\"name\":\"\",\"type\":\"address\"}],\"stateMutability\":\"view\",\"type\":\"function\"},{\"inputs\":[],\"name\":\"HOOK\",\"outputs\":[{\"internalType\":\"contract JB721TiersHook\",\"name\":\"\",\"type\":\"address\"}],\"stateMutability\":\"view\",\"type\":\"function\"},{\"inputs\":[],\"name\":\"STORE\",\"outputs\":[{\"internalType\":\"contract IJB721TiersHookStore\",\"name\":\"\",\"type\":\"address\"}],\"stateMutability\":\"view\",\"type\":\"function\"},{\"inputs\":[{\"internalType\":\"uint256\",\"name\":\"projectId\",\"type\":\"uint256\"},{\"components\":[{\"internalType\":\"string\",\"name\":\"name\",\"type\":\"string\"},{\"internalType\":\"string\",\"name\":\"symbol\",\"type\":\"string\"},{\"internalType\":\"string\",\"name\":\"baseUri\",\"type\":\"string\"},{\"internalType\":\"contract IJB721TokenUriResolver\",\"name\":\"tokenUriResolver\",\"type\":\"address\"},{\"internalType\":\"string\",\"name\":\"contractUri\",\"type\":\"string\"},{\"components\":[{\"components\":[{\"internalType\":\"uint104\",\"name\":\"price\",\"type\":\"uint104\"},{\"internalType\":\"uint32\",\"name\":\"initialSupply\",\"type\":\"uint32\"},{\"internalType\":\"uint32\",\"name\":\"votingUnits\",\"type\":\"uint32\"},{\"internalType\":\"uint16\",\"name\":\"reserveFrequency\",\"type\":\"uint16\"},{\"internalType\":\"address\",\"name\":\"reserveBeneficiary\",\"type\":\"address\"},{\"internalType\":\"bytes32\",\"name\":\"encodedIPFSUri\",\"type\":\"bytes32\"},{\"internalType\":\"uint24\",\"name\":\"category\",\"type\":\"uint24\"},{\"internalType\":\"uint8\",\"name\":\"discountPercent\",\"type\":\"uint8\"},{\"internalType\":\"bool\",\"name\":\"allowOwnerMint\",\"type\":\"bool\"},{\"internalType\":\"bool\",\"name\":\"useReserveBeneficiaryAsDefault\",\"type\":\"bool\"},{\"internalType\":\"bool\",\"name\":\"transfersPausable\",\"type\":\"bool\"},{\"internalType\":\"bool\",\"name\":\"useVotingUnits\",\"type\":\"bool\"},{\"internalType\":\"bool\",\"name\":\"cannotBeRemoved\",\"type\":\"bool\"},{\"internalType\":\"bool\",\"name\":\"cannotIncreaseDiscountPercent\",\"type\":\"bool\"}],\"internalType\":\"struct JB721TierConfig[]\",\"name\":\"tiers\",\"type\":\"tuple[]\"},{\"internalType\":\"uint32\",\"name\":\"currency\",\"type\":\"uint32\"},{\"internalType\":\"uint8\",\"name\":\"decimals\",\"type\":\"uint8\"},{\"internalType\":\"contract IJBPrices\",\"name\":\"prices\",\"type\":\"address\"}],\"internalType\":\"struct JB721InitTiersConfig\",\"name\":\"tiersConfig\",\"type\":\"tuple\"},{\"internalType\":\"address\",\"name\":\"reserveBeneficiary\",\"type\":\"address\"},{\"components\":[{\"internalType\":\"bool\",\"name\":\"noNewTiersWithReserves\",\"type\":\"bool\"},{\"internalType\":\"bool\",\"name\":\"noNewTiersWithVotes\",\"type\":\"bool\"},{\"internalType\":\"bool\",\"name\":\"noNewTiersWithOwnerMinting\",\"type\":\"bool\"},{\"internalType\":\"bool\",\"name\":\"preventOverspending\",\"type\":\"bool\"}],\"internalType\":\"struct JB721TiersHookFlags\",\"name\":\"flags\",\"type\":\"tuple\"}],\"internalType\":\"struct JBDeploy721TiersHookConfig\",\"name\":\"deployTiersHookConfig\",\"type\":\"tuple\"},{\"internalType\":\"bytes32\",\"name\":\"salt\",\"type\":\"bytes32\"}],\"name\":\"deployHookFor\",\"outputs\":[{\"internalType\":\"contract IJB721TiersHook\",\"name\":\"newHook\",\"type\":\"address\"}],\"stateMutability\":\"nonpayable\",\"type\":\"function\"},{\"inputs\":[{\"internalType\":\"address\",\"name\":\"forwarder\",\"type\":\"address\"}],\"name\":\"isTrustedForwarder\",\"outputs\":[{\"internalType\":\"bool\",\"name\":\"\",\"type\":\"bool\"}],\"stateMutability\":\"view\",\"type\":\"function\"},{\"inputs\":[],\"name\":\"trustedForwarder\",\"outputs\":[{\"internalType\":\"address\",\"name\":\"\",\"type\":\"address\"}],\"stateMutability\":\"view\",\"type\":\"function\"}],\"devdoc\":{\"kind\":\"dev\",\"methods\":{\"constructor\":{\"params\":{\"addressRegistry\":\"A registry which stores references to contracts and their deployers.\",\"hook\":\"Reference copy of a hook.\",\"store\":\"The contract that stores and manages data for this contract's NFTs.\",\"trustedForwarder\":\"The trusted forwarder for the ERC2771Context.\"}},\"deployHookFor(uint256,(string,string,string,address,string,((uint104,uint32,uint32,uint16,address,bytes32,uint24,uint8,bool,bool,bool,bool,bool,bool)[],uint32,uint8,address),address,(bool,bool,bool,bool)),bytes32)\":{\"params\":{\"deployTiersHookConfig\":\"The config to deploy the hook with, which determines its behavior.\",\"projectId\":\"The ID of the project to deploy the hook for.\",\"salt\":\"A salt to use for the deterministic deployment.\"},\"returns\":{\"newHook\":\"The address of the newly deployed hook.\"}},\"isTrustedForwarder(address)\":{\"details\":\"Indicates whether any particular address is the trusted forwarder.\"},\"trustedForwarder()\":{\"details\":\"Returns the address of the trusted forwarder.\"}},\"version\":1},\"userdoc\":{\"kind\":\"user\",\"methods\":{\"ADDRESS_REGISTRY()\":{\"notice\":\"A registry which stores references to contracts and their deployers.\"},\"HOOK()\":{\"notice\":\"A 721 tiers hook.\"},\"STORE()\":{\"notice\":\"The contract that stores and manages data for this contract's NFTs.\"},\"deployHookFor(uint256,(string,string,string,address,string,((uint104,uint32,uint32,uint16,address,bytes32,uint24,uint8,bool,bool,bool,bool,bool,bool)[],uint32,uint8,address),address,(bool,bool,bool,bool)),bytes32)\":{\"notice\":\"Deploys a 721 tiers hook for the specified project.\"}},\"version\":1}},\"settings\":{\"compilationTarget\":{\"src/JB721TiersHookDeployer.sol\":\"JB721TiersHookDeployer\"},\"evmVersion\":\"shanghai\",\"libraries\":{},\"metadata\":{\"bytecodeHash\":\"ipfs\"},\"optimizer\":{\"enabled\":true,\"runs\":800},\"remappings\":[\"@arbitrum/=node_modules/@arbitrum/\",\"@bananapus/=node_modules/@bananapus/\",\"@chainlink/=node_modules/@chainlink/\",\"@eth-optimism/=node_modules/@eth-optimism/\",\"@offchainlabs/=node_modules/@offchainlabs/\",\"@openzeppelin/=node_modules/@openzeppelin/\",\"@prb/=node_modules/@prb/\",\"@scroll-tech/=node_modules/@scroll-tech/\",\"@sphinx-labs/contracts/=node_modules/@sphinx-labs/contracts/contracts/foundry/\",\"@uniswap/=node_modules/@uniswap/\",\"@zksync/=node_modules/@zksync/\",\"ds-test/=lib/forge-std/lib/ds-test/src/\",\"forge-std/=lib/forge-std/src/\",\"hardhat/=node_modules/hardhat/\",\"solady/=node_modules/solady/\",\"solmate/=node_modules/solmate/\",\"sphinx/=lib/sphinx/packages/contracts/contracts/forge-std/src/\"]},\"sources\":{\"node_modules/@bananapus/address-registry-v5/src/interfaces/IJBAddressRegistry.sol\":{\"keccak256\":\"0x984b1f4a0301ee5a5fe44d6d228aa0a60161e0ff69509ef3d5f829c4b154e423\",\"license\":\"MIT\",\"urls\":[\"bzz-raw://c1e46de177797b8585c8030377f470ac6737ddf3496f0a3a6b16e01ad7712dab\",\"dweb:/ipfs/QmW771SQMskbmJG9GHJPMhzJGTFpU3JVj2YxFtLSaAb3Xk\"]},\"node_modules/@bananapus/core-v5/src/abstract/JBPermissioned.sol\":{\"keccak256\":\"0xbaaa61c6aa043522617d3c1a86960c23b9978ee2a6c9d593b00beeeb6ce64423\",\"license\":\"MIT\",\"urls\":[\"bzz-raw://09beed8608e02ce9dbf28814309aaf62c9eec67e0701a26113bdbb4cbae56c42\",\"dweb:/ipfs/QmZrHFnpjX9uBzbFrSjqQgQBkvpJ1ZyvjtT9RfneNGv32S\"]},\"node_modules/@bananapus/core-v5/src/enums/JBApprovalStatus.sol\":{\"keccak256\":\"0x61c69b6bac7d24b566d87cda23a77e4ca9cdb87200b106aba8534cb9a0973e33\",\"license\":\"MIT\",\"urls\":[\"bzz-raw://6a9ca7249de76f77a8252eefe6bd1b63d47952f25a2acfa2c8db967cdff4470c\",\"dweb:/ipfs/QmaxSxptRQNj8bNy96EreENmrnRWdKmhyihBcxyWzBX5BN\"]},\"node_modules/@bananapus/core-v5/src/interfaces/IJBCashOutHook.sol\":{\"keccak256\":\"0x6c516b030f55065eb169d666d11dbd82c4a0b8cea7782ebc5e79433cade38670\",\"license\":\"MIT\",\"urls\":[\"bzz-raw://fa0659eb08477176f130ccaf387d4bde71f0ecca2b24f61124d225f2f50397a3\",\"dweb:/ipfs/QmRNBRGhdGpLQLkC4wK4VrgNEw4EdSiJ4ZZJfiJU4aNt2L\"]},\"node_modules/@bananapus/core-v5/src/interfaces/IJBDirectory.sol\":{\"keccak256\":\"0xcb97db460d2948a7f51c660fe0d1b1749047a419027711c476b86ad3573534c5\",\"license\":\"MIT\",\"urls\":[\"bzz-raw://a909c7a3d471054537894dca827e6e018e92ac25299b43026e5b1e335ec4de68\",\"dweb:/ipfs/QmU1GT3F8PNMjSiPPP5cSLLofefHYFJXnywMCdqqM9xUeh\"]},\"node_modules/@bananapus/core-v5/src/interfaces/IJBPayHook.sol\":{\"keccak256\":\"0x9438866782c652c2942f4d114e35f393cd3c8b0334abce8387eed90bca35e8b2\",\"license\":\"MIT\",\"urls\":[\"bzz-raw://cfd99daf57213f92325aad7d7d16e98476d38e870470e95ba01e3ae3cdecc95d\",\"dweb:/ipfs/QmUKKAVGf7ki8BHksr99tFcRW8APveeB5tNH63ctTbbCW8\"]},\"node_modules/@bananapus/core-v5/src/interfaces/IJBPermissioned.sol\":{\"keccak256\":\"0x5b038d4dee116584e88b230920e56d48e135053e3f7e5642eaea14a775c1dad7\",\"license\":\"MIT\",\"urls\":[\"bzz-raw://19e43102f349fd4a1da1c0943ffb8f2950007fe4bb4bb7e8f74fc142575d091b\",\"dweb:/ipfs/QmXHAt4KzDTdDZgDDefEXH2WKi7NcfkJb9R7nxW5uDqsNp\"]},\"node_modules/@bananapus/core-v5/src/interfaces/IJBPermissions.sol\":{\"keccak256\":\"0x49d2b91a866004af098a6770b28040071885b048b4b50744b12a1e5b212c5e5e\",\"license\":\"MIT\",\"urls\":[\"bzz-raw://089b4dda50be91412ffe1fbe333f78cc894f073c1a7afe469f10a2cee12fbf9e\",\"dweb:/ipfs/QmYPPBZ6HwBa1RNkNGqGcR2xgj4fnWBzrPHHoJG3kZA6AN\"]},\"node_modules/@bananapus/core-v5/src/interfaces/IJBPriceFeed.sol\":{\"keccak256\":\"0x4bd84c0f1a5d4729ed709bcddd43f4c50ec4a165ece79780af8dce482ed07d4a\",\"license\":\"MIT\",\"urls\":[\"bzz-raw://62bac4bfb6982fb002f620c77e5c445e62d50241a5aa64a07e51d929f5a42180\",\"dweb:/ipfs/QmWgJUDreVY2BuMX38a1iUUR5kNbMwGnKG3VvurB7oZtuM\"]},\"node_modules/@bananapus/core-v5/src/interfaces/IJBPrices.sol\":{\"keccak256\":\"0xb4d5244daa52aafab0c9b8806b7f973afa6a3b298add5966d586d27b78424cfb\",\"license\":\"MIT\",\"urls\":[\"bzz-raw://a819f74455aaa4f679ded378424702f3992608a640d7f943b19938eb4ff711da\",\"dweb:/ipfs/QmSMGvVTsMW3L5YSUyXTKoEsgNpGEutnq4frEZHuDdeDvz\"]},\"node_modules/@bananapus/core-v5/src/interfaces/IJBProjects.sol\":{\"keccak256\":\"0x4ae42a9cc29b517b26d2b9b635deb82c16696b777deeca92dfcad33b0f81c0a0\",\"license\":\"MIT\",\"urls\":[\"bzz-raw://1dcbd860e7d7f05232d90c5e9cfd3d01e2ce986ffcdb053473d8a4d387b1a48a\",\"dweb:/ipfs/QmWKWoSJJbVWDumbnzXJBJyXmAacgC97bxMtchh8te41bn\"]},\"node_modules/@bananapus/core-v5/src/interfaces/IJBRulesetApprovalHook.sol\":{\"keccak256\":\"0x5f0dc5968277b572ba5dc74518906dfb33a9684b7a199c7843f4e66af1c11fb9\",\"license\":\"MIT\",\"urls\":[\"bzz-raw://323ce3731aebdf5bf8055b8550055e856feed700d293af8beaf8a750625a0975\",\"dweb:/ipfs/QmU2ErV2uzvXnsJt1qBKm73H2qWcEqYtQGHtZEpx93DaWJ\"]},\"node_modules/@bananapus/core-v5/src/interfaces/IJBRulesetDataHook.sol\":{\"keccak256\":\"0x45a88aa9f26512f7fc3deff6d00be9a292fc07a76c8311f175249400e83d1837\",\"license\":\"MIT\",\"urls\":[\"bzz-raw://1e88b996c3a05f87f7391ebcb9cd6d46c6ce8768083945f26a98c4ac4509e64c\",\"dweb:/ipfs/QmbpuYi6mYV8K8qrh8syWvbPc34pFrXG6QeC23m4MsX3r9\"]},\"node_modules/@bananapus/core-v5/src/interfaces/IJBRulesets.sol\":{\"keccak256\":\"0xf287c7a4a162cd58084ed10ee5f9f31c992addff0ce2f2ac7e810cc393546f30\",\"license\":\"MIT\",\"urls\":[\"bzz-raw://c851b72de52c3ceb73c6b1849ad0cc7c0832fd126ee52cc838a163ab6d3055b8\",\"dweb:/ipfs/Qmbv6k6pSeNMwZoTUKzDNb18DMGR8DboRMrYQBydATuVZw\"]},\"node_modules/@bananapus/core-v5/src/interfaces/IJBTerminal.sol\":{\"keccak256\":\"0x5a4c0ef6c8fd10069a408cc42a862909f7b47aba46327da5003203508d8f17d9\",\"license\":\"MIT\",\"urls\":[\"bzz-raw://09d8854151c21046b6b939189ad2139c669888e6baf47034a0cb754104d1efe6\",\"dweb:/ipfs/QmaMrxnf6K6znvDBwdAqsw5x6yuR4SY1BdNtyz226siAt5\"]},\"node_modules/@bananapus/core-v5/src/interfaces/IJBTokenUriResolver.sol\":{\"keccak256\":\"0xfa5cb00dcd6085d1ef912d071fe73c63f9478a2cd0f9d8bddaf659b6af2d0967\",\"license\":\"MIT\",\"urls\":[\"bzz-raw://282e4e7c342d65f77cde0e9a08fcaf20ef5cf379c7a48b639842c0ffd0b2afb8\",\"dweb:/ipfs/QmbnN3PEQeZaXdPLT75V1J79kMg7KqSMru37RHrL3z8Yf2\"]},\"node_modules/@bananapus/core-v5/src/libraries/JBConstants.sol\":{\"keccak256\":\"0x4dd0f809f1f10cf961e85632e5f3ea5e49716b104a0e8bc4d8ccc2081e9d007a\",\"license\":\"MIT\",\"urls\":[\"bzz-raw://09432ec01de81f7c295579fa3176610776cb186fba4c50d799108a18f14e5cc6\",\"dweb:/ipfs/QmS52c525xJui5u1xoY76PTq2n1pvnUzThBK38A1fsWdLp\"]},\"node_modules/@bananapus/core-v5/src/libraries/JBMetadataResolver.sol\":{\"keccak256\":\"0x52402cc945b1a23d0560a2a9c93a11271ce0ab18e592a4d78fc449a8b417526d\",\"license\":\"MIT\",\"urls\":[\"bzz-raw://912b5056f5768b14f26e4e2a754b90ce631a1f4898af6883f6d1e4a1f4ce87c8\",\"dweb:/ipfs/QmdnGcjTQtxscD1QDTERN2xqVA6iJnLCkfq1vWSUmDYYtX\"]},\"node_modules/@bananapus/core-v5/src/libraries/JBRulesetMetadataResolver.sol\":{\"keccak256\":\"0x3ed84aa51ce7ee94c65c507bb6f209fef4ae89c7446a2ed841602a235afcf43d\",\"license\":\"MIT\",\"urls\":[\"bzz-raw://cbeb6faae79112f85366ee53ad5c65f41a68f799912a5f09b0d6a49f8d9df647\",\"dweb:/ipfs/QmdEyZ6QF5q9UHMwbxWA9RrFwtL5iYHRydCAnHdKqqukDB\"]},\"node_modules/@bananapus/core-v5/src/structs/JBAccountingContext.sol\":{\"keccak256\":\"0x9c47e048a719f784f601df69a583505432217b9868a0244876d277f84dd1ebdf\",\"license\":\"MIT\",\"urls\":[\"bzz-raw://8565f194b87914da9a02af2e760ae2ed2a9d185c6f11229f7035140776d2fec9\",\"dweb:/ipfs/QmPs2fic8W3F5e5zNRwmGmJFjb3JWGPWJ3YUe5o82nQgEn\"]},\"node_modules/@bananapus/core-v5/src/structs/JBAfterCashOutRecordedContext.sol\":{\"keccak256\":\"0xa1acdb1a5670f66f730e71f8eff120766b6f5c934e6cd699c7f1a7cc93adf658\",\"license\":\"MIT\",\"urls\":[\"bzz-raw://a9c7655c9c42b30132688b395251748c809c334370ee584cb9bac46e1fb8f162\",\"dweb:/ipfs/QmbMV1wg1Fm236HaA6nnMSvRkzeYCKPRhMYDbqkAxieY7x\"]},\"node_modules/@bananapus/core-v5/src/structs/JBAfterPayRecordedContext.sol\":{\"keccak256\":\"0x3bfc01ae9944a0ff5c41125e18ebb8efca58d7aa4e471d2ffa6d8588afb689ab\",\"license\":\"MIT\",\"urls\":[\"bzz-raw://beb21399142d9b89539cfc8aa94119bc106bd1ea847b922d4c78f3f8804a5cba\",\"dweb:/ipfs/QmXDwJXrzCb6zh1KYwVdN2PEY86uK62MTfYF1M2MBtbEP7\"]},\"node_modules/@bananapus/core-v5/src/structs/JBBeforeCashOutRecordedContext.sol\":{\"keccak256\":\"0x7b2119f3e0725becc552ed5dcfa51683960a8772550c95ac5e2f75240ced367c\",\"license\":\"MIT\",\"urls\":[\"bzz-raw://03369dd07a9126ce453d83ac409919326f0aaa48ff9eac5c703092b3824d79c9\",\"dweb:/ipfs/Qmc1QKw6FfmeBD372RnDyeW27QyzEUjMX5up5rk8SHRYGa\"]},\"node_modules/@bananapus/core-v5/src/structs/JBBeforePayRecordedContext.sol\":{\"keccak256\":\"0xbc98b968d84be2f0ddbb24240723c7179ec9c5e02e5fbd5843dd0e76623a3ea5\",\"license\":\"MIT\",\"urls\":[\"bzz-raw://1310e522696a9fc6f7f96b04c293fab3b4cf1e722bdbb7aa1eec7b3ecc25402f\",\"dweb:/ipfs/QmTYiijDJRuQcMhLrmpbHzHAQFPq6jurPP5HjyYtnzbpnK\"]},\"node_modules/@bananapus/core-v5/src/structs/JBCashOutHookSpecification.sol\":{\"keccak256\":\"0x67a6e781019979e626eaa81d84a800b2656603c23ae455e15d0fa1a6f03c1736\",\"license\":\"MIT\",\"urls\":[\"bzz-raw://b43ce54447dda62d449a1e3575a9e4cb9c5a2adb41b45423dcefeb7d9afe8336\",\"dweb:/ipfs/QmW77REnQcvsfv4gwTLj2CyynmaGC3a6om7zCFWmERhrPY\"]},\"node_modules/@bananapus/core-v5/src/structs/JBPayHookSpecification.sol\":{\"keccak256\":\"0x955f0bfca97300b9e5927dc181753830ee362f83fa9ca32a90daade32aa0cfd5\",\"license\":\"MIT\",\"urls\":[\"bzz-raw://f517af1597c7c40f8d3da53f7a6684a3e162950a16559d6bf6ea3b727bb11546\",\"dweb:/ipfs/QmRWo2ZTYXmVZTzNJDYhsJNsEaHphjpUfx9eNz2cciyz86\"]},\"node_modules/@bananapus/core-v5/src/structs/JBPermissionsData.sol\":{\"keccak256\":\"0x65e26b78a1f00d81a21abd255c9670b600efca60cf36a993b8f48ecb268464a4\",\"license\":\"MIT\",\"urls\":[\"bzz-raw://d108c721c4281b13de34641befd2a1e9fac73a70195ef5ca957abda6fca9acca\",\"dweb:/ipfs/QmWoJo7wzSKY3z4YCpFvR8DoCUTKviiuFEj2tBkcgKUqW1\"]},\"node_modules/@bananapus/core-v5/src/structs/JBRuleset.sol\":{\"keccak256\":\"0x2d1f0a8457e94addae51a8222b1837e372847624fde96bb3178e7aee52ab2b24\",\"license\":\"MIT\",\"urls\":[\"bzz-raw://bbb1478e8f5d1c20f981e5a0d5e526d002add1e05ddced87ccd45543ed00c9e4\",\"dweb:/ipfs/QmZkgaYdwkbnvW2MGwVe9FeHjac8XyZTP1YZcWUApiGZgE\"]},\"node_modules/@bananapus/core-v5/src/structs/JBRulesetMetadata.sol\":{\"keccak256\":\"0x318f0b75275c3822df53a02e98782c9e98e7961116f2ad66a528c6adcd14c946\",\"license\":\"MIT\",\"urls\":[\"bzz-raw://d60f62390e43d182bfe875d1ac57e9de10426d81038ba7d8c3727b22392299e2\",\"dweb:/ipfs/QmUtE6fcP25wEhVJNEbrPHyFPkg5hp2PFf5xcwBeHPmNAf\"]},\"node_modules/@bananapus/core-v5/src/structs/JBTokenAmount.sol\":{\"keccak256\":\"0xc61593d33d5ec30e695d382948a1b944d01e29a8f2bfd29f75ecebcdbc7816de\",\"license\":\"MIT\",\"urls\":[\"bzz-raw://8992c1e5fca0c2342ecc0e734dfba6a2a752e4c29184784931d0971e44305051\",\"dweb:/ipfs/QmYNcaW3qeCkgAExUaFTq238fgfJuoYCTwjCn7jm94U4dJ\"]},\"node_modules/@bananapus/ownable-v5/src/JBOwnable.sol\":{\"keccak256\":\"0xad1f9fcc7cfa404a6c20b0eafbc71a2c90a4a3f9aebeaa4b2cab63355892ed30\",\"license\":\"MIT\",\"urls\":[\"bzz-raw://cd0ef227f070c6c68c998c711e70e61850eabe789a026e34f11e8e0d506739a6\",\"dweb:/ipfs/QmPeZXX7Lq8Q3jHSMvQR5W6UprCy5z5BPY8tz6KXEt4a5S\"]},\"node_modules/@bananapus/ownable-v5/src/JBOwnableOverrides.sol\":{\"keccak256\":\"0x3ccb51dfe5ea52398b63013dba97552f5b1a443bc6df8713458ee5ce75230bd0\",\"license\":\"MIT\",\"urls\":[\"bzz-raw://cd2985c7e5783482a64b774d3be8bcf6736c5e754ffd4c0baa3647fb0ff53b69\",\"dweb:/ipfs/QmfEYE8EXGPbvNcWZj4H4DX2HLxscYcFSckpAGwttt4SRS\"]},\"node_modules/@bananapus/ownable-v5/src/interfaces/IJBOwnable.sol\":{\"keccak256\":\"0xa94807eab5362c523d403a10902db431753b9b1e4b73259d4d7e217fc6cdf766\",\"license\":\"MIT\",\"urls\":[\"bzz-raw://d5cd284927df617997d055dfaa5f17b9c22c5ce678b9c87b627d14aaa87fa8d2\",\"dweb:/ipfs/Qma1M9MV1FFsaPF5oAMDL7KdidFzCjZ6EZ8mdLo9MXkgxa\"]},\"node_modules/@bananapus/ownable-v5/src/structs/JBOwner.sol\":{\"keccak256\":\"0x535d669344addf9ce4a62320960699ae8c47b4a615327a1cb32590b4e046c069\",\"license\":\"MIT\",\"urls\":[\"bzz-raw://64e228cc198dafde001eb65092eebf6e99f91420b993deb9c5dc8204cf2469ce\",\"dweb:/ipfs/QmWpKRsMt3SwToaVyNjF6ZJZaL3Kz2QDfee8BBN2FExV3i\"]},\"node_modules/@bananapus/permission-ids-v5/src/JBPermissionIds.sol\":{\"keccak256\":\"0x03d598c570091f294bebe9c7b59bfc2d907d5b70a3193c3bdb9ddec67edae1e0\",\"license\":\"MIT\",\"urls\":[\"bzz-raw://afb1aefda01e53fa79441bab1fa9cb46154e0db9d16bec8f9b7fa80d200916db\",\"dweb:/ipfs/Qmbkt9HgWmz5rgehRttkzFqW9SkwRYvXYqtHmuxHVxz8ZD\"]},\"node_modules/@openzeppelin/contracts/interfaces/IERC2981.sol\":{\"keccak256\":\"0x3b017a19c1730050d0fdff8dfa9255741634699aa4217442724746ca49e13292\",\"license\":\"MIT\",\"urls\":[\"bzz-raw://05530a2959e8be01cd88993970924cd6081c3462395f6fc0e73c034519259b05\",\"dweb:/ipfs/QmXAG8dF9fiYE8iVWJYWxmbEMNL6RvBAxzRGq2nyLanB2M\"]},\"node_modules/@openzeppelin/contracts/interfaces/draft-IERC6093.sol\":{\"keccak256\":\"0x880da465c203cec76b10d72dbd87c80f387df4102274f23eea1f9c9b0918792b\",\"license\":\"MIT\",\"urls\":[\"bzz-raw://399594cd8bb0143bc9e55e0f1d071d0d8c850a394fb7a319d50edd55d9ed822b\",\"dweb:/ipfs/QmbPZzgtT6LEm9CMqWfagQFwETbV1ztpECBB1DtQHrKiRz\"]},\"node_modules/@openzeppelin/contracts/metatx/ERC2771Context.sol\":{\"keccak256\":\"0x0b030a33274bde015419d99e54c9164f876a7d10eb590317b79b1d5e4ab23d99\",\"license\":\"MIT\",\"urls\":[\"bzz-raw://68e5f96988198e8efd25ddef0d89750b4daebb7fd1204fa7f5eaccdfcb3398c8\",\"dweb:/ipfs/QmaM6nNkf9UmEtQraopuZamEWCdTWp7GvuN3pjMQrNCHxm\"]},\"node_modules/@openzeppelin/contracts/token/ERC721/IERC721.sol\":{\"keccak256\":\"0x5dc63d1c6a12fe1b17793e1745877b2fcbe1964c3edfd0a482fac21ca8f18261\",\"license\":\"MIT\",\"urls\":[\"bzz-raw://6b7f97c5960a50fd1822cb298551ffc908e37b7893a68d6d08bce18a11cb0f11\",\"dweb:/ipfs/QmQQvxBytoY1eBt3pRQDmvH2hZ2yjhs12YqVfzGm7KSURq\"]},\"node_modules/@openzeppelin/contracts/token/ERC721/IERC721Receiver.sol\":{\"keccak256\":\"0xb5afb8e8eebc4d1c6404df2f5e1e6d2c3d24fd01e5dfc855314951ecfaae462d\",\"license\":\"MIT\",\"urls\":[\"bzz-raw://78586466c424f076c6a2a551d848cfbe3f7c49e723830807598484a1047b3b34\",\"dweb:/ipfs/Qmb717ovcFxm7qgNKEShiV6M9SPR3v1qnNpAGH84D6w29p\"]},\"node_modules/@openzeppelin/contracts/token/ERC721/extensions/IERC721Metadata.sol\":{\"keccak256\":\"0x37d1aaaa5a2908a09e9dcf56a26ddf762ecf295afb5964695937344fc6802ce1\",\"license\":\"MIT\",\"urls\":[\"bzz-raw://ed0bfc1b92153c5000e50f4021367b931bbe96372ac6facec3c4961b72053d02\",\"dweb:/ipfs/Qmbwp8VDerjS5SV1quwHH1oMXxPQ93fzfLVqJ2RCqbowGE\"]},\"node_modules/@openzeppelin/contracts/utils/Context.sol\":{\"keccak256\":\"0x493033a8d1b176a037b2cc6a04dad01a5c157722049bbecf632ca876224dd4b2\",\"license\":\"MIT\",\"urls\":[\"bzz-raw://6a708e8a5bdb1011c2c381c9a5cfd8a9a956d7d0a9dc1bd8bcdaf52f76ef2f12\",\"dweb:/ipfs/Qmax9WHBnVsZP46ZxEMNRQpLQnrdE4dK8LehML1Py8FowF\"]},\"node_modules/@openzeppelin/contracts/utils/Panic.sol\":{\"keccak256\":\"0xf7fe324703a64fc51702311dc51562d5cb1497734f074e4f483bfb6717572d7a\",\"license\":\"MIT\",\"urls\":[\"bzz-raw://c6a5ff4f9fd8649b7ee20800b7fa387d3465bd77cf20c2d1068cd5c98e1ed57a\",\"dweb:/ipfs/QmVSaVJf9FXFhdYEYeCEfjMVHrxDh5qL4CGkxdMWpQCrqG\"]},\"node_modules/@openzeppelin/contracts/utils/Strings.sol\":{\"keccak256\":\"0x44f87e91783e88415bde66f1a63f6c7f0076f2d511548820407d5c95643ac56c\",\"license\":\"MIT\",\"urls\":[\"bzz-raw://13a51bc2b23827744dcf5bad10c69e72528cf015a6fe48c93632cdb2c0eb1251\",\"dweb:/ipfs/QmZwPA47Yqgje1qtkdEFEja8ntTahMStYzKf5q3JRnaR7d\"]},\"node_modules/@openzeppelin/contracts/utils/introspection/ERC165.sol\":{\"keccak256\":\"0xddce8e17e3d3f9ed818b4f4c4478a8262aab8b11ed322f1bf5ed705bb4bd97fa\",\"license\":\"MIT\",\"urls\":[\"bzz-raw://8084aa71a4cc7d2980972412a88fe4f114869faea3fefa5436431644eb5c0287\",\"dweb:/ipfs/Qmbqfs5dRdPvHVKY8kTaeyc65NdqXRQwRK7h9s5UJEhD1p\"]},\"node_modules/@openzeppelin/contracts/utils/introspection/IERC165.sol\":{\"keccak256\":\"0x79796192ec90263f21b464d5bc90b777a525971d3de8232be80d9c4f9fb353b8\",\"license\":\"MIT\",\"urls\":[\"bzz-raw://f6fda447a62815e8064f47eff0dd1cf58d9207ad69b5d32280f8d7ed1d1e4621\",\"dweb:/ipfs/QmfDRc7pxfaXB2Dh9np5Uf29Na3pQ7tafRS684wd3GLjVL\"]},\"node_modules/@openzeppelin/contracts/utils/math/Math.sol\":{\"keccak256\":\"0xa00be322d7db5786750ce0ac7e2f5b633ac30a5ed5fa1ced1e74acfc19acecea\",\"license\":\"MIT\",\"urls\":[\"bzz-raw://6c84e822f87cbdc4082533b626667b6928715bb2b1e8e7eb96954cebb9e38c8d\",\"dweb:/ipfs/QmZmy9dgxLTerBAQDuuHqbL6EpgRxddqgv5KmwpXYVbKz1\"]},\"node_modules/@openzeppelin/contracts/utils/math/SafeCast.sol\":{\"keccak256\":\"0x195533c86d0ef72bcc06456a4f66a9b941f38eb403739b00f21fd7c1abd1ae54\",\"license\":\"MIT\",\"urls\":[\"bzz-raw://b1d578337048cad08c1c03041cca5978eff5428aa130c781b271ad9e5566e1f8\",\"dweb:/ipfs/QmPFKL2r9CBsMwmUqqdcFPfHZB2qcs9g1HDrPxzWSxomvy\"]},\"node_modules/@openzeppelin/contracts/utils/math/SignedMath.sol\":{\"keccak256\":\"0xb1970fac7b64e6c09611e6691791e848d5e3fe410fa5899e7df2e0afd77a99e3\",\"license\":\"MIT\",\"urls\":[\"bzz-raw://db5fbb3dddd8b7047465b62575d96231ba8a2774d37fb4737fbf23340fabbb03\",\"dweb:/ipfs/QmVUSvooZKEdEdap619tcJjTLcAuH6QBdZqAzWwnAXZAWJ\"]},\"node_modules/@prb/math/src/Common.sol\":{\"keccak256\":\"0x8225a3898d2f11f585da1fb82234800e9717fa080dbe53d450fd429a3a632e99\",\"license\":\"MIT\",\"urls\":[\"bzz-raw://2dcbf39ca575f68f32f0d1c66391de94082424956e7585e849813966f8c0fc05\",\"dweb:/ipfs/QmYvk8vXFDUJHrmqbtutYXfoLomLBosYLyBzuPoYBxsQ42\"]},\"node_modules/solady/src/utils/LibClone.sol\":{\"keccak256\":\"0x1388494b421db04cf6f33ab69580edc5b187328688818504b87eaea9fa3c0d2c\",\"license\":\"MIT\",\"urls\":[\"bzz-raw://8f6bf027d6fe4f102360bf7e988923f73510697a87d970b28093a0d950d9a3e5\",\"dweb:/ipfs/QmUhdrSqiwhBp2cZPef6jcTfQ8Md3KoyfnK2ZteseAvude\"]},\"src/JB721TiersHook.sol\":{\"keccak256\":\"0x286e699f4ca81ea84217bbdcc4e4efa426ba9cc5d0886719232dd4d2e604a1b6\",\"license\":\"MIT\",\"urls\":[\"bzz-raw://adf31e0beae7d3381a1a841786e2f78dee5b73084ba030c345440b11d8aa0b67\",\"dweb:/ipfs/QmNmXeaVoTrQ9hSMXMZ1r7vvemDpB8FAbdfxPfXqWrj4SE\"]},\"src/JB721TiersHookDeployer.sol\":{\"keccak256\":\"0xe48e8f1d0f8a1d1ed6aa2a1b9936e88367b2e30ee8733d7a5dfadbac7b8e4da8\",\"license\":\"MIT\",\"urls\":[\"bzz-raw://85e0e01b361d84098e8d929eb2d7ca33aa39011a737cffb7d4c16b889fa832ba\",\"dweb:/ipfs/QmSWVWvAeDqLE2qEGByfGSdYSNdHdH4271HMdLPpduMj1V\"]},\"src/abstract/ERC721.sol\":{\"keccak256\":\"0xee3758d50043b58a173dada85fb33a0a2b4a9f8e57e11a213d0f1d021cd2ffc6\",\"license\":\"MIT\",\"urls\":[\"bzz-raw://f9b8cbac216d14a83dcc54fee0e660e8131afee94a21ec0c0af5dd7853692bb1\",\"dweb:/ipfs/QmRU67EeBHtqE7osaBd286poaTDjS7cAVMwt6UXdBBDRGP\"]},\"src/abstract/JB721Hook.sol\":{\"keccak256\":\"0x3de2a2a70ce211879e6f49e3032a6630b5c56589ff222410c1e375c3ba34e87c\",\"license\":\"MIT\",\"urls\":[\"bzz-raw://d9e944468f255e8cafa01b485e9eb8e8abfa2cd28462a9013547000c5484272a\",\"dweb:/ipfs/QmfKDiSgxW7Miq4jwFqeJEtFLLUTYgTEEGirwtNBKMGaUi\"]},\"src/interfaces/IJB721Hook.sol\":{\"keccak256\":\"0x1e7b684c86c0f44b0b680c7aba9e511c89892bc0638424722920368911a087f2\",\"license\":\"MIT\",\"urls\":[\"bzz-raw://96995e70a8f15d5600b509ad689c8f2ea6f8116cc7cce9c529b7a41c12c854dc\",\"dweb:/ipfs/QmaAARj3BDSQNsPwkFxauDpWBNgb4kYdzo19tUNdBbc6cX\"]},\"src/interfaces/IJB721TiersHook.sol\":{\"keccak256\":\"0x107f91c5a0674717684d75e0c71106dd1d2937c0089366c7bb555be7fffdd6b2\",\"license\":\"MIT\",\"urls\":[\"bzz-raw://3ce29d75e454845d0636e671c60c7a691e4a77d1c88fe17dbc435945890465b1\",\"dweb:/ipfs/QmewJn8HeiqKggWA8scLUbwv1TMiit8Va8A5A3K7N9Euss\"]},\"src/interfaces/IJB721TiersHookDeployer.sol\":{\"keccak256\":\"0x8dfdc8e1182e6ea80806e62c2e216fea1da3f6166d764134e243a5372ef05f02\",\"license\":\"MIT\",\"urls\":[\"bzz-raw://9b53d7bd32017f23fb633903004fc476bb8ba166d90c4ae08ccb6ce7f2941adc\",\"dweb:/ipfs/QmeUu6tW6FA6b61DMgBTyRFZM8duae7J7rLyz4x9GZFAbn\"]},\"src/interfaces/IJB721TiersHookStore.sol\":{\"keccak256\":\"0x01d419bf6b9dce2ab162f8aac82f0e4a6d948f53819a42ed023e8f23e358c9c2\",\"license\":\"MIT\",\"urls\":[\"bzz-raw://0e0b14b2ae2032bd256614522078cf0f831c35d1f64d1ea2050227117d08c060\",\"dweb:/ipfs/QmP1xbw5597GDvNVgT5Te6w8LBqeXHq4x6HeXYmqLqw2RC\"]},\"src/interfaces/IJB721TokenUriResolver.sol\":{\"keccak256\":\"0xfa599167098f4459320ec4141a98a17b2dfffbce422baa27d8b4e4530f61ece1\",\"license\":\"MIT\",\"urls\":[\"bzz-raw://8b758b161f4c7b520b2c34b4d91e585e961b8f4ca278eebb91d791f7f2f45140\",\"dweb:/ipfs/QmcD9DF7NJ9QykQpT4KPzm4bs3fkjzukdAUWwdU6Atfw85\"]},\"src/libraries/JB721TiersRulesetMetadataResolver.sol\":{\"keccak256\":\"0xe1e224860fce816c0566c4b22044eb2f5a767a09764d00482b954733bf18e51e\",\"license\":\"MIT\",\"urls\":[\"bzz-raw://043663de2a9c7e822e947e0b68833e77985d493bebcb48f86bf1b67f937417fc\",\"dweb:/ipfs/QmXVXPdpLfmT2a97gUQ5d2XSsHXhgpiTfs7w2ZtoD55uAd\"]},\"src/libraries/JBIpfsDecoder.sol\":{\"keccak256\":\"0xb93ba562ac1fc9d3829be00e61f3a90f51df5661cf0f2c819a7f1d8ba19ec171\",\"license\":\"MIT\",\"urls\":[\"bzz-raw://fc9bc948fac8897d9720ef25b13d63c60b40a18aa1897dd1c657fc278c416b4f\",\"dweb:/ipfs/QmNtiJTALZW5zfyKVy7XG5GkqGgMrfkVvU4Auu4bb9cGQc\"]},\"src/structs/JB721InitTiersConfig.sol\":{\"keccak256\":\"0xfe7147d09467fd8f9b755d2a1485f22bb4a8797acd0e97623258498ddac2e441\",\"license\":\"MIT\",\"urls\":[\"bzz-raw://9ee21464af9e6c78f580c6920757017cdfbd276728773338a67660fedfea0fd2\",\"dweb:/ipfs/QmVYviC7uQ7rEvdpzD6U4BN19P5f8uMuC7jWffzQWvuFcu\"]},\"src/structs/JB721Tier.sol\":{\"keccak256\":\"0x99232aa73d5715977332dc7c93b03552a93259e59ae00e86b4ddc200f06adaf1\",\"license\":\"MIT\",\"urls\":[\"bzz-raw://721c0cf10a29fa11677718faafb3a2ecfcb4fbe4e1c09e70a7fac681c80fcc94\",\"dweb:/ipfs/QmSUR77E9PqnpB5kBcKNz2CGBjG9XL9FH57RWVYu3Q7GMR\"]},\"src/structs/JB721TierConfig.sol\":{\"keccak256\":\"0x86e54a0de4deab9d105bf276586aebe256188b193e83eb7a6f6f93e4a29ae9c5\",\"license\":\"MIT\",\"urls\":[\"bzz-raw://04bfcc07d452c26dfc50d3a5eb62df4b3b81e063defd752e0aa5ed049a78eef4\",\"dweb:/ipfs/QmWd5nJHUvZPHxJXkrYCboXaqdtiWWkQG26sNM6qkJuAgD\"]},\"src/structs/JB721TiersHookFlags.sol\":{\"keccak256\":\"0x283d8429f31bd58875c056515aa42abd09c95362bd929e85cfc44a0d92585766\",\"license\":\"MIT\",\"urls\":[\"bzz-raw://9a580b89fe99d9f8e930c58a4d0d63a5ff7c01c79d210af01373d066c9e72ed6\",\"dweb:/ipfs/QmdY1eSGSoTjv4KSdsG4Tm5CzJN6iqk3qTRga5ZWNbejRz\"]},\"src/structs/JB721TiersMintReservesConfig.sol\":{\"keccak256\":\"0x86fe586a05e6d4bc6fab9b68996a7f4b74c5362ca6f24b9d8057ed7e4cd1c5ac\",\"license\":\"MIT\",\"urls\":[\"bzz-raw://0915f17d1f958ab1fe6b214d99ed62f1f858684898c803f1a8a6a557472dd140\",\"dweb:/ipfs/QmUhdnSV8UzkgvbtkYEKHrpyDEmc2aJxW5HQ1gucuxxu5A\"]},\"src/structs/JB721TiersRulesetMetadata.sol\":{\"keccak256\":\"0x6720a6ada2a882f99afa050e40b6c925439da4339240565a0e706521b3aadc6b\",\"license\":\"MIT\",\"urls\":[\"bzz-raw://ede4a3165276d9d89eeea2dfd56f68d77dbfaedb738b30c8a0faa81c3a153b1b\",\"dweb:/ipfs/QmXa4QCb6K9MXxwNKed17VWeX9crKeMjkQnVk2xMARzh76\"]},\"src/structs/JB721TiersSetDiscountPercentConfig.sol\":{\"keccak256\":\"0x4672eacb6b0cda5e6f5f72ddb91463c52fb90b4df421053e3b40024f19a59954\",\"license\":\"MIT\",\"urls\":[\"bzz-raw://9d8e3a0b35d6b2a6ec66527594263400189b6c766bfd6943c83704380a989aec\",\"dweb:/ipfs/QmUE7NhFWsxjFRzTuRyHJ7oRx3JXD9CnG83t29PjGAhwPR\"]},\"src/structs/JBDeploy721TiersHookConfig.sol\":{\"keccak256\":\"0x0ce457736946394772afe54d575b68a74269cbf37a250de2d27dca6d9dd45005\",\"license\":\"MIT\",\"urls\":[\"bzz-raw://2010a8f6e19354038d3906ddb174f34464c5f341103313a5c4d628aa7732d5a8\",\"dweb:/ipfs/QmU9m18oWtYNV7UHLcW9kdwE3uzoQuGBe6sASvQTk8GZRL\"]}},\"version\":1}",
			"gitCommit": "6440e6ca00fa1c67d04c269726bb3639c165efc9",
			"history": []
		}
	]
}