{
	"format": "sphinx-sol-ct-artifact-1",
	"merkleRoot": "0x73a360f5941893049c4f5b5d3f6cb4523570dc9bf5c0e713e6c39ab7d42b4761",
	"address": "0x749ac9c5ef5ef41f402c70a5bc460c5a1d8eb25b",
	"sourceName": "src/JB721TiersHook.sol",
	"contractName": "JB721TiersHook",
	"chainId": "0xaa36a7",
	"abi": [
		{
			"inputs": [
				{
					"internalType": "contract IJBDirectory",
					"name": "directory",
					"type": "address"
				},
				{
					"internalType": "contract IJBPermissions",
					"name": "permissions",
					"type": "address"
				},
				{
					"internalType": "contract IJBRulesets",
					"name": "rulesets",
					"type": "address"
				},
				{
					"internalType": "contract IJB721TiersHookStore",
					"name": "store",
					"type": "address"
				},
				{
					"internalType": "address",
					"name": "trustedForwarder",
					"type": "address"
				}
			],
			"stateMutability": "nonpayable",
			"type": "constructor"
		},
		{
			"inputs": [],
			"name": "DIRECTORY",
			"outputs": [
				{
					"internalType": "contract IJBDirectory",
					"name": "",
					"type": "address"
				}
			],
			"stateMutability": "view",
			"type": "function"
		},
		{
			"inputs": [],
			"name": "METADATA_ID_TARGET",
			"outputs": [
				{
					"internalType": "address",
					"name": "",
					"type": "address"
				}
			],
			"stateMutability": "view",
			"type": "function"
		},
		{
			"inputs": [],
			"name": "PERMISSIONS",
			"outputs": [
				{
					"internalType": "contract IJBPermissions",
					"name": "",
					"type": "address"
				}
			],
			"stateMutability": "view",
			"type": "function"
		},
		{
			"inputs": [],
			"name": "PROJECTS",
			"outputs": [
				{
					"internalType": "contract IJBProjects",
					"name": "",
					"type": "address"
				}
			],
			"stateMutability": "view",
			"type": "function"
		},
		{
			"inputs": [],
			"name": "PROJECT_ID",
			"outputs": [
				{
					"internalType": "uint256",
					"name": "",
					"type": "uint256"
				}
			],
			"stateMutability": "view",
			"type": "function"
		},
		{
			"inputs": [],
			"name": "RULESETS",
			"outputs": [
				{
					"internalType": "contract IJBRulesets",
					"name": "",
					"type": "address"
				}
			],
			"stateMutability": "view",
			"type": "function"
		},
		{
			"inputs": [],
			"name": "STORE",
			"outputs": [
				{
					"internalType": "contract IJB721TiersHookStore",
					"name": "",
					"type": "address"
				}
			],
			"stateMutability": "view",
			"type": "function"
		},
		{
			"inputs": [
				{
					"components": [
						{
							"internalType": "uint104",
							"name": "price",
							"type": "uint104"
						},
						{
							"internalType": "uint32",
							"name": "initialSupply",
							"type": "uint32"
						},
						{
							"internalType": "uint32",
							"name": "votingUnits",
							"type": "uint32"
						},
						{
							"internalType": "uint16",
							"name": "reserveFrequency",
							"type": "uint16"
						},
						{
							"internalType": "address",
							"name": "reserveBeneficiary",
							"type": "address"
						},
						{
							"internalType": "bytes32",
							"name": "encodedIPFSUri",
							"type": "bytes32"
						},
						{
							"internalType": "uint24",
							"name": "category",
							"type": "uint24"
						},
						{
							"internalType": "uint8",
							"name": "discountPercent",
							"type": "uint8"
						},
						{
							"internalType": "bool",
							"name": "allowOwnerMint",
							"type": "bool"
						},
						{
							"internalType": "bool",
							"name": "useReserveBeneficiaryAsDefault",
							"type": "bool"
						},
						{
							"internalType": "bool",
							"name": "transfersPausable",
							"type": "bool"
						},
						{
							"internalType": "bool",
							"name": "useVotingUnits",
							"type": "bool"
						},
						{
							"internalType": "bool",
							"name": "cannotBeRemoved",
							"type": "bool"
						},
						{
							"internalType": "bool",
							"name": "cannotIncreaseDiscountPercent",
							"type": "bool"
						}
					],
					"internalType": "struct JB721TierConfig[]",
					"name": "tiersToAdd",
					"type": "tuple[]"
				},
				{
					"internalType": "uint256[]",
					"name": "tierIdsToRemove",
					"type": "uint256[]"
				}
			],
			"name": "adjustTiers",
			"outputs": [],
			"stateMutability": "nonpayable",
			"type": "function"
		},
		{
			"inputs": [
				{
					"components": [
						{
							"internalType": "address",
							"name": "holder",
							"type": "address"
						},
						{
							"internalType": "uint256",
							"name": "projectId",
							"type": "uint256"
						},
						{
							"internalType": "uint256",
							"name": "rulesetId",
							"type": "uint256"
						},
						{
							"internalType": "uint256",
							"name": "cashOutCount",
							"type": "uint256"
						},
						{
							"components": [
								{
									"internalType": "address",
									"name": "token",
									"type": "address"
								},
								{
									"internalType": "uint8",
									"name": "decimals",
									"type": "uint8"
								},
								{
									"internalType": "uint32",
									"name": "currency",
									"type": "uint32"
								},
								{
									"internalType": "uint256",
									"name": "value",
									"type": "uint256"
								}
							],
							"internalType": "struct JBTokenAmount",
							"name": "reclaimedAmount",
							"type": "tuple"
						},
						{
							"components": [
								{
									"internalType": "address",
									"name": "token",
									"type": "address"
								},
								{
									"internalType": "uint8",
									"name": "decimals",
									"type": "uint8"
								},
								{
									"internalType": "uint32",
									"name": "currency",
									"type": "uint32"
								},
								{
									"internalType": "uint256",
									"name": "value",
									"type": "uint256"
								}
							],
							"internalType": "struct JBTokenAmount",
							"name": "forwardedAmount",
							"type": "tuple"
						},
						{
							"internalType": "uint256",
							"name": "cashOutTaxRate",
							"type": "uint256"
						},
						{
							"internalType": "address payable",
							"name": "beneficiary",
							"type": "address"
						},
						{
							"internalType": "bytes",
							"name": "hookMetadata",
							"type": "bytes"
						},
						{
							"internalType": "bytes",
							"name": "cashOutMetadata",
							"type": "bytes"
						}
					],
					"internalType": "struct JBAfterCashOutRecordedContext",
					"name": "context",
					"type": "tuple"
				}
			],
			"name": "afterCashOutRecordedWith",
			"outputs": [],
			"stateMutability": "payable",
			"type": "function"
		},
		{
			"inputs": [
				{
					"components": [
						{
							"internalType": "address",
							"name": "payer",
							"type": "address"
						},
						{
							"internalType": "uint256",
							"name": "projectId",
							"type": "uint256"
						},
						{
							"internalType": "uint256",
							"name": "rulesetId",
							"type": "uint256"
						},
						{
							"components": [
								{
									"internalType": "address",
									"name": "token",
									"type": "address"
								},
								{
									"internalType": "uint8",
									"name": "decimals",
									"type": "uint8"
								},
								{
									"internalType": "uint32",
									"name": "currency",
									"type": "uint32"
								},
								{
									"internalType": "uint256",
									"name": "value",
									"type": "uint256"
								}
							],
							"internalType": "struct JBTokenAmount",
							"name": "amount",
							"type": "tuple"
						},
						{
							"components": [
								{
									"internalType": "address",
									"name": "token",
									"type": "address"
								},
								{
									"internalType": "uint8",
									"name": "decimals",
									"type": "uint8"
								},
								{
									"internalType": "uint32",
									"name": "currency",
									"type": "uint32"
								},
								{
									"internalType": "uint256",
									"name": "value",
									"type": "uint256"
								}
							],
							"internalType": "struct JBTokenAmount",
							"name": "forwardedAmount",
							"type": "tuple"
						},
						{
							"internalType": "uint256",
							"name": "weight",
							"type": "uint256"
						},
						{
							"internalType": "uint256",
							"name": "newlyIssuedTokenCount",
							"type": "uint256"
						},
						{
							"internalType": "address",
							"name": "beneficiary",
							"type": "address"
						},
						{
							"internalType": "bytes",
							"name": "hookMetadata",
							"type": "bytes"
						},
						{
							"internalType": "bytes",
							"name": "payerMetadata",
							"type": "bytes"
						}
					],
					"internalType": "struct JBAfterPayRecordedContext",
					"name": "context",
					"type": "tuple"
				}
			],
			"name": "afterPayRecordedWith",
			"outputs": [],
			"stateMutability": "payable",
			"type": "function"
		},
		{
			"inputs": [
				{
					"internalType": "address",
					"name": "to",
					"type": "address"
				},
				{
					"internalType": "uint256",
					"name": "tokenId",
					"type": "uint256"
				}
			],
			"name": "approve",
			"outputs": [],
			"stateMutability": "nonpayable",
			"type": "function"
		},
		{
			"inputs": [
				{
					"internalType": "address",
					"name": "owner",
					"type": "address"
				}
			],
			"name": "balanceOf",
			"outputs": [
				{
					"internalType": "uint256",
					"name": "balance",
					"type": "uint256"
				}
			],
			"stateMutability": "view",
			"type": "function"
		},
		{
			"inputs": [],
			"name": "baseURI",
			"outputs": [
				{
					"internalType": "string",
					"name": "",
					"type": "string"
				}
			],
			"stateMutability": "view",
			"type": "function"
		},
		{
			"inputs": [
				{
					"components": [
						{
							"internalType": "address",
							"name": "terminal",
							"type": "address"
						},
						{
							"internalType": "address",
							"name": "holder",
							"type": "address"
						},
						{
							"internalType": "uint256",
							"name": "projectId",
							"type": "uint256"
						},
						{
							"internalType": "uint256",
							"name": "rulesetId",
							"type": "uint256"
						},
						{
							"internalType": "uint256",
							"name": "cashOutCount",
							"type": "uint256"
						},
						{
							"internalType": "uint256",
							"name": "totalSupply",
							"type": "uint256"
						},
						{
							"components": [
								{
									"internalType": "address",
									"name": "token",
									"type": "address"
								},
								{
									"internalType": "uint8",
									"name": "decimals",
									"type": "uint8"
								},
								{
									"internalType": "uint32",
									"name": "currency",
									"type": "uint32"
								},
								{
									"internalType": "uint256",
									"name": "value",
									"type": "uint256"
								}
							],
							"internalType": "struct JBTokenAmount",
							"name": "surplus",
							"type": "tuple"
						},
						{
							"internalType": "bool",
							"name": "useTotalSurplus",
							"type": "bool"
						},
						{
							"internalType": "uint256",
							"name": "cashOutTaxRate",
							"type": "uint256"
						},
						{
							"internalType": "bytes",
							"name": "metadata",
							"type": "bytes"
						}
					],
					"internalType": "struct JBBeforeCashOutRecordedContext",
					"name": "context",
					"type": "tuple"
				}
			],
			"name": "beforeCashOutRecordedWith",
			"outputs": [
				{
					"internalType": "uint256",
					"name": "cashOutTaxRate",
					"type": "uint256"
				},
				{
					"internalType": "uint256",
					"name": "cashOutCount",
					"type": "uint256"
				},
				{
					"internalType": "uint256",
					"name": "totalSupply",
					"type": "uint256"
				},
				{
					"components": [
						{
							"internalType": "contract IJBCashOutHook",
							"name": "hook",
							"type": "address"
						},
						{
							"internalType": "uint256",
							"name": "amount",
							"type": "uint256"
						},
						{
							"internalType": "bytes",
							"name": "metadata",
							"type": "bytes"
						}
					],
					"internalType": "struct JBCashOutHookSpecification[]",
					"name": "hookSpecifications",
					"type": "tuple[]"
				}
			],
			"stateMutability": "view",
			"type": "function"
		},
		{
			"inputs": [
				{
					"components": [
						{
							"internalType": "address",
							"name": "terminal",
							"type": "address"
						},
						{
							"internalType": "address",
							"name": "payer",
							"type": "address"
						},
						{
							"components": [
								{
									"internalType": "address",
									"name": "token",
									"type": "address"
								},
								{
									"internalType": "uint8",
									"name": "decimals",
									"type": "uint8"
								},
								{
									"internalType": "uint32",
									"name": "currency",
									"type": "uint32"
								},
								{
									"internalType": "uint256",
									"name": "value",
									"type": "uint256"
								}
							],
							"internalType": "struct JBTokenAmount",
							"name": "amount",
							"type": "tuple"
						},
						{
							"internalType": "uint256",
							"name": "projectId",
							"type": "uint256"
						},
						{
							"internalType": "uint256",
							"name": "rulesetId",
							"type": "uint256"
						},
						{
							"internalType": "address",
							"name": "beneficiary",
							"type": "address"
						},
						{
							"internalType": "uint256",
							"name": "weight",
							"type": "uint256"
						},
						{
							"internalType": "uint256",
							"name": "reservedPercent",
							"type": "uint256"
						},
						{
							"internalType": "bytes",
							"name": "metadata",
							"type": "bytes"
						}
					],
					"internalType": "struct JBBeforePayRecordedContext",
					"name": "context",
					"type": "tuple"
				}
			],
			"name": "beforePayRecordedWith",
			"outputs": [
				{
					"internalType": "uint256",
					"name": "weight",
					"type": "uint256"
				},
				{
					"components": [
						{
							"internalType": "contract IJBPayHook",
							"name": "hook",
							"type": "address"
						},
						{
							"internalType": "uint256",
							"name": "amount",
							"type": "uint256"
						},
						{
							"internalType": "bytes",
							"name": "metadata",
							"type": "bytes"
						}
					],
					"internalType": "struct JBPayHookSpecification[]",
					"name": "hookSpecifications",
					"type": "tuple[]"
				}
			],
			"stateMutability": "view",
			"type": "function"
		},
		{
			"inputs": [
				{
					"internalType": "uint256[]",
					"name": "tokenIds",
					"type": "uint256[]"
				},
				{
					"components": [
						{
							"internalType": "address",
							"name": "terminal",
							"type": "address"
						},
						{
							"internalType": "address",
							"name": "holder",
							"type": "address"
						},
						{
							"internalType": "uint256",
							"name": "projectId",
							"type": "uint256"
						},
						{
							"internalType": "uint256",
							"name": "rulesetId",
							"type": "uint256"
						},
						{
							"internalType": "uint256",
							"name": "cashOutCount",
							"type": "uint256"
						},
						{
							"internalType": "uint256",
							"name": "totalSupply",
							"type": "uint256"
						},
						{
							"components": [
								{
									"internalType": "address",
									"name": "token",
									"type": "address"
								},
								{
									"internalType": "uint8",
									"name": "decimals",
									"type": "uint8"
								},
								{
									"internalType": "uint32",
									"name": "currency",
									"type": "uint32"
								},
								{
									"internalType": "uint256",
									"name": "value",
									"type": "uint256"
								}
							],
							"internalType": "struct JBTokenAmount",
							"name": "surplus",
							"type": "tuple"
						},
						{
							"internalType": "bool",
							"name": "useTotalSurplus",
							"type": "bool"
						},
						{
							"internalType": "uint256",
							"name": "cashOutTaxRate",
							"type": "uint256"
						},
						{
							"internalType": "bytes",
							"name": "metadata",
							"type": "bytes"
						}
					],
					"internalType": "struct JBBeforeCashOutRecordedContext",
					"name": "",
					"type": "tuple"
				}
			],
			"name": "cashOutWeightOf",
			"outputs": [
				{
					"internalType": "uint256",
					"name": "",
					"type": "uint256"
				}
			],
			"stateMutability": "view",
			"type": "function"
		},
		{
			"inputs": [],
			"name": "contractURI",
			"outputs": [
				{
					"internalType": "string",
					"name": "",
					"type": "string"
				}
			],
			"stateMutability": "view",
			"type": "function"
		},
		{
			"inputs": [
				{
					"internalType": "uint256",
					"name": "tokenId",
					"type": "uint256"
				}
			],
			"name": "firstOwnerOf",
			"outputs": [
				{
					"internalType": "address",
					"name": "",
					"type": "address"
				}
			],
			"stateMutability": "view",
			"type": "function"
		},
		{
			"inputs": [
				{
					"internalType": "uint256",
					"name": "tokenId",
					"type": "uint256"
				}
			],
			"name": "getApproved",
			"outputs": [
				{
					"internalType": "address",
					"name": "",
					"type": "address"
				}
			],
			"stateMutability": "view",
			"type": "function"
		},
		{
			"inputs": [
				{
					"internalType": "uint256",
					"name": "",
					"type": "uint256"
				},
				{
					"components": [
						{
							"internalType": "uint48",
							"name": "cycleNumber",
							"type": "uint48"
						},
						{
							"internalType": "uint48",
							"name": "id",
							"type": "uint48"
						},
						{
							"internalType": "uint48",
							"name": "basedOnId",
							"type": "uint48"
						},
						{
							"internalType": "uint48",
							"name": "start",
							"type": "uint48"
						},
						{
							"internalType": "uint32",
							"name": "duration",
							"type": "uint32"
						},
						{
							"internalType": "uint112",
							"name": "weight",
							"type": "uint112"
						},
						{
							"internalType": "uint32",
							"name": "weightCutPercent",
							"type": "uint32"
						},
						{
							"internalType": "contract IJBRulesetApprovalHook",
							"name": "approvalHook",
							"type": "address"
						},
						{
							"internalType": "uint256",
							"name": "metadata",
							"type": "uint256"
						}
					],
					"internalType": "struct JBRuleset",
					"name": "",
					"type": "tuple"
				},
				{
					"internalType": "address",
					"name": "",
					"type": "address"
				}
			],
			"name": "hasMintPermissionFor",
			"outputs": [
				{
					"internalType": "bool",
					"name": "",
					"type": "bool"
				}
			],
			"stateMutability": "pure",
			"type": "function"
		},
		{
			"inputs": [
				{
					"internalType": "uint256",
					"name": "projectId",
					"type": "uint256"
				},
				{
					"internalType": "string",
					"name": "name",
					"type": "string"
				},
				{
					"internalType": "string",
					"name": "symbol",
					"type": "string"
				},
				{
					"internalType": "string",
					"name": "baseUri",
					"type": "string"
				},
				{
					"internalType": "contract IJB721TokenUriResolver",
					"name": "tokenUriResolver",
					"type": "address"
				},
				{
					"internalType": "string",
					"name": "contractUri",
					"type": "string"
				},
				{
					"components": [
						{
							"components": [
								{
									"internalType": "uint104",
									"name": "price",
									"type": "uint104"
								},
								{
									"internalType": "uint32",
									"name": "initialSupply",
									"type": "uint32"
								},
								{
									"internalType": "uint32",
									"name": "votingUnits",
									"type": "uint32"
								},
								{
									"internalType": "uint16",
									"name": "reserveFrequency",
									"type": "uint16"
								},
								{
									"internalType": "address",
									"name": "reserveBeneficiary",
									"type": "address"
								},
								{
									"internalType": "bytes32",
									"name": "encodedIPFSUri",
									"type": "bytes32"
								},
								{
									"internalType": "uint24",
									"name": "category",
									"type": "uint24"
								},
								{
									"internalType": "uint8",
									"name": "discountPercent",
									"type": "uint8"
								},
								{
									"internalType": "bool",
									"name": "allowOwnerMint",
									"type": "bool"
								},
								{
									"internalType": "bool",
									"name": "useReserveBeneficiaryAsDefault",
									"type": "bool"
								},
								{
									"internalType": "bool",
									"name": "transfersPausable",
									"type": "bool"
								},
								{
									"internalType": "bool",
									"name": "useVotingUnits",
									"type": "bool"
								},
								{
									"internalType": "bool",
									"name": "cannotBeRemoved",
									"type": "bool"
								},
								{
									"internalType": "bool",
									"name": "cannotIncreaseDiscountPercent",
									"type": "bool"
								}
							],
							"internalType": "struct JB721TierConfig[]",
							"name": "tiers",
							"type": "tuple[]"
						},
						{
							"internalType": "uint32",
							"name": "currency",
							"type": "uint32"
						},
						{
							"internalType": "uint8",
							"name": "decimals",
							"type": "uint8"
						},
						{
							"internalType": "contract IJBPrices",
							"name": "prices",
							"type": "address"
						}
					],
					"internalType": "struct JB721InitTiersConfig",
					"name": "tiersConfig",
					"type": "tuple"
				},
				{
					"components": [
						{
							"internalType": "bool",
							"name": "noNewTiersWithReserves",
							"type": "bool"
						},
						{
							"internalType": "bool",
							"name": "noNewTiersWithVotes",
							"type": "bool"
						},
						{
							"internalType": "bool",
							"name": "noNewTiersWithOwnerMinting",
							"type": "bool"
						},
						{
							"internalType": "bool",
							"name": "preventOverspending",
							"type": "bool"
						}
					],
					"internalType": "struct JB721TiersHookFlags",
					"name": "flags",
					"type": "tuple"
				}
			],
			"name": "initialize",
			"outputs": [],
			"stateMutability": "nonpayable",
			"type": "function"
		},
		{
			"inputs": [
				{
					"internalType": "address",
					"name": "owner",
					"type": "address"
				},
				{
					"internalType": "address",
					"name": "operator",
					"type": "address"
				}
			],
			"name": "isApprovedForAll",
			"outputs": [
				{
					"internalType": "bool",
					"name": "",
					"type": "bool"
				}
			],
			"stateMutability": "view",
			"type": "function"
		},
		{
			"inputs": [
				{
					"internalType": "address",
					"name": "forwarder",
					"type": "address"
				}
			],
			"name": "isTrustedForwarder",
			"outputs": [
				{
					"internalType": "bool",
					"name": "",
					"type": "bool"
				}
			],
			"stateMutability": "view",
			"type": "function"
		},
		{
			"inputs": [],
			"name": "jbOwner",
			"outputs": [
				{
					"internalType": "address",
					"name": "owner",
					"type": "address"
				},
				{
					"internalType": "uint88",
					"name": "projectId",
					"type": "uint88"
				},
				{
					"internalType": "uint8",
					"name": "permissionId",
					"type": "uint8"
				}
			],
			"stateMutability": "view",
			"type": "function"
		},
		{
			"inputs": [
				{
					"internalType": "uint16[]",
					"name": "tierIds",
					"type": "uint16[]"
				},
				{
					"internalType": "address",
					"name": "beneficiary",
					"type": "address"
				}
			],
			"name": "mintFor",
			"outputs": [
				{
					"internalType": "uint256[]",
					"name": "tokenIds",
					"type": "uint256[]"
				}
			],
			"stateMutability": "nonpayable",
			"type": "function"
		},
		{
			"inputs": [
				{
					"internalType": "uint256",
					"name": "tierId",
					"type": "uint256"
				},
				{
					"internalType": "uint256",
					"name": "count",
					"type": "uint256"
				}
			],
			"name": "mintPendingReservesFor",
			"outputs": [],
			"stateMutability": "nonpayable",
			"type": "function"
		},
		{
			"inputs": [
				{
					"components": [
						{
							"internalType": "uint32",
							"name": "tierId",
							"type": "uint32"
						},
						{
							"internalType": "uint16",
							"name": "count",
							"type": "uint16"
						}
					],
					"internalType": "struct JB721TiersMintReservesConfig[]",
					"name": "reserveMintConfigs",
					"type": "tuple[]"
				}
			],
			"name": "mintPendingReservesFor",
			"outputs": [],
			"stateMutability": "nonpayable",
			"type": "function"
		},
		{
			"inputs": [],
			"name": "name",
			"outputs": [
				{
					"internalType": "string",
					"name": "",
					"type": "string"
				}
			],
			"stateMutability": "view",
			"type": "function"
		},
		{
			"inputs": [],
			"name": "owner",
			"outputs": [
				{
					"internalType": "address",
					"name": "",
					"type": "address"
				}
			],
			"stateMutability": "view",
			"type": "function"
		},
		{
			"inputs": [
				{
					"internalType": "uint256",
					"name": "tokenId",
					"type": "uint256"
				}
			],
			"name": "ownerOf",
			"outputs": [
				{
					"internalType": "address",
					"name": "",
					"type": "address"
				}
			],
			"stateMutability": "view",
			"type": "function"
		},
		{
			"inputs": [
				{
					"internalType": "address",
					"name": "addr",
					"type": "address"
				}
			],
			"name": "payCreditsOf",
			"outputs": [
				{
					"internalType": "uint256",
					"name": "",
					"type": "uint256"
				}
			],
			"stateMutability": "view",
			"type": "function"
		},
		{
			"inputs": [],
			"name": "pricingContext",
			"outputs": [
				{
					"internalType": "uint256",
					"name": "currency",
					"type": "uint256"
				},
				{
					"internalType": "uint256",
					"name": "decimals",
					"type": "uint256"
				},
				{
					"internalType": "contract IJBPrices",
					"name": "prices",
					"type": "address"
				}
			],
			"stateMutability": "view",
			"type": "function"
		},
		{
			"inputs": [],
			"name": "renounceOwnership",
			"outputs": [],
			"stateMutability": "nonpayable",
			"type": "function"
		},
		{
			"inputs": [
				{
					"internalType": "address",
					"name": "from",
					"type": "address"
				},
				{
					"internalType": "address",
					"name": "to",
					"type": "address"
				},
				{
					"internalType": "uint256",
					"name": "tokenId",
					"type": "uint256"
				}
			],
			"name": "safeTransferFrom",
			"outputs": [],
			"stateMutability": "nonpayable",
			"type": "function"
		},
		{
			"inputs": [
				{
					"internalType": "address",
					"name": "from",
					"type": "address"
				},
				{
					"internalType": "address",
					"name": "to",
					"type": "address"
				},
				{
					"internalType": "uint256",
					"name": "tokenId",
					"type": "uint256"
				},
				{
					"internalType": "bytes",
					"name": "data",
					"type": "bytes"
				}
			],
			"name": "safeTransferFrom",
			"outputs": [],
			"stateMutability": "nonpayable",
			"type": "function"
		},
		{
			"inputs": [
				{
					"internalType": "address",
					"name": "operator",
					"type": "address"
				},
				{
					"internalType": "bool",
					"name": "approved",
					"type": "bool"
				}
			],
			"name": "setApprovalForAll",
			"outputs": [],
			"stateMutability": "nonpayable",
			"type": "function"
		},
		{
			"inputs": [
				{
					"internalType": "uint256",
					"name": "tierId",
					"type": "uint256"
				},
				{
					"internalType": "uint256",
					"name": "discountPercent",
					"type": "uint256"
				}
			],
			"name": "setDiscountPercentOf",
			"outputs": [],
			"stateMutability": "nonpayable",
			"type": "function"
		},
		{
			"inputs": [
				{
					"components": [
						{
							"internalType": "uint32",
							"name": "tierId",
							"type": "uint32"
						},
						{
							"internalType": "uint16",
							"name": "discountPercent",
							"type": "uint16"
						}
					],
					"internalType": "struct JB721TiersSetDiscountPercentConfig[]",
					"name": "configs",
					"type": "tuple[]"
				}
			],
			"name": "setDiscountPercentsOf",
			"outputs": [],
			"stateMutability": "nonpayable",
			"type": "function"
		},
		{
			"inputs": [
				{
					"internalType": "string",
					"name": "baseUri",
					"type": "string"
				},
				{
					"internalType": "string",
					"name": "contractUri",
					"type": "string"
				},
				{
					"internalType": "contract IJB721TokenUriResolver",
					"name": "tokenUriResolver",
					"type": "address"
				},
				{
					"internalType": "uint256",
					"name": "encodedIPFSTUriTierId",
					"type": "uint256"
				},
				{
					"internalType": "bytes32",
					"name": "encodedIPFSUri",
					"type": "bytes32"
				}
			],
			"name": "setMetadata",
			"outputs": [],
			"stateMutability": "nonpayable",
			"type": "function"
		},
		{
			"inputs": [
				{
					"internalType": "uint8",
					"name": "permissionId",
					"type": "uint8"
				}
			],
			"name": "setPermissionId",
			"outputs": [],
			"stateMutability": "nonpayable",
			"type": "function"
		},
		{
			"inputs": [
				{
					"internalType": "bytes4",
					"name": "interfaceId",
					"type": "bytes4"
				}
			],
			"name": "supportsInterface",
			"outputs": [
				{
					"internalType": "bool",
					"name": "",
					"type": "bool"
				}
			],
			"stateMutability": "view",
			"type": "function"
		},
		{
			"inputs": [],
			"name": "symbol",
			"outputs": [
				{
					"internalType": "string",
					"name": "",
					"type": "string"
				}
			],
			"stateMutability": "view",
			"type": "function"
		},
		{
			"inputs": [
				{
					"internalType": "uint256",
					"name": "tokenId",
					"type": "uint256"
				}
			],
			"name": "tokenURI",
			"outputs": [
				{
					"internalType": "string",
					"name": "",
					"type": "string"
				}
			],
			"stateMutability": "view",
			"type": "function"
		},
		{
			"inputs": [
				{
					"components": [
						{
							"internalType": "address",
							"name": "terminal",
							"type": "address"
						},
						{
							"internalType": "address",
							"name": "holder",
							"type": "address"
						},
						{
							"internalType": "uint256",
							"name": "projectId",
							"type": "uint256"
						},
						{
							"internalType": "uint256",
							"name": "rulesetId",
							"type": "uint256"
						},
						{
							"internalType": "uint256",
							"name": "cashOutCount",
							"type": "uint256"
						},
						{
							"internalType": "uint256",
							"name": "totalSupply",
							"type": "uint256"
						},
						{
							"components": [
								{
									"internalType": "address",
									"name": "token",
									"type": "address"
								},
								{
									"internalType": "uint8",
									"name": "decimals",
									"type": "uint8"
								},
								{
									"internalType": "uint32",
									"name": "currency",
									"type": "uint32"
								},
								{
									"internalType": "uint256",
									"name": "value",
									"type": "uint256"
								}
							],
							"internalType": "struct JBTokenAmount",
							"name": "surplus",
							"type": "tuple"
						},
						{
							"internalType": "bool",
							"name": "useTotalSurplus",
							"type": "bool"
						},
						{
							"internalType": "uint256",
							"name": "cashOutTaxRate",
							"type": "uint256"
						},
						{
							"internalType": "bytes",
							"name": "metadata",
							"type": "bytes"
						}
					],
					"internalType": "struct JBBeforeCashOutRecordedContext",
					"name": "",
					"type": "tuple"
				}
			],
			"name": "totalCashOutWeight",
			"outputs": [
				{
					"internalType": "uint256",
					"name": "",
					"type": "uint256"
				}
			],
			"stateMutability": "view",
			"type": "function"
		},
		{
			"inputs": [
				{
					"internalType": "address",
					"name": "from",
					"type": "address"
				},
				{
					"internalType": "address",
					"name": "to",
					"type": "address"
				},
				{
					"internalType": "uint256",
					"name": "tokenId",
					"type": "uint256"
				}
			],
			"name": "transferFrom",
			"outputs": [],
			"stateMutability": "nonpayable",
			"type": "function"
		},
		{
			"inputs": [
				{
					"internalType": "address",
					"name": "newOwner",
					"type": "address"
				}
			],
			"name": "transferOwnership",
			"outputs": [],
			"stateMutability": "nonpayable",
			"type": "function"
		},
		{
			"inputs": [
				{
					"internalType": "uint256",
					"name": "projectId",
					"type": "uint256"
				}
			],
			"name": "transferOwnershipToProject",
			"outputs": [],
			"stateMutability": "nonpayable",
			"type": "function"
		},
		{
			"inputs": [],
			"name": "trustedForwarder",
			"outputs": [
				{
					"internalType": "address",
					"name": "",
					"type": "address"
				}
			],
			"stateMutability": "view",
			"type": "function"
		},
		{
			"anonymous": false,
			"inputs": [
				{
					"indexed": true,
					"internalType": "uint256",
					"name": "amount",
					"type": "uint256"
				},
				{
					"indexed": true,
					"internalType": "uint256",
					"name": "newTotalCredits",
					"type": "uint256"
				},
				{
					"indexed": true,
					"internalType": "address",
					"name": "account",
					"type": "address"
				},
				{
					"indexed": false,
					"internalType": "address",
					"name": "caller",
					"type": "address"
				}
			],
			"name": "AddPayCredits",
			"type": "event"
		},
		{
			"anonymous": false,
			"inputs": [
				{
					"indexed": true,
					"internalType": "uint256",
					"name": "tierId",
					"type": "uint256"
				},
				{
					"components": [
						{
							"internalType": "uint104",
							"name": "price",
							"type": "uint104"
						},
						{
							"internalType": "uint32",
							"name": "initialSupply",
							"type": "uint32"
						},
						{
							"internalType": "uint32",
							"name": "votingUnits",
							"type": "uint32"
						},
						{
							"internalType": "uint16",
							"name": "reserveFrequency",
							"type": "uint16"
						},
						{
							"internalType": "address",
							"name": "reserveBeneficiary",
							"type": "address"
						},
						{
							"internalType": "bytes32",
							"name": "encodedIPFSUri",
							"type": "bytes32"
						},
						{
							"internalType": "uint24",
							"name": "category",
							"type": "uint24"
						},
						{
							"internalType": "uint8",
							"name": "discountPercent",
							"type": "uint8"
						},
						{
							"internalType": "bool",
							"name": "allowOwnerMint",
							"type": "bool"
						},
						{
							"internalType": "bool",
							"name": "useReserveBeneficiaryAsDefault",
							"type": "bool"
						},
						{
							"internalType": "bool",
							"name": "transfersPausable",
							"type": "bool"
						},
						{
							"internalType": "bool",
							"name": "useVotingUnits",
							"type": "bool"
						},
						{
							"internalType": "bool",
							"name": "cannotBeRemoved",
							"type": "bool"
						},
						{
							"internalType": "bool",
							"name": "cannotIncreaseDiscountPercent",
							"type": "bool"
						}
					],
					"indexed": false,
					"internalType": "struct JB721TierConfig",
					"name": "tier",
					"type": "tuple"
				},
				{
					"indexed": false,
					"internalType": "address",
					"name": "caller",
					"type": "address"
				}
			],
			"name": "AddTier",
			"type": "event"
		},
		{
			"anonymous": false,
			"inputs": [
				{
					"indexed": true,
					"internalType": "address",
					"name": "owner",
					"type": "address"
				},
				{
					"indexed": true,
					"internalType": "address",
					"name": "approved",
					"type": "address"
				},
				{
					"indexed": true,
					"internalType": "uint256",
					"name": "tokenId",
					"type": "uint256"
				}
			],
			"name": "Approval",
			"type": "event"
		},
		{
			"anonymous": false,
			"inputs": [
				{
					"indexed": true,
					"internalType": "address",
					"name": "owner",
					"type": "address"
				},
				{
					"indexed": true,
					"internalType": "address",
					"name": "operator",
					"type": "address"
				},
				{
					"indexed": false,
					"internalType": "bool",
					"name": "approved",
					"type": "bool"
				}
			],
			"name": "ApprovalForAll",
			"type": "event"
		},
		{
			"anonymous": false,
			"inputs": [
				{
					"indexed": true,
					"internalType": "uint256",
					"name": "tokenId",
					"type": "uint256"
				},
				{
					"indexed": true,
					"internalType": "uint256",
					"name": "tierId",
					"type": "uint256"
				},
				{
					"indexed": true,
					"internalType": "address",
					"name": "beneficiary",
					"type": "address"
				},
				{
					"indexed": false,
					"internalType": "uint256",
					"name": "totalAmountPaid",
					"type": "uint256"
				},
				{
					"indexed": false,
					"internalType": "address",
					"name": "caller",
					"type": "address"
				}
			],
			"name": "Mint",
			"type": "event"
		},
		{
			"anonymous": false,
			"inputs": [
				{
					"indexed": true,
					"internalType": "uint256",
					"name": "tokenId",
					"type": "uint256"
				},
				{
					"indexed": true,
					"internalType": "uint256",
					"name": "tierId",
					"type": "uint256"
				},
				{
					"indexed": true,
					"internalType": "address",
					"name": "beneficiary",
					"type": "address"
				},
				{
					"indexed": false,
					"internalType": "address",
					"name": "caller",
					"type": "address"
				}
			],
			"name": "MintReservedNft",
			"type": "event"
		},
		{
			"anonymous": false,
			"inputs": [
				{
					"indexed": true,
					"internalType": "address",
					"name": "previousOwner",
					"type": "address"
				},
				{
					"indexed": true,
					"internalType": "address",
					"name": "newOwner",
					"type": "address"
				},
				{
					"indexed": false,
					"internalType": "address",
					"name": "caller",
					"type": "address"
				}
			],
			"name": "OwnershipTransferred",
			"type": "event"
		},
		{
			"anonymous": false,
			"inputs": [
				{
					"indexed": false,
					"internalType": "uint8",
					"name": "newId",
					"type": "uint8"
				},
				{
					"indexed": false,
					"internalType": "address",
					"name": "caller",
					"type": "address"
				}
			],
			"name": "PermissionIdChanged",
			"type": "event"
		},
		{
			"anonymous": false,
			"inputs": [
				{
					"indexed": true,
					"internalType": "uint256",
					"name": "tierId",
					"type": "uint256"
				},
				{
					"indexed": false,
					"internalType": "address",
					"name": "caller",
					"type": "address"
				}
			],
			"name": "RemoveTier",
			"type": "event"
		},
		{
			"anonymous": false,
			"inputs": [
				{
					"indexed": true,
					"internalType": "string",
					"name": "baseUri",
					"type": "string"
				},
				{
					"indexed": false,
					"internalType": "address",
					"name": "caller",
					"type": "address"
				}
			],
			"name": "SetBaseUri",
			"type": "event"
		},
		{
			"anonymous": false,
			"inputs": [
				{
					"indexed": true,
					"internalType": "string",
					"name": "uri",
					"type": "string"
				},
				{
					"indexed": false,
					"internalType": "address",
					"name": "caller",
					"type": "address"
				}
			],
			"name": "SetContractUri",
			"type": "event"
		},
		{
			"anonymous": false,
			"inputs": [
				{
					"indexed": true,
					"internalType": "uint256",
					"name": "tierId",
					"type": "uint256"
				},
				{
					"indexed": false,
					"internalType": "uint256",
					"name": "discountPercent",
					"type": "uint256"
				},
				{
					"indexed": false,
					"internalType": "address",
					"name": "caller",
					"type": "address"
				}
			],
			"name": "SetDiscountPercent",
			"type": "event"
		},
		{
			"anonymous": false,
			"inputs": [
				{
					"indexed": true,
					"internalType": "uint256",
					"name": "tierId",
					"type": "uint256"
				},
				{
					"indexed": false,
					"internalType": "bytes32",
					"name": "encodedUri",
					"type": "bytes32"
				},
				{
					"indexed": false,
					"internalType": "address",
					"name": "caller",
					"type": "address"
				}
			],
			"name": "SetEncodedIPFSUri",
			"type": "event"
		},
		{
			"anonymous": false,
			"inputs": [
				{
					"indexed": true,
					"internalType": "contract IJB721TokenUriResolver",
					"name": "resolver",
					"type": "address"
				},
				{
					"indexed": false,
					"internalType": "address",
					"name": "caller",
					"type": "address"
				}
			],
			"name": "SetTokenUriResolver",
			"type": "event"
		},
		{
			"anonymous": false,
			"inputs": [
				{
					"indexed": true,
					"internalType": "address",
					"name": "from",
					"type": "address"
				},
				{
					"indexed": true,
					"internalType": "address",
					"name": "to",
					"type": "address"
				},
				{
					"indexed": true,
					"internalType": "uint256",
					"name": "tokenId",
					"type": "uint256"
				}
			],
			"name": "Transfer",
			"type": "event"
		},
		{
			"anonymous": false,
			"inputs": [
				{
					"indexed": true,
					"internalType": "uint256",
					"name": "amount",
					"type": "uint256"
				},
				{
					"indexed": true,
					"internalType": "uint256",
					"name": "newTotalCredits",
					"type": "uint256"
				},
				{
					"indexed": true,
					"internalType": "address",
					"name": "account",
					"type": "address"
				},
				{
					"indexed": false,
					"internalType": "address",
					"name": "caller",
					"type": "address"
				}
			],
			"name": "UsePayCredits",
			"type": "event"
		},
		{
			"inputs": [
				{
					"internalType": "address",
					"name": "sender",
					"type": "address"
				},
				{
					"internalType": "uint256",
					"name": "tokenId",
					"type": "uint256"
				},
				{
					"internalType": "address",
					"name": "owner",
					"type": "address"
				}
			],
			"name": "ERC721IncorrectOwner",
			"type": "error"
		},
		{
			"inputs": [
				{
					"internalType": "address",
					"name": "operator",
					"type": "address"
				},
				{
					"internalType": "uint256",
					"name": "tokenId",
					"type": "uint256"
				}
			],
			"name": "ERC721InsufficientApproval",
			"type": "error"
		},
		{
			"inputs": [
				{
					"internalType": "address",
					"name": "approver",
					"type": "address"
				}
			],
			"name": "ERC721InvalidApprover",
			"type": "error"
		},
		{
			"inputs": [
				{
					"internalType": "address",
					"name": "operator",
					"type": "address"
				}
			],
			"name": "ERC721InvalidOperator",
			"type": "error"
		},
		{
			"inputs": [
				{
					"internalType": "address",
					"name": "owner",
					"type": "address"
				}
			],
			"name": "ERC721InvalidOwner",
			"type": "error"
		},
		{
			"inputs": [
				{
					"internalType": "address",
					"name": "receiver",
					"type": "address"
				}
			],
			"name": "ERC721InvalidReceiver",
			"type": "error"
		},
		{
			"inputs": [
				{
					"internalType": "address",
					"name": "sender",
					"type": "address"
				}
			],
			"name": "ERC721InvalidSender",
			"type": "error"
		},
		{
			"inputs": [
				{
					"internalType": "uint256",
					"name": "tokenId",
					"type": "uint256"
				}
			],
			"name": "ERC721NonexistentToken",
			"type": "error"
		},
		{
			"inputs": [],
			"name": "JB721Hook_InvalidCashOut",
			"type": "error"
		},
		{
			"inputs": [],
			"name": "JB721Hook_InvalidPay",
			"type": "error"
		},
		{
			"inputs": [
				{
					"internalType": "uint256",
					"name": "tokenId",
					"type": "uint256"
				},
				{
					"internalType": "address",
					"name": "holder",
					"type": "address"
				}
			],
			"name": "JB721Hook_UnauthorizedToken",
			"type": "error"
		},
		{
			"inputs": [],
			"name": "JB721Hook_UnexpectedTokenCashedOut",
			"type": "error"
		},
		{
			"inputs": [
				{
					"internalType": "uint256",
					"name": "projectId",
					"type": "uint256"
				}
			],
			"name": "JB721TiersHook_AlreadyInitialized",
			"type": "error"
		},
		{
			"inputs": [],
			"name": "JB721TiersHook_MintReserveNftsPaused",
			"type": "error"
		},
		{
			"inputs": [],
			"name": "JB721TiersHook_NoProjectId",
			"type": "error"
		},
		{
			"inputs": [
				{
					"internalType": "uint256",
					"name": "leftoverAmount",
					"type": "uint256"
				}
			],
			"name": "JB721TiersHook_Overspending",
			"type": "error"
		},
		{
			"inputs": [],
			"name": "JB721TiersHook_TierTransfersPaused",
			"type": "error"
		},
		{
			"inputs": [],
			"name": "JBOwnableOverrides_InvalidNewOwner",
			"type": "error"
		},
		{
			"inputs": [
				{
					"internalType": "address",
					"name": "account",
					"type": "address"
				},
				{
					"internalType": "address",
					"name": "sender",
					"type": "address"
				},
				{
					"internalType": "uint256",
					"name": "projectId",
					"type": "uint256"
				},
				{
					"internalType": "uint256",
					"name": "permissionId",
					"type": "uint256"
				}
			],
			"name": "JBPermissioned_Unauthorized",
			"type": "error"
		},
		{
			"inputs": [
				{
					"internalType": "uint256",
					"name": "x",
					"type": "uint256"
				},
				{
					"internalType": "uint256",
					"name": "y",
					"type": "uint256"
				},
				{
					"internalType": "uint256",
					"name": "denominator",
					"type": "uint256"
				}
			],
			"name": "PRBMath_MulDiv_Overflow",
			"type": "error"
		}
	],
	"args": [],
	"solcInputHash": "7049ff0cccffb2c4",
	"bytecode": "0x61016060405234801562000011575f80fd5b506040516200624938038062006249833981016040819052620000349162000392565b848185876001600160a01b031663293c49996040518163ffffffff1660e01b8152600401602060405180830381865afa15801562000074573d5f803e3d5ffd5b505050506040513d601f19601f820116820180604052508101906200009a91906200040e565b6001600160a01b03828116608052811660a052335f8383838381620000d25760405163f854950960e01b815260040160405180910390fd5b620000de828262000115565b5050506001600160a01b0395861660c0525050505091811660e0523061010052938416610120525050166101405250620004339050565b6001600160581b038116158015906200013657506001600160a01b03821615155b15620001555760405163f854950960e01b815260040160405180910390fd5b604080516060810182525f80546001600160a01b0381168352600160a01b81046001600160581b031660208401819052600160f81b90910460ff1693830193909352909115620002215760a05160208301516040516331a9108f60e11b81526001600160581b0390911660048201526001600160a01b0390911690636352211e90602401602060405180830381865afa158015620001f5573d5f803e3d5ffd5b505050506040513d601f19601f820116820180604052508101906200021b91906200040e565b62000224565b81515b604080516060810182526001600160a01b0387168082526001600160581b038716602083018190525f9290930182905281547fff000000000000000000000000000000000000000000000000000000000000001617600160a01b909202919091176001600160f81b0316905590506200029f818585620002a5565b50505050565b6001600160581b03811615620003315760a0516040516331a9108f60e11b81526001600160581b03831660048201526001600160a01b0390911690636352211e90602401602060405180830381865afa15801562000305573d5f803e3d5ffd5b505050506040513d601f19601f820116820180604052508101906200032b91906200040e565b62000333565b815b6040513381526001600160a01b03918216918516907fc8894f26f396ce8c004245c8b7cd1b92103a6e4302fcbab883987149ac01b7ec9060200160405180910390a3505050565b6001600160a01b03811681146200038f575f80fd5b50565b5f805f805f60a08688031215620003a7575f80fd5b8551620003b4816200037a565b6020870151909550620003c7816200037a565b6040870151909450620003da816200037a565b6060870151909350620003ed816200037a565b608087015190925062000400816200037a565b809150509295509295909350565b5f602082840312156200041f575f80fd5b81516200042c816200037a565b9392505050565b60805160a05160c05160e051610100516101205161014051615cdd6200056c5f395f818161051a01528181610d9e01528181610e1e0152818161106301528181611142015281816112670152818161130301528181611423015281816114c7015281816116be01528181611c0101528181611d8f01528181611f0f01528181611f93015281816124ee015281816129a801528181612a2b01528181612ba001528181612c670152818161349601526137f501525f81816108ef0152612d3501525f81816109a801528181611a6601528181612126015261258d01525f81816106cf01528181610b6a01526119a001525f818161058c0152818161069a015261358e01525f81816104a90152818161181901528181612e6f01528181612fae0152613a8501525f81816109fa01526128910152615cdd5ff3fe608060405260043610610303575f3560e01c80637da0a87711610191578063c22903b2116100dc578063e8a3d48511610087578063f2fde38b11610062578063f2fde38b146109ca578063f434c914146109e9578063fb82b1b014610a1c575f80fd5b8063e8a3d4851461093c578063e985e9c514610950578063edab09b914610997575f80fd5b8063d102134c116100b7578063d102134c146108bf578063d4a1b4b1146108de578063d95c9ae214610911575f80fd5b8063c22903b21461086e578063c87b56dd14610881578063cf7f4936146108a0575f80fd5b80639c2c6a021161013c578063b88d4fde11610117578063b88d4fde146107c5578063ba23c36e146107e4578063c0fb5e851461084f575f80fd5b80639c2c6a0214610768578063a220d69614610787578063a22cb465146107a6575f80fd5b80638da5cb5b1161016c5780638da5cb5b1461071e57806395d89b411461073257806399f6d77f14610746575f80fd5b80637da0a8771461068c57806388bc2ef3146106be5780638cc35846146106f1575f80fd5b8063462e3af8116102515780636352211e116101fc5780636c0360eb116101d75780636c0360eb1461064557806370a0823114610659578063715018a614610678575f80fd5b80636352211e146105db57806369f72970146105fa5780636ac6d94114610619575f80fd5b806356539f391161022c57806356539f391461055b578063572b6c0514610570578063613b856d146105bc575f80fd5b8063462e3af8146104ea578063507f14651461050957806354c6d1f51461053c575f80fd5b80631435aad5116102b15780632483d6b51161028c5780632483d6b514610479578063293c49991461049857806342842e0e146104cb575f80fd5b80631435aad51461040e5780631da1da721461042d57806323b872dd1461045a575f80fd5b806308786b1a116102e157806308786b1a14610393578063095ea7b3146103da5780631337f986146103fb575f80fd5b806301ffc9a71461030757806306fdde031461033b578063081812fc1461035c575b5f80fd5b348015610312575f80fd5b50610326610321366004614023565b610a4b565b60405190151581526020015b60405180910390f35b348015610346575f80fd5b5061034f610a75565b604051610332919061408b565b348015610367575f80fd5b5061037b61037636600461409d565b610b05565b6040516001600160a01b039091168152602001610332565b34801561039e575f80fd5b50600c5463ffffffff811690602081901c60ff169060281c6040805193845260208401929092526001600160a01b031690820152606001610332565b3480156103e5575f80fd5b506103f96103f43660046140d8565b610b2c565b005b6103f9610409366004614119565b610b42565b348015610419575f80fd5b506103f9610428366004614189565b610c13565b348015610438575f80fd5b5061044c610447366004614229565b610e07565b604051908152602001610332565b348015610465575f80fd5b506103f961047436600461425b565b610e90565b348015610484575f80fd5b506103f9610493366004614299565b610f25565b3480156104a3575f80fd5b5061037b7f000000000000000000000000000000000000000000000000000000000000000081565b3480156104d6575f80fd5b506103f96104e536600461425b565b610f44565b3480156104f5575f80fd5b506103f96105043660046146fc565b610f63565b348015610514575f80fd5b5061037b7f000000000000000000000000000000000000000000000000000000000000000081565b348015610547575f80fd5b5061037b61055636600461409d565b6111bd565b348015610566575f80fd5b5061044c60075481565b34801561057b575f80fd5b5061032661058a3660046147f0565b7f00000000000000000000000000000000000000000000000000000000000000006001600160a01b0390811691161490565b3480156105c7575f80fd5b506103f96105d6366004614299565b6111ff565b3480156105e6575f80fd5b5061037b6105f536600461409d565b611400565b348015610605575f80fd5b5061044c61061436600461480b565b61140a565b348015610624575f80fd5b506106386106333660046148ff565b611499565b604051610332919061498c565b348015610650575f80fd5b5061034f61160b565b348015610664575f80fd5b5061044c6106733660046147f0565b611697565b348015610683575f80fd5b506103f96116ef565b348015610697575f80fd5b507f000000000000000000000000000000000000000000000000000000000000000061037b565b3480156106c9575f80fd5b5061037b7f000000000000000000000000000000000000000000000000000000000000000081565b3480156106fc575f80fd5b5061071061070b36600461499e565b611703565b6040516103329291906149d6565b348015610729575f80fd5b5061037b6117a6565b34801561073d575f80fd5b5061034f611890565b348015610751575f80fd5b50610326610760366004614aa9565b5f9392505050565b348015610773575f80fd5b506103f9610782366004614bc6565b61189f565b348015610792575f80fd5b506103f96107a136600461409d565b6118f8565b3480156107b1575f80fd5b506103f96107c0366004614c05565b61193e565b3480156107d0575f80fd5b506103f96107df366004614c3c565b611950565b3480156107ef575f80fd5b505f5461081f906001600160a01b03811690600160a01b81046001600160581b031690600160f81b900460ff1683565b604080516001600160a01b0390941684526001600160581b03909216602084015260ff1690820152606001610332565b34801561085a575f80fd5b506103f9610869366004614cb7565b611967565b6103f961087c366004614119565b611978565b34801561088c575f80fd5b5061034f61089b36600461409d565b611bdf565b3480156108ab575f80fd5b506103f96108ba366004614bc6565b611e09565b3480156108ca575f80fd5b506103f96108d9366004614cd2565b611e6d565b3480156108e9575f80fd5b5061037b7f000000000000000000000000000000000000000000000000000000000000000081565b34801561091c575f80fd5b5061044c61092b3660046147f0565b600a6020525f908152604090205481565b348015610947575f80fd5b5061034f612092565b34801561095b575f80fd5b5061032661096a366004614d65565b6001600160a01b039182165f90815260066020908152604080832093909416825291909152205460ff1690565b3480156109a2575f80fd5b5061037b7f000000000000000000000000000000000000000000000000000000000000000081565b3480156109d5575f80fd5b506103f96109e43660046147f0565b61209f565b3480156109f4575f80fd5b5061037b7f000000000000000000000000000000000000000000000000000000000000000081565b348015610a27575f80fd5b50610a3b610a36366004614229565b6120d8565b6040516103329493929190614d91565b5f6001600160e01b03198216637aa81e7b60e01b1480610a6f5750610a6f82612259565b92915050565b606060018054610a8490614e2f565b80601f0160208091040260200160405190810160405280929190818152602001828054610ab090614e2f565b8015610afb5780601f10610ad257610100808354040283529160200191610afb565b820191905f5260205f20905b815481529060010190602001808311610ade57829003601f168201915b5050505050905090565b5f610b0f826122e9565b505f828152600560205260409020546001600160a01b0316610a6f565b610b3e8282610b39612321565b61232f565b5050565b60075434151580610bdd5750604051636e49181f60e01b8152600481018290523360248201527f00000000000000000000000000000000000000000000000000000000000000006001600160a01b031690636e49181f90604401602060405180830381865afa158015610bb7573d5f803e3d5ffd5b505050506040513d601f19601f82011682018060405250810190610bdb9190614e6c565b155b80610bec575080826020013514155b15610c0a57604051633fb648ad60e11b815260040160405180910390fd5b610b3e8261233c565b610c28610c1e6117a6565b6007546015612826565b8515610c99576008610c3b878983614ecb565b508686604051610c4c929190614f85565b60405180910390207f7bc9110d5de090dd59e07912d2b93a5a27ac70a60c8d8e324db4f9ee8b8b5c13610c7d612321565b6040516001600160a01b03909116815260200160405180910390a25b8315610d0a576009610cac858783614ecb565b508484604051610cbd929190614f85565b60405180910390207fd36dc0c1a06103fdcaf15f3f6fb797d1a97997514c78de073640c8b5005454b8610cee612321565b6040516001600160a01b03909116815260200160405180910390a25b6001600160a01b0383163014610d2357610d238361293b565b8115801590610d3157508015155b15610dfe57817f677da4fed654db8e604791fa2582f342e2001aa217e27f6985eb3e0f67e5a7fc82610d61612321565b604080519283526001600160a01b0390911660208301520160405180910390a26040516324de8d6360e11b815260048101839052602481018290527f00000000000000000000000000000000000000000000000000000000000000006001600160a01b0316906349bd1ac6906044015f604051808303815f87803b158015610de7575f80fd5b505af1158015610df9573d5f803e3d5ffd5b505050505b50505050505050565b6040516349e6fb6760e01b81523060048201525f907f00000000000000000000000000000000000000000000000000000000000000006001600160a01b0316906349e6fb67906024015b602060405180830381865afa158015610e6c573d5f803e3d5ffd5b505050506040513d601f19601f82011682018060405250810190610a6f9190614f94565b6001600160a01b038216610ebe57604051633250574960e11b81525f60048201526024015b60405180910390fd5b5f610ed18383610ecc612321565b6129fc565b9050836001600160a01b0316816001600160a01b031614610f1f576040516364283d7b60e01b81526001600160a01b0380861660048301526024820184905282166044820152606401610eb5565b50505050565b610f3a610f306117a6565b6007546017612826565b610b3e8282612bff565b610f5e83838360405180602001604052805f815250611950565b505050565b60075415610f8a57600754604051639889eb1160e01b8152600401610eb591815260200190565b875f03610faa57604051630ea59fc560e21b815260040160405180910390fd5b610fb5888888612cc2565b6020808301516040840151606085015178ffffffffffffffffffffffffffffffffffffffff000000000060289190911b1664ff000000009190931b1663ffffffff9091161717600c8190558551156110155760086110138782614fab565b505b83511561102a5760096110288582614fab565b505b6001600160a01b03851615611042576110428561293b565b825151156110db578251604051631f1d05ad60e01b81526001600160a01b037f00000000000000000000000000000000000000000000000000000000000000001691631f1d05ad916110979190600401615067565b5f604051808303815f875af11580156110b2573d5f803e3d5ffd5b505050506040513d5f823e601f3d908101601f191682016040526110d991908101906151d5565b505b8151806110e9575081602001515b806110f5575081604001515b80611101575081606001515b156111a257604080516365c13f1960e11b815283511515600482015260208401511515602482015290830151151560448201526060830151151560648201527f00000000000000000000000000000000000000000000000000000000000000006001600160a01b03169063cb827e32906084015f604051808303815f87803b15801561118b575f80fd5b505af115801561119d573d5f803e3d5ffd5b505050505b6111b26111ad612321565b6120ce565b505050505050505050565b5f818152600b60205260408120546001600160a01b031680156111e05792915050565b5f838152600360205260409020546001600160a01b03165b9392505050565b5f61120b600754612cd3565b905061122a61121f82610100015160f21c90565b600190811c81161490565b156112485760405163b1f1d8cf60e01b815260040160405180910390fd5b604051635d53f40760e11b815260048101849052602481018390525f907f00000000000000000000000000000000000000000000000000000000000000006001600160a01b03169063baa7e80e906044015f604051808303815f875af11580156112b4573d5f803e3d5ffd5b505050506040513d5f823e601f3d908101601f191682016040526112db91908101906151d5565b60405162d5cc0160e21b8152306004820152602481018690529091505f906001600160a01b037f00000000000000000000000000000000000000000000000000000000000000001690630357300490604401602060405180830381865afa158015611348573d5f803e3d5ffd5b505050506040513d601f19601f8201168201806040525081019061136c9190615212565b90505f5b848110156113f8575f83828151811061138b5761138b61522d565b60200260200101519050826001600160a01b031687827f80dd2efbbc431cde0164d84d638e44ba6e7a3ca5d532ceef1bb4efcc0948325d6113ca612321565b6040516001600160a01b03909116815260200160405180910390a46113ef8382612d9f565b50600101611370565b505050505050565b5f610a6f826122e9565b604051639be748fb60e01b81525f906001600160a01b037f00000000000000000000000000000000000000000000000000000000000000001690639be748fb9061145a9030908790600401615241565b602060405180830381865afa158015611475573d5f803e3d5ffd5b505050506040513d601f19601f820116820180604052508101906111f89190614f94565b60606114b06114a66117a6565b6007546016612826565b60405163eaa19ab360e01b81526001600160a01b037f0000000000000000000000000000000000000000000000000000000000000000169063eaa19ab390611504905f199088908890600190600401615262565b5f604051808303815f875af115801561151f573d5f803e3d5ffd5b505050506040513d5f823e601f3d908101601f1916820160405261154691908101906152c0565b5090505f5b83811015611603575f8282815181106115665761156661522d565b6020026020010151905061157a8482612d9f565b836001600160a01b03168686848181106115965761159661522d565b90506020020160208101906115ab9190615304565b61ffff16827f598baf7bf150ca2f42be9e9f8f55e81d45f5715c3ff22bf46d697fabec7f31d65f6115da612321565b604080519283526001600160a01b0390911660208301520160405180910390a45060010161154b565b509392505050565b6008805461161890614e2f565b80601f016020809104026020016040519081016040528092919081815260200182805461164490614e2f565b801561168f5780601f106116665761010080835404028352916020019161168f565b820191905f5260205f20905b81548152906001019060200180831161167257829003601f168201915b505050505081565b604051633de222bb60e21b81523060048201526001600160a01b0382811660248301525f917f00000000000000000000000000000000000000000000000000000000000000009091169063f7888aec90604401610e51565b6116f7612e00565b6117015f80612f03565b565b6040805160018082528183019092526101208301359160609190816020015b60408051606080820183525f8083526020830152918101919091528152602001906001900390816117225790505090506040518060600160405280306001600160a01b031681526020015f815260200160405180602001604052805f815250815250815f815181106117965761179661522d565b6020026020010181905250915091565b604080516060810182525f80546001600160a01b0381168352600160a01b81046001600160581b031660208401819052600160f81b90910460ff16938301939093529182036117f55751919050565b60208101516040516331a9108f60e11b81526001600160581b0390911660048201527f00000000000000000000000000000000000000000000000000000000000000006001600160a01b031690636352211e90602401602060405180830381865afa158015611866573d5f803e3d5ffd5b505050506040513d601f19601f8201168201806040525081019061188a9190615212565b91505090565b606060028054610a8490614e2f565b5f5b81811015610f5e575f8383838181106118bc576118bc61522d565b9050604002018036038101906118d29190615380565b90506118ef815f015163ffffffff16826020015161ffff166111ff565b506001016118a1565b611900612e00565b80158061191357506001600160581b0381115b156119315760405163f854950960e01b815260040160405180910390fd5b61193b5f82612f03565b50565b610b3e611949612321565b8383613088565b61195b848484610e90565b610f1f84848484613127565b61196f612e00565b61193b8161324d565b60075434151580611a135750604051636e49181f60e01b8152600481018290523360248201527f00000000000000000000000000000000000000000000000000000000000000006001600160a01b031690636e49181f90604401602060405180830381865afa1580156119ed573d5f803e3d5ffd5b505050506040513d601f19601f82011682018060405250810190611a119190614e6c565b155b80611a22575080826020013514155b15611a40576040516394310b3d60e01b815260040160405180910390fd5b60408051808201909152600781526618d85cda13dd5d60ca1b6020909101525f80611af17f000000000000000000000000000000000000000000000000000000000000000060601b7f86b14ff4df1839d4c5ed01550f2540ea56ad3e3813c5cd226eeab5890c21e3bb18611ab86101e087018761539a565b8080601f0160208091040260200160405190810160405280939291908181526020018383808284375f920191909152506132a792505050565b9150915060608215611b145781806020019051810190611b1191906151d5565b90505b5f5b8151811015611bce575f828281518110611b3257611b3261522d565b60200260200101519050865f016020810190611b4e91906147f0565b6001600160a01b0316611b75825f908152600360205260409020546001600160a01b031690565b6001600160a01b031614611bbc5780611b9160208901896147f0565b604051630694678560e21b815260048101929092526001600160a01b03166024820152604401610eb5565b611bc581613447565b50600101611b16565b50611bd88161347f565b5050505050565b604051630fab094760e01b81523060048201526060905f906001600160a01b037f00000000000000000000000000000000000000000000000000000000000000001690630fab094790602401602060405180830381865afa158015611c46573d5f803e3d5ffd5b505050506040513d601f19601f82011682018060405250810190611c6a9190615212565b90506001600160a01b03811615611cea57604051635e703e7160e01b8152306004820152602481018490526001600160a01b03821690635e703e71906044015f60405180830381865afa158015611cc3573d5f803e3d5ffd5b505050506040513d5f823e601f3d908101601f191682016040526111f8919081019061541f565b6111f860088054611cfa90614e2f565b80601f0160208091040260200160405190810160405280929190818152602001828054611d2690614e2f565b8015611d715780601f10611d4857610100808354040283529160200191611d71565b820191905f5260205f20905b815481529060010190602001808311611d5457829003601f168201915b5050604051630c8df17160e41b8152306004820152602481018990527f00000000000000000000000000000000000000000000000000000000000000006001600160a01b0316935063c8df171092506044019050602060405180830381865afa158015611de0573d5f803e3d5ffd5b505050506040513d601f19601f82011682018060405250810190611e049190614f94565b6134cb565b611e14610f306117a6565b5f5b81811015610f5e575f838383818110611e3157611e3161522d565b905060400201803603810190611e479190615380565b9050611e64815f015163ffffffff16826020015161ffff16612bff565b50600101611e16565b611e82611e786117a6565b6007546014612826565b8015611f74575f5b81811015611ef757828282818110611ea457611ea461522d565b905060200201357f832d89d991be5351d793c20faf4b7dd44f8aa9ce39e3cb160c6317de6fbba729611ed4612321565b6040516001600160a01b03909116815260200160405180910390a2600101611e8a565b506040516320512ba160e01b81526001600160a01b037f000000000000000000000000000000000000000000000000000000000000000016906320512ba190611f469085908590600401615451565b5f604051808303815f87803b158015611f5d575f80fd5b505af1158015611f6f573d5f803e3d5ffd5b505050505b8215610f1f57604051631f1d05ad60e01b81525f906001600160a01b037f00000000000000000000000000000000000000000000000000000000000000001690631f1d05ad90611fca90889088906004016155d0565b5f604051808303815f875af1158015611fe5573d5f803e3d5ffd5b505050506040513d5f823e601f3d908101601f1916820160405261200c91908101906151d5565b90505f5b848110156113f85781818151811061202a5761202a61522d565b60200260200101517fcbda9c610cbf8b0b9941c465b20ff7e1fae572086b70ef65fa3d5e4bf3d0deaa8787848181106120655761206561522d565b90506101c00201612074612321565b604051612082929190615612565b60405180910390a2600101612010565b6009805461161890614e2f565b6120a7612e00565b6001600160a01b0381166120ce5760405163f854950960e01b815260040160405180910390fd5b61193b815f612f03565b5f808060606080850135156121005760405163096afe5960e41b815260040160405180910390fd5b60408051808201909152600781526618d85cda13dd5d60ca1b6020909101525f806121787f000000000000000000000000000000000000000000000000000000000000000060601b7f86b14ff4df1839d4c5ed01550f2540ea56ad3e3813c5cd226eeab5890c21e3bb18611ab86101808a018a61539a565b604080516001808252818301909252929450909250816020015b60408051606080820183525f8083526020830152918101919091528152602001906001900390816121925790505092506040518060600160405280306001600160a01b031681526020015f815260200160405180602001604052805f815250815250835f815181106122065761220661522d565b602002602001018190525060608215612230578180602001905181019061222d91906151d5565b90505b61223a818961140a565b955061224588610e07565b945087610160013596505050509193509193565b5f6001600160e01b03198216633344b87360e01b148061228957506001600160e01b0319821663eeb73e8960e01b145b806122a457506001600160e01b0319821663099bfcc360e11b145b806122bf57506001600160e01b0319821663611481d960e11b145b806122da57506001600160e01b0319821663152a902d60e11b145b80610a6f5750610a6f82613530565b5f818152600360205260408120546001600160a01b031680610a6f57604051637e27328960e01b815260048101849052602401610eb5565b5f61232a61357f565b905090565b610f5e83838360016135f2565b600c545f9063ffffffff81168061235960c0860160a08701615638565b63ffffffff16036123705760c0840135925061245d565b602882901c6001600160a01b03811615611bd85760ff602084901c1661245860c087013561239f83600a615747565b6007546001600160a01b03861690633be273fa906123c360c08d0160a08e01615638565b898d60600160200160208101906123da9190614cb7565b6040516001600160e01b031960e087901b168152600481019490945263ffffffff929092166024840152604483015260ff166064820152608401602060405180830381865afa15801561242f573d5f803e3d5ffd5b505050506040513d601f19601f820116820180604052508101906124539190614f94565b613721565b945050505b505f9050600a816124766101c086016101a087016147f0565b6001600160a01b0316815260208101919091526040015f90812054915082906124a76101c086016101a087016147f0565b6001600160a01b03166124bd60208701876147f0565b6001600160a01b0316036124d457908201906124d7565b50815b604051634228826f60e11b81523060048201525f907f00000000000000000000000000000000000000000000000000000000000000006001600160a01b03169063845104de90602401608060405180830381865afa15801561253b573d5f803e3d5ffd5b505050506040513d601f19601f8201168201806040525081019061255f9190615752565b60609081015160408051808201909152600381526270617960e81b6020909101521591505f9081906125de907f0000000000000000000000000000000000000000000000000000000000000000901b7fadc756803e4eb4ccfb136b73d5f72e3dc0d452d30ae1f4bc82af394c73ce711518611ab86101e08b018b61539a565b9150915081156126405760605f828060200190518101906125ff91906157c2565b9250905084801561260e575080155b15612617575f94505b81511561263d5761263a87836126356101c08e016101a08f016147f0565b6137f0565b96505b50505b841561277b57826126675760405163215ccc4760e11b815260048101869052602401610eb5565b848401868111156126da576126846101c08a016101a08b016147f0565b6001600160a01b0316818883037f7e71a5f6c04b0eb16949316623b9dda7bd103692f7d89678e2260afa1378a2d56126ba612321565b6040516001600160a01b03909116815260200160405180910390a4612746565b80871115612746576126f46101c08a016101a08b016147f0565b6001600160a01b0316818289037f6276f0169fb8de712b2a6c02789f6115136c589ed491ac06f9e20f41877e41fe61272a612321565b6040516001600160a01b03909116815260200160405180910390a45b80600a5f61275c6101c08d016101a08e016147f0565b6001600160a01b0316815260208101919091526040015f20555061281c565b83861461281c576127946101c089016101a08a016147f0565b6001600160a01b0316846127a8818961586e565b7f6276f0169fb8de712b2a6c02789f6115136c589ed491ac06f9e20f41877e41fe6127d1612321565b6040516001600160a01b03909116815260200160405180910390a483600a5f6128026101c08c016101a08d016147f0565b6001600160a01b0316815260208101919091526040015f20555b5050505050505050565b5f61282f612321565b9050836001600160a01b0316816001600160a01b0316141580156128fc5750604051631a45b42760e11b81526001600160a01b0382811660048301528581166024830152604482018590526064820184905260016084830181905260a48301527f0000000000000000000000000000000000000000000000000000000000000000169063348b684e9060c401602060405180830381865afa1580156128d6573d5f803e3d5ffd5b505050506040513d601f19601f820116820180604052508101906128fa9190614e6c565b155b15610f1f57604051631326f75560e11b81526001600160a01b038086166004830152821660248201526044810184905260648101839052608401610eb5565b806001600160a01b03167fe7784d93cfbfa4408e19577e6cc0436f4dbb51214b70e100905dfce9def88c1661296e612321565b6040516001600160a01b03909116815260200160405180910390a260405163036129cb60e61b81526001600160a01b0382811660048301527f0000000000000000000000000000000000000000000000000000000000000000169063d84a72c0906024015b5f604051808303815f87803b1580156129ea575f80fd5b505af1158015611bd8573d5f803e3d5ffd5b60405163c44a8e6d60e01b8152306004820152602481018390525f604482018190529081906001600160a01b037f0000000000000000000000000000000000000000000000000000000000000000169063c44a8e6d906064015f60405180830381865afa158015612a6f573d5f803e3d5ffd5b505050506040513d5f823e601f3d908101601f19168201604052612a9691908101906158ad565b9050612aa3858585613940565b91506001600160a01b03821615612b6a5780610160015115612b1b575f612acb600754612cd3565b90506001600160a01b03861615801590612afb5750612afb612af282610100015160f21c90565b60019081161490565b15612b19576040516330225eab60e11b815260040160405180910390fd5b505b5f848152600b60205260409020546001600160a01b0316612b6a575f848152600b60205260409020805473ffffffffffffffffffffffffffffffffffffffff19166001600160a01b0384161790555b80516040516330b157e560e21b815263ffffffff90911660048201526001600160a01b03838116602483015286811660448301527f0000000000000000000000000000000000000000000000000000000000000000169063c2c55f94906064015f604051808303815f87803b158015612be1575f80fd5b505af1158015612bf3573d5f803e3d5ffd5b50505050509392505050565b817f8ebf585439d8c6edc7dfa9c0e01fdbb1d4e68d9969dc5341ebd8bca5cd9a7bd482612c2a612321565b604080519283526001600160a01b0390911660208301520160405180910390a260405163284d148160e11b815260048101839052602481018290527f00000000000000000000000000000000000000000000000000000000000000006001600160a01b03169063509a2902906044015f604051808303815f87803b158015612cb0575f80fd5b505af11580156113f8573d5f803e3d5ffd5b612ccc8282613a3f565b5050600755565b60408051610120810182525f80825260208201819052818301819052606082018190526080820181905260a0820181905260c0820181905260e0820181905261010082015290516321d1336160e11b8152600481018390526001600160a01b037f000000000000000000000000000000000000000000000000000000000000000016906343a266c29060240161012060405180830381865afa158015612d7b573d5f803e3d5ffd5b505050506040513d601f19601f82011682018060405250810190610a6f9190615a1d565b6001600160a01b038216612dc857604051633250574960e11b81525f6004820152602401610eb5565b5f612dd483835f6129fc565b90506001600160a01b03811615610f5e576040516339e3563760e11b81525f6004820152602401610eb5565b604080516060810182525f546001600160a01b0381168252600160a01b81046001600160581b031660208301819052600160f81b90910460ff16928201929092529061193b9015612ee55760208201516040516331a9108f60e11b81526001600160581b0390911660048201527f00000000000000000000000000000000000000000000000000000000000000006001600160a01b031690636352211e90602401602060405180830381865afa158015612ebc573d5f803e3d5ffd5b505050506040513d601f19601f82011682018060405250810190612ee09190615212565b612ee8565b81515b82602001516001600160581b0316836040015160ff16612826565b6001600160581b03811615801590612f2357506001600160a01b03821615155b15612f415760405163f854950960e01b815260040160405180910390fd5b604080516060810182525f80546001600160a01b0381168352600160a01b81046001600160581b031660208401819052600160f81b90910460ff16938301939093529091156130245760208201516040516331a9108f60e11b81526001600160581b0390911660048201527f00000000000000000000000000000000000000000000000000000000000000006001600160a01b031690636352211e90602401602060405180830381865afa158015612ffb573d5f803e3d5ffd5b505050506040513d601f19601f8201168201806040525081019061301f9190615212565b613027565b81515b604080516060810182526001600160a01b0387168082526001600160581b038716602083018190525f9290930182905281546001600160f81b03191617600160a01b909202919091176001600160f81b031690559050610f1f818585613a58565b6001600160a01b0382166130ba57604051630b61174360e31b81526001600160a01b0383166004820152602401610eb5565b6001600160a01b038381165f81815260066020908152604080832094871680845294825291829020805460ff191686151590811790915591519182527f17307eab39ab6107e8899845ad3d59bd9653f200f220920489ca2b5937696c3191015b60405180910390a3505050565b6001600160a01b0383163b15610f1f57826001600160a01b031663150b7a0261314e612321565b8685856040518563ffffffff1660e01b81526004016131709493929190615acc565b6020604051808303815f875af19250505080156131aa575060408051601f3d908101601f191682019092526131a791810190615b07565b60015b613211573d8080156131d7576040519150601f19603f3d011682016040523d82523d5f602084013e6131dc565b606091505b5080515f0361320957604051633250574960e11b81526001600160a01b0385166004820152602401610eb5565b805181602001fd5b6001600160e01b03198116630a85bd0160e11b14611bd857604051633250574960e11b81526001600160a01b0385166004820152602401610eb5565b5f80546001600160f81b0316600160f81b60ff841690810291909117909155604080519182523360208301527f3a02c735461e3ddd7b1f6ccb1620101cec0d5c7ef32a2eb50b1b02a4191d8207910160405180910390a150565b5f606060258351116132ca57505060408051602081019091525f80825290613440565b5f836132d860046020615b22565b815181106132e8576132e861522d565b0160209081015160f81c91505b5f85613302600484615b22565b815181106133125761331261522d565b01602001516001600160f81b031916148015906133385750613335602083615b35565b81105b1561343d575f8561334a600484615b22565b8151811061335a5761335a61522d565b016020908101518784019091015160f89190911c91506001600160e01b031980891690821603613433575f613390602086615b35565b61339b600986615b22565b1015806133d05750876133af600986615b22565b815181106133bf576133bf61522d565b01602001516001600160f81b031916155b613409576020886133e2600987615b22565b815181106133f2576133f261522d565b0160200151613404919060f81c615b35565b61340c565b87515b905060016134258961341f602087615b35565b84613b3c565b965096505050505050613440565b50506005016132f5565b50505b9250929050565b5f6134535f835f6129fc565b90506001600160a01b038116610b3e57604051637e27328960e01b815260048101839052602401610eb5565b6040516386bc2be360e01b81526001600160a01b037f000000000000000000000000000000000000000000000000000000000000000016906386bc2be3906129d390849060040161498c565b604051609160f51b6020820152602281018290526060905f9060420160405160208183030381529060405290505f61350282613b81565b90508481604051602001613517929190615b4c565b6040516020818303038152906040529250505092915050565b5f6001600160e01b031982166380ac58cd60e01b148061356057506001600160e01b03198216635b5e139f60e01b145b80610a6f57506301ffc9a760e01b6001600160e01b0319831614610a6f565b5f366014336001600160a01b037f0000000000000000000000000000000000000000000000000000000000000000161480156135bb5750808210155b156135ea575f366135cc838561586e565b6135d7928290615b7a565b6135e091615ba1565b60601c9250505090565b339250505090565b808061360657506001600160a01b03821615155b156136e5575f613615846122e9565b90506001600160a01b038316158015906136415750826001600160a01b0316816001600160a01b031614155b801561367257506001600160a01b038082165f9081526006602090815260408083209387168352929052205460ff16155b1561369b5760405163a9fbf51f60e01b81526001600160a01b0384166004820152602401610eb5565b81156136e35783856001600160a01b0316826001600160a01b03167f8c5be1e5ebec7d5bd14f71427d1e84f3dd0314c0f7b2291e5b200ac8c7c3b92560405160405180910390a45b505b50505f908152600560205260409020805473ffffffffffffffffffffffffffffffffffffffff19166001600160a01b0392909216919091179055565b5f80805f19858709858702925082811083820303915050805f036137585783828161374e5761374e615bd6565b04925050506111f8565b83811061378957604051630c740aef60e31b8152600481018790526024810186905260448101859052606401610eb5565b5f8486880960026001871981018816978890046003810283188082028403028082028403028082028403028082028403028082028403029081029092039091025f889003889004909101858311909403939093029303949094049190911702949350505050565b5f60607f00000000000000000000000000000000000000000000000000000000000000006001600160a01b031663eaa19ab386865f6040518463ffffffff1660e01b815260040161384393929190615bea565b5f604051808303815f875af115801561385e573d5f803e3d5ffd5b505050506040513d5f823e601f3d908101601f1916820160405261388591908101906152c0565b925090505f5b8151811015613937575f8282815181106138a7576138a761522d565b60200260200101519050846001600160a01b03168683815181106138cd576138cd61522d565b602002602001015161ffff16827f598baf7bf150ca2f42be9e9f8f55e81d45f5715c3ff22bf46d697fabec7f31d68a613904612321565b604080519283526001600160a01b0390911660208301520160405180910390a461392e8582612d9f565b5060010161388b565b50509392505050565b5f828152600360205260408120546001600160a01b039081169083161561396c5761396c818486613d11565b6001600160a01b038116156139a6576139875f855f806135f2565b6001600160a01b0381165f90815260046020526040902080545f190190555b6001600160a01b038516156139d4576001600160a01b0385165f908152600460205260409020805460010190555b5f84815260036020526040808220805473ffffffffffffffffffffffffffffffffffffffff19166001600160a01b0389811691821790925591518793918516917fddf252ad1be2c89b69c2b068fc378daa952ba7f163c4a11628f55a4df523b3ef91a4949350505050565b6001613a4b8382614fab565b506002610f5e8282614fab565b6001600160581b03811615613afb576040516331a9108f60e11b81526001600160581b03821660048201527f00000000000000000000000000000000000000000000000000000000000000006001600160a01b031690636352211e90602401602060405180830381865afa158015613ad2573d5f803e3d5ffd5b505050506040513d601f19601f82011682018060405250810190613af69190615212565b613afd565b815b6040513381526001600160a01b03918216918516907fc8894f26f396ce8c004245c8b7cd1b92103a6e4302fcbab883987149ac01b7ec9060200161311a565b6060828203604051915060208183010160405280825250826020850101602082015f5b84811015613b77578281015182820152602001613b5f565b5050509392505050565b606081515f03613b9e575050604080515f81526020810190915290565b60408051602e8082526105e082019092525f91602082016105c0803683370190505090505f815f81518110613bd557613bd561522d565b60ff9092166020928302919091019091015282516001905f5b81811015613ced575f868281518110613c0957613c0961522d565b016020015160f81c90505f5b8460ff16811015613c92576008868281518110613c3457613c3461522d565b602002602001015160ff16901b82613c4c9190615b22565b9150613c59603a83615c47565b868281518110613c6b57613c6b61522d565b60ff90921660209283029190910190910152613c88603a83615c5a565b9150600101613c15565b505b8015613ce457613ca5603a82615c47565b858560ff1681518110613cba57613cba61522d565b60ff90921660209283029190910190910152600190930192613cdd603a82615c5a565b9050613c94565b50600101613bee565b50613d08613d03613cfe8585613d75565b613e13565b613eb4565b95945050505050565b613d1c838383613f8b565b610f5e576001600160a01b038316613d4a57604051637e27328960e01b815260048101829052602401610eb5565b60405163177e802f60e01b81526001600160a01b038316600482015260248101829052604401610eb5565b60605f8260ff1667ffffffffffffffff811115613d9457613d946142b9565b604051908082528060200260200182016040528015613dbd578160200160208202803683370190505b5090505f5b8360ff1681101561160357848181518110613ddf57613ddf61522d565b6020026020010151828281518110613df957613df961522d565b60ff90921660209283029190910190910152600101613dc2565b80516060905f8167ffffffffffffffff811115613e3257613e326142b9565b604051908082528060200260200182016040528015613e5b578160200160208202803683370190505b5090505f5b8281101561160357848160018751030381518110613e8057613e8061522d565b6020026020010151828281518110613e9a57613e9a61522d565b60ff90921660209283029190910190910152600101613e60565b80516060905f8167ffffffffffffffff811115613ed357613ed36142b9565b6040519080825280601f01601f191660200182016040528015613efd576020820181803683370190505b5090505f5b82811015611603576040518060600160405280603a8152602001615c6e603a9139858281518110613f3557613f3561522d565b602002602001015160ff1681518110613f5057613f5061522d565b602001015160f81c60f81b828281518110613f6d57613f6d61522d565b60200101906001600160f81b03191690815f1a905350600101613f02565b5f6001600160a01b038316158015906140065750826001600160a01b0316846001600160a01b03161480613fe357506001600160a01b038085165f9081526006602090815260408083209387168352929052205460ff165b8061400657505f828152600560205260409020546001600160a01b038481169116145b949350505050565b6001600160e01b03198116811461193b575f80fd5b5f60208284031215614033575f80fd5b81356111f88161400e565b5f5b83811015614058578181015183820152602001614040565b50505f910152565b5f815180845261407781602086016020860161403e565b601f01601f19169290920160200192915050565b602081525f6111f86020830184614060565b5f602082840312156140ad575f80fd5b5035919050565b6001600160a01b038116811461193b575f80fd5b80356140d3816140b4565b919050565b5f80604083850312156140e9575f80fd5b82356140f4816140b4565b946020939093013593505050565b5f6102008284031215614113575f80fd5b50919050565b5f60208284031215614129575f80fd5b813567ffffffffffffffff81111561413f575f80fd5b61400684828501614102565b5f8083601f84011261415b575f80fd5b50813567ffffffffffffffff811115614172575f80fd5b602083019150836020828501011115613440575f80fd5b5f805f805f805f60a0888a03121561419f575f80fd5b873567ffffffffffffffff808211156141b6575f80fd5b6141c28b838c0161414b565b909950975060208a01359150808211156141da575f80fd5b506141e78a828b0161414b565b90965094505060408801356141fb816140b4565b969995985093969295946060840135945060809093013592915050565b5f6101a08284031215614113575f80fd5b5f60208284031215614239575f80fd5b813567ffffffffffffffff81111561424f575f80fd5b61400684828501614218565b5f805f6060848603121561426d575f80fd5b8335614278816140b4565b92506020840135614288816140b4565b929592945050506040919091013590565b5f80604083850312156142aa575f80fd5b50508035926020909101359150565b634e487b7160e01b5f52604160045260245ffd5b6040516080810167ffffffffffffffff811182821017156142f0576142f06142b9565b60405290565b6040516101c0810167ffffffffffffffff811182821017156142f0576142f06142b9565b604051610120810167ffffffffffffffff811182821017156142f0576142f06142b9565b6040516101e0810167ffffffffffffffff811182821017156142f0576142f06142b9565b604051601f8201601f1916810167ffffffffffffffff8111828210171561438b5761438b6142b9565b604052919050565b5f67ffffffffffffffff8211156143ac576143ac6142b9565b50601f01601f191660200190565b5f6143cc6143c784614393565b614362565b90508281528383830111156143df575f80fd5b828260208301375f602084830101529392505050565b5f82601f830112614404575f80fd5b6111f8838335602085016143ba565b5f67ffffffffffffffff82111561442c5761442c6142b9565b5060051b60200190565b6cffffffffffffffffffffffffff8116811461193b575f80fd5b80356140d381614436565b63ffffffff8116811461193b575f80fd5b80356140d38161445b565b61ffff8116811461193b575f80fd5b80356140d381614477565b62ffffff8116811461193b575f80fd5b80356140d381614491565b60ff8116811461193b575f80fd5b80356140d3816144ac565b801515811461193b575f80fd5b80356140d3816144c5565b5f60808083850312156144ee575f80fd5b6144f66142cd565b9150823567ffffffffffffffff81111561450e575f80fd5b8301601f8101851361451e575f80fd5b8035602061452e6143c783614413565b8281526101c0928302840182019282820191908985111561454d575f80fd5b948301945b848610156146625780868b031215614568575f80fd5b6145706142f6565b61457987614450565b815261458685880161446c565b85820152604061459781890161446c565b9082015260606145a8888201614486565b908201526145b78789016140c8565b8189015260a0878101359082015260c06145d28189016144a1565b9082015260e06145e38882016144ba565b908201526101006145f58882016144d2565b908201526101206146078882016144d2565b908201526101406146198882016144d2565b9082015261016061462b8882016144d2565b9082015261018061463d8882016144d2565b908201526101a061464f8882016144d2565b9082015283529485019491830191614552565b5086525061467186820161446c565b8186015250505050614685604083016144ba565b6040820152614696606083016140c8565b606082015292915050565b5f608082840312156146b1575f80fd5b6146b96142cd565b905081356146c6816144c5565b815260208201356146d6816144c5565b602082015260408201356146e9816144c5565b60408201526060820135614696816144c5565b5f805f805f805f80610160898b031215614714575f80fd5b88359750602089013567ffffffffffffffff80821115614732575f80fd5b61473e8c838d016143f5565b985060408b0135915080821115614753575f80fd5b61475f8c838d016143f5565b975060608b0135915080821115614774575f80fd5b6147808c838d016143f5565b965061478e60808c016140c8565b955060a08b01359150808211156147a3575f80fd5b6147af8c838d016143f5565b945060c08b01359150808211156147c4575f80fd5b506147d18b828c016144dd565b9250506147e18a60e08b016146a1565b90509295985092959890939650565b5f60208284031215614800575f80fd5b81356111f8816140b4565b5f806040838503121561481c575f80fd5b823567ffffffffffffffff80821115614833575f80fd5b818501915085601f830112614846575f80fd5b813560206148566143c783614413565b82815260059290921b84018101918181019089841115614874575f80fd5b948201945b8386101561489257853582529482019490820190614879565b965050860135925050808211156148a7575f80fd5b506148b485828601614218565b9150509250929050565b5f8083601f8401126148ce575f80fd5b50813567ffffffffffffffff8111156148e5575f80fd5b6020830191508360208260051b8501011115613440575f80fd5b5f805f60408486031215614911575f80fd5b833567ffffffffffffffff811115614927575f80fd5b614933868287016148be565b9094509250506020840135614947816140b4565b809150509250925092565b5f815180845260208085019450602084015f5b8381101561498157815187529582019590820190600101614965565b509495945050505050565b602081525f6111f86020830184614952565b5f602082840312156149ae575f80fd5b813567ffffffffffffffff8111156149c4575f80fd5b820161018081850312156111f8575f80fd5b5f604080830185845260206040818601528186518084526060935060608701915060608160051b8801018389015f5b83811015614a5557898303605f19018552815180516001600160a01b031684528681015187850152880151888401889052614a4288850182614060565b9587019593505090850190600101614a05565b50909a9950505050505050505050565b65ffffffffffff8116811461193b575f80fd5b80356140d381614a65565b6dffffffffffffffffffffffffffff8116811461193b575f80fd5b80356140d381614a83565b5f805f838503610160811215614abd575f80fd5b8435935061012080601f1983011215614ad4575f80fd5b614adc61431a565b9150614aea60208701614a78565b8252614af860408701614a78565b6020830152614b0960608701614a78565b6040830152614b1a60808701614a78565b6060830152614b2b60a0870161446c565b6080830152614b3c60c08701614a9e565b60a0830152614b4d60e0870161446c565b60c0830152610100614b608188016140c8565b60e084015290860135908201529150614b7c61014085016140c8565b90509250925092565b5f8083601f840112614b95575f80fd5b50813567ffffffffffffffff811115614bac575f80fd5b6020830191508360208260061b8501011115613440575f80fd5b5f8060208385031215614bd7575f80fd5b823567ffffffffffffffff811115614bed575f80fd5b614bf985828601614b85565b90969095509350505050565b5f8060408385031215614c16575f80fd5b8235614c21816140b4565b91506020830135614c31816144c5565b809150509250929050565b5f805f8060808587031215614c4f575f80fd5b8435614c5a816140b4565b93506020850135614c6a816140b4565b925060408501359150606085013567ffffffffffffffff811115614c8c575f80fd5b8501601f81018713614c9c575f80fd5b614cab878235602084016143ba565b91505092959194509250565b5f60208284031215614cc7575f80fd5b81356111f8816144ac565b5f805f8060408587031215614ce5575f80fd5b843567ffffffffffffffff80821115614cfc575f80fd5b818701915087601f830112614d0f575f80fd5b813581811115614d1d575f80fd5b8860206101c083028501011115614d32575f80fd5b602092830196509450908601359080821115614d4c575f80fd5b50614d59878288016148be565b95989497509550505050565b5f8060408385031215614d76575f80fd5b8235614d81816140b4565b91506020830135614c31816140b4565b5f6080820186835260208681850152604086604086015260606080606087015283875180865260a08801915060a08160051b89010195508489015f5b82811015614e1d57898803609f19018452815180516001600160a01b0316895287810151888a0152860151868901869052614e0a868a0182614060565b9850509286019290860190600101614dcd565b50959c9b505050505050505050505050565b600181811c90821680614e4357607f821691505b60208210810361411357634e487b7160e01b5f52602260045260245ffd5b80516140d3816144c5565b5f60208284031215614e7c575f80fd5b81516111f8816144c5565b601f821115610f5e57805f5260205f20601f840160051c81016020851015614eac5750805b601f840160051c820191505b81811015611bd8575f8155600101614eb8565b67ffffffffffffffff831115614ee357614ee36142b9565b614ef783614ef18354614e2f565b83614e87565b5f601f841160018114614f28575f8515614f115750838201355b5f19600387901b1c1916600186901b178355611bd8565b5f83815260208120601f198716915b82811015614f575786850135825560209485019460019092019101614f37565b5086821015614f73575f1960f88860031b161c19848701351681555b505060018560011b0183555050505050565b818382375f9101908152919050565b5f60208284031215614fa4575f80fd5b5051919050565b815167ffffffffffffffff811115614fc557614fc56142b9565b614fd981614fd38454614e2f565b84614e87565b602080601f83116001811461500c575f8415614ff55750858301515b5f19600386901b1c1916600185901b1785556113f8565b5f85815260208120601f198616915b8281101561503a5788860151825594840194600190910190840161501b565b508582101561505757878501515f19600388901b60f8161c191681555b5050505050600190811b01905550565b602080825282518282018190525f919060409081850190868401855b8281101561516157815180516cffffffffffffffffffffffffff1685528681015163ffffffff9081168887015286820151168686015260608082015161ffff16908601526080808201516001600160a01b03169086015260a0808201519086015260c08082015162ffffff169086015260e08082015160ff169086015261010080820151151590860152610120808201511515908601526101408082015115159086015261016080820151151590860152610180808201511515908601526101a0908101511515908501526101c09093019290850190600101615083565b5091979650505050505050565b5f82601f83011261517d575f80fd5b8151602061518d6143c783614413565b8083825260208201915060208460051b8701019350868411156151ae575f80fd5b602086015b848110156151ca57805183529183019183016151b3565b509695505050505050565b5f602082840312156151e5575f80fd5b815167ffffffffffffffff8111156151fb575f80fd5b6140068482850161516e565b80516140d3816140b4565b5f60208284031215615222575f80fd5b81516111f8816140b4565b634e487b7160e01b5f52603260045260245ffd5b6001600160a01b0383168152604060208201525f6140066040830184614952565b848152606060208083018290529082018490525f90859060808401835b878110156152a857833561529281614477565b61ffff168252928201929082019060010161527f565b50809350505050821515604083015295945050505050565b5f80604083850312156152d1575f80fd5b825167ffffffffffffffff8111156152e7575f80fd5b6152f38582860161516e565b925050602083015190509250929050565b5f60208284031215615314575f80fd5b81356111f881614477565b5f6040828403121561532f575f80fd5b6040516040810181811067ffffffffffffffff82111715615352576153526142b9565b60405290508082356153638161445b565b8152602083013561537381614477565b6020919091015292915050565b5f60408284031215615390575f80fd5b6111f8838361531f565b5f808335601e198436030181126153af575f80fd5b83018035915067ffffffffffffffff8211156153c9575f80fd5b602001915036819003821315613440575f80fd5b5f82601f8301126153ec575f80fd5b81516153fa6143c782614393565b81815284602083860101111561540e575f80fd5b61400682602083016020870161403e565b5f6020828403121561542f575f80fd5b815167ffffffffffffffff811115615445575f80fd5b614006848285016153dd565b602081528160208201525f7f07ffffffffffffffffffffffffffffffffffffffffffffffffffffffffffffff831115615488575f80fd5b8260051b80856040850137919091016040019392505050565b6154c1826154ae83614450565b6cffffffffffffffffffffffffff169052565b6154cd6020820161446c565b63ffffffff1660208301526154e46040820161446c565b63ffffffff1660408301526154fb60608201614486565b61ffff166060830152615510608082016140c8565b6001600160a01b0316608083015260a0818101359083015261553460c082016144a1565b62ffffff1660c083015261554a60e082016144ba565b60ff1660e08301526101006155608282016144d2565b1515908301526101206155748282016144d2565b1515908301526101406155888282016144d2565b15159083015261016061559c8282016144d2565b1515908301526101806155b08282016144d2565b1515908301526101a06155c48282016144d2565b80151584830152610f1f565b602080825281018290525f8360408301825b85811015615608576155f482846154a1565b6101c09283019291909101906001016155e2565b5095945050505050565b6101e0810161562182856154a1565b6001600160a01b0383166101c08301529392505050565b5f60208284031215615648575f80fd5b81356111f88161445b565b634e487b7160e01b5f52601160045260245ffd5b600181815b808511156156a157815f190482111561568757615687615653565b8085161561569457918102915b93841c939080029061566c565b509250929050565b5f826156b757506001610a6f565b816156c357505f610a6f565b81600181146156d957600281146156e3576156ff565b6001915050610a6f565b60ff8411156156f4576156f4615653565b50506001821b610a6f565b5060208310610133831016604e8410600b8410161715615722575081810a610a6f565b61572c8383615667565b805f190482111561573f5761573f615653565b029392505050565b5f6111f883836156a9565b5f60808284031215615762575f80fd5b61576a6142cd565b8251615775816144c5565b81526020830151615785816144c5565b60208201526040830151615798816144c5565b604082015260608301516157ab816144c5565b60608201529392505050565b80516140d381614477565b5f80604083850312156157d3575f80fd5b82516157de816144c5565b8092505060208084015167ffffffffffffffff8111156157fc575f80fd5b8401601f8101861361580c575f80fd5b805161581a6143c782614413565b81815260059190911b82018301908381019088831115615838575f80fd5b928401925b8284101561585f57835161585081614477565b8252928401929084019061583d565b80955050505050509250929050565b81810381811115610a6f57610a6f615653565b80516140d38161445b565b80516140d381614436565b80516140d381614491565b80516140d3816144ac565b5f602082840312156158bd575f80fd5b815167ffffffffffffffff808211156158d4575f80fd5b908301906101e082860312156158e8575f80fd5b6158f061433e565b6158f983615881565b81526159076020840161588c565b602082015261591860408401615881565b604082015261592960608401615881565b606082015261593a6080840161588c565b608082015261594b60a084016157b7565b60a082015261595c60c08401615207565b60c082015260e083015160e0820152610100615979818501615897565b9082015261012061598b8482016158a2565b9082015261014061599d848201614e61565b908201526101606159af848201614e61565b908201526101806159c1848201614e61565b908201526101a06159d3848201614e61565b908201526101c083810151838111156159ea575f80fd5b6159f6888287016153dd565b918301919091525095945050505050565b80516140d381614a65565b80516140d381614a83565b5f6101208284031215615a2e575f80fd5b615a3661431a565b615a3f83615a07565b8152615a4d60208401615a07565b6020820152615a5e60408401615a07565b6040820152615a6f60608401615a07565b6060820152615a8060808401615881565b6080820152615a9160a08401615a12565b60a0820152615aa260c08401615881565b60c0820152615ab360e08401615207565b60e0820152610100928301519281019290925250919050565b5f6001600160a01b03808716835280861660208401525083604083015260806060830152615afd6080830184614060565b9695505050505050565b5f60208284031215615b17575f80fd5b81516111f88161400e565b80820180821115610a6f57610a6f615653565b8082028115828204841417610a6f57610a6f615653565b5f8351615b5d81846020880161403e565b835190830190615b7181836020880161403e565b01949350505050565b5f8085851115615b88575f80fd5b83861115615b94575f80fd5b5050820193919092039150565b6bffffffffffffffffffffffff198135818116916014851015615bce5780818660140360031b1b83161692505b505092915050565b634e487b7160e01b5f52601260045260245ffd5b5f606082018583526020606060208501528186518084526080860191506020880193505f5b81811015615c2f57845161ffff1683529383019391830191600101615c0f565b50508093505050508215156040830152949350505050565b5f82615c5557615c55615bd6565b500690565b5f82615c6857615c68615bd6565b50049056fe31323334353637383941424344454647484a4b4c4d4e505152535455565758595a6162636465666768696a6b6d6e6f707172737475767778797aa264697066735822122076d030af360f4362e199cdd46610e0631a4723fc4c5957f873d3cba72c78bf3b64736f6c63430008170033",
	"deployedBytecode": "0x608060405260043610610303575f3560e01c80637da0a87711610191578063c22903b2116100dc578063e8a3d48511610087578063f2fde38b11610062578063f2fde38b146109ca578063f434c914146109e9578063fb82b1b014610a1c575f80fd5b8063e8a3d4851461093c578063e985e9c514610950578063edab09b914610997575f80fd5b8063d102134c116100b7578063d102134c146108bf578063d4a1b4b1146108de578063d95c9ae214610911575f80fd5b8063c22903b21461086e578063c87b56dd14610881578063cf7f4936146108a0575f80fd5b80639c2c6a021161013c578063b88d4fde11610117578063b88d4fde146107c5578063ba23c36e146107e4578063c0fb5e851461084f575f80fd5b80639c2c6a0214610768578063a220d69614610787578063a22cb465146107a6575f80fd5b80638da5cb5b1161016c5780638da5cb5b1461071e57806395d89b411461073257806399f6d77f14610746575f80fd5b80637da0a8771461068c57806388bc2ef3146106be5780638cc35846146106f1575f80fd5b8063462e3af8116102515780636352211e116101fc5780636c0360eb116101d75780636c0360eb1461064557806370a0823114610659578063715018a614610678575f80fd5b80636352211e146105db57806369f72970146105fa5780636ac6d94114610619575f80fd5b806356539f391161022c57806356539f391461055b578063572b6c0514610570578063613b856d146105bc575f80fd5b8063462e3af8146104ea578063507f14651461050957806354c6d1f51461053c575f80fd5b80631435aad5116102b15780632483d6b51161028c5780632483d6b514610479578063293c49991461049857806342842e0e146104cb575f80fd5b80631435aad51461040e5780631da1da721461042d57806323b872dd1461045a575f80fd5b806308786b1a116102e157806308786b1a14610393578063095ea7b3146103da5780631337f986146103fb575f80fd5b806301ffc9a71461030757806306fdde031461033b578063081812fc1461035c575b5f80fd5b348015610312575f80fd5b50610326610321366004614023565b610a4b565b60405190151581526020015b60405180910390f35b348015610346575f80fd5b5061034f610a75565b604051610332919061408b565b348015610367575f80fd5b5061037b61037636600461409d565b610b05565b6040516001600160a01b039091168152602001610332565b34801561039e575f80fd5b50600c5463ffffffff811690602081901c60ff169060281c6040805193845260208401929092526001600160a01b031690820152606001610332565b3480156103e5575f80fd5b506103f96103f43660046140d8565b610b2c565b005b6103f9610409366004614119565b610b42565b348015610419575f80fd5b506103f9610428366004614189565b610c13565b348015610438575f80fd5b5061044c610447366004614229565b610e07565b604051908152602001610332565b348015610465575f80fd5b506103f961047436600461425b565b610e90565b348015610484575f80fd5b506103f9610493366004614299565b610f25565b3480156104a3575f80fd5b5061037b7f000000000000000000000000885f707efa18d2cb12f05a3a8eba6b4b26c8c1d481565b3480156104d6575f80fd5b506103f96104e536600461425b565b610f44565b3480156104f5575f80fd5b506103f96105043660046146fc565b610f63565b348015610514575f80fd5b5061037b7f0000000000000000000000002bc696b0af74042b30b2687ab5817cc824eba8ee81565b348015610547575f80fd5b5061037b61055636600461409d565b6111bd565b348015610566575f80fd5b5061044c60075481565b34801561057b575f80fd5b5061032661058a3660046147f0565b7f000000000000000000000000c29d6995ab3b0df4650ad643adeac55e7acbb5666001600160a01b0390811691161490565b3480156105c7575f80fd5b506103f96105d6366004614299565b6111ff565b3480156105e6575f80fd5b5061037b6105f536600461409d565b611400565b348015610605575f80fd5b5061044c61061436600461480b565b61140a565b348015610624575f80fd5b506106386106333660046148ff565b611499565b604051610332919061498c565b348015610650575f80fd5b5061034f61160b565b348015610664575f80fd5b5061044c6106733660046147f0565b611697565b348015610683575f80fd5b506103f96116ef565b348015610697575f80fd5b507f000000000000000000000000c29d6995ab3b0df4650ad643adeac55e7acbb56661037b565b3480156106c9575f80fd5b5061037b7f0000000000000000000000000061e516886a0540f63157f112c0588ee0651dcf81565b3480156106fc575f80fd5b5061071061070b36600461499e565b611703565b6040516103329291906149d6565b348015610729575f80fd5b5061037b6117a6565b34801561073d575f80fd5b5061034f611890565b348015610751575f80fd5b50610326610760366004614aa9565b5f9392505050565b348015610773575f80fd5b506103f9610782366004614bc6565b61189f565b348015610792575f80fd5b506103f96107a136600461409d565b6118f8565b3480156107b1575f80fd5b506103f96107c0366004614c05565b61193e565b3480156107d0575f80fd5b506103f96107df366004614c3c565b611950565b3480156107ef575f80fd5b505f5461081f906001600160a01b03811690600160a01b81046001600160581b031690600160f81b900460ff1683565b604080516001600160a01b0390941684526001600160581b03909216602084015260ff1690820152606001610332565b34801561085a575f80fd5b506103f9610869366004614cb7565b611967565b6103f961087c366004614119565b611978565b34801561088c575f80fd5b5061034f61089b36600461409d565b611bdf565b3480156108ab575f80fd5b506103f96108ba366004614bc6565b611e09565b3480156108ca575f80fd5b506103f96108d9366004614cd2565b611e6d565b3480156108e9575f80fd5b5061037b7f000000000000000000000000d4257005ca8d27bbe11f356453b0e4692414b05681565b34801561091c575f80fd5b5061044c61092b3660046147f0565b600a6020525f908152604090205481565b348015610947575f80fd5b5061034f612092565b34801561095b575f80fd5b5061032661096a366004614d65565b6001600160a01b039182165f90815260066020908152604080832093909416825291909152205460ff1690565b3480156109a2575f80fd5b5061037b7f000000000000000000000000749ac9c5ef5ef41f402c70a5bc460c5a1d8eb25b81565b3480156109d5575f80fd5b506103f96109e43660046147f0565b61209f565b3480156109f4575f80fd5b5061037b7f00000000000000000000000004fd6913d6c32d8c216e153a43c04b1857a7793d81565b348015610a27575f80fd5b50610a3b610a36366004614229565b6120d8565b6040516103329493929190614d91565b5f6001600160e01b03198216637aa81e7b60e01b1480610a6f5750610a6f82612259565b92915050565b606060018054610a8490614e2f565b80601f0160208091040260200160405190810160405280929190818152602001828054610ab090614e2f565b8015610afb5780601f10610ad257610100808354040283529160200191610afb565b820191905f5260205f20905b815481529060010190602001808311610ade57829003601f168201915b5050505050905090565b5f610b0f826122e9565b505f828152600560205260409020546001600160a01b0316610a6f565b610b3e8282610b39612321565b61232f565b5050565b60075434151580610bdd5750604051636e49181f60e01b8152600481018290523360248201527f0000000000000000000000000061e516886a0540f63157f112c0588ee0651dcf6001600160a01b031690636e49181f90604401602060405180830381865afa158015610bb7573d5f803e3d5ffd5b505050506040513d601f19601f82011682018060405250810190610bdb9190614e6c565b155b80610bec575080826020013514155b15610c0a57604051633fb648ad60e11b815260040160405180910390fd5b610b3e8261233c565b610c28610c1e6117a6565b6007546015612826565b8515610c99576008610c3b878983614ecb565b508686604051610c4c929190614f85565b60405180910390207f7bc9110d5de090dd59e07912d2b93a5a27ac70a60c8d8e324db4f9ee8b8b5c13610c7d612321565b6040516001600160a01b03909116815260200160405180910390a25b8315610d0a576009610cac858783614ecb565b508484604051610cbd929190614f85565b60405180910390207fd36dc0c1a06103fdcaf15f3f6fb797d1a97997514c78de073640c8b5005454b8610cee612321565b6040516001600160a01b03909116815260200160405180910390a25b6001600160a01b0383163014610d2357610d238361293b565b8115801590610d3157508015155b15610dfe57817f677da4fed654db8e604791fa2582f342e2001aa217e27f6985eb3e0f67e5a7fc82610d61612321565b604080519283526001600160a01b0390911660208301520160405180910390a26040516324de8d6360e11b815260048101839052602481018290527f0000000000000000000000002bc696b0af74042b30b2687ab5817cc824eba8ee6001600160a01b0316906349bd1ac6906044015f604051808303815f87803b158015610de7575f80fd5b505af1158015610df9573d5f803e3d5ffd5b505050505b50505050505050565b6040516349e6fb6760e01b81523060048201525f907f0000000000000000000000002bc696b0af74042b30b2687ab5817cc824eba8ee6001600160a01b0316906349e6fb67906024015b602060405180830381865afa158015610e6c573d5f803e3d5ffd5b505050506040513d601f19601f82011682018060405250810190610a6f9190614f94565b6001600160a01b038216610ebe57604051633250574960e11b81525f60048201526024015b60405180910390fd5b5f610ed18383610ecc612321565b6129fc565b9050836001600160a01b0316816001600160a01b031614610f1f576040516364283d7b60e01b81526001600160a01b0380861660048301526024820184905282166044820152606401610eb5565b50505050565b610f3a610f306117a6565b6007546017612826565b610b3e8282612bff565b610f5e83838360405180602001604052805f815250611950565b505050565b60075415610f8a57600754604051639889eb1160e01b8152600401610eb591815260200190565b875f03610faa57604051630ea59fc560e21b815260040160405180910390fd5b610fb5888888612cc2565b6020808301516040840151606085015178ffffffffffffffffffffffffffffffffffffffff000000000060289190911b1664ff000000009190931b1663ffffffff9091161717600c8190558551156110155760086110138782614fab565b505b83511561102a5760096110288582614fab565b505b6001600160a01b03851615611042576110428561293b565b825151156110db578251604051631f1d05ad60e01b81526001600160a01b037f0000000000000000000000002bc696b0af74042b30b2687ab5817cc824eba8ee1691631f1d05ad916110979190600401615067565b5f604051808303815f875af11580156110b2573d5f803e3d5ffd5b505050506040513d5f823e601f3d908101601f191682016040526110d991908101906151d5565b505b8151806110e9575081602001515b806110f5575081604001515b80611101575081606001515b156111a257604080516365c13f1960e11b815283511515600482015260208401511515602482015290830151151560448201526060830151151560648201527f0000000000000000000000002bc696b0af74042b30b2687ab5817cc824eba8ee6001600160a01b03169063cb827e32906084015f604051808303815f87803b15801561118b575f80fd5b505af115801561119d573d5f803e3d5ffd5b505050505b6111b26111ad612321565b6120ce565b505050505050505050565b5f818152600b60205260408120546001600160a01b031680156111e05792915050565b5f838152600360205260409020546001600160a01b03165b9392505050565b5f61120b600754612cd3565b905061122a61121f82610100015160f21c90565b600190811c81161490565b156112485760405163b1f1d8cf60e01b815260040160405180910390fd5b604051635d53f40760e11b815260048101849052602481018390525f907f0000000000000000000000002bc696b0af74042b30b2687ab5817cc824eba8ee6001600160a01b03169063baa7e80e906044015f604051808303815f875af11580156112b4573d5f803e3d5ffd5b505050506040513d5f823e601f3d908101601f191682016040526112db91908101906151d5565b60405162d5cc0160e21b8152306004820152602481018690529091505f906001600160a01b037f0000000000000000000000002bc696b0af74042b30b2687ab5817cc824eba8ee1690630357300490604401602060405180830381865afa158015611348573d5f803e3d5ffd5b505050506040513d601f19601f8201168201806040525081019061136c9190615212565b90505f5b848110156113f8575f83828151811061138b5761138b61522d565b60200260200101519050826001600160a01b031687827f80dd2efbbc431cde0164d84d638e44ba6e7a3ca5d532ceef1bb4efcc0948325d6113ca612321565b6040516001600160a01b03909116815260200160405180910390a46113ef8382612d9f565b50600101611370565b505050505050565b5f610a6f826122e9565b604051639be748fb60e01b81525f906001600160a01b037f0000000000000000000000002bc696b0af74042b30b2687ab5817cc824eba8ee1690639be748fb9061145a9030908790600401615241565b602060405180830381865afa158015611475573d5f803e3d5ffd5b505050506040513d601f19601f820116820180604052508101906111f89190614f94565b60606114b06114a66117a6565b6007546016612826565b60405163eaa19ab360e01b81526001600160a01b037f0000000000000000000000002bc696b0af74042b30b2687ab5817cc824eba8ee169063eaa19ab390611504905f199088908890600190600401615262565b5f604051808303815f875af115801561151f573d5f803e3d5ffd5b505050506040513d5f823e601f3d908101601f1916820160405261154691908101906152c0565b5090505f5b83811015611603575f8282815181106115665761156661522d565b6020026020010151905061157a8482612d9f565b836001600160a01b03168686848181106115965761159661522d565b90506020020160208101906115ab9190615304565b61ffff16827f598baf7bf150ca2f42be9e9f8f55e81d45f5715c3ff22bf46d697fabec7f31d65f6115da612321565b604080519283526001600160a01b0390911660208301520160405180910390a45060010161154b565b509392505050565b6008805461161890614e2f565b80601f016020809104026020016040519081016040528092919081815260200182805461164490614e2f565b801561168f5780601f106116665761010080835404028352916020019161168f565b820191905f5260205f20905b81548152906001019060200180831161167257829003601f168201915b505050505081565b604051633de222bb60e21b81523060048201526001600160a01b0382811660248301525f917f0000000000000000000000002bc696b0af74042b30b2687ab5817cc824eba8ee9091169063f7888aec90604401610e51565b6116f7612e00565b6117015f80612f03565b565b6040805160018082528183019092526101208301359160609190816020015b60408051606080820183525f8083526020830152918101919091528152602001906001900390816117225790505090506040518060600160405280306001600160a01b031681526020015f815260200160405180602001604052805f815250815250815f815181106117965761179661522d565b6020026020010181905250915091565b604080516060810182525f80546001600160a01b0381168352600160a01b81046001600160581b031660208401819052600160f81b90910460ff16938301939093529182036117f55751919050565b60208101516040516331a9108f60e11b81526001600160581b0390911660048201527f000000000000000000000000885f707efa18d2cb12f05a3a8eba6b4b26c8c1d46001600160a01b031690636352211e90602401602060405180830381865afa158015611866573d5f803e3d5ffd5b505050506040513d601f19601f8201168201806040525081019061188a9190615212565b91505090565b606060028054610a8490614e2f565b5f5b81811015610f5e575f8383838181106118bc576118bc61522d565b9050604002018036038101906118d29190615380565b90506118ef815f015163ffffffff16826020015161ffff166111ff565b506001016118a1565b611900612e00565b80158061191357506001600160581b0381115b156119315760405163f854950960e01b815260040160405180910390fd5b61193b5f82612f03565b50565b610b3e611949612321565b8383613088565b61195b848484610e90565b610f1f84848484613127565b61196f612e00565b61193b8161324d565b60075434151580611a135750604051636e49181f60e01b8152600481018290523360248201527f0000000000000000000000000061e516886a0540f63157f112c0588ee0651dcf6001600160a01b031690636e49181f90604401602060405180830381865afa1580156119ed573d5f803e3d5ffd5b505050506040513d601f19601f82011682018060405250810190611a119190614e6c565b155b80611a22575080826020013514155b15611a40576040516394310b3d60e01b815260040160405180910390fd5b60408051808201909152600781526618d85cda13dd5d60ca1b6020909101525f80611af17f000000000000000000000000749ac9c5ef5ef41f402c70a5bc460c5a1d8eb25b60601b7f86b14ff4df1839d4c5ed01550f2540ea56ad3e3813c5cd226eeab5890c21e3bb18611ab86101e087018761539a565b8080601f0160208091040260200160405190810160405280939291908181526020018383808284375f920191909152506132a792505050565b9150915060608215611b145781806020019051810190611b1191906151d5565b90505b5f5b8151811015611bce575f828281518110611b3257611b3261522d565b60200260200101519050865f016020810190611b4e91906147f0565b6001600160a01b0316611b75825f908152600360205260409020546001600160a01b031690565b6001600160a01b031614611bbc5780611b9160208901896147f0565b604051630694678560e21b815260048101929092526001600160a01b03166024820152604401610eb5565b611bc581613447565b50600101611b16565b50611bd88161347f565b5050505050565b604051630fab094760e01b81523060048201526060905f906001600160a01b037f0000000000000000000000002bc696b0af74042b30b2687ab5817cc824eba8ee1690630fab094790602401602060405180830381865afa158015611c46573d5f803e3d5ffd5b505050506040513d601f19601f82011682018060405250810190611c6a9190615212565b90506001600160a01b03811615611cea57604051635e703e7160e01b8152306004820152602481018490526001600160a01b03821690635e703e71906044015f60405180830381865afa158015611cc3573d5f803e3d5ffd5b505050506040513d5f823e601f3d908101601f191682016040526111f8919081019061541f565b6111f860088054611cfa90614e2f565b80601f0160208091040260200160405190810160405280929190818152602001828054611d2690614e2f565b8015611d715780601f10611d4857610100808354040283529160200191611d71565b820191905f5260205f20905b815481529060010190602001808311611d5457829003601f168201915b5050604051630c8df17160e41b8152306004820152602481018990527f0000000000000000000000002bc696b0af74042b30b2687ab5817cc824eba8ee6001600160a01b0316935063c8df171092506044019050602060405180830381865afa158015611de0573d5f803e3d5ffd5b505050506040513d601f19601f82011682018060405250810190611e049190614f94565b6134cb565b611e14610f306117a6565b5f5b81811015610f5e575f838383818110611e3157611e3161522d565b905060400201803603810190611e479190615380565b9050611e64815f015163ffffffff16826020015161ffff16612bff565b50600101611e16565b611e82611e786117a6565b6007546014612826565b8015611f74575f5b81811015611ef757828282818110611ea457611ea461522d565b905060200201357f832d89d991be5351d793c20faf4b7dd44f8aa9ce39e3cb160c6317de6fbba729611ed4612321565b6040516001600160a01b03909116815260200160405180910390a2600101611e8a565b506040516320512ba160e01b81526001600160a01b037f0000000000000000000000002bc696b0af74042b30b2687ab5817cc824eba8ee16906320512ba190611f469085908590600401615451565b5f604051808303815f87803b158015611f5d575f80fd5b505af1158015611f6f573d5f803e3d5ffd5b505050505b8215610f1f57604051631f1d05ad60e01b81525f906001600160a01b037f0000000000000000000000002bc696b0af74042b30b2687ab5817cc824eba8ee1690631f1d05ad90611fca90889088906004016155d0565b5f604051808303815f875af1158015611fe5573d5f803e3d5ffd5b505050506040513d5f823e601f3d908101601f1916820160405261200c91908101906151d5565b90505f5b848110156113f85781818151811061202a5761202a61522d565b60200260200101517fcbda9c610cbf8b0b9941c465b20ff7e1fae572086b70ef65fa3d5e4bf3d0deaa8787848181106120655761206561522d565b90506101c00201612074612321565b604051612082929190615612565b60405180910390a2600101612010565b6009805461161890614e2f565b6120a7612e00565b6001600160a01b0381166120ce5760405163f854950960e01b815260040160405180910390fd5b61193b815f612f03565b5f808060606080850135156121005760405163096afe5960e41b815260040160405180910390fd5b60408051808201909152600781526618d85cda13dd5d60ca1b6020909101525f806121787f000000000000000000000000749ac9c5ef5ef41f402c70a5bc460c5a1d8eb25b60601b7f86b14ff4df1839d4c5ed01550f2540ea56ad3e3813c5cd226eeab5890c21e3bb18611ab86101808a018a61539a565b604080516001808252818301909252929450909250816020015b60408051606080820183525f8083526020830152918101919091528152602001906001900390816121925790505092506040518060600160405280306001600160a01b031681526020015f815260200160405180602001604052805f815250815250835f815181106122065761220661522d565b602002602001018190525060608215612230578180602001905181019061222d91906151d5565b90505b61223a818961140a565b955061224588610e07565b945087610160013596505050509193509193565b5f6001600160e01b03198216633344b87360e01b148061228957506001600160e01b0319821663eeb73e8960e01b145b806122a457506001600160e01b0319821663099bfcc360e11b145b806122bf57506001600160e01b0319821663611481d960e11b145b806122da57506001600160e01b0319821663152a902d60e11b145b80610a6f5750610a6f82613530565b5f818152600360205260408120546001600160a01b031680610a6f57604051637e27328960e01b815260048101849052602401610eb5565b5f61232a61357f565b905090565b610f5e83838360016135f2565b600c545f9063ffffffff81168061235960c0860160a08701615638565b63ffffffff16036123705760c0840135925061245d565b602882901c6001600160a01b03811615611bd85760ff602084901c1661245860c087013561239f83600a615747565b6007546001600160a01b03861690633be273fa906123c360c08d0160a08e01615638565b898d60600160200160208101906123da9190614cb7565b6040516001600160e01b031960e087901b168152600481019490945263ffffffff929092166024840152604483015260ff166064820152608401602060405180830381865afa15801561242f573d5f803e3d5ffd5b505050506040513d601f19601f820116820180604052508101906124539190614f94565b613721565b945050505b505f9050600a816124766101c086016101a087016147f0565b6001600160a01b0316815260208101919091526040015f90812054915082906124a76101c086016101a087016147f0565b6001600160a01b03166124bd60208701876147f0565b6001600160a01b0316036124d457908201906124d7565b50815b604051634228826f60e11b81523060048201525f907f0000000000000000000000002bc696b0af74042b30b2687ab5817cc824eba8ee6001600160a01b03169063845104de90602401608060405180830381865afa15801561253b573d5f803e3d5ffd5b505050506040513d601f19601f8201168201806040525081019061255f9190615752565b60609081015160408051808201909152600381526270617960e81b6020909101521591505f9081906125de907f000000000000000000000000749ac9c5ef5ef41f402c70a5bc460c5a1d8eb25b901b7fadc756803e4eb4ccfb136b73d5f72e3dc0d452d30ae1f4bc82af394c73ce711518611ab86101e08b018b61539a565b9150915081156126405760605f828060200190518101906125ff91906157c2565b9250905084801561260e575080155b15612617575f94505b81511561263d5761263a87836126356101c08e016101a08f016147f0565b6137f0565b96505b50505b841561277b57826126675760405163215ccc4760e11b815260048101869052602401610eb5565b848401868111156126da576126846101c08a016101a08b016147f0565b6001600160a01b0316818883037f7e71a5f6c04b0eb16949316623b9dda7bd103692f7d89678e2260afa1378a2d56126ba612321565b6040516001600160a01b03909116815260200160405180910390a4612746565b80871115612746576126f46101c08a016101a08b016147f0565b6001600160a01b0316818289037f6276f0169fb8de712b2a6c02789f6115136c589ed491ac06f9e20f41877e41fe61272a612321565b6040516001600160a01b03909116815260200160405180910390a45b80600a5f61275c6101c08d016101a08e016147f0565b6001600160a01b0316815260208101919091526040015f20555061281c565b83861461281c576127946101c089016101a08a016147f0565b6001600160a01b0316846127a8818961586e565b7f6276f0169fb8de712b2a6c02789f6115136c589ed491ac06f9e20f41877e41fe6127d1612321565b6040516001600160a01b03909116815260200160405180910390a483600a5f6128026101c08c016101a08d016147f0565b6001600160a01b0316815260208101919091526040015f20555b5050505050505050565b5f61282f612321565b9050836001600160a01b0316816001600160a01b0316141580156128fc5750604051631a45b42760e11b81526001600160a01b0382811660048301528581166024830152604482018590526064820184905260016084830181905260a48301527f00000000000000000000000004fd6913d6c32d8c216e153a43c04b1857a7793d169063348b684e9060c401602060405180830381865afa1580156128d6573d5f803e3d5ffd5b505050506040513d601f19601f820116820180604052508101906128fa9190614e6c565b155b15610f1f57604051631326f75560e11b81526001600160a01b038086166004830152821660248201526044810184905260648101839052608401610eb5565b806001600160a01b03167fe7784d93cfbfa4408e19577e6cc0436f4dbb51214b70e100905dfce9def88c1661296e612321565b6040516001600160a01b03909116815260200160405180910390a260405163036129cb60e61b81526001600160a01b0382811660048301527f0000000000000000000000002bc696b0af74042b30b2687ab5817cc824eba8ee169063d84a72c0906024015b5f604051808303815f87803b1580156129ea575f80fd5b505af1158015611bd8573d5f803e3d5ffd5b60405163c44a8e6d60e01b8152306004820152602481018390525f604482018190529081906001600160a01b037f0000000000000000000000002bc696b0af74042b30b2687ab5817cc824eba8ee169063c44a8e6d906064015f60405180830381865afa158015612a6f573d5f803e3d5ffd5b505050506040513d5f823e601f3d908101601f19168201604052612a9691908101906158ad565b9050612aa3858585613940565b91506001600160a01b03821615612b6a5780610160015115612b1b575f612acb600754612cd3565b90506001600160a01b03861615801590612afb5750612afb612af282610100015160f21c90565b60019081161490565b15612b19576040516330225eab60e11b815260040160405180910390fd5b505b5f848152600b60205260409020546001600160a01b0316612b6a575f848152600b60205260409020805473ffffffffffffffffffffffffffffffffffffffff19166001600160a01b0384161790555b80516040516330b157e560e21b815263ffffffff90911660048201526001600160a01b03838116602483015286811660448301527f0000000000000000000000002bc696b0af74042b30b2687ab5817cc824eba8ee169063c2c55f94906064015f604051808303815f87803b158015612be1575f80fd5b505af1158015612bf3573d5f803e3d5ffd5b50505050509392505050565b817f8ebf585439d8c6edc7dfa9c0e01fdbb1d4e68d9969dc5341ebd8bca5cd9a7bd482612c2a612321565b604080519283526001600160a01b0390911660208301520160405180910390a260405163284d148160e11b815260048101839052602481018290527f0000000000000000000000002bc696b0af74042b30b2687ab5817cc824eba8ee6001600160a01b03169063509a2902906044015f604051808303815f87803b158015612cb0575f80fd5b505af11580156113f8573d5f803e3d5ffd5b612ccc8282613a3f565b5050600755565b60408051610120810182525f80825260208201819052818301819052606082018190526080820181905260a0820181905260c0820181905260e0820181905261010082015290516321d1336160e11b8152600481018390526001600160a01b037f000000000000000000000000d4257005ca8d27bbe11f356453b0e4692414b05616906343a266c29060240161012060405180830381865afa158015612d7b573d5f803e3d5ffd5b505050506040513d601f19601f82011682018060405250810190610a6f9190615a1d565b6001600160a01b038216612dc857604051633250574960e11b81525f6004820152602401610eb5565b5f612dd483835f6129fc565b90506001600160a01b03811615610f5e576040516339e3563760e11b81525f6004820152602401610eb5565b604080516060810182525f546001600160a01b0381168252600160a01b81046001600160581b031660208301819052600160f81b90910460ff16928201929092529061193b9015612ee55760208201516040516331a9108f60e11b81526001600160581b0390911660048201527f000000000000000000000000885f707efa18d2cb12f05a3a8eba6b4b26c8c1d46001600160a01b031690636352211e90602401602060405180830381865afa158015612ebc573d5f803e3d5ffd5b505050506040513d601f19601f82011682018060405250810190612ee09190615212565b612ee8565b81515b82602001516001600160581b0316836040015160ff16612826565b6001600160581b03811615801590612f2357506001600160a01b03821615155b15612f415760405163f854950960e01b815260040160405180910390fd5b604080516060810182525f80546001600160a01b0381168352600160a01b81046001600160581b031660208401819052600160f81b90910460ff16938301939093529091156130245760208201516040516331a9108f60e11b81526001600160581b0390911660048201527f000000000000000000000000885f707efa18d2cb12f05a3a8eba6b4b26c8c1d46001600160a01b031690636352211e90602401602060405180830381865afa158015612ffb573d5f803e3d5ffd5b505050506040513d601f19601f8201168201806040525081019061301f9190615212565b613027565b81515b604080516060810182526001600160a01b0387168082526001600160581b038716602083018190525f9290930182905281546001600160f81b03191617600160a01b909202919091176001600160f81b031690559050610f1f818585613a58565b6001600160a01b0382166130ba57604051630b61174360e31b81526001600160a01b0383166004820152602401610eb5565b6001600160a01b038381165f81815260066020908152604080832094871680845294825291829020805460ff191686151590811790915591519182527f17307eab39ab6107e8899845ad3d59bd9653f200f220920489ca2b5937696c3191015b60405180910390a3505050565b6001600160a01b0383163b15610f1f57826001600160a01b031663150b7a0261314e612321565b8685856040518563ffffffff1660e01b81526004016131709493929190615acc565b6020604051808303815f875af19250505080156131aa575060408051601f3d908101601f191682019092526131a791810190615b07565b60015b613211573d8080156131d7576040519150601f19603f3d011682016040523d82523d5f602084013e6131dc565b606091505b5080515f0361320957604051633250574960e11b81526001600160a01b0385166004820152602401610eb5565b805181602001fd5b6001600160e01b03198116630a85bd0160e11b14611bd857604051633250574960e11b81526001600160a01b0385166004820152602401610eb5565b5f80546001600160f81b0316600160f81b60ff841690810291909117909155604080519182523360208301527f3a02c735461e3ddd7b1f6ccb1620101cec0d5c7ef32a2eb50b1b02a4191d8207910160405180910390a150565b5f606060258351116132ca57505060408051602081019091525f80825290613440565b5f836132d860046020615b22565b815181106132e8576132e861522d565b0160209081015160f81c91505b5f85613302600484615b22565b815181106133125761331261522d565b01602001516001600160f81b031916148015906133385750613335602083615b35565b81105b1561343d575f8561334a600484615b22565b8151811061335a5761335a61522d565b016020908101518784019091015160f89190911c91506001600160e01b031980891690821603613433575f613390602086615b35565b61339b600986615b22565b1015806133d05750876133af600986615b22565b815181106133bf576133bf61522d565b01602001516001600160f81b031916155b613409576020886133e2600987615b22565b815181106133f2576133f261522d565b0160200151613404919060f81c615b35565b61340c565b87515b905060016134258961341f602087615b35565b84613b3c565b965096505050505050613440565b50506005016132f5565b50505b9250929050565b5f6134535f835f6129fc565b90506001600160a01b038116610b3e57604051637e27328960e01b815260048101839052602401610eb5565b6040516386bc2be360e01b81526001600160a01b037f0000000000000000000000002bc696b0af74042b30b2687ab5817cc824eba8ee16906386bc2be3906129d390849060040161498c565b604051609160f51b6020820152602281018290526060905f9060420160405160208183030381529060405290505f61350282613b81565b90508481604051602001613517929190615b4c565b6040516020818303038152906040529250505092915050565b5f6001600160e01b031982166380ac58cd60e01b148061356057506001600160e01b03198216635b5e139f60e01b145b80610a6f57506301ffc9a760e01b6001600160e01b0319831614610a6f565b5f366014336001600160a01b037f000000000000000000000000c29d6995ab3b0df4650ad643adeac55e7acbb566161480156135bb5750808210155b156135ea575f366135cc838561586e565b6135d7928290615b7a565b6135e091615ba1565b60601c9250505090565b339250505090565b808061360657506001600160a01b03821615155b156136e5575f613615846122e9565b90506001600160a01b038316158015906136415750826001600160a01b0316816001600160a01b031614155b801561367257506001600160a01b038082165f9081526006602090815260408083209387168352929052205460ff16155b1561369b5760405163a9fbf51f60e01b81526001600160a01b0384166004820152602401610eb5565b81156136e35783856001600160a01b0316826001600160a01b03167f8c5be1e5ebec7d5bd14f71427d1e84f3dd0314c0f7b2291e5b200ac8c7c3b92560405160405180910390a45b505b50505f908152600560205260409020805473ffffffffffffffffffffffffffffffffffffffff19166001600160a01b0392909216919091179055565b5f80805f19858709858702925082811083820303915050805f036137585783828161374e5761374e615bd6565b04925050506111f8565b83811061378957604051630c740aef60e31b8152600481018790526024810186905260448101859052606401610eb5565b5f8486880960026001871981018816978890046003810283188082028403028082028403028082028403028082028403028082028403029081029092039091025f889003889004909101858311909403939093029303949094049190911702949350505050565b5f60607f0000000000000000000000002bc696b0af74042b30b2687ab5817cc824eba8ee6001600160a01b031663eaa19ab386865f6040518463ffffffff1660e01b815260040161384393929190615bea565b5f604051808303815f875af115801561385e573d5f803e3d5ffd5b505050506040513d5f823e601f3d908101601f1916820160405261388591908101906152c0565b925090505f5b8151811015613937575f8282815181106138a7576138a761522d565b60200260200101519050846001600160a01b03168683815181106138cd576138cd61522d565b602002602001015161ffff16827f598baf7bf150ca2f42be9e9f8f55e81d45f5715c3ff22bf46d697fabec7f31d68a613904612321565b604080519283526001600160a01b0390911660208301520160405180910390a461392e8582612d9f565b5060010161388b565b50509392505050565b5f828152600360205260408120546001600160a01b039081169083161561396c5761396c818486613d11565b6001600160a01b038116156139a6576139875f855f806135f2565b6001600160a01b0381165f90815260046020526040902080545f190190555b6001600160a01b038516156139d4576001600160a01b0385165f908152600460205260409020805460010190555b5f84815260036020526040808220805473ffffffffffffffffffffffffffffffffffffffff19166001600160a01b0389811691821790925591518793918516917fddf252ad1be2c89b69c2b068fc378daa952ba7f163c4a11628f55a4df523b3ef91a4949350505050565b6001613a4b8382614fab565b506002610f5e8282614fab565b6001600160581b03811615613afb576040516331a9108f60e11b81526001600160581b03821660048201527f000000000000000000000000885f707efa18d2cb12f05a3a8eba6b4b26c8c1d46001600160a01b031690636352211e90602401602060405180830381865afa158015613ad2573d5f803e3d5ffd5b505050506040513d601f19601f82011682018060405250810190613af69190615212565b613afd565b815b6040513381526001600160a01b03918216918516907fc8894f26f396ce8c004245c8b7cd1b92103a6e4302fcbab883987149ac01b7ec9060200161311a565b6060828203604051915060208183010160405280825250826020850101602082015f5b84811015613b77578281015182820152602001613b5f565b5050509392505050565b606081515f03613b9e575050604080515f81526020810190915290565b60408051602e8082526105e082019092525f91602082016105c0803683370190505090505f815f81518110613bd557613bd561522d565b60ff9092166020928302919091019091015282516001905f5b81811015613ced575f868281518110613c0957613c0961522d565b016020015160f81c90505f5b8460ff16811015613c92576008868281518110613c3457613c3461522d565b602002602001015160ff16901b82613c4c9190615b22565b9150613c59603a83615c47565b868281518110613c6b57613c6b61522d565b60ff90921660209283029190910190910152613c88603a83615c5a565b9150600101613c15565b505b8015613ce457613ca5603a82615c47565b858560ff1681518110613cba57613cba61522d565b60ff90921660209283029190910190910152600190930192613cdd603a82615c5a565b9050613c94565b50600101613bee565b50613d08613d03613cfe8585613d75565b613e13565b613eb4565b95945050505050565b613d1c838383613f8b565b610f5e576001600160a01b038316613d4a57604051637e27328960e01b815260048101829052602401610eb5565b60405163177e802f60e01b81526001600160a01b038316600482015260248101829052604401610eb5565b60605f8260ff1667ffffffffffffffff811115613d9457613d946142b9565b604051908082528060200260200182016040528015613dbd578160200160208202803683370190505b5090505f5b8360ff1681101561160357848181518110613ddf57613ddf61522d565b6020026020010151828281518110613df957613df961522d565b60ff90921660209283029190910190910152600101613dc2565b80516060905f8167ffffffffffffffff811115613e3257613e326142b9565b604051908082528060200260200182016040528015613e5b578160200160208202803683370190505b5090505f5b8281101561160357848160018751030381518110613e8057613e8061522d565b6020026020010151828281518110613e9a57613e9a61522d565b60ff90921660209283029190910190910152600101613e60565b80516060905f8167ffffffffffffffff811115613ed357613ed36142b9565b6040519080825280601f01601f191660200182016040528015613efd576020820181803683370190505b5090505f5b82811015611603576040518060600160405280603a8152602001615c6e603a9139858281518110613f3557613f3561522d565b602002602001015160ff1681518110613f5057613f5061522d565b602001015160f81c60f81b828281518110613f6d57613f6d61522d565b60200101906001600160f81b03191690815f1a905350600101613f02565b5f6001600160a01b038316158015906140065750826001600160a01b0316846001600160a01b03161480613fe357506001600160a01b038085165f9081526006602090815260408083209387168352929052205460ff165b8061400657505f828152600560205260409020546001600160a01b038481169116145b949350505050565b6001600160e01b03198116811461193b575f80fd5b5f60208284031215614033575f80fd5b81356111f88161400e565b5f5b83811015614058578181015183820152602001614040565b50505f910152565b5f815180845261407781602086016020860161403e565b601f01601f19169290920160200192915050565b602081525f6111f86020830184614060565b5f602082840312156140ad575f80fd5b5035919050565b6001600160a01b038116811461193b575f80fd5b80356140d3816140b4565b919050565b5f80604083850312156140e9575f80fd5b82356140f4816140b4565b946020939093013593505050565b5f6102008284031215614113575f80fd5b50919050565b5f60208284031215614129575f80fd5b813567ffffffffffffffff81111561413f575f80fd5b61400684828501614102565b5f8083601f84011261415b575f80fd5b50813567ffffffffffffffff811115614172575f80fd5b602083019150836020828501011115613440575f80fd5b5f805f805f805f60a0888a03121561419f575f80fd5b873567ffffffffffffffff808211156141b6575f80fd5b6141c28b838c0161414b565b909950975060208a01359150808211156141da575f80fd5b506141e78a828b0161414b565b90965094505060408801356141fb816140b4565b969995985093969295946060840135945060809093013592915050565b5f6101a08284031215614113575f80fd5b5f60208284031215614239575f80fd5b813567ffffffffffffffff81111561424f575f80fd5b61400684828501614218565b5f805f6060848603121561426d575f80fd5b8335614278816140b4565b92506020840135614288816140b4565b929592945050506040919091013590565b5f80604083850312156142aa575f80fd5b50508035926020909101359150565b634e487b7160e01b5f52604160045260245ffd5b6040516080810167ffffffffffffffff811182821017156142f0576142f06142b9565b60405290565b6040516101c0810167ffffffffffffffff811182821017156142f0576142f06142b9565b604051610120810167ffffffffffffffff811182821017156142f0576142f06142b9565b6040516101e0810167ffffffffffffffff811182821017156142f0576142f06142b9565b604051601f8201601f1916810167ffffffffffffffff8111828210171561438b5761438b6142b9565b604052919050565b5f67ffffffffffffffff8211156143ac576143ac6142b9565b50601f01601f191660200190565b5f6143cc6143c784614393565b614362565b90508281528383830111156143df575f80fd5b828260208301375f602084830101529392505050565b5f82601f830112614404575f80fd5b6111f8838335602085016143ba565b5f67ffffffffffffffff82111561442c5761442c6142b9565b5060051b60200190565b6cffffffffffffffffffffffffff8116811461193b575f80fd5b80356140d381614436565b63ffffffff8116811461193b575f80fd5b80356140d38161445b565b61ffff8116811461193b575f80fd5b80356140d381614477565b62ffffff8116811461193b575f80fd5b80356140d381614491565b60ff8116811461193b575f80fd5b80356140d3816144ac565b801515811461193b575f80fd5b80356140d3816144c5565b5f60808083850312156144ee575f80fd5b6144f66142cd565b9150823567ffffffffffffffff81111561450e575f80fd5b8301601f8101851361451e575f80fd5b8035602061452e6143c783614413565b8281526101c0928302840182019282820191908985111561454d575f80fd5b948301945b848610156146625780868b031215614568575f80fd5b6145706142f6565b61457987614450565b815261458685880161446c565b85820152604061459781890161446c565b9082015260606145a8888201614486565b908201526145b78789016140c8565b8189015260a0878101359082015260c06145d28189016144a1565b9082015260e06145e38882016144ba565b908201526101006145f58882016144d2565b908201526101206146078882016144d2565b908201526101406146198882016144d2565b9082015261016061462b8882016144d2565b9082015261018061463d8882016144d2565b908201526101a061464f8882016144d2565b9082015283529485019491830191614552565b5086525061467186820161446c565b8186015250505050614685604083016144ba565b6040820152614696606083016140c8565b606082015292915050565b5f608082840312156146b1575f80fd5b6146b96142cd565b905081356146c6816144c5565b815260208201356146d6816144c5565b602082015260408201356146e9816144c5565b60408201526060820135614696816144c5565b5f805f805f805f80610160898b031215614714575f80fd5b88359750602089013567ffffffffffffffff80821115614732575f80fd5b61473e8c838d016143f5565b985060408b0135915080821115614753575f80fd5b61475f8c838d016143f5565b975060608b0135915080821115614774575f80fd5b6147808c838d016143f5565b965061478e60808c016140c8565b955060a08b01359150808211156147a3575f80fd5b6147af8c838d016143f5565b945060c08b01359150808211156147c4575f80fd5b506147d18b828c016144dd565b9250506147e18a60e08b016146a1565b90509295985092959890939650565b5f60208284031215614800575f80fd5b81356111f8816140b4565b5f806040838503121561481c575f80fd5b823567ffffffffffffffff80821115614833575f80fd5b818501915085601f830112614846575f80fd5b813560206148566143c783614413565b82815260059290921b84018101918181019089841115614874575f80fd5b948201945b8386101561489257853582529482019490820190614879565b965050860135925050808211156148a7575f80fd5b506148b485828601614218565b9150509250929050565b5f8083601f8401126148ce575f80fd5b50813567ffffffffffffffff8111156148e5575f80fd5b6020830191508360208260051b8501011115613440575f80fd5b5f805f60408486031215614911575f80fd5b833567ffffffffffffffff811115614927575f80fd5b614933868287016148be565b9094509250506020840135614947816140b4565b809150509250925092565b5f815180845260208085019450602084015f5b8381101561498157815187529582019590820190600101614965565b509495945050505050565b602081525f6111f86020830184614952565b5f602082840312156149ae575f80fd5b813567ffffffffffffffff8111156149c4575f80fd5b820161018081850312156111f8575f80fd5b5f604080830185845260206040818601528186518084526060935060608701915060608160051b8801018389015f5b83811015614a5557898303605f19018552815180516001600160a01b031684528681015187850152880151888401889052614a4288850182614060565b9587019593505090850190600101614a05565b50909a9950505050505050505050565b65ffffffffffff8116811461193b575f80fd5b80356140d381614a65565b6dffffffffffffffffffffffffffff8116811461193b575f80fd5b80356140d381614a83565b5f805f838503610160811215614abd575f80fd5b8435935061012080601f1983011215614ad4575f80fd5b614adc61431a565b9150614aea60208701614a78565b8252614af860408701614a78565b6020830152614b0960608701614a78565b6040830152614b1a60808701614a78565b6060830152614b2b60a0870161446c565b6080830152614b3c60c08701614a9e565b60a0830152614b4d60e0870161446c565b60c0830152610100614b608188016140c8565b60e084015290860135908201529150614b7c61014085016140c8565b90509250925092565b5f8083601f840112614b95575f80fd5b50813567ffffffffffffffff811115614bac575f80fd5b6020830191508360208260061b8501011115613440575f80fd5b5f8060208385031215614bd7575f80fd5b823567ffffffffffffffff811115614bed575f80fd5b614bf985828601614b85565b90969095509350505050565b5f8060408385031215614c16575f80fd5b8235614c21816140b4565b91506020830135614c31816144c5565b809150509250929050565b5f805f8060808587031215614c4f575f80fd5b8435614c5a816140b4565b93506020850135614c6a816140b4565b925060408501359150606085013567ffffffffffffffff811115614c8c575f80fd5b8501601f81018713614c9c575f80fd5b614cab878235602084016143ba565b91505092959194509250565b5f60208284031215614cc7575f80fd5b81356111f8816144ac565b5f805f8060408587031215614ce5575f80fd5b843567ffffffffffffffff80821115614cfc575f80fd5b818701915087601f830112614d0f575f80fd5b813581811115614d1d575f80fd5b8860206101c083028501011115614d32575f80fd5b602092830196509450908601359080821115614d4c575f80fd5b50614d59878288016148be565b95989497509550505050565b5f8060408385031215614d76575f80fd5b8235614d81816140b4565b91506020830135614c31816140b4565b5f6080820186835260208681850152604086604086015260606080606087015283875180865260a08801915060a08160051b89010195508489015f5b82811015614e1d57898803609f19018452815180516001600160a01b0316895287810151888a0152860151868901869052614e0a868a0182614060565b9850509286019290860190600101614dcd565b50959c9b505050505050505050505050565b600181811c90821680614e4357607f821691505b60208210810361411357634e487b7160e01b5f52602260045260245ffd5b80516140d3816144c5565b5f60208284031215614e7c575f80fd5b81516111f8816144c5565b601f821115610f5e57805f5260205f20601f840160051c81016020851015614eac5750805b601f840160051c820191505b81811015611bd8575f8155600101614eb8565b67ffffffffffffffff831115614ee357614ee36142b9565b614ef783614ef18354614e2f565b83614e87565b5f601f841160018114614f28575f8515614f115750838201355b5f19600387901b1c1916600186901b178355611bd8565b5f83815260208120601f198716915b82811015614f575786850135825560209485019460019092019101614f37565b5086821015614f73575f1960f88860031b161c19848701351681555b505060018560011b0183555050505050565b818382375f9101908152919050565b5f60208284031215614fa4575f80fd5b5051919050565b815167ffffffffffffffff811115614fc557614fc56142b9565b614fd981614fd38454614e2f565b84614e87565b602080601f83116001811461500c575f8415614ff55750858301515b5f19600386901b1c1916600185901b1785556113f8565b5f85815260208120601f198616915b8281101561503a5788860151825594840194600190910190840161501b565b508582101561505757878501515f19600388901b60f8161c191681555b5050505050600190811b01905550565b602080825282518282018190525f919060409081850190868401855b8281101561516157815180516cffffffffffffffffffffffffff1685528681015163ffffffff9081168887015286820151168686015260608082015161ffff16908601526080808201516001600160a01b03169086015260a0808201519086015260c08082015162ffffff169086015260e08082015160ff169086015261010080820151151590860152610120808201511515908601526101408082015115159086015261016080820151151590860152610180808201511515908601526101a0908101511515908501526101c09093019290850190600101615083565b5091979650505050505050565b5f82601f83011261517d575f80fd5b8151602061518d6143c783614413565b8083825260208201915060208460051b8701019350868411156151ae575f80fd5b602086015b848110156151ca57805183529183019183016151b3565b509695505050505050565b5f602082840312156151e5575f80fd5b815167ffffffffffffffff8111156151fb575f80fd5b6140068482850161516e565b80516140d3816140b4565b5f60208284031215615222575f80fd5b81516111f8816140b4565b634e487b7160e01b5f52603260045260245ffd5b6001600160a01b0383168152604060208201525f6140066040830184614952565b848152606060208083018290529082018490525f90859060808401835b878110156152a857833561529281614477565b61ffff168252928201929082019060010161527f565b50809350505050821515604083015295945050505050565b5f80604083850312156152d1575f80fd5b825167ffffffffffffffff8111156152e7575f80fd5b6152f38582860161516e565b925050602083015190509250929050565b5f60208284031215615314575f80fd5b81356111f881614477565b5f6040828403121561532f575f80fd5b6040516040810181811067ffffffffffffffff82111715615352576153526142b9565b60405290508082356153638161445b565b8152602083013561537381614477565b6020919091015292915050565b5f60408284031215615390575f80fd5b6111f8838361531f565b5f808335601e198436030181126153af575f80fd5b83018035915067ffffffffffffffff8211156153c9575f80fd5b602001915036819003821315613440575f80fd5b5f82601f8301126153ec575f80fd5b81516153fa6143c782614393565b81815284602083860101111561540e575f80fd5b61400682602083016020870161403e565b5f6020828403121561542f575f80fd5b815167ffffffffffffffff811115615445575f80fd5b614006848285016153dd565b602081528160208201525f7f07ffffffffffffffffffffffffffffffffffffffffffffffffffffffffffffff831115615488575f80fd5b8260051b80856040850137919091016040019392505050565b6154c1826154ae83614450565b6cffffffffffffffffffffffffff169052565b6154cd6020820161446c565b63ffffffff1660208301526154e46040820161446c565b63ffffffff1660408301526154fb60608201614486565b61ffff166060830152615510608082016140c8565b6001600160a01b0316608083015260a0818101359083015261553460c082016144a1565b62ffffff1660c083015261554a60e082016144ba565b60ff1660e08301526101006155608282016144d2565b1515908301526101206155748282016144d2565b1515908301526101406155888282016144d2565b15159083015261016061559c8282016144d2565b1515908301526101806155b08282016144d2565b1515908301526101a06155c48282016144d2565b80151584830152610f1f565b602080825281018290525f8360408301825b85811015615608576155f482846154a1565b6101c09283019291909101906001016155e2565b5095945050505050565b6101e0810161562182856154a1565b6001600160a01b0383166101c08301529392505050565b5f60208284031215615648575f80fd5b81356111f88161445b565b634e487b7160e01b5f52601160045260245ffd5b600181815b808511156156a157815f190482111561568757615687615653565b8085161561569457918102915b93841c939080029061566c565b509250929050565b5f826156b757506001610a6f565b816156c357505f610a6f565b81600181146156d957600281146156e3576156ff565b6001915050610a6f565b60ff8411156156f4576156f4615653565b50506001821b610a6f565b5060208310610133831016604e8410600b8410161715615722575081810a610a6f565b61572c8383615667565b805f190482111561573f5761573f615653565b029392505050565b5f6111f883836156a9565b5f60808284031215615762575f80fd5b61576a6142cd565b8251615775816144c5565b81526020830151615785816144c5565b60208201526040830151615798816144c5565b604082015260608301516157ab816144c5565b60608201529392505050565b80516140d381614477565b5f80604083850312156157d3575f80fd5b82516157de816144c5565b8092505060208084015167ffffffffffffffff8111156157fc575f80fd5b8401601f8101861361580c575f80fd5b805161581a6143c782614413565b81815260059190911b82018301908381019088831115615838575f80fd5b928401925b8284101561585f57835161585081614477565b8252928401929084019061583d565b80955050505050509250929050565b81810381811115610a6f57610a6f615653565b80516140d38161445b565b80516140d381614436565b80516140d381614491565b80516140d3816144ac565b5f602082840312156158bd575f80fd5b815167ffffffffffffffff808211156158d4575f80fd5b908301906101e082860312156158e8575f80fd5b6158f061433e565b6158f983615881565b81526159076020840161588c565b602082015261591860408401615881565b604082015261592960608401615881565b606082015261593a6080840161588c565b608082015261594b60a084016157b7565b60a082015261595c60c08401615207565b60c082015260e083015160e0820152610100615979818501615897565b9082015261012061598b8482016158a2565b9082015261014061599d848201614e61565b908201526101606159af848201614e61565b908201526101806159c1848201614e61565b908201526101a06159d3848201614e61565b908201526101c083810151838111156159ea575f80fd5b6159f6888287016153dd565b918301919091525095945050505050565b80516140d381614a65565b80516140d381614a83565b5f6101208284031215615a2e575f80fd5b615a3661431a565b615a3f83615a07565b8152615a4d60208401615a07565b6020820152615a5e60408401615a07565b6040820152615a6f60608401615a07565b6060820152615a8060808401615881565b6080820152615a9160a08401615a12565b60a0820152615aa260c08401615881565b60c0820152615ab360e08401615207565b60e0820152610100928301519281019290925250919050565b5f6001600160a01b03808716835280861660208401525083604083015260806060830152615afd6080830184614060565b9695505050505050565b5f60208284031215615b17575f80fd5b81516111f88161400e565b80820180821115610a6f57610a6f615653565b8082028115828204841417610a6f57610a6f615653565b5f8351615b5d81846020880161403e565b835190830190615b7181836020880161403e565b01949350505050565b5f8085851115615b88575f80fd5b83861115615b94575f80fd5b5050820193919092039150565b6bffffffffffffffffffffffff198135818116916014851015615bce5780818660140360031b1b83161692505b505092915050565b634e487b7160e01b5f52601260045260245ffd5b5f606082018583526020606060208501528186518084526080860191506020880193505f5b81811015615c2f57845161ffff1683529383019391830191600101615c0f565b50508093505050508215156040830152949350505050565b5f82615c5557615c55615bd6565b500690565b5f82615c6857615c68615bd6565b50049056fe31323334353637383941424344454647484a4b4c4d4e505152535455565758595a6162636465666768696a6b6d6e6f707172737475767778797aa264697066735822122076d030af360f4362e199cdd46610e0631a4723fc4c5957f873d3cba72c78bf3b64736f6c63430008170033",
	"gitCommit": "76fb97f0dea8d06cf33d6836a80243606f3bb5df",
	"history": [
		{
			"format": "sphinx-sol-ct-artifact-1",
			"merkleRoot": "0x67860454993c605165008d5f511c7deea857487d819b99956c15c8cde5ab449e",
			"address": "0xe9485c121082d3beb57d6eac267b04a0f59d1760",
			"sourceName": "src/JB721TiersHook.sol",
			"contractName": "JB721TiersHook",
			"chainId": "0xaa36a7",
			"abi": [
				{
					"inputs": [
						{
							"internalType": "contract IJBDirectory",
							"name": "directory",
							"type": "address"
						},
						{
							"internalType": "contract IJBPermissions",
							"name": "permissions",
							"type": "address"
						},
						{
							"internalType": "contract IJBRulesets",
							"name": "rulesets",
							"type": "address"
						},
						{
							"internalType": "contract IJB721TiersHookStore",
							"name": "store",
							"type": "address"
						},
						{
							"internalType": "address",
							"name": "trustedForwarder",
							"type": "address"
						}
					],
					"stateMutability": "nonpayable",
					"type": "constructor"
				},
				{
					"inputs": [],
					"name": "DIRECTORY",
					"outputs": [
						{
							"internalType": "contract IJBDirectory",
							"name": "",
							"type": "address"
						}
					],
					"stateMutability": "view",
					"type": "function"
				},
				{
					"inputs": [],
					"name": "METADATA_ID_TARGET",
					"outputs": [
						{
							"internalType": "address",
							"name": "",
							"type": "address"
						}
					],
					"stateMutability": "view",
					"type": "function"
				},
				{
					"inputs": [],
					"name": "PERMISSIONS",
					"outputs": [
						{
							"internalType": "contract IJBPermissions",
							"name": "",
							"type": "address"
						}
					],
					"stateMutability": "view",
					"type": "function"
				},
				{
					"inputs": [],
					"name": "PROJECTS",
					"outputs": [
						{
							"internalType": "contract IJBProjects",
							"name": "",
							"type": "address"
						}
					],
					"stateMutability": "view",
					"type": "function"
				},
				{
					"inputs": [],
					"name": "PROJECT_ID",
					"outputs": [
						{
							"internalType": "uint256",
							"name": "",
							"type": "uint256"
						}
					],
					"stateMutability": "view",
					"type": "function"
				},
				{
					"inputs": [],
					"name": "RULESETS",
					"outputs": [
						{
							"internalType": "contract IJBRulesets",
							"name": "",
							"type": "address"
						}
					],
					"stateMutability": "view",
					"type": "function"
				},
				{
					"inputs": [],
					"name": "STORE",
					"outputs": [
						{
							"internalType": "contract IJB721TiersHookStore",
							"name": "",
							"type": "address"
						}
					],
					"stateMutability": "view",
					"type": "function"
				},
				{
					"inputs": [
						{
							"components": [
								{
									"internalType": "uint104",
									"name": "price",
									"type": "uint104"
								},
								{
									"internalType": "uint32",
									"name": "initialSupply",
									"type": "uint32"
								},
								{
									"internalType": "uint32",
									"name": "votingUnits",
									"type": "uint32"
								},
								{
									"internalType": "uint16",
									"name": "reserveFrequency",
									"type": "uint16"
								},
								{
									"internalType": "address",
									"name": "reserveBeneficiary",
									"type": "address"
								},
								{
									"internalType": "bytes32",
									"name": "encodedIPFSUri",
									"type": "bytes32"
								},
								{
									"internalType": "uint24",
									"name": "category",
									"type": "uint24"
								},
								{
									"internalType": "uint8",
									"name": "discountPercent",
									"type": "uint8"
								},
								{
									"internalType": "bool",
									"name": "allowOwnerMint",
									"type": "bool"
								},
								{
									"internalType": "bool",
									"name": "useReserveBeneficiaryAsDefault",
									"type": "bool"
								},
								{
									"internalType": "bool",
									"name": "transfersPausable",
									"type": "bool"
								},
								{
									"internalType": "bool",
									"name": "useVotingUnits",
									"type": "bool"
								},
								{
									"internalType": "bool",
									"name": "cannotBeRemoved",
									"type": "bool"
								},
								{
									"internalType": "bool",
									"name": "cannotIncreaseDiscountPercent",
									"type": "bool"
								}
							],
							"internalType": "struct JB721TierConfig[]",
							"name": "tiersToAdd",
							"type": "tuple[]"
						},
						{
							"internalType": "uint256[]",
							"name": "tierIdsToRemove",
							"type": "uint256[]"
						}
					],
					"name": "adjustTiers",
					"outputs": [],
					"stateMutability": "nonpayable",
					"type": "function"
				},
				{
					"inputs": [
						{
							"components": [
								{
									"internalType": "address",
									"name": "holder",
									"type": "address"
								},
								{
									"internalType": "uint256",
									"name": "projectId",
									"type": "uint256"
								},
								{
									"internalType": "uint256",
									"name": "rulesetId",
									"type": "uint256"
								},
								{
									"internalType": "uint256",
									"name": "cashOutCount",
									"type": "uint256"
								},
								{
									"components": [
										{
											"internalType": "address",
											"name": "token",
											"type": "address"
										},
										{
											"internalType": "uint8",
											"name": "decimals",
											"type": "uint8"
										},
										{
											"internalType": "uint32",
											"name": "currency",
											"type": "uint32"
										},
										{
											"internalType": "uint256",
											"name": "value",
											"type": "uint256"
										}
									],
									"internalType": "struct JBTokenAmount",
									"name": "reclaimedAmount",
									"type": "tuple"
								},
								{
									"components": [
										{
											"internalType": "address",
											"name": "token",
											"type": "address"
										},
										{
											"internalType": "uint8",
											"name": "decimals",
											"type": "uint8"
										},
										{
											"internalType": "uint32",
											"name": "currency",
											"type": "uint32"
										},
										{
											"internalType": "uint256",
											"name": "value",
											"type": "uint256"
										}
									],
									"internalType": "struct JBTokenAmount",
									"name": "forwardedAmount",
									"type": "tuple"
								},
								{
									"internalType": "uint256",
									"name": "cashOutTaxRate",
									"type": "uint256"
								},
								{
									"internalType": "address payable",
									"name": "beneficiary",
									"type": "address"
								},
								{
									"internalType": "bytes",
									"name": "hookMetadata",
									"type": "bytes"
								},
								{
									"internalType": "bytes",
									"name": "cashOutMetadata",
									"type": "bytes"
								}
							],
							"internalType": "struct JBAfterCashOutRecordedContext",
							"name": "context",
							"type": "tuple"
						}
					],
					"name": "afterCashOutRecordedWith",
					"outputs": [],
					"stateMutability": "payable",
					"type": "function"
				},
				{
					"inputs": [
						{
							"components": [
								{
									"internalType": "address",
									"name": "payer",
									"type": "address"
								},
								{
									"internalType": "uint256",
									"name": "projectId",
									"type": "uint256"
								},
								{
									"internalType": "uint256",
									"name": "rulesetId",
									"type": "uint256"
								},
								{
									"components": [
										{
											"internalType": "address",
											"name": "token",
											"type": "address"
										},
										{
											"internalType": "uint8",
											"name": "decimals",
											"type": "uint8"
										},
										{
											"internalType": "uint32",
											"name": "currency",
											"type": "uint32"
										},
										{
											"internalType": "uint256",
											"name": "value",
											"type": "uint256"
										}
									],
									"internalType": "struct JBTokenAmount",
									"name": "amount",
									"type": "tuple"
								},
								{
									"components": [
										{
											"internalType": "address",
											"name": "token",
											"type": "address"
										},
										{
											"internalType": "uint8",
											"name": "decimals",
											"type": "uint8"
										},
										{
											"internalType": "uint32",
											"name": "currency",
											"type": "uint32"
										},
										{
											"internalType": "uint256",
											"name": "value",
											"type": "uint256"
										}
									],
									"internalType": "struct JBTokenAmount",
									"name": "forwardedAmount",
									"type": "tuple"
								},
								{
									"internalType": "uint256",
									"name": "weight",
									"type": "uint256"
								},
								{
									"internalType": "uint256",
									"name": "newlyIssuedTokenCount",
									"type": "uint256"
								},
								{
									"internalType": "address",
									"name": "beneficiary",
									"type": "address"
								},
								{
									"internalType": "bytes",
									"name": "hookMetadata",
									"type": "bytes"
								},
								{
									"internalType": "bytes",
									"name": "payerMetadata",
									"type": "bytes"
								}
							],
							"internalType": "struct JBAfterPayRecordedContext",
							"name": "context",
							"type": "tuple"
						}
					],
					"name": "afterPayRecordedWith",
					"outputs": [],
					"stateMutability": "payable",
					"type": "function"
				},
				{
					"inputs": [
						{
							"internalType": "address",
							"name": "to",
							"type": "address"
						},
						{
							"internalType": "uint256",
							"name": "tokenId",
							"type": "uint256"
						}
					],
					"name": "approve",
					"outputs": [],
					"stateMutability": "nonpayable",
					"type": "function"
				},
				{
					"inputs": [
						{
							"internalType": "address",
							"name": "owner",
							"type": "address"
						}
					],
					"name": "balanceOf",
					"outputs": [
						{
							"internalType": "uint256",
							"name": "balance",
							"type": "uint256"
						}
					],
					"stateMutability": "view",
					"type": "function"
				},
				{
					"inputs": [],
					"name": "baseURI",
					"outputs": [
						{
							"internalType": "string",
							"name": "",
							"type": "string"
						}
					],
					"stateMutability": "view",
					"type": "function"
				},
				{
					"inputs": [
						{
							"components": [
								{
									"internalType": "address",
									"name": "terminal",
									"type": "address"
								},
								{
									"internalType": "address",
									"name": "holder",
									"type": "address"
								},
								{
									"internalType": "uint256",
									"name": "projectId",
									"type": "uint256"
								},
								{
									"internalType": "uint256",
									"name": "rulesetId",
									"type": "uint256"
								},
								{
									"internalType": "uint256",
									"name": "cashOutCount",
									"type": "uint256"
								},
								{
									"internalType": "uint256",
									"name": "totalSupply",
									"type": "uint256"
								},
								{
									"components": [
										{
											"internalType": "address",
											"name": "token",
											"type": "address"
										},
										{
											"internalType": "uint8",
											"name": "decimals",
											"type": "uint8"
										},
										{
											"internalType": "uint32",
											"name": "currency",
											"type": "uint32"
										},
										{
											"internalType": "uint256",
											"name": "value",
											"type": "uint256"
										}
									],
									"internalType": "struct JBTokenAmount",
									"name": "surplus",
									"type": "tuple"
								},
								{
									"internalType": "bool",
									"name": "useTotalSurplus",
									"type": "bool"
								},
								{
									"internalType": "uint256",
									"name": "cashOutTaxRate",
									"type": "uint256"
								},
								{
									"internalType": "bytes",
									"name": "metadata",
									"type": "bytes"
								}
							],
							"internalType": "struct JBBeforeCashOutRecordedContext",
							"name": "context",
							"type": "tuple"
						}
					],
					"name": "beforeCashOutRecordedWith",
					"outputs": [
						{
							"internalType": "uint256",
							"name": "cashOutTaxRate",
							"type": "uint256"
						},
						{
							"internalType": "uint256",
							"name": "cashOutCount",
							"type": "uint256"
						},
						{
							"internalType": "uint256",
							"name": "totalSupply",
							"type": "uint256"
						},
						{
							"components": [
								{
									"internalType": "contract IJBCashOutHook",
									"name": "hook",
									"type": "address"
								},
								{
									"internalType": "uint256",
									"name": "amount",
									"type": "uint256"
								},
								{
									"internalType": "bytes",
									"name": "metadata",
									"type": "bytes"
								}
							],
							"internalType": "struct JBCashOutHookSpecification[]",
							"name": "hookSpecifications",
							"type": "tuple[]"
						}
					],
					"stateMutability": "view",
					"type": "function"
				},
				{
					"inputs": [
						{
							"components": [
								{
									"internalType": "address",
									"name": "terminal",
									"type": "address"
								},
								{
									"internalType": "address",
									"name": "payer",
									"type": "address"
								},
								{
									"components": [
										{
											"internalType": "address",
											"name": "token",
											"type": "address"
										},
										{
											"internalType": "uint8",
											"name": "decimals",
											"type": "uint8"
										},
										{
											"internalType": "uint32",
											"name": "currency",
											"type": "uint32"
										},
										{
											"internalType": "uint256",
											"name": "value",
											"type": "uint256"
										}
									],
									"internalType": "struct JBTokenAmount",
									"name": "amount",
									"type": "tuple"
								},
								{
									"internalType": "uint256",
									"name": "projectId",
									"type": "uint256"
								},
								{
									"internalType": "uint256",
									"name": "rulesetId",
									"type": "uint256"
								},
								{
									"internalType": "address",
									"name": "beneficiary",
									"type": "address"
								},
								{
									"internalType": "uint256",
									"name": "weight",
									"type": "uint256"
								},
								{
									"internalType": "uint256",
									"name": "reservedPercent",
									"type": "uint256"
								},
								{
									"internalType": "bytes",
									"name": "metadata",
									"type": "bytes"
								}
							],
							"internalType": "struct JBBeforePayRecordedContext",
							"name": "context",
							"type": "tuple"
						}
					],
					"name": "beforePayRecordedWith",
					"outputs": [
						{
							"internalType": "uint256",
							"name": "weight",
							"type": "uint256"
						},
						{
							"components": [
								{
									"internalType": "contract IJBPayHook",
									"name": "hook",
									"type": "address"
								},
								{
									"internalType": "uint256",
									"name": "amount",
									"type": "uint256"
								},
								{
									"internalType": "bytes",
									"name": "metadata",
									"type": "bytes"
								}
							],
							"internalType": "struct JBPayHookSpecification[]",
							"name": "hookSpecifications",
							"type": "tuple[]"
						}
					],
					"stateMutability": "view",
					"type": "function"
				},
				{
					"inputs": [
						{
							"internalType": "uint256[]",
							"name": "tokenIds",
							"type": "uint256[]"
						},
						{
							"components": [
								{
									"internalType": "address",
									"name": "terminal",
									"type": "address"
								},
								{
									"internalType": "address",
									"name": "holder",
									"type": "address"
								},
								{
									"internalType": "uint256",
									"name": "projectId",
									"type": "uint256"
								},
								{
									"internalType": "uint256",
									"name": "rulesetId",
									"type": "uint256"
								},
								{
									"internalType": "uint256",
									"name": "cashOutCount",
									"type": "uint256"
								},
								{
									"internalType": "uint256",
									"name": "totalSupply",
									"type": "uint256"
								},
								{
									"components": [
										{
											"internalType": "address",
											"name": "token",
											"type": "address"
										},
										{
											"internalType": "uint8",
											"name": "decimals",
											"type": "uint8"
										},
										{
											"internalType": "uint32",
											"name": "currency",
											"type": "uint32"
										},
										{
											"internalType": "uint256",
											"name": "value",
											"type": "uint256"
										}
									],
									"internalType": "struct JBTokenAmount",
									"name": "surplus",
									"type": "tuple"
								},
								{
									"internalType": "bool",
									"name": "useTotalSurplus",
									"type": "bool"
								},
								{
									"internalType": "uint256",
									"name": "cashOutTaxRate",
									"type": "uint256"
								},
								{
									"internalType": "bytes",
									"name": "metadata",
									"type": "bytes"
								}
							],
							"internalType": "struct JBBeforeCashOutRecordedContext",
							"name": "",
							"type": "tuple"
						}
					],
					"name": "cashOutWeightOf",
					"outputs": [
						{
							"internalType": "uint256",
							"name": "",
							"type": "uint256"
						}
					],
					"stateMutability": "view",
					"type": "function"
				},
				{
					"inputs": [],
					"name": "contractURI",
					"outputs": [
						{
							"internalType": "string",
							"name": "",
							"type": "string"
						}
					],
					"stateMutability": "view",
					"type": "function"
				},
				{
					"inputs": [
						{
							"internalType": "uint256",
							"name": "tokenId",
							"type": "uint256"
						}
					],
					"name": "firstOwnerOf",
					"outputs": [
						{
							"internalType": "address",
							"name": "",
							"type": "address"
						}
					],
					"stateMutability": "view",
					"type": "function"
				},
				{
					"inputs": [
						{
							"internalType": "uint256",
							"name": "tokenId",
							"type": "uint256"
						}
					],
					"name": "getApproved",
					"outputs": [
						{
							"internalType": "address",
							"name": "",
							"type": "address"
						}
					],
					"stateMutability": "view",
					"type": "function"
				},
				{
					"inputs": [
						{
							"internalType": "uint256",
							"name": "",
							"type": "uint256"
						},
						{
							"components": [
								{
									"internalType": "uint48",
									"name": "cycleNumber",
									"type": "uint48"
								},
								{
									"internalType": "uint48",
									"name": "id",
									"type": "uint48"
								},
								{
									"internalType": "uint48",
									"name": "basedOnId",
									"type": "uint48"
								},
								{
									"internalType": "uint48",
									"name": "start",
									"type": "uint48"
								},
								{
									"internalType": "uint32",
									"name": "duration",
									"type": "uint32"
								},
								{
									"internalType": "uint112",
									"name": "weight",
									"type": "uint112"
								},
								{
									"internalType": "uint32",
									"name": "weightCutPercent",
									"type": "uint32"
								},
								{
									"internalType": "contract IJBRulesetApprovalHook",
									"name": "approvalHook",
									"type": "address"
								},
								{
									"internalType": "uint256",
									"name": "metadata",
									"type": "uint256"
								}
							],
							"internalType": "struct JBRuleset",
							"name": "",
							"type": "tuple"
						},
						{
							"internalType": "address",
							"name": "",
							"type": "address"
						}
					],
					"name": "hasMintPermissionFor",
					"outputs": [
						{
							"internalType": "bool",
							"name": "",
							"type": "bool"
						}
					],
					"stateMutability": "pure",
					"type": "function"
				},
				{
					"inputs": [
						{
							"internalType": "uint256",
							"name": "projectId",
							"type": "uint256"
						},
						{
							"internalType": "string",
							"name": "name",
							"type": "string"
						},
						{
							"internalType": "string",
							"name": "symbol",
							"type": "string"
						},
						{
							"internalType": "string",
							"name": "baseUri",
							"type": "string"
						},
						{
							"internalType": "contract IJB721TokenUriResolver",
							"name": "tokenUriResolver",
							"type": "address"
						},
						{
							"internalType": "string",
							"name": "contractUri",
							"type": "string"
						},
						{
							"components": [
								{
									"components": [
										{
											"internalType": "uint104",
											"name": "price",
											"type": "uint104"
										},
										{
											"internalType": "uint32",
											"name": "initialSupply",
											"type": "uint32"
										},
										{
											"internalType": "uint32",
											"name": "votingUnits",
											"type": "uint32"
										},
										{
											"internalType": "uint16",
											"name": "reserveFrequency",
											"type": "uint16"
										},
										{
											"internalType": "address",
											"name": "reserveBeneficiary",
											"type": "address"
										},
										{
											"internalType": "bytes32",
											"name": "encodedIPFSUri",
											"type": "bytes32"
										},
										{
											"internalType": "uint24",
											"name": "category",
											"type": "uint24"
										},
										{
											"internalType": "uint8",
											"name": "discountPercent",
											"type": "uint8"
										},
										{
											"internalType": "bool",
											"name": "allowOwnerMint",
											"type": "bool"
										},
										{
											"internalType": "bool",
											"name": "useReserveBeneficiaryAsDefault",
											"type": "bool"
										},
										{
											"internalType": "bool",
											"name": "transfersPausable",
											"type": "bool"
										},
										{
											"internalType": "bool",
											"name": "useVotingUnits",
											"type": "bool"
										},
										{
											"internalType": "bool",
											"name": "cannotBeRemoved",
											"type": "bool"
										},
										{
											"internalType": "bool",
											"name": "cannotIncreaseDiscountPercent",
											"type": "bool"
										}
									],
									"internalType": "struct JB721TierConfig[]",
									"name": "tiers",
									"type": "tuple[]"
								},
								{
									"internalType": "uint32",
									"name": "currency",
									"type": "uint32"
								},
								{
									"internalType": "uint8",
									"name": "decimals",
									"type": "uint8"
								},
								{
									"internalType": "contract IJBPrices",
									"name": "prices",
									"type": "address"
								}
							],
							"internalType": "struct JB721InitTiersConfig",
							"name": "tiersConfig",
							"type": "tuple"
						},
						{
							"components": [
								{
									"internalType": "bool",
									"name": "noNewTiersWithReserves",
									"type": "bool"
								},
								{
									"internalType": "bool",
									"name": "noNewTiersWithVotes",
									"type": "bool"
								},
								{
									"internalType": "bool",
									"name": "noNewTiersWithOwnerMinting",
									"type": "bool"
								},
								{
									"internalType": "bool",
									"name": "preventOverspending",
									"type": "bool"
								}
							],
							"internalType": "struct JB721TiersHookFlags",
							"name": "flags",
							"type": "tuple"
						}
					],
					"name": "initialize",
					"outputs": [],
					"stateMutability": "nonpayable",
					"type": "function"
				},
				{
					"inputs": [
						{
							"internalType": "address",
							"name": "owner",
							"type": "address"
						},
						{
							"internalType": "address",
							"name": "operator",
							"type": "address"
						}
					],
					"name": "isApprovedForAll",
					"outputs": [
						{
							"internalType": "bool",
							"name": "",
							"type": "bool"
						}
					],
					"stateMutability": "view",
					"type": "function"
				},
				{
					"inputs": [
						{
							"internalType": "address",
							"name": "forwarder",
							"type": "address"
						}
					],
					"name": "isTrustedForwarder",
					"outputs": [
						{
							"internalType": "bool",
							"name": "",
							"type": "bool"
						}
					],
					"stateMutability": "view",
					"type": "function"
				},
				{
					"inputs": [],
					"name": "jbOwner",
					"outputs": [
						{
							"internalType": "address",
							"name": "owner",
							"type": "address"
						},
						{
							"internalType": "uint88",
							"name": "projectId",
							"type": "uint88"
						},
						{
							"internalType": "uint8",
							"name": "permissionId",
							"type": "uint8"
						}
					],
					"stateMutability": "view",
					"type": "function"
				},
				{
					"inputs": [
						{
							"internalType": "uint16[]",
							"name": "tierIds",
							"type": "uint16[]"
						},
						{
							"internalType": "address",
							"name": "beneficiary",
							"type": "address"
						}
					],
					"name": "mintFor",
					"outputs": [
						{
							"internalType": "uint256[]",
							"name": "tokenIds",
							"type": "uint256[]"
						}
					],
					"stateMutability": "nonpayable",
					"type": "function"
				},
				{
					"inputs": [
						{
							"internalType": "uint256",
							"name": "tierId",
							"type": "uint256"
						},
						{
							"internalType": "uint256",
							"name": "count",
							"type": "uint256"
						}
					],
					"name": "mintPendingReservesFor",
					"outputs": [],
					"stateMutability": "nonpayable",
					"type": "function"
				},
				{
					"inputs": [
						{
							"components": [
								{
									"internalType": "uint32",
									"name": "tierId",
									"type": "uint32"
								},
								{
									"internalType": "uint16",
									"name": "count",
									"type": "uint16"
								}
							],
							"internalType": "struct JB721TiersMintReservesConfig[]",
							"name": "reserveMintConfigs",
							"type": "tuple[]"
						}
					],
					"name": "mintPendingReservesFor",
					"outputs": [],
					"stateMutability": "nonpayable",
					"type": "function"
				},
				{
					"inputs": [],
					"name": "name",
					"outputs": [
						{
							"internalType": "string",
							"name": "",
							"type": "string"
						}
					],
					"stateMutability": "view",
					"type": "function"
				},
				{
					"inputs": [],
					"name": "owner",
					"outputs": [
						{
							"internalType": "address",
							"name": "",
							"type": "address"
						}
					],
					"stateMutability": "view",
					"type": "function"
				},
				{
					"inputs": [
						{
							"internalType": "uint256",
							"name": "tokenId",
							"type": "uint256"
						}
					],
					"name": "ownerOf",
					"outputs": [
						{
							"internalType": "address",
							"name": "",
							"type": "address"
						}
					],
					"stateMutability": "view",
					"type": "function"
				},
				{
					"inputs": [
						{
							"internalType": "address",
							"name": "addr",
							"type": "address"
						}
					],
					"name": "payCreditsOf",
					"outputs": [
						{
							"internalType": "uint256",
							"name": "",
							"type": "uint256"
						}
					],
					"stateMutability": "view",
					"type": "function"
				},
				{
					"inputs": [],
					"name": "pricingContext",
					"outputs": [
						{
							"internalType": "uint256",
							"name": "currency",
							"type": "uint256"
						},
						{
							"internalType": "uint256",
							"name": "decimals",
							"type": "uint256"
						},
						{
							"internalType": "contract IJBPrices",
							"name": "prices",
							"type": "address"
						}
					],
					"stateMutability": "view",
					"type": "function"
				},
				{
					"inputs": [],
					"name": "renounceOwnership",
					"outputs": [],
					"stateMutability": "nonpayable",
					"type": "function"
				},
				{
					"inputs": [
						{
							"internalType": "address",
							"name": "from",
							"type": "address"
						},
						{
							"internalType": "address",
							"name": "to",
							"type": "address"
						},
						{
							"internalType": "uint256",
							"name": "tokenId",
							"type": "uint256"
						}
					],
					"name": "safeTransferFrom",
					"outputs": [],
					"stateMutability": "nonpayable",
					"type": "function"
				},
				{
					"inputs": [
						{
							"internalType": "address",
							"name": "from",
							"type": "address"
						},
						{
							"internalType": "address",
							"name": "to",
							"type": "address"
						},
						{
							"internalType": "uint256",
							"name": "tokenId",
							"type": "uint256"
						},
						{
							"internalType": "bytes",
							"name": "data",
							"type": "bytes"
						}
					],
					"name": "safeTransferFrom",
					"outputs": [],
					"stateMutability": "nonpayable",
					"type": "function"
				},
				{
					"inputs": [
						{
							"internalType": "address",
							"name": "operator",
							"type": "address"
						},
						{
							"internalType": "bool",
							"name": "approved",
							"type": "bool"
						}
					],
					"name": "setApprovalForAll",
					"outputs": [],
					"stateMutability": "nonpayable",
					"type": "function"
				},
				{
					"inputs": [
						{
							"internalType": "uint256",
							"name": "tierId",
							"type": "uint256"
						},
						{
							"internalType": "uint256",
							"name": "discountPercent",
							"type": "uint256"
						}
					],
					"name": "setDiscountPercentOf",
					"outputs": [],
					"stateMutability": "nonpayable",
					"type": "function"
				},
				{
					"inputs": [
						{
							"components": [
								{
									"internalType": "uint32",
									"name": "tierId",
									"type": "uint32"
								},
								{
									"internalType": "uint16",
									"name": "discountPercent",
									"type": "uint16"
								}
							],
							"internalType": "struct JB721TiersSetDiscountPercentConfig[]",
							"name": "configs",
							"type": "tuple[]"
						}
					],
					"name": "setDiscountPercentsOf",
					"outputs": [],
					"stateMutability": "nonpayable",
					"type": "function"
				},
				{
					"inputs": [
						{
							"internalType": "string",
							"name": "baseUri",
							"type": "string"
						},
						{
							"internalType": "string",
							"name": "contractUri",
							"type": "string"
						},
						{
							"internalType": "contract IJB721TokenUriResolver",
							"name": "tokenUriResolver",
							"type": "address"
						},
						{
							"internalType": "uint256",
							"name": "encodedIPFSTUriTierId",
							"type": "uint256"
						},
						{
							"internalType": "bytes32",
							"name": "encodedIPFSUri",
							"type": "bytes32"
						}
					],
					"name": "setMetadata",
					"outputs": [],
					"stateMutability": "nonpayable",
					"type": "function"
				},
				{
					"inputs": [
						{
							"internalType": "uint8",
							"name": "permissionId",
							"type": "uint8"
						}
					],
					"name": "setPermissionId",
					"outputs": [],
					"stateMutability": "nonpayable",
					"type": "function"
				},
				{
					"inputs": [
						{
							"internalType": "bytes4",
							"name": "interfaceId",
							"type": "bytes4"
						}
					],
					"name": "supportsInterface",
					"outputs": [
						{
							"internalType": "bool",
							"name": "",
							"type": "bool"
						}
					],
					"stateMutability": "view",
					"type": "function"
				},
				{
					"inputs": [],
					"name": "symbol",
					"outputs": [
						{
							"internalType": "string",
							"name": "",
							"type": "string"
						}
					],
					"stateMutability": "view",
					"type": "function"
				},
				{
					"inputs": [
						{
							"internalType": "uint256",
							"name": "tokenId",
							"type": "uint256"
						}
					],
					"name": "tokenURI",
					"outputs": [
						{
							"internalType": "string",
							"name": "",
							"type": "string"
						}
					],
					"stateMutability": "view",
					"type": "function"
				},
				{
					"inputs": [
						{
							"components": [
								{
									"internalType": "address",
									"name": "terminal",
									"type": "address"
								},
								{
									"internalType": "address",
									"name": "holder",
									"type": "address"
								},
								{
									"internalType": "uint256",
									"name": "projectId",
									"type": "uint256"
								},
								{
									"internalType": "uint256",
									"name": "rulesetId",
									"type": "uint256"
								},
								{
									"internalType": "uint256",
									"name": "cashOutCount",
									"type": "uint256"
								},
								{
									"internalType": "uint256",
									"name": "totalSupply",
									"type": "uint256"
								},
								{
									"components": [
										{
											"internalType": "address",
											"name": "token",
											"type": "address"
										},
										{
											"internalType": "uint8",
											"name": "decimals",
											"type": "uint8"
										},
										{
											"internalType": "uint32",
											"name": "currency",
											"type": "uint32"
										},
										{
											"internalType": "uint256",
											"name": "value",
											"type": "uint256"
										}
									],
									"internalType": "struct JBTokenAmount",
									"name": "surplus",
									"type": "tuple"
								},
								{
									"internalType": "bool",
									"name": "useTotalSurplus",
									"type": "bool"
								},
								{
									"internalType": "uint256",
									"name": "cashOutTaxRate",
									"type": "uint256"
								},
								{
									"internalType": "bytes",
									"name": "metadata",
									"type": "bytes"
								}
							],
							"internalType": "struct JBBeforeCashOutRecordedContext",
							"name": "",
							"type": "tuple"
						}
					],
					"name": "totalCashOutWeight",
					"outputs": [
						{
							"internalType": "uint256",
							"name": "",
							"type": "uint256"
						}
					],
					"stateMutability": "view",
					"type": "function"
				},
				{
					"inputs": [
						{
							"internalType": "address",
							"name": "from",
							"type": "address"
						},
						{
							"internalType": "address",
							"name": "to",
							"type": "address"
						},
						{
							"internalType": "uint256",
							"name": "tokenId",
							"type": "uint256"
						}
					],
					"name": "transferFrom",
					"outputs": [],
					"stateMutability": "nonpayable",
					"type": "function"
				},
				{
					"inputs": [
						{
							"internalType": "address",
							"name": "newOwner",
							"type": "address"
						}
					],
					"name": "transferOwnership",
					"outputs": [],
					"stateMutability": "nonpayable",
					"type": "function"
				},
				{
					"inputs": [
						{
							"internalType": "uint256",
							"name": "projectId",
							"type": "uint256"
						}
					],
					"name": "transferOwnershipToProject",
					"outputs": [],
					"stateMutability": "nonpayable",
					"type": "function"
				},
				{
					"inputs": [],
					"name": "trustedForwarder",
					"outputs": [
						{
							"internalType": "address",
							"name": "",
							"type": "address"
						}
					],
					"stateMutability": "view",
					"type": "function"
				},
				{
					"anonymous": false,
					"inputs": [
						{
							"indexed": true,
							"internalType": "uint256",
							"name": "amount",
							"type": "uint256"
						},
						{
							"indexed": true,
							"internalType": "uint256",
							"name": "newTotalCredits",
							"type": "uint256"
						},
						{
							"indexed": true,
							"internalType": "address",
							"name": "account",
							"type": "address"
						},
						{
							"indexed": false,
							"internalType": "address",
							"name": "caller",
							"type": "address"
						}
					],
					"name": "AddPayCredits",
					"type": "event"
				},
				{
					"anonymous": false,
					"inputs": [
						{
							"indexed": true,
							"internalType": "uint256",
							"name": "tierId",
							"type": "uint256"
						},
						{
							"components": [
								{
									"internalType": "uint104",
									"name": "price",
									"type": "uint104"
								},
								{
									"internalType": "uint32",
									"name": "initialSupply",
									"type": "uint32"
								},
								{
									"internalType": "uint32",
									"name": "votingUnits",
									"type": "uint32"
								},
								{
									"internalType": "uint16",
									"name": "reserveFrequency",
									"type": "uint16"
								},
								{
									"internalType": "address",
									"name": "reserveBeneficiary",
									"type": "address"
								},
								{
									"internalType": "bytes32",
									"name": "encodedIPFSUri",
									"type": "bytes32"
								},
								{
									"internalType": "uint24",
									"name": "category",
									"type": "uint24"
								},
								{
									"internalType": "uint8",
									"name": "discountPercent",
									"type": "uint8"
								},
								{
									"internalType": "bool",
									"name": "allowOwnerMint",
									"type": "bool"
								},
								{
									"internalType": "bool",
									"name": "useReserveBeneficiaryAsDefault",
									"type": "bool"
								},
								{
									"internalType": "bool",
									"name": "transfersPausable",
									"type": "bool"
								},
								{
									"internalType": "bool",
									"name": "useVotingUnits",
									"type": "bool"
								},
								{
									"internalType": "bool",
									"name": "cannotBeRemoved",
									"type": "bool"
								},
								{
									"internalType": "bool",
									"name": "cannotIncreaseDiscountPercent",
									"type": "bool"
								}
							],
							"indexed": false,
							"internalType": "struct JB721TierConfig",
							"name": "tier",
							"type": "tuple"
						},
						{
							"indexed": false,
							"internalType": "address",
							"name": "caller",
							"type": "address"
						}
					],
					"name": "AddTier",
					"type": "event"
				},
				{
					"anonymous": false,
					"inputs": [
						{
							"indexed": true,
							"internalType": "address",
							"name": "owner",
							"type": "address"
						},
						{
							"indexed": true,
							"internalType": "address",
							"name": "approved",
							"type": "address"
						},
						{
							"indexed": true,
							"internalType": "uint256",
							"name": "tokenId",
							"type": "uint256"
						}
					],
					"name": "Approval",
					"type": "event"
				},
				{
					"anonymous": false,
					"inputs": [
						{
							"indexed": true,
							"internalType": "address",
							"name": "owner",
							"type": "address"
						},
						{
							"indexed": true,
							"internalType": "address",
							"name": "operator",
							"type": "address"
						},
						{
							"indexed": false,
							"internalType": "bool",
							"name": "approved",
							"type": "bool"
						}
					],
					"name": "ApprovalForAll",
					"type": "event"
				},
				{
					"anonymous": false,
					"inputs": [
						{
							"indexed": true,
							"internalType": "uint256",
							"name": "tokenId",
							"type": "uint256"
						},
						{
							"indexed": true,
							"internalType": "uint256",
							"name": "tierId",
							"type": "uint256"
						},
						{
							"indexed": true,
							"internalType": "address",
							"name": "beneficiary",
							"type": "address"
						},
						{
							"indexed": false,
							"internalType": "uint256",
							"name": "totalAmountPaid",
							"type": "uint256"
						},
						{
							"indexed": false,
							"internalType": "address",
							"name": "caller",
							"type": "address"
						}
					],
					"name": "Mint",
					"type": "event"
				},
				{
					"anonymous": false,
					"inputs": [
						{
							"indexed": true,
							"internalType": "uint256",
							"name": "tokenId",
							"type": "uint256"
						},
						{
							"indexed": true,
							"internalType": "uint256",
							"name": "tierId",
							"type": "uint256"
						},
						{
							"indexed": true,
							"internalType": "address",
							"name": "beneficiary",
							"type": "address"
						},
						{
							"indexed": false,
							"internalType": "address",
							"name": "caller",
							"type": "address"
						}
					],
					"name": "MintReservedNft",
					"type": "event"
				},
				{
					"anonymous": false,
					"inputs": [
						{
							"indexed": true,
							"internalType": "address",
							"name": "previousOwner",
							"type": "address"
						},
						{
							"indexed": true,
							"internalType": "address",
							"name": "newOwner",
							"type": "address"
						},
						{
							"indexed": false,
							"internalType": "address",
							"name": "caller",
							"type": "address"
						}
					],
					"name": "OwnershipTransferred",
					"type": "event"
				},
				{
					"anonymous": false,
					"inputs": [
						{
							"indexed": false,
							"internalType": "uint8",
							"name": "newId",
							"type": "uint8"
						},
						{
							"indexed": false,
							"internalType": "address",
							"name": "caller",
							"type": "address"
						}
					],
					"name": "PermissionIdChanged",
					"type": "event"
				},
				{
					"anonymous": false,
					"inputs": [
						{
							"indexed": true,
							"internalType": "uint256",
							"name": "tierId",
							"type": "uint256"
						},
						{
							"indexed": false,
							"internalType": "address",
							"name": "caller",
							"type": "address"
						}
					],
					"name": "RemoveTier",
					"type": "event"
				},
				{
					"anonymous": false,
					"inputs": [
						{
							"indexed": true,
							"internalType": "string",
							"name": "baseUri",
							"type": "string"
						},
						{
							"indexed": false,
							"internalType": "address",
							"name": "caller",
							"type": "address"
						}
					],
					"name": "SetBaseUri",
					"type": "event"
				},
				{
					"anonymous": false,
					"inputs": [
						{
							"indexed": true,
							"internalType": "string",
							"name": "uri",
							"type": "string"
						},
						{
							"indexed": false,
							"internalType": "address",
							"name": "caller",
							"type": "address"
						}
					],
					"name": "SetContractUri",
					"type": "event"
				},
				{
					"anonymous": false,
					"inputs": [
						{
							"indexed": true,
							"internalType": "uint256",
							"name": "tierId",
							"type": "uint256"
						},
						{
							"indexed": false,
							"internalType": "uint256",
							"name": "discountPercent",
							"type": "uint256"
						},
						{
							"indexed": false,
							"internalType": "address",
							"name": "caller",
							"type": "address"
						}
					],
					"name": "SetDiscountPercent",
					"type": "event"
				},
				{
					"anonymous": false,
					"inputs": [
						{
							"indexed": true,
							"internalType": "uint256",
							"name": "tierId",
							"type": "uint256"
						},
						{
							"indexed": false,
							"internalType": "bytes32",
							"name": "encodedUri",
							"type": "bytes32"
						},
						{
							"indexed": false,
							"internalType": "address",
							"name": "caller",
							"type": "address"
						}
					],
					"name": "SetEncodedIPFSUri",
					"type": "event"
				},
				{
					"anonymous": false,
					"inputs": [
						{
							"indexed": true,
							"internalType": "contract IJB721TokenUriResolver",
							"name": "resolver",
							"type": "address"
						},
						{
							"indexed": false,
							"internalType": "address",
							"name": "caller",
							"type": "address"
						}
					],
					"name": "SetTokenUriResolver",
					"type": "event"
				},
				{
					"anonymous": false,
					"inputs": [
						{
							"indexed": true,
							"internalType": "address",
							"name": "from",
							"type": "address"
						},
						{
							"indexed": true,
							"internalType": "address",
							"name": "to",
							"type": "address"
						},
						{
							"indexed": true,
							"internalType": "uint256",
							"name": "tokenId",
							"type": "uint256"
						}
					],
					"name": "Transfer",
					"type": "event"
				},
				{
					"anonymous": false,
					"inputs": [
						{
							"indexed": true,
							"internalType": "uint256",
							"name": "amount",
							"type": "uint256"
						},
						{
							"indexed": true,
							"internalType": "uint256",
							"name": "newTotalCredits",
							"type": "uint256"
						},
						{
							"indexed": true,
							"internalType": "address",
							"name": "account",
							"type": "address"
						},
						{
							"indexed": false,
							"internalType": "address",
							"name": "caller",
							"type": "address"
						}
					],
					"name": "UsePayCredits",
					"type": "event"
				},
				{
					"inputs": [
						{
							"internalType": "address",
							"name": "sender",
							"type": "address"
						},
						{
							"internalType": "uint256",
							"name": "tokenId",
							"type": "uint256"
						},
						{
							"internalType": "address",
							"name": "owner",
							"type": "address"
						}
					],
					"name": "ERC721IncorrectOwner",
					"type": "error"
				},
				{
					"inputs": [
						{
							"internalType": "address",
							"name": "operator",
							"type": "address"
						},
						{
							"internalType": "uint256",
							"name": "tokenId",
							"type": "uint256"
						}
					],
					"name": "ERC721InsufficientApproval",
					"type": "error"
				},
				{
					"inputs": [
						{
							"internalType": "address",
							"name": "approver",
							"type": "address"
						}
					],
					"name": "ERC721InvalidApprover",
					"type": "error"
				},
				{
					"inputs": [
						{
							"internalType": "address",
							"name": "operator",
							"type": "address"
						}
					],
					"name": "ERC721InvalidOperator",
					"type": "error"
				},
				{
					"inputs": [
						{
							"internalType": "address",
							"name": "owner",
							"type": "address"
						}
					],
					"name": "ERC721InvalidOwner",
					"type": "error"
				},
				{
					"inputs": [
						{
							"internalType": "address",
							"name": "receiver",
							"type": "address"
						}
					],
					"name": "ERC721InvalidReceiver",
					"type": "error"
				},
				{
					"inputs": [
						{
							"internalType": "address",
							"name": "sender",
							"type": "address"
						}
					],
					"name": "ERC721InvalidSender",
					"type": "error"
				},
				{
					"inputs": [
						{
							"internalType": "uint256",
							"name": "tokenId",
							"type": "uint256"
						}
					],
					"name": "ERC721NonexistentToken",
					"type": "error"
				},
				{
					"inputs": [],
					"name": "JB721Hook_InvalidCashOut",
					"type": "error"
				},
				{
					"inputs": [],
					"name": "JB721Hook_InvalidPay",
					"type": "error"
				},
				{
					"inputs": [
						{
							"internalType": "uint256",
							"name": "tokenId",
							"type": "uint256"
						},
						{
							"internalType": "address",
							"name": "holder",
							"type": "address"
						}
					],
					"name": "JB721Hook_UnauthorizedToken",
					"type": "error"
				},
				{
					"inputs": [],
					"name": "JB721Hook_UnexpectedTokenCashedOut",
					"type": "error"
				},
				{
					"inputs": [
						{
							"internalType": "uint256",
							"name": "projectId",
							"type": "uint256"
						}
					],
					"name": "JB721TiersHook_AlreadyInitialized",
					"type": "error"
				},
				{
					"inputs": [],
					"name": "JB721TiersHook_MintReserveNftsPaused",
					"type": "error"
				},
				{
					"inputs": [],
					"name": "JB721TiersHook_NoProjectId",
					"type": "error"
				},
				{
					"inputs": [
						{
							"internalType": "uint256",
							"name": "leftoverAmount",
							"type": "uint256"
						}
					],
					"name": "JB721TiersHook_Overspending",
					"type": "error"
				},
				{
					"inputs": [],
					"name": "JB721TiersHook_TierTransfersPaused",
					"type": "error"
				},
				{
					"inputs": [],
					"name": "JBOwnableOverrides_InvalidNewOwner",
					"type": "error"
				},
				{
					"inputs": [
						{
							"internalType": "address",
							"name": "account",
							"type": "address"
						},
						{
							"internalType": "address",
							"name": "sender",
							"type": "address"
						},
						{
							"internalType": "uint256",
							"name": "projectId",
							"type": "uint256"
						},
						{
							"internalType": "uint256",
							"name": "permissionId",
							"type": "uint256"
						}
					],
					"name": "JBPermissioned_Unauthorized",
					"type": "error"
				},
				{
					"inputs": [
						{
							"internalType": "uint256",
							"name": "x",
							"type": "uint256"
						},
						{
							"internalType": "uint256",
							"name": "y",
							"type": "uint256"
						},
						{
							"internalType": "uint256",
							"name": "denominator",
							"type": "uint256"
						}
					],
					"name": "PRBMath_MulDiv_Overflow",
					"type": "error"
				}
			],
			"args": [],
			"solcInputHash": "4101812ded0792a599ee6d22d3ae1b63",
			"receipt": {
				"type": "0x2",
				"status": "0x1",
				"cumulativeGasUsed": "0x59eaec",
				"logs": [
					{
						"address": "0xa2ea7657440875bf916cbfc0cfa88f13e38ad463",
						"topics": [
							"0x572f161235911da04685a68c06adf558fc7e4a36909dca394650e0adc19cc93d",
							"0x000000000000000000000000755ff2f75a0a586ecfa2b9a3c959cb662458a105",
							"0x000000000000000000000000691d6d2e1f0fb22b67e7471310ddcb3a881cc968",
							"0x49ab6d79e657f78e3d5a43d80609925bf1a6c04d608923bd7fec912c65cd77c6"
						],
						"data": "0x0000000000000000000000000000000000000000000000000000000000000000",
						"blockHash": "0xed8ca650b9b73057affadb759000d4de4acdb54323ddb1f7d2dee1377ba4e4cd",
						"blockNumber": "0x8c048d",
						"blockTimestamp": "0x68c1d158",
						"transactionHash": "0xbc6035487c4eea602db2cbb1d944fb068893fa3d71099417ba98dfc37df56a1f",
						"transactionIndex": "0x3",
						"logIndex": "0x4",
						"removed": false
					},
					{
						"address": "0xe9485c121082d3beb57d6eac267b04a0f59d1760",
						"topics": [
							"0xc8894f26f396ce8c004245c8b7cd1b92103a6e4302fcbab883987149ac01b7ec",
							"0x0000000000000000000000000000000000000000000000000000000000000000",
							"0x0000000000000000000000004e59b44847b379578588920ca78fbf26c0b4956c"
						],
						"data": "0x0000000000000000000000004e59b44847b379578588920ca78fbf26c0b4956c",
						"blockHash": "0xed8ca650b9b73057affadb759000d4de4acdb54323ddb1f7d2dee1377ba4e4cd",
						"blockNumber": "0x8c048d",
						"blockTimestamp": "0x68c1d158",
						"transactionHash": "0xbc6035487c4eea602db2cbb1d944fb068893fa3d71099417ba98dfc37df56a1f",
						"transactionIndex": "0x3",
						"logIndex": "0x5",
						"removed": false
					},
					{
						"address": "0x80a8f7a4bd75b539ce26937016df607fdc9abeb5",
						"topics": [
							"0x6895c13664aa4f67288b25d7a21d7aaa34916e355fb9b6fae0a139a9085becb8",
							"0x000000000000000000000000691d6d2e1f0fb22b67e7471310ddcb3a881cc968"
						],
						"data": "0x",
						"blockHash": "0xed8ca650b9b73057affadb759000d4de4acdb54323ddb1f7d2dee1377ba4e4cd",
						"blockNumber": "0x8c048d",
						"blockTimestamp": "0x68c1d158",
						"transactionHash": "0xbc6035487c4eea602db2cbb1d944fb068893fa3d71099417ba98dfc37df56a1f",
						"transactionIndex": "0x3",
						"logIndex": "0x6",
						"removed": false
					},
					{
						"address": "0x691d6d2e1f0fb22b67e7471310ddcb3a881cc968",
						"topics": [
							"0xa65fb05c5808f5f389d72edeaf719ce38f4cc55c1f69ca3cbfb31c21501caa07",
							"0x67860454993c605165008d5f511c7deea857487d819b99956c15c8cde5ab449e"
						],
						"data": "0x0000000000000000000000000000000000000000000000000000000000000002",
						"blockHash": "0xed8ca650b9b73057affadb759000d4de4acdb54323ddb1f7d2dee1377ba4e4cd",
						"blockNumber": "0x8c048d",
						"blockTimestamp": "0x68c1d158",
						"transactionHash": "0xbc6035487c4eea602db2cbb1d944fb068893fa3d71099417ba98dfc37df56a1f",
						"transactionIndex": "0x3",
						"logIndex": "0x7",
						"removed": false
					}
				],
				"logsBloom": "0x00000000000010000000000001180000000800000000000000000000000400000010080000000000000000004040000000000000000000000000000000000000000000000000200000000000000000000000000000000000000000000020000000000000020000000000000000000800000000000000000000008000000000000800000000000000000104000000100000000001101000000020000000000000004000040001000000000000000000082200000000000000000000000044000000000003004000000000000000000000000000000100000000000000000020020000000000000000000100000000000a80000000000080000000000000000000",
				"transactionHash": "0xbc6035487c4eea602db2cbb1d944fb068893fa3d71099417ba98dfc37df56a1f",
				"transactionIndex": "0x3",
				"blockHash": "0xed8ca650b9b73057affadb759000d4de4acdb54323ddb1f7d2dee1377ba4e4cd",
				"blockNumber": "0x8c048d",
				"gasUsed": "0x54bd43",
				"effectiveGasPrice": "0x2cb714f0a",
				"from": "0x755ff2f75a0a586ecfa2b9a3c959cb662458a105",
				"to": "0xa2ea7657440875bf916cbfc0cfa88f13e38ad463",
				"contractAddress": null
			},
			"bytecode": "0x61016060405234801562000011575f80fd5b506040516200624938038062006249833981016040819052620000349162000392565b848185876001600160a01b031663293c49996040518163ffffffff1660e01b8152600401602060405180830381865afa15801562000074573d5f803e3d5ffd5b505050506040513d601f19601f820116820180604052508101906200009a91906200040e565b6001600160a01b03828116608052811660a052335f8383838381620000d25760405163f854950960e01b815260040160405180910390fd5b620000de828262000115565b5050506001600160a01b0395861660c0525050505091811660e0523061010052938416610120525050166101405250620004339050565b6001600160581b038116158015906200013657506001600160a01b03821615155b15620001555760405163f854950960e01b815260040160405180910390fd5b604080516060810182525f80546001600160a01b0381168352600160a01b81046001600160581b031660208401819052600160f81b90910460ff1693830193909352909115620002215760a05160208301516040516331a9108f60e11b81526001600160581b0390911660048201526001600160a01b0390911690636352211e90602401602060405180830381865afa158015620001f5573d5f803e3d5ffd5b505050506040513d601f19601f820116820180604052508101906200021b91906200040e565b62000224565b81515b604080516060810182526001600160a01b0387168082526001600160581b038716602083018190525f9290930182905281547fff000000000000000000000000000000000000000000000000000000000000001617600160a01b909202919091176001600160f81b0316905590506200029f818585620002a5565b50505050565b6001600160581b03811615620003315760a0516040516331a9108f60e11b81526001600160581b03831660048201526001600160a01b0390911690636352211e90602401602060405180830381865afa15801562000305573d5f803e3d5ffd5b505050506040513d601f19601f820116820180604052508101906200032b91906200040e565b62000333565b815b6040513381526001600160a01b03918216918516907fc8894f26f396ce8c004245c8b7cd1b92103a6e4302fcbab883987149ac01b7ec9060200160405180910390a3505050565b6001600160a01b03811681146200038f575f80fd5b50565b5f805f805f60a08688031215620003a7575f80fd5b8551620003b4816200037a565b6020870151909550620003c7816200037a565b6040870151909450620003da816200037a565b6060870151909350620003ed816200037a565b608087015190925062000400816200037a565b809150509295509295909350565b5f602082840312156200041f575f80fd5b81516200042c816200037a565b9392505050565b60805160a05160c05160e051610100516101205161014051615cdd6200056c5f395f818161051a01528181610d9e01528181610e1e0152818161106301528181611142015281816112670152818161130301528181611423015281816114c7015281816116be01528181611c0101528181611d8f01528181611f0f01528181611f93015281816124ee015281816129a801528181612a2b01528181612ba001528181612c670152818161349601526137f501525f81816108ef0152612d3501525f81816109a801528181611a6601528181612126015261258d01525f81816106cf01528181610b6a01526119a001525f818161058c0152818161069a015261358e01525f81816104a90152818161181901528181612e6f01528181612fae0152613a8501525f81816109fa01526128910152615cdd5ff3fe608060405260043610610303575f3560e01c80637da0a87711610191578063c22903b2116100dc578063e8a3d48511610087578063f2fde38b11610062578063f2fde38b146109ca578063f434c914146109e9578063fb82b1b014610a1c575f80fd5b8063e8a3d4851461093c578063e985e9c514610950578063edab09b914610997575f80fd5b8063d102134c116100b7578063d102134c146108bf578063d4a1b4b1146108de578063d95c9ae214610911575f80fd5b8063c22903b21461086e578063c87b56dd14610881578063cf7f4936146108a0575f80fd5b80639c2c6a021161013c578063b88d4fde11610117578063b88d4fde146107c5578063ba23c36e146107e4578063c0fb5e851461084f575f80fd5b80639c2c6a0214610768578063a220d69614610787578063a22cb465146107a6575f80fd5b80638da5cb5b1161016c5780638da5cb5b1461071e57806395d89b411461073257806399f6d77f14610746575f80fd5b80637da0a8771461068c57806388bc2ef3146106be5780638cc35846146106f1575f80fd5b8063462e3af8116102515780636352211e116101fc5780636c0360eb116101d75780636c0360eb1461064557806370a0823114610659578063715018a614610678575f80fd5b80636352211e146105db57806369f72970146105fa5780636ac6d94114610619575f80fd5b806356539f391161022c57806356539f391461055b578063572b6c0514610570578063613b856d146105bc575f80fd5b8063462e3af8146104ea578063507f14651461050957806354c6d1f51461053c575f80fd5b80631435aad5116102b15780632483d6b51161028c5780632483d6b514610479578063293c49991461049857806342842e0e146104cb575f80fd5b80631435aad51461040e5780631da1da721461042d57806323b872dd1461045a575f80fd5b806308786b1a116102e157806308786b1a14610393578063095ea7b3146103da5780631337f986146103fb575f80fd5b806301ffc9a71461030757806306fdde031461033b578063081812fc1461035c575b5f80fd5b348015610312575f80fd5b50610326610321366004614023565b610a4b565b60405190151581526020015b60405180910390f35b348015610346575f80fd5b5061034f610a75565b604051610332919061408b565b348015610367575f80fd5b5061037b61037636600461409d565b610b05565b6040516001600160a01b039091168152602001610332565b34801561039e575f80fd5b50600c5463ffffffff811690602081901c60ff169060281c6040805193845260208401929092526001600160a01b031690820152606001610332565b3480156103e5575f80fd5b506103f96103f43660046140d8565b610b2c565b005b6103f9610409366004614119565b610b42565b348015610419575f80fd5b506103f9610428366004614189565b610c13565b348015610438575f80fd5b5061044c610447366004614229565b610e07565b604051908152602001610332565b348015610465575f80fd5b506103f961047436600461425b565b610e90565b348015610484575f80fd5b506103f9610493366004614299565b610f25565b3480156104a3575f80fd5b5061037b7f000000000000000000000000000000000000000000000000000000000000000081565b3480156104d6575f80fd5b506103f96104e536600461425b565b610f44565b3480156104f5575f80fd5b506103f96105043660046146fc565b610f63565b348015610514575f80fd5b5061037b7f000000000000000000000000000000000000000000000000000000000000000081565b348015610547575f80fd5b5061037b61055636600461409d565b6111bd565b348015610566575f80fd5b5061044c60075481565b34801561057b575f80fd5b5061032661058a3660046147f0565b7f00000000000000000000000000000000000000000000000000000000000000006001600160a01b0390811691161490565b3480156105c7575f80fd5b506103f96105d6366004614299565b6111ff565b3480156105e6575f80fd5b5061037b6105f536600461409d565b611400565b348015610605575f80fd5b5061044c61061436600461480b565b61140a565b348015610624575f80fd5b506106386106333660046148ff565b611499565b604051610332919061498c565b348015610650575f80fd5b5061034f61160b565b348015610664575f80fd5b5061044c6106733660046147f0565b611697565b348015610683575f80fd5b506103f96116ef565b348015610697575f80fd5b507f000000000000000000000000000000000000000000000000000000000000000061037b565b3480156106c9575f80fd5b5061037b7f000000000000000000000000000000000000000000000000000000000000000081565b3480156106fc575f80fd5b5061071061070b36600461499e565b611703565b6040516103329291906149d6565b348015610729575f80fd5b5061037b6117a6565b34801561073d575f80fd5b5061034f611890565b348015610751575f80fd5b50610326610760366004614aa9565b5f9392505050565b348015610773575f80fd5b506103f9610782366004614bc6565b61189f565b348015610792575f80fd5b506103f96107a136600461409d565b6118f8565b3480156107b1575f80fd5b506103f96107c0366004614c05565b61193e565b3480156107d0575f80fd5b506103f96107df366004614c3c565b611950565b3480156107ef575f80fd5b505f5461081f906001600160a01b03811690600160a01b81046001600160581b031690600160f81b900460ff1683565b604080516001600160a01b0390941684526001600160581b03909216602084015260ff1690820152606001610332565b34801561085a575f80fd5b506103f9610869366004614cb7565b611967565b6103f961087c366004614119565b611978565b34801561088c575f80fd5b5061034f61089b36600461409d565b611bdf565b3480156108ab575f80fd5b506103f96108ba366004614bc6565b611e09565b3480156108ca575f80fd5b506103f96108d9366004614cd2565b611e6d565b3480156108e9575f80fd5b5061037b7f000000000000000000000000000000000000000000000000000000000000000081565b34801561091c575f80fd5b5061044c61092b3660046147f0565b600a6020525f908152604090205481565b348015610947575f80fd5b5061034f612092565b34801561095b575f80fd5b5061032661096a366004614d65565b6001600160a01b039182165f90815260066020908152604080832093909416825291909152205460ff1690565b3480156109a2575f80fd5b5061037b7f000000000000000000000000000000000000000000000000000000000000000081565b3480156109d5575f80fd5b506103f96109e43660046147f0565b61209f565b3480156109f4575f80fd5b5061037b7f000000000000000000000000000000000000000000000000000000000000000081565b348015610a27575f80fd5b50610a3b610a36366004614229565b6120d8565b6040516103329493929190614d91565b5f6001600160e01b03198216637aa81e7b60e01b1480610a6f5750610a6f82612259565b92915050565b606060018054610a8490614e2f565b80601f0160208091040260200160405190810160405280929190818152602001828054610ab090614e2f565b8015610afb5780601f10610ad257610100808354040283529160200191610afb565b820191905f5260205f20905b815481529060010190602001808311610ade57829003601f168201915b5050505050905090565b5f610b0f826122e9565b505f828152600560205260409020546001600160a01b0316610a6f565b610b3e8282610b39612321565b61232f565b5050565b60075434151580610bdd5750604051636e49181f60e01b8152600481018290523360248201527f00000000000000000000000000000000000000000000000000000000000000006001600160a01b031690636e49181f90604401602060405180830381865afa158015610bb7573d5f803e3d5ffd5b505050506040513d601f19601f82011682018060405250810190610bdb9190614e6c565b155b80610bec575080826020013514155b15610c0a57604051633fb648ad60e11b815260040160405180910390fd5b610b3e8261233c565b610c28610c1e6117a6565b6007546015612826565b8515610c99576008610c3b878983614ecb565b508686604051610c4c929190614f85565b60405180910390207f7bc9110d5de090dd59e07912d2b93a5a27ac70a60c8d8e324db4f9ee8b8b5c13610c7d612321565b6040516001600160a01b03909116815260200160405180910390a25b8315610d0a576009610cac858783614ecb565b508484604051610cbd929190614f85565b60405180910390207fd36dc0c1a06103fdcaf15f3f6fb797d1a97997514c78de073640c8b5005454b8610cee612321565b6040516001600160a01b03909116815260200160405180910390a25b6001600160a01b0383163014610d2357610d238361293b565b8115801590610d3157508015155b15610dfe57817f677da4fed654db8e604791fa2582f342e2001aa217e27f6985eb3e0f67e5a7fc82610d61612321565b604080519283526001600160a01b0390911660208301520160405180910390a26040516324de8d6360e11b815260048101839052602481018290527f00000000000000000000000000000000000000000000000000000000000000006001600160a01b0316906349bd1ac6906044015f604051808303815f87803b158015610de7575f80fd5b505af1158015610df9573d5f803e3d5ffd5b505050505b50505050505050565b6040516349e6fb6760e01b81523060048201525f907f00000000000000000000000000000000000000000000000000000000000000006001600160a01b0316906349e6fb67906024015b602060405180830381865afa158015610e6c573d5f803e3d5ffd5b505050506040513d601f19601f82011682018060405250810190610a6f9190614f94565b6001600160a01b038216610ebe57604051633250574960e11b81525f60048201526024015b60405180910390fd5b5f610ed18383610ecc612321565b6129fc565b9050836001600160a01b0316816001600160a01b031614610f1f576040516364283d7b60e01b81526001600160a01b0380861660048301526024820184905282166044820152606401610eb5565b50505050565b610f3a610f306117a6565b6007546017612826565b610b3e8282612bff565b610f5e83838360405180602001604052805f815250611950565b505050565b60075415610f8a57600754604051639889eb1160e01b8152600401610eb591815260200190565b875f03610faa57604051630ea59fc560e21b815260040160405180910390fd5b610fb5888888612cc2565b6020808301516040840151606085015178ffffffffffffffffffffffffffffffffffffffff000000000060289190911b1664ff000000009190931b1663ffffffff9091161717600c8190558551156110155760086110138782614fab565b505b83511561102a5760096110288582614fab565b505b6001600160a01b03851615611042576110428561293b565b825151156110db578251604051631f1d05ad60e01b81526001600160a01b037f00000000000000000000000000000000000000000000000000000000000000001691631f1d05ad916110979190600401615067565b5f604051808303815f875af11580156110b2573d5f803e3d5ffd5b505050506040513d5f823e601f3d908101601f191682016040526110d991908101906151d5565b505b8151806110e9575081602001515b806110f5575081604001515b80611101575081606001515b156111a257604080516365c13f1960e11b815283511515600482015260208401511515602482015290830151151560448201526060830151151560648201527f00000000000000000000000000000000000000000000000000000000000000006001600160a01b03169063cb827e32906084015f604051808303815f87803b15801561118b575f80fd5b505af115801561119d573d5f803e3d5ffd5b505050505b6111b26111ad612321565b6120ce565b505050505050505050565b5f818152600b60205260408120546001600160a01b031680156111e05792915050565b5f838152600360205260409020546001600160a01b03165b9392505050565b5f61120b600754612cd3565b905061122a61121f82610100015160f21c90565b600190811c81161490565b156112485760405163b1f1d8cf60e01b815260040160405180910390fd5b604051635d53f40760e11b815260048101849052602481018390525f907f00000000000000000000000000000000000000000000000000000000000000006001600160a01b03169063baa7e80e906044015f604051808303815f875af11580156112b4573d5f803e3d5ffd5b505050506040513d5f823e601f3d908101601f191682016040526112db91908101906151d5565b60405162d5cc0160e21b8152306004820152602481018690529091505f906001600160a01b037f00000000000000000000000000000000000000000000000000000000000000001690630357300490604401602060405180830381865afa158015611348573d5f803e3d5ffd5b505050506040513d601f19601f8201168201806040525081019061136c9190615212565b90505f5b848110156113f8575f83828151811061138b5761138b61522d565b60200260200101519050826001600160a01b031687827f80dd2efbbc431cde0164d84d638e44ba6e7a3ca5d532ceef1bb4efcc0948325d6113ca612321565b6040516001600160a01b03909116815260200160405180910390a46113ef8382612d9f565b50600101611370565b505050505050565b5f610a6f826122e9565b604051639be748fb60e01b81525f906001600160a01b037f00000000000000000000000000000000000000000000000000000000000000001690639be748fb9061145a9030908790600401615241565b602060405180830381865afa158015611475573d5f803e3d5ffd5b505050506040513d601f19601f820116820180604052508101906111f89190614f94565b60606114b06114a66117a6565b6007546016612826565b60405163eaa19ab360e01b81526001600160a01b037f0000000000000000000000000000000000000000000000000000000000000000169063eaa19ab390611504905f199088908890600190600401615262565b5f604051808303815f875af115801561151f573d5f803e3d5ffd5b505050506040513d5f823e601f3d908101601f1916820160405261154691908101906152c0565b5090505f5b83811015611603575f8282815181106115665761156661522d565b6020026020010151905061157a8482612d9f565b836001600160a01b03168686848181106115965761159661522d565b90506020020160208101906115ab9190615304565b61ffff16827f598baf7bf150ca2f42be9e9f8f55e81d45f5715c3ff22bf46d697fabec7f31d65f6115da612321565b604080519283526001600160a01b0390911660208301520160405180910390a45060010161154b565b509392505050565b6008805461161890614e2f565b80601f016020809104026020016040519081016040528092919081815260200182805461164490614e2f565b801561168f5780601f106116665761010080835404028352916020019161168f565b820191905f5260205f20905b81548152906001019060200180831161167257829003601f168201915b505050505081565b604051633de222bb60e21b81523060048201526001600160a01b0382811660248301525f917f00000000000000000000000000000000000000000000000000000000000000009091169063f7888aec90604401610e51565b6116f7612e00565b6117015f80612f03565b565b6040805160018082528183019092526101208301359160609190816020015b60408051606080820183525f8083526020830152918101919091528152602001906001900390816117225790505090506040518060600160405280306001600160a01b031681526020015f815260200160405180602001604052805f815250815250815f815181106117965761179661522d565b6020026020010181905250915091565b604080516060810182525f80546001600160a01b0381168352600160a01b81046001600160581b031660208401819052600160f81b90910460ff16938301939093529182036117f55751919050565b60208101516040516331a9108f60e11b81526001600160581b0390911660048201527f00000000000000000000000000000000000000000000000000000000000000006001600160a01b031690636352211e90602401602060405180830381865afa158015611866573d5f803e3d5ffd5b505050506040513d601f19601f8201168201806040525081019061188a9190615212565b91505090565b606060028054610a8490614e2f565b5f5b81811015610f5e575f8383838181106118bc576118bc61522d565b9050604002018036038101906118d29190615380565b90506118ef815f015163ffffffff16826020015161ffff166111ff565b506001016118a1565b611900612e00565b80158061191357506001600160581b0381115b156119315760405163f854950960e01b815260040160405180910390fd5b61193b5f82612f03565b50565b610b3e611949612321565b8383613088565b61195b848484610e90565b610f1f84848484613127565b61196f612e00565b61193b8161324d565b60075434151580611a135750604051636e49181f60e01b8152600481018290523360248201527f00000000000000000000000000000000000000000000000000000000000000006001600160a01b031690636e49181f90604401602060405180830381865afa1580156119ed573d5f803e3d5ffd5b505050506040513d601f19601f82011682018060405250810190611a119190614e6c565b155b80611a22575080826020013514155b15611a40576040516394310b3d60e01b815260040160405180910390fd5b60408051808201909152600781526618d85cda13dd5d60ca1b6020909101525f80611af17f000000000000000000000000000000000000000000000000000000000000000060601b7f86b14ff4df1839d4c5ed01550f2540ea56ad3e3813c5cd226eeab5890c21e3bb18611ab86101e087018761539a565b8080601f0160208091040260200160405190810160405280939291908181526020018383808284375f920191909152506132a792505050565b9150915060608215611b145781806020019051810190611b1191906151d5565b90505b5f5b8151811015611bce575f828281518110611b3257611b3261522d565b60200260200101519050865f016020810190611b4e91906147f0565b6001600160a01b0316611b75825f908152600360205260409020546001600160a01b031690565b6001600160a01b031614611bbc5780611b9160208901896147f0565b604051630694678560e21b815260048101929092526001600160a01b03166024820152604401610eb5565b611bc581613447565b50600101611b16565b50611bd88161347f565b5050505050565b604051630fab094760e01b81523060048201526060905f906001600160a01b037f00000000000000000000000000000000000000000000000000000000000000001690630fab094790602401602060405180830381865afa158015611c46573d5f803e3d5ffd5b505050506040513d601f19601f82011682018060405250810190611c6a9190615212565b90506001600160a01b03811615611cea57604051635e703e7160e01b8152306004820152602481018490526001600160a01b03821690635e703e71906044015f60405180830381865afa158015611cc3573d5f803e3d5ffd5b505050506040513d5f823e601f3d908101601f191682016040526111f8919081019061541f565b6111f860088054611cfa90614e2f565b80601f0160208091040260200160405190810160405280929190818152602001828054611d2690614e2f565b8015611d715780601f10611d4857610100808354040283529160200191611d71565b820191905f5260205f20905b815481529060010190602001808311611d5457829003601f168201915b5050604051630c8df17160e41b8152306004820152602481018990527f00000000000000000000000000000000000000000000000000000000000000006001600160a01b0316935063c8df171092506044019050602060405180830381865afa158015611de0573d5f803e3d5ffd5b505050506040513d601f19601f82011682018060405250810190611e049190614f94565b6134cb565b611e14610f306117a6565b5f5b81811015610f5e575f838383818110611e3157611e3161522d565b905060400201803603810190611e479190615380565b9050611e64815f015163ffffffff16826020015161ffff16612bff565b50600101611e16565b611e82611e786117a6565b6007546014612826565b8015611f74575f5b81811015611ef757828282818110611ea457611ea461522d565b905060200201357f832d89d991be5351d793c20faf4b7dd44f8aa9ce39e3cb160c6317de6fbba729611ed4612321565b6040516001600160a01b03909116815260200160405180910390a2600101611e8a565b506040516320512ba160e01b81526001600160a01b037f000000000000000000000000000000000000000000000000000000000000000016906320512ba190611f469085908590600401615451565b5f604051808303815f87803b158015611f5d575f80fd5b505af1158015611f6f573d5f803e3d5ffd5b505050505b8215610f1f57604051631f1d05ad60e01b81525f906001600160a01b037f00000000000000000000000000000000000000000000000000000000000000001690631f1d05ad90611fca90889088906004016155d0565b5f604051808303815f875af1158015611fe5573d5f803e3d5ffd5b505050506040513d5f823e601f3d908101601f1916820160405261200c91908101906151d5565b90505f5b848110156113f85781818151811061202a5761202a61522d565b60200260200101517fcbda9c610cbf8b0b9941c465b20ff7e1fae572086b70ef65fa3d5e4bf3d0deaa8787848181106120655761206561522d565b90506101c00201612074612321565b604051612082929190615612565b60405180910390a2600101612010565b6009805461161890614e2f565b6120a7612e00565b6001600160a01b0381166120ce5760405163f854950960e01b815260040160405180910390fd5b61193b815f612f03565b5f808060606080850135156121005760405163096afe5960e41b815260040160405180910390fd5b60408051808201909152600781526618d85cda13dd5d60ca1b6020909101525f806121787f000000000000000000000000000000000000000000000000000000000000000060601b7f86b14ff4df1839d4c5ed01550f2540ea56ad3e3813c5cd226eeab5890c21e3bb18611ab86101808a018a61539a565b604080516001808252818301909252929450909250816020015b60408051606080820183525f8083526020830152918101919091528152602001906001900390816121925790505092506040518060600160405280306001600160a01b031681526020015f815260200160405180602001604052805f815250815250835f815181106122065761220661522d565b602002602001018190525060608215612230578180602001905181019061222d91906151d5565b90505b61223a818961140a565b955061224588610e07565b945087610160013596505050509193509193565b5f6001600160e01b03198216633344b87360e01b148061228957506001600160e01b0319821663eeb73e8960e01b145b806122a457506001600160e01b0319821663099bfcc360e11b145b806122bf57506001600160e01b0319821663611481d960e11b145b806122da57506001600160e01b0319821663152a902d60e11b145b80610a6f5750610a6f82613530565b5f818152600360205260408120546001600160a01b031680610a6f57604051637e27328960e01b815260048101849052602401610eb5565b5f61232a61357f565b905090565b610f5e83838360016135f2565b600c545f9063ffffffff81168061235960c0860160a08701615638565b63ffffffff16036123705760c0840135925061245d565b602882901c6001600160a01b03811615611bd85760ff602084901c1661245860c087013561239f83600a615747565b6007546001600160a01b03861690633be273fa906123c360c08d0160a08e01615638565b898d60600160200160208101906123da9190614cb7565b6040516001600160e01b031960e087901b168152600481019490945263ffffffff929092166024840152604483015260ff166064820152608401602060405180830381865afa15801561242f573d5f803e3d5ffd5b505050506040513d601f19601f820116820180604052508101906124539190614f94565b613721565b945050505b505f9050600a816124766101c086016101a087016147f0565b6001600160a01b0316815260208101919091526040015f90812054915082906124a76101c086016101a087016147f0565b6001600160a01b03166124bd60208701876147f0565b6001600160a01b0316036124d457908201906124d7565b50815b604051634228826f60e11b81523060048201525f907f00000000000000000000000000000000000000000000000000000000000000006001600160a01b03169063845104de90602401608060405180830381865afa15801561253b573d5f803e3d5ffd5b505050506040513d601f19601f8201168201806040525081019061255f9190615752565b60609081015160408051808201909152600381526270617960e81b6020909101521591505f9081906125de907f0000000000000000000000000000000000000000000000000000000000000000901b7fadc756803e4eb4ccfb136b73d5f72e3dc0d452d30ae1f4bc82af394c73ce711518611ab86101e08b018b61539a565b9150915081156126405760605f828060200190518101906125ff91906157c2565b9250905084801561260e575080155b15612617575f94505b81511561263d5761263a87836126356101c08e016101a08f016147f0565b6137f0565b96505b50505b841561277b57826126675760405163215ccc4760e11b815260048101869052602401610eb5565b848401868111156126da576126846101c08a016101a08b016147f0565b6001600160a01b0316818883037f7e71a5f6c04b0eb16949316623b9dda7bd103692f7d89678e2260afa1378a2d56126ba612321565b6040516001600160a01b03909116815260200160405180910390a4612746565b80871115612746576126f46101c08a016101a08b016147f0565b6001600160a01b0316818289037f6276f0169fb8de712b2a6c02789f6115136c589ed491ac06f9e20f41877e41fe61272a612321565b6040516001600160a01b03909116815260200160405180910390a45b80600a5f61275c6101c08d016101a08e016147f0565b6001600160a01b0316815260208101919091526040015f20555061281c565b83861461281c576127946101c089016101a08a016147f0565b6001600160a01b0316846127a8818961586e565b7f6276f0169fb8de712b2a6c02789f6115136c589ed491ac06f9e20f41877e41fe6127d1612321565b6040516001600160a01b03909116815260200160405180910390a483600a5f6128026101c08c016101a08d016147f0565b6001600160a01b0316815260208101919091526040015f20555b5050505050505050565b5f61282f612321565b9050836001600160a01b0316816001600160a01b0316141580156128fc5750604051631a45b42760e11b81526001600160a01b0382811660048301528581166024830152604482018590526064820184905260016084830181905260a48301527f0000000000000000000000000000000000000000000000000000000000000000169063348b684e9060c401602060405180830381865afa1580156128d6573d5f803e3d5ffd5b505050506040513d601f19601f820116820180604052508101906128fa9190614e6c565b155b15610f1f57604051631326f75560e11b81526001600160a01b038086166004830152821660248201526044810184905260648101839052608401610eb5565b806001600160a01b03167fe7784d93cfbfa4408e19577e6cc0436f4dbb51214b70e100905dfce9def88c1661296e612321565b6040516001600160a01b03909116815260200160405180910390a260405163036129cb60e61b81526001600160a01b0382811660048301527f0000000000000000000000000000000000000000000000000000000000000000169063d84a72c0906024015b5f604051808303815f87803b1580156129ea575f80fd5b505af1158015611bd8573d5f803e3d5ffd5b60405163c44a8e6d60e01b8152306004820152602481018390525f604482018190529081906001600160a01b037f0000000000000000000000000000000000000000000000000000000000000000169063c44a8e6d906064015f60405180830381865afa158015612a6f573d5f803e3d5ffd5b505050506040513d5f823e601f3d908101601f19168201604052612a9691908101906158ad565b9050612aa3858585613940565b91506001600160a01b03821615612b6a5780610160015115612b1b575f612acb600754612cd3565b90506001600160a01b03861615801590612afb5750612afb612af282610100015160f21c90565b60019081161490565b15612b19576040516330225eab60e11b815260040160405180910390fd5b505b5f848152600b60205260409020546001600160a01b0316612b6a575f848152600b60205260409020805473ffffffffffffffffffffffffffffffffffffffff19166001600160a01b0384161790555b80516040516330b157e560e21b815263ffffffff90911660048201526001600160a01b03838116602483015286811660448301527f0000000000000000000000000000000000000000000000000000000000000000169063c2c55f94906064015f604051808303815f87803b158015612be1575f80fd5b505af1158015612bf3573d5f803e3d5ffd5b50505050509392505050565b817f8ebf585439d8c6edc7dfa9c0e01fdbb1d4e68d9969dc5341ebd8bca5cd9a7bd482612c2a612321565b604080519283526001600160a01b0390911660208301520160405180910390a260405163284d148160e11b815260048101839052602481018290527f00000000000000000000000000000000000000000000000000000000000000006001600160a01b03169063509a2902906044015f604051808303815f87803b158015612cb0575f80fd5b505af11580156113f8573d5f803e3d5ffd5b612ccc8282613a3f565b5050600755565b60408051610120810182525f80825260208201819052818301819052606082018190526080820181905260a0820181905260c0820181905260e0820181905261010082015290516321d1336160e11b8152600481018390526001600160a01b037f000000000000000000000000000000000000000000000000000000000000000016906343a266c29060240161012060405180830381865afa158015612d7b573d5f803e3d5ffd5b505050506040513d601f19601f82011682018060405250810190610a6f9190615a1d565b6001600160a01b038216612dc857604051633250574960e11b81525f6004820152602401610eb5565b5f612dd483835f6129fc565b90506001600160a01b03811615610f5e576040516339e3563760e11b81525f6004820152602401610eb5565b604080516060810182525f546001600160a01b0381168252600160a01b81046001600160581b031660208301819052600160f81b90910460ff16928201929092529061193b9015612ee55760208201516040516331a9108f60e11b81526001600160581b0390911660048201527f00000000000000000000000000000000000000000000000000000000000000006001600160a01b031690636352211e90602401602060405180830381865afa158015612ebc573d5f803e3d5ffd5b505050506040513d601f19601f82011682018060405250810190612ee09190615212565b612ee8565b81515b82602001516001600160581b0316836040015160ff16612826565b6001600160581b03811615801590612f2357506001600160a01b03821615155b15612f415760405163f854950960e01b815260040160405180910390fd5b604080516060810182525f80546001600160a01b0381168352600160a01b81046001600160581b031660208401819052600160f81b90910460ff16938301939093529091156130245760208201516040516331a9108f60e11b81526001600160581b0390911660048201527f00000000000000000000000000000000000000000000000000000000000000006001600160a01b031690636352211e90602401602060405180830381865afa158015612ffb573d5f803e3d5ffd5b505050506040513d601f19601f8201168201806040525081019061301f9190615212565b613027565b81515b604080516060810182526001600160a01b0387168082526001600160581b038716602083018190525f9290930182905281546001600160f81b03191617600160a01b909202919091176001600160f81b031690559050610f1f818585613a58565b6001600160a01b0382166130ba57604051630b61174360e31b81526001600160a01b0383166004820152602401610eb5565b6001600160a01b038381165f81815260066020908152604080832094871680845294825291829020805460ff191686151590811790915591519182527f17307eab39ab6107e8899845ad3d59bd9653f200f220920489ca2b5937696c3191015b60405180910390a3505050565b6001600160a01b0383163b15610f1f57826001600160a01b031663150b7a0261314e612321565b8685856040518563ffffffff1660e01b81526004016131709493929190615acc565b6020604051808303815f875af19250505080156131aa575060408051601f3d908101601f191682019092526131a791810190615b07565b60015b613211573d8080156131d7576040519150601f19603f3d011682016040523d82523d5f602084013e6131dc565b606091505b5080515f0361320957604051633250574960e11b81526001600160a01b0385166004820152602401610eb5565b805181602001fd5b6001600160e01b03198116630a85bd0160e11b14611bd857604051633250574960e11b81526001600160a01b0385166004820152602401610eb5565b5f80546001600160f81b0316600160f81b60ff841690810291909117909155604080519182523360208301527f3a02c735461e3ddd7b1f6ccb1620101cec0d5c7ef32a2eb50b1b02a4191d8207910160405180910390a150565b5f606060258351116132ca57505060408051602081019091525f80825290613440565b5f836132d860046020615b22565b815181106132e8576132e861522d565b0160209081015160f81c91505b5f85613302600484615b22565b815181106133125761331261522d565b01602001516001600160f81b031916148015906133385750613335602083615b35565b81105b1561343d575f8561334a600484615b22565b8151811061335a5761335a61522d565b016020908101518784019091015160f89190911c91506001600160e01b031980891690821603613433575f613390602086615b35565b61339b600986615b22565b1015806133d05750876133af600986615b22565b815181106133bf576133bf61522d565b01602001516001600160f81b031916155b613409576020886133e2600987615b22565b815181106133f2576133f261522d565b0160200151613404919060f81c615b35565b61340c565b87515b905060016134258961341f602087615b35565b84613b3c565b965096505050505050613440565b50506005016132f5565b50505b9250929050565b5f6134535f835f6129fc565b90506001600160a01b038116610b3e57604051637e27328960e01b815260048101839052602401610eb5565b6040516386bc2be360e01b81526001600160a01b037f000000000000000000000000000000000000000000000000000000000000000016906386bc2be3906129d390849060040161498c565b604051609160f51b6020820152602281018290526060905f9060420160405160208183030381529060405290505f61350282613b81565b90508481604051602001613517929190615b4c565b6040516020818303038152906040529250505092915050565b5f6001600160e01b031982166380ac58cd60e01b148061356057506001600160e01b03198216635b5e139f60e01b145b80610a6f57506301ffc9a760e01b6001600160e01b0319831614610a6f565b5f366014336001600160a01b037f0000000000000000000000000000000000000000000000000000000000000000161480156135bb5750808210155b156135ea575f366135cc838561586e565b6135d7928290615b7a565b6135e091615ba1565b60601c9250505090565b339250505090565b808061360657506001600160a01b03821615155b156136e5575f613615846122e9565b90506001600160a01b038316158015906136415750826001600160a01b0316816001600160a01b031614155b801561367257506001600160a01b038082165f9081526006602090815260408083209387168352929052205460ff16155b1561369b5760405163a9fbf51f60e01b81526001600160a01b0384166004820152602401610eb5565b81156136e35783856001600160a01b0316826001600160a01b03167f8c5be1e5ebec7d5bd14f71427d1e84f3dd0314c0f7b2291e5b200ac8c7c3b92560405160405180910390a45b505b50505f908152600560205260409020805473ffffffffffffffffffffffffffffffffffffffff19166001600160a01b0392909216919091179055565b5f80805f19858709858702925082811083820303915050805f036137585783828161374e5761374e615bd6565b04925050506111f8565b83811061378957604051630c740aef60e31b8152600481018790526024810186905260448101859052606401610eb5565b5f8486880960026001871981018816978890046003810283188082028403028082028403028082028403028082028403028082028403029081029092039091025f889003889004909101858311909403939093029303949094049190911702949350505050565b5f60607f00000000000000000000000000000000000000000000000000000000000000006001600160a01b031663eaa19ab386865f6040518463ffffffff1660e01b815260040161384393929190615bea565b5f604051808303815f875af115801561385e573d5f803e3d5ffd5b505050506040513d5f823e601f3d908101601f1916820160405261388591908101906152c0565b925090505f5b8151811015613937575f8282815181106138a7576138a761522d565b60200260200101519050846001600160a01b03168683815181106138cd576138cd61522d565b602002602001015161ffff16827f598baf7bf150ca2f42be9e9f8f55e81d45f5715c3ff22bf46d697fabec7f31d68a613904612321565b604080519283526001600160a01b0390911660208301520160405180910390a461392e8582612d9f565b5060010161388b565b50509392505050565b5f828152600360205260408120546001600160a01b039081169083161561396c5761396c818486613d11565b6001600160a01b038116156139a6576139875f855f806135f2565b6001600160a01b0381165f90815260046020526040902080545f190190555b6001600160a01b038516156139d4576001600160a01b0385165f908152600460205260409020805460010190555b5f84815260036020526040808220805473ffffffffffffffffffffffffffffffffffffffff19166001600160a01b0389811691821790925591518793918516917fddf252ad1be2c89b69c2b068fc378daa952ba7f163c4a11628f55a4df523b3ef91a4949350505050565b6001613a4b8382614fab565b506002610f5e8282614fab565b6001600160581b03811615613afb576040516331a9108f60e11b81526001600160581b03821660048201527f00000000000000000000000000000000000000000000000000000000000000006001600160a01b031690636352211e90602401602060405180830381865afa158015613ad2573d5f803e3d5ffd5b505050506040513d601f19601f82011682018060405250810190613af69190615212565b613afd565b815b6040513381526001600160a01b03918216918516907fc8894f26f396ce8c004245c8b7cd1b92103a6e4302fcbab883987149ac01b7ec9060200161311a565b6060828203604051915060208183010160405280825250826020850101602082015f5b84811015613b77578281015182820152602001613b5f565b5050509392505050565b606081515f03613b9e575050604080515f81526020810190915290565b60408051602e8082526105e082019092525f91602082016105c0803683370190505090505f815f81518110613bd557613bd561522d565b60ff9092166020928302919091019091015282516001905f5b81811015613ced575f868281518110613c0957613c0961522d565b016020015160f81c90505f5b8460ff16811015613c92576008868281518110613c3457613c3461522d565b602002602001015160ff16901b82613c4c9190615b22565b9150613c59603a83615c47565b868281518110613c6b57613c6b61522d565b60ff90921660209283029190910190910152613c88603a83615c5a565b9150600101613c15565b505b8015613ce457613ca5603a82615c47565b858560ff1681518110613cba57613cba61522d565b60ff90921660209283029190910190910152600190930192613cdd603a82615c5a565b9050613c94565b50600101613bee565b50613d08613d03613cfe8585613d75565b613e13565b613eb4565b95945050505050565b613d1c838383613f8b565b610f5e576001600160a01b038316613d4a57604051637e27328960e01b815260048101829052602401610eb5565b60405163177e802f60e01b81526001600160a01b038316600482015260248101829052604401610eb5565b60605f8260ff1667ffffffffffffffff811115613d9457613d946142b9565b604051908082528060200260200182016040528015613dbd578160200160208202803683370190505b5090505f5b8360ff1681101561160357848181518110613ddf57613ddf61522d565b6020026020010151828281518110613df957613df961522d565b60ff90921660209283029190910190910152600101613dc2565b80516060905f8167ffffffffffffffff811115613e3257613e326142b9565b604051908082528060200260200182016040528015613e5b578160200160208202803683370190505b5090505f5b8281101561160357848160018751030381518110613e8057613e8061522d565b6020026020010151828281518110613e9a57613e9a61522d565b60ff90921660209283029190910190910152600101613e60565b80516060905f8167ffffffffffffffff811115613ed357613ed36142b9565b6040519080825280601f01601f191660200182016040528015613efd576020820181803683370190505b5090505f5b82811015611603576040518060600160405280603a8152602001615c6e603a9139858281518110613f3557613f3561522d565b602002602001015160ff1681518110613f5057613f5061522d565b602001015160f81c60f81b828281518110613f6d57613f6d61522d565b60200101906001600160f81b03191690815f1a905350600101613f02565b5f6001600160a01b038316158015906140065750826001600160a01b0316846001600160a01b03161480613fe357506001600160a01b038085165f9081526006602090815260408083209387168352929052205460ff165b8061400657505f828152600560205260409020546001600160a01b038481169116145b949350505050565b6001600160e01b03198116811461193b575f80fd5b5f60208284031215614033575f80fd5b81356111f88161400e565b5f5b83811015614058578181015183820152602001614040565b50505f910152565b5f815180845261407781602086016020860161403e565b601f01601f19169290920160200192915050565b602081525f6111f86020830184614060565b5f602082840312156140ad575f80fd5b5035919050565b6001600160a01b038116811461193b575f80fd5b80356140d3816140b4565b919050565b5f80604083850312156140e9575f80fd5b82356140f4816140b4565b946020939093013593505050565b5f6102008284031215614113575f80fd5b50919050565b5f60208284031215614129575f80fd5b813567ffffffffffffffff81111561413f575f80fd5b61400684828501614102565b5f8083601f84011261415b575f80fd5b50813567ffffffffffffffff811115614172575f80fd5b602083019150836020828501011115613440575f80fd5b5f805f805f805f60a0888a03121561419f575f80fd5b873567ffffffffffffffff808211156141b6575f80fd5b6141c28b838c0161414b565b909950975060208a01359150808211156141da575f80fd5b506141e78a828b0161414b565b90965094505060408801356141fb816140b4565b969995985093969295946060840135945060809093013592915050565b5f6101a08284031215614113575f80fd5b5f60208284031215614239575f80fd5b813567ffffffffffffffff81111561424f575f80fd5b61400684828501614218565b5f805f6060848603121561426d575f80fd5b8335614278816140b4565b92506020840135614288816140b4565b929592945050506040919091013590565b5f80604083850312156142aa575f80fd5b50508035926020909101359150565b634e487b7160e01b5f52604160045260245ffd5b6040516080810167ffffffffffffffff811182821017156142f0576142f06142b9565b60405290565b6040516101c0810167ffffffffffffffff811182821017156142f0576142f06142b9565b604051610120810167ffffffffffffffff811182821017156142f0576142f06142b9565b6040516101e0810167ffffffffffffffff811182821017156142f0576142f06142b9565b604051601f8201601f1916810167ffffffffffffffff8111828210171561438b5761438b6142b9565b604052919050565b5f67ffffffffffffffff8211156143ac576143ac6142b9565b50601f01601f191660200190565b5f6143cc6143c784614393565b614362565b90508281528383830111156143df575f80fd5b828260208301375f602084830101529392505050565b5f82601f830112614404575f80fd5b6111f8838335602085016143ba565b5f67ffffffffffffffff82111561442c5761442c6142b9565b5060051b60200190565b6cffffffffffffffffffffffffff8116811461193b575f80fd5b80356140d381614436565b63ffffffff8116811461193b575f80fd5b80356140d38161445b565b61ffff8116811461193b575f80fd5b80356140d381614477565b62ffffff8116811461193b575f80fd5b80356140d381614491565b60ff8116811461193b575f80fd5b80356140d3816144ac565b801515811461193b575f80fd5b80356140d3816144c5565b5f60808083850312156144ee575f80fd5b6144f66142cd565b9150823567ffffffffffffffff81111561450e575f80fd5b8301601f8101851361451e575f80fd5b8035602061452e6143c783614413565b8281526101c0928302840182019282820191908985111561454d575f80fd5b948301945b848610156146625780868b031215614568575f80fd5b6145706142f6565b61457987614450565b815261458685880161446c565b85820152604061459781890161446c565b9082015260606145a8888201614486565b908201526145b78789016140c8565b8189015260a0878101359082015260c06145d28189016144a1565b9082015260e06145e38882016144ba565b908201526101006145f58882016144d2565b908201526101206146078882016144d2565b908201526101406146198882016144d2565b9082015261016061462b8882016144d2565b9082015261018061463d8882016144d2565b908201526101a061464f8882016144d2565b9082015283529485019491830191614552565b5086525061467186820161446c565b8186015250505050614685604083016144ba565b6040820152614696606083016140c8565b606082015292915050565b5f608082840312156146b1575f80fd5b6146b96142cd565b905081356146c6816144c5565b815260208201356146d6816144c5565b602082015260408201356146e9816144c5565b60408201526060820135614696816144c5565b5f805f805f805f80610160898b031215614714575f80fd5b88359750602089013567ffffffffffffffff80821115614732575f80fd5b61473e8c838d016143f5565b985060408b0135915080821115614753575f80fd5b61475f8c838d016143f5565b975060608b0135915080821115614774575f80fd5b6147808c838d016143f5565b965061478e60808c016140c8565b955060a08b01359150808211156147a3575f80fd5b6147af8c838d016143f5565b945060c08b01359150808211156147c4575f80fd5b506147d18b828c016144dd565b9250506147e18a60e08b016146a1565b90509295985092959890939650565b5f60208284031215614800575f80fd5b81356111f8816140b4565b5f806040838503121561481c575f80fd5b823567ffffffffffffffff80821115614833575f80fd5b818501915085601f830112614846575f80fd5b813560206148566143c783614413565b82815260059290921b84018101918181019089841115614874575f80fd5b948201945b8386101561489257853582529482019490820190614879565b965050860135925050808211156148a7575f80fd5b506148b485828601614218565b9150509250929050565b5f8083601f8401126148ce575f80fd5b50813567ffffffffffffffff8111156148e5575f80fd5b6020830191508360208260051b8501011115613440575f80fd5b5f805f60408486031215614911575f80fd5b833567ffffffffffffffff811115614927575f80fd5b614933868287016148be565b9094509250506020840135614947816140b4565b809150509250925092565b5f815180845260208085019450602084015f5b8381101561498157815187529582019590820190600101614965565b509495945050505050565b602081525f6111f86020830184614952565b5f602082840312156149ae575f80fd5b813567ffffffffffffffff8111156149c4575f80fd5b820161018081850312156111f8575f80fd5b5f604080830185845260206040818601528186518084526060935060608701915060608160051b8801018389015f5b83811015614a5557898303605f19018552815180516001600160a01b031684528681015187850152880151888401889052614a4288850182614060565b9587019593505090850190600101614a05565b50909a9950505050505050505050565b65ffffffffffff8116811461193b575f80fd5b80356140d381614a65565b6dffffffffffffffffffffffffffff8116811461193b575f80fd5b80356140d381614a83565b5f805f838503610160811215614abd575f80fd5b8435935061012080601f1983011215614ad4575f80fd5b614adc61431a565b9150614aea60208701614a78565b8252614af860408701614a78565b6020830152614b0960608701614a78565b6040830152614b1a60808701614a78565b6060830152614b2b60a0870161446c565b6080830152614b3c60c08701614a9e565b60a0830152614b4d60e0870161446c565b60c0830152610100614b608188016140c8565b60e084015290860135908201529150614b7c61014085016140c8565b90509250925092565b5f8083601f840112614b95575f80fd5b50813567ffffffffffffffff811115614bac575f80fd5b6020830191508360208260061b8501011115613440575f80fd5b5f8060208385031215614bd7575f80fd5b823567ffffffffffffffff811115614bed575f80fd5b614bf985828601614b85565b90969095509350505050565b5f8060408385031215614c16575f80fd5b8235614c21816140b4565b91506020830135614c31816144c5565b809150509250929050565b5f805f8060808587031215614c4f575f80fd5b8435614c5a816140b4565b93506020850135614c6a816140b4565b925060408501359150606085013567ffffffffffffffff811115614c8c575f80fd5b8501601f81018713614c9c575f80fd5b614cab878235602084016143ba565b91505092959194509250565b5f60208284031215614cc7575f80fd5b81356111f8816144ac565b5f805f8060408587031215614ce5575f80fd5b843567ffffffffffffffff80821115614cfc575f80fd5b818701915087601f830112614d0f575f80fd5b813581811115614d1d575f80fd5b8860206101c083028501011115614d32575f80fd5b602092830196509450908601359080821115614d4c575f80fd5b50614d59878288016148be565b95989497509550505050565b5f8060408385031215614d76575f80fd5b8235614d81816140b4565b91506020830135614c31816140b4565b5f6080820186835260208681850152604086604086015260606080606087015283875180865260a08801915060a08160051b89010195508489015f5b82811015614e1d57898803609f19018452815180516001600160a01b0316895287810151888a0152860151868901869052614e0a868a0182614060565b9850509286019290860190600101614dcd565b50959c9b505050505050505050505050565b600181811c90821680614e4357607f821691505b60208210810361411357634e487b7160e01b5f52602260045260245ffd5b80516140d3816144c5565b5f60208284031215614e7c575f80fd5b81516111f8816144c5565b601f821115610f5e57805f5260205f20601f840160051c81016020851015614eac5750805b601f840160051c820191505b81811015611bd8575f8155600101614eb8565b67ffffffffffffffff831115614ee357614ee36142b9565b614ef783614ef18354614e2f565b83614e87565b5f601f841160018114614f28575f8515614f115750838201355b5f19600387901b1c1916600186901b178355611bd8565b5f83815260208120601f198716915b82811015614f575786850135825560209485019460019092019101614f37565b5086821015614f73575f1960f88860031b161c19848701351681555b505060018560011b0183555050505050565b818382375f9101908152919050565b5f60208284031215614fa4575f80fd5b5051919050565b815167ffffffffffffffff811115614fc557614fc56142b9565b614fd981614fd38454614e2f565b84614e87565b602080601f83116001811461500c575f8415614ff55750858301515b5f19600386901b1c1916600185901b1785556113f8565b5f85815260208120601f198616915b8281101561503a5788860151825594840194600190910190840161501b565b508582101561505757878501515f19600388901b60f8161c191681555b5050505050600190811b01905550565b602080825282518282018190525f919060409081850190868401855b8281101561516157815180516cffffffffffffffffffffffffff1685528681015163ffffffff9081168887015286820151168686015260608082015161ffff16908601526080808201516001600160a01b03169086015260a0808201519086015260c08082015162ffffff169086015260e08082015160ff169086015261010080820151151590860152610120808201511515908601526101408082015115159086015261016080820151151590860152610180808201511515908601526101a0908101511515908501526101c09093019290850190600101615083565b5091979650505050505050565b5f82601f83011261517d575f80fd5b8151602061518d6143c783614413565b8083825260208201915060208460051b8701019350868411156151ae575f80fd5b602086015b848110156151ca57805183529183019183016151b3565b509695505050505050565b5f602082840312156151e5575f80fd5b815167ffffffffffffffff8111156151fb575f80fd5b6140068482850161516e565b80516140d3816140b4565b5f60208284031215615222575f80fd5b81516111f8816140b4565b634e487b7160e01b5f52603260045260245ffd5b6001600160a01b0383168152604060208201525f6140066040830184614952565b848152606060208083018290529082018490525f90859060808401835b878110156152a857833561529281614477565b61ffff168252928201929082019060010161527f565b50809350505050821515604083015295945050505050565b5f80604083850312156152d1575f80fd5b825167ffffffffffffffff8111156152e7575f80fd5b6152f38582860161516e565b925050602083015190509250929050565b5f60208284031215615314575f80fd5b81356111f881614477565b5f6040828403121561532f575f80fd5b6040516040810181811067ffffffffffffffff82111715615352576153526142b9565b60405290508082356153638161445b565b8152602083013561537381614477565b6020919091015292915050565b5f60408284031215615390575f80fd5b6111f8838361531f565b5f808335601e198436030181126153af575f80fd5b83018035915067ffffffffffffffff8211156153c9575f80fd5b602001915036819003821315613440575f80fd5b5f82601f8301126153ec575f80fd5b81516153fa6143c782614393565b81815284602083860101111561540e575f80fd5b61400682602083016020870161403e565b5f6020828403121561542f575f80fd5b815167ffffffffffffffff811115615445575f80fd5b614006848285016153dd565b602081528160208201525f7f07ffffffffffffffffffffffffffffffffffffffffffffffffffffffffffffff831115615488575f80fd5b8260051b80856040850137919091016040019392505050565b6154c1826154ae83614450565b6cffffffffffffffffffffffffff169052565b6154cd6020820161446c565b63ffffffff1660208301526154e46040820161446c565b63ffffffff1660408301526154fb60608201614486565b61ffff166060830152615510608082016140c8565b6001600160a01b0316608083015260a0818101359083015261553460c082016144a1565b62ffffff1660c083015261554a60e082016144ba565b60ff1660e08301526101006155608282016144d2565b1515908301526101206155748282016144d2565b1515908301526101406155888282016144d2565b15159083015261016061559c8282016144d2565b1515908301526101806155b08282016144d2565b1515908301526101a06155c48282016144d2565b80151584830152610f1f565b602080825281018290525f8360408301825b85811015615608576155f482846154a1565b6101c09283019291909101906001016155e2565b5095945050505050565b6101e0810161562182856154a1565b6001600160a01b0383166101c08301529392505050565b5f60208284031215615648575f80fd5b81356111f88161445b565b634e487b7160e01b5f52601160045260245ffd5b600181815b808511156156a157815f190482111561568757615687615653565b8085161561569457918102915b93841c939080029061566c565b509250929050565b5f826156b757506001610a6f565b816156c357505f610a6f565b81600181146156d957600281146156e3576156ff565b6001915050610a6f565b60ff8411156156f4576156f4615653565b50506001821b610a6f565b5060208310610133831016604e8410600b8410161715615722575081810a610a6f565b61572c8383615667565b805f190482111561573f5761573f615653565b029392505050565b5f6111f883836156a9565b5f60808284031215615762575f80fd5b61576a6142cd565b8251615775816144c5565b81526020830151615785816144c5565b60208201526040830151615798816144c5565b604082015260608301516157ab816144c5565b60608201529392505050565b80516140d381614477565b5f80604083850312156157d3575f80fd5b82516157de816144c5565b8092505060208084015167ffffffffffffffff8111156157fc575f80fd5b8401601f8101861361580c575f80fd5b805161581a6143c782614413565b81815260059190911b82018301908381019088831115615838575f80fd5b928401925b8284101561585f57835161585081614477565b8252928401929084019061583d565b80955050505050509250929050565b81810381811115610a6f57610a6f615653565b80516140d38161445b565b80516140d381614436565b80516140d381614491565b80516140d3816144ac565b5f602082840312156158bd575f80fd5b815167ffffffffffffffff808211156158d4575f80fd5b908301906101e082860312156158e8575f80fd5b6158f061433e565b6158f983615881565b81526159076020840161588c565b602082015261591860408401615881565b604082015261592960608401615881565b606082015261593a6080840161588c565b608082015261594b60a084016157b7565b60a082015261595c60c08401615207565b60c082015260e083015160e0820152610100615979818501615897565b9082015261012061598b8482016158a2565b9082015261014061599d848201614e61565b908201526101606159af848201614e61565b908201526101806159c1848201614e61565b908201526101a06159d3848201614e61565b908201526101c083810151838111156159ea575f80fd5b6159f6888287016153dd565b918301919091525095945050505050565b80516140d381614a65565b80516140d381614a83565b5f6101208284031215615a2e575f80fd5b615a3661431a565b615a3f83615a07565b8152615a4d60208401615a07565b6020820152615a5e60408401615a07565b6040820152615a6f60608401615a07565b6060820152615a8060808401615881565b6080820152615a9160a08401615a12565b60a0820152615aa260c08401615881565b60c0820152615ab360e08401615207565b60e0820152610100928301519281019290925250919050565b5f6001600160a01b03808716835280861660208401525083604083015260806060830152615afd6080830184614060565b9695505050505050565b5f60208284031215615b17575f80fd5b81516111f88161400e565b80820180821115610a6f57610a6f615653565b8082028115828204841417610a6f57610a6f615653565b5f8351615b5d81846020880161403e565b835190830190615b7181836020880161403e565b01949350505050565b5f8085851115615b88575f80fd5b83861115615b94575f80fd5b5050820193919092039150565b6bffffffffffffffffffffffff198135818116916014851015615bce5780818660140360031b1b83161692505b505092915050565b634e487b7160e01b5f52601260045260245ffd5b5f606082018583526020606060208501528186518084526080860191506020880193505f5b81811015615c2f57845161ffff1683529383019391830191600101615c0f565b50508093505050508215156040830152949350505050565b5f82615c5557615c55615bd6565b500690565b5f82615c6857615c68615bd6565b50049056fe31323334353637383941424344454647484a4b4c4d4e505152535455565758595a6162636465666768696a6b6d6e6f707172737475767778797aa264697066735822122076d030af360f4362e199cdd46610e0631a4723fc4c5957f873d3cba72c78bf3b64736f6c63430008170033",
			"deployedBytecode": "0x608060405260043610610303575f3560e01c80637da0a87711610191578063c22903b2116100dc578063e8a3d48511610087578063f2fde38b11610062578063f2fde38b146109ca578063f434c914146109e9578063fb82b1b014610a1c575f80fd5b8063e8a3d4851461093c578063e985e9c514610950578063edab09b914610997575f80fd5b8063d102134c116100b7578063d102134c146108bf578063d4a1b4b1146108de578063d95c9ae214610911575f80fd5b8063c22903b21461086e578063c87b56dd14610881578063cf7f4936146108a0575f80fd5b80639c2c6a021161013c578063b88d4fde11610117578063b88d4fde146107c5578063ba23c36e146107e4578063c0fb5e851461084f575f80fd5b80639c2c6a0214610768578063a220d69614610787578063a22cb465146107a6575f80fd5b80638da5cb5b1161016c5780638da5cb5b1461071e57806395d89b411461073257806399f6d77f14610746575f80fd5b80637da0a8771461068c57806388bc2ef3146106be5780638cc35846146106f1575f80fd5b8063462e3af8116102515780636352211e116101fc5780636c0360eb116101d75780636c0360eb1461064557806370a0823114610659578063715018a614610678575f80fd5b80636352211e146105db57806369f72970146105fa5780636ac6d94114610619575f80fd5b806356539f391161022c57806356539f391461055b578063572b6c0514610570578063613b856d146105bc575f80fd5b8063462e3af8146104ea578063507f14651461050957806354c6d1f51461053c575f80fd5b80631435aad5116102b15780632483d6b51161028c5780632483d6b514610479578063293c49991461049857806342842e0e146104cb575f80fd5b80631435aad51461040e5780631da1da721461042d57806323b872dd1461045a575f80fd5b806308786b1a116102e157806308786b1a14610393578063095ea7b3146103da5780631337f986146103fb575f80fd5b806301ffc9a71461030757806306fdde031461033b578063081812fc1461035c575b5f80fd5b348015610312575f80fd5b50610326610321366004614023565b610a4b565b60405190151581526020015b60405180910390f35b348015610346575f80fd5b5061034f610a75565b604051610332919061408b565b348015610367575f80fd5b5061037b61037636600461409d565b610b05565b6040516001600160a01b039091168152602001610332565b34801561039e575f80fd5b50600c5463ffffffff811690602081901c60ff169060281c6040805193845260208401929092526001600160a01b031690820152606001610332565b3480156103e5575f80fd5b506103f96103f43660046140d8565b610b2c565b005b6103f9610409366004614119565b610b42565b348015610419575f80fd5b506103f9610428366004614189565b610c13565b348015610438575f80fd5b5061044c610447366004614229565b610e07565b604051908152602001610332565b348015610465575f80fd5b506103f961047436600461425b565b610e90565b348015610484575f80fd5b506103f9610493366004614299565b610f25565b3480156104a3575f80fd5b5061037b7f000000000000000000000000885f707efa18d2cb12f05a3a8eba6b4b26c8c1d481565b3480156104d6575f80fd5b506103f96104e536600461425b565b610f44565b3480156104f5575f80fd5b506103f96105043660046146fc565b610f63565b348015610514575f80fd5b5061037b7f0000000000000000000000002bc696b0af74042b30b2687ab5817cc824eba8ee81565b348015610547575f80fd5b5061037b61055636600461409d565b6111bd565b348015610566575f80fd5b5061044c60075481565b34801561057b575f80fd5b5061032661058a3660046147f0565b7f000000000000000000000000c29d6995ab3b0df4650ad643adeac55e7acbb5666001600160a01b0390811691161490565b3480156105c7575f80fd5b506103f96105d6366004614299565b6111ff565b3480156105e6575f80fd5b5061037b6105f536600461409d565b611400565b348015610605575f80fd5b5061044c61061436600461480b565b61140a565b348015610624575f80fd5b506106386106333660046148ff565b611499565b604051610332919061498c565b348015610650575f80fd5b5061034f61160b565b348015610664575f80fd5b5061044c6106733660046147f0565b611697565b348015610683575f80fd5b506103f96116ef565b348015610697575f80fd5b507f000000000000000000000000c29d6995ab3b0df4650ad643adeac55e7acbb56661037b565b3480156106c9575f80fd5b5061037b7f0000000000000000000000000061e516886a0540f63157f112c0588ee0651dcf81565b3480156106fc575f80fd5b5061071061070b36600461499e565b611703565b6040516103329291906149d6565b348015610729575f80fd5b5061037b6117a6565b34801561073d575f80fd5b5061034f611890565b348015610751575f80fd5b50610326610760366004614aa9565b5f9392505050565b348015610773575f80fd5b506103f9610782366004614bc6565b61189f565b348015610792575f80fd5b506103f96107a136600461409d565b6118f8565b3480156107b1575f80fd5b506103f96107c0366004614c05565b61193e565b3480156107d0575f80fd5b506103f96107df366004614c3c565b611950565b3480156107ef575f80fd5b505f5461081f906001600160a01b03811690600160a01b81046001600160581b031690600160f81b900460ff1683565b604080516001600160a01b0390941684526001600160581b03909216602084015260ff1690820152606001610332565b34801561085a575f80fd5b506103f9610869366004614cb7565b611967565b6103f961087c366004614119565b611978565b34801561088c575f80fd5b5061034f61089b36600461409d565b611bdf565b3480156108ab575f80fd5b506103f96108ba366004614bc6565b611e09565b3480156108ca575f80fd5b506103f96108d9366004614cd2565b611e6d565b3480156108e9575f80fd5b5061037b7f0000000000000000000000006292281d69c3593fcf6ea074e5797341476ab42881565b34801561091c575f80fd5b5061044c61092b3660046147f0565b600a6020525f908152604090205481565b348015610947575f80fd5b5061034f612092565b34801561095b575f80fd5b5061032661096a366004614d65565b6001600160a01b039182165f90815260066020908152604080832093909416825291909152205460ff1690565b3480156109a2575f80fd5b5061037b7f000000000000000000000000e9485c121082d3beb57d6eac267b04a0f59d176081565b3480156109d5575f80fd5b506103f96109e43660046147f0565b61209f565b3480156109f4575f80fd5b5061037b7f00000000000000000000000004fd6913d6c32d8c216e153a43c04b1857a7793d81565b348015610a27575f80fd5b50610a3b610a36366004614229565b6120d8565b6040516103329493929190614d91565b5f6001600160e01b03198216637aa81e7b60e01b1480610a6f5750610a6f82612259565b92915050565b606060018054610a8490614e2f565b80601f0160208091040260200160405190810160405280929190818152602001828054610ab090614e2f565b8015610afb5780601f10610ad257610100808354040283529160200191610afb565b820191905f5260205f20905b815481529060010190602001808311610ade57829003601f168201915b5050505050905090565b5f610b0f826122e9565b505f828152600560205260409020546001600160a01b0316610a6f565b610b3e8282610b39612321565b61232f565b5050565b60075434151580610bdd5750604051636e49181f60e01b8152600481018290523360248201527f0000000000000000000000000061e516886a0540f63157f112c0588ee0651dcf6001600160a01b031690636e49181f90604401602060405180830381865afa158015610bb7573d5f803e3d5ffd5b505050506040513d601f19601f82011682018060405250810190610bdb9190614e6c565b155b80610bec575080826020013514155b15610c0a57604051633fb648ad60e11b815260040160405180910390fd5b610b3e8261233c565b610c28610c1e6117a6565b6007546015612826565b8515610c99576008610c3b878983614ecb565b508686604051610c4c929190614f85565b60405180910390207f7bc9110d5de090dd59e07912d2b93a5a27ac70a60c8d8e324db4f9ee8b8b5c13610c7d612321565b6040516001600160a01b03909116815260200160405180910390a25b8315610d0a576009610cac858783614ecb565b508484604051610cbd929190614f85565b60405180910390207fd36dc0c1a06103fdcaf15f3f6fb797d1a97997514c78de073640c8b5005454b8610cee612321565b6040516001600160a01b03909116815260200160405180910390a25b6001600160a01b0383163014610d2357610d238361293b565b8115801590610d3157508015155b15610dfe57817f677da4fed654db8e604791fa2582f342e2001aa217e27f6985eb3e0f67e5a7fc82610d61612321565b604080519283526001600160a01b0390911660208301520160405180910390a26040516324de8d6360e11b815260048101839052602481018290527f0000000000000000000000002bc696b0af74042b30b2687ab5817cc824eba8ee6001600160a01b0316906349bd1ac6906044015f604051808303815f87803b158015610de7575f80fd5b505af1158015610df9573d5f803e3d5ffd5b505050505b50505050505050565b6040516349e6fb6760e01b81523060048201525f907f0000000000000000000000002bc696b0af74042b30b2687ab5817cc824eba8ee6001600160a01b0316906349e6fb67906024015b602060405180830381865afa158015610e6c573d5f803e3d5ffd5b505050506040513d601f19601f82011682018060405250810190610a6f9190614f94565b6001600160a01b038216610ebe57604051633250574960e11b81525f60048201526024015b60405180910390fd5b5f610ed18383610ecc612321565b6129fc565b9050836001600160a01b0316816001600160a01b031614610f1f576040516364283d7b60e01b81526001600160a01b0380861660048301526024820184905282166044820152606401610eb5565b50505050565b610f3a610f306117a6565b6007546017612826565b610b3e8282612bff565b610f5e83838360405180602001604052805f815250611950565b505050565b60075415610f8a57600754604051639889eb1160e01b8152600401610eb591815260200190565b875f03610faa57604051630ea59fc560e21b815260040160405180910390fd5b610fb5888888612cc2565b6020808301516040840151606085015178ffffffffffffffffffffffffffffffffffffffff000000000060289190911b1664ff000000009190931b1663ffffffff9091161717600c8190558551156110155760086110138782614fab565b505b83511561102a5760096110288582614fab565b505b6001600160a01b03851615611042576110428561293b565b825151156110db578251604051631f1d05ad60e01b81526001600160a01b037f0000000000000000000000002bc696b0af74042b30b2687ab5817cc824eba8ee1691631f1d05ad916110979190600401615067565b5f604051808303815f875af11580156110b2573d5f803e3d5ffd5b505050506040513d5f823e601f3d908101601f191682016040526110d991908101906151d5565b505b8151806110e9575081602001515b806110f5575081604001515b80611101575081606001515b156111a257604080516365c13f1960e11b815283511515600482015260208401511515602482015290830151151560448201526060830151151560648201527f0000000000000000000000002bc696b0af74042b30b2687ab5817cc824eba8ee6001600160a01b03169063cb827e32906084015f604051808303815f87803b15801561118b575f80fd5b505af115801561119d573d5f803e3d5ffd5b505050505b6111b26111ad612321565b6120ce565b505050505050505050565b5f818152600b60205260408120546001600160a01b031680156111e05792915050565b5f838152600360205260409020546001600160a01b03165b9392505050565b5f61120b600754612cd3565b905061122a61121f82610100015160f21c90565b600190811c81161490565b156112485760405163b1f1d8cf60e01b815260040160405180910390fd5b604051635d53f40760e11b815260048101849052602481018390525f907f0000000000000000000000002bc696b0af74042b30b2687ab5817cc824eba8ee6001600160a01b03169063baa7e80e906044015f604051808303815f875af11580156112b4573d5f803e3d5ffd5b505050506040513d5f823e601f3d908101601f191682016040526112db91908101906151d5565b60405162d5cc0160e21b8152306004820152602481018690529091505f906001600160a01b037f0000000000000000000000002bc696b0af74042b30b2687ab5817cc824eba8ee1690630357300490604401602060405180830381865afa158015611348573d5f803e3d5ffd5b505050506040513d601f19601f8201168201806040525081019061136c9190615212565b90505f5b848110156113f8575f83828151811061138b5761138b61522d565b60200260200101519050826001600160a01b031687827f80dd2efbbc431cde0164d84d638e44ba6e7a3ca5d532ceef1bb4efcc0948325d6113ca612321565b6040516001600160a01b03909116815260200160405180910390a46113ef8382612d9f565b50600101611370565b505050505050565b5f610a6f826122e9565b604051639be748fb60e01b81525f906001600160a01b037f0000000000000000000000002bc696b0af74042b30b2687ab5817cc824eba8ee1690639be748fb9061145a9030908790600401615241565b602060405180830381865afa158015611475573d5f803e3d5ffd5b505050506040513d601f19601f820116820180604052508101906111f89190614f94565b60606114b06114a66117a6565b6007546016612826565b60405163eaa19ab360e01b81526001600160a01b037f0000000000000000000000002bc696b0af74042b30b2687ab5817cc824eba8ee169063eaa19ab390611504905f199088908890600190600401615262565b5f604051808303815f875af115801561151f573d5f803e3d5ffd5b505050506040513d5f823e601f3d908101601f1916820160405261154691908101906152c0565b5090505f5b83811015611603575f8282815181106115665761156661522d565b6020026020010151905061157a8482612d9f565b836001600160a01b03168686848181106115965761159661522d565b90506020020160208101906115ab9190615304565b61ffff16827f598baf7bf150ca2f42be9e9f8f55e81d45f5715c3ff22bf46d697fabec7f31d65f6115da612321565b604080519283526001600160a01b0390911660208301520160405180910390a45060010161154b565b509392505050565b6008805461161890614e2f565b80601f016020809104026020016040519081016040528092919081815260200182805461164490614e2f565b801561168f5780601f106116665761010080835404028352916020019161168f565b820191905f5260205f20905b81548152906001019060200180831161167257829003601f168201915b505050505081565b604051633de222bb60e21b81523060048201526001600160a01b0382811660248301525f917f0000000000000000000000002bc696b0af74042b30b2687ab5817cc824eba8ee9091169063f7888aec90604401610e51565b6116f7612e00565b6117015f80612f03565b565b6040805160018082528183019092526101208301359160609190816020015b60408051606080820183525f8083526020830152918101919091528152602001906001900390816117225790505090506040518060600160405280306001600160a01b031681526020015f815260200160405180602001604052805f815250815250815f815181106117965761179661522d565b6020026020010181905250915091565b604080516060810182525f80546001600160a01b0381168352600160a01b81046001600160581b031660208401819052600160f81b90910460ff16938301939093529182036117f55751919050565b60208101516040516331a9108f60e11b81526001600160581b0390911660048201527f000000000000000000000000885f707efa18d2cb12f05a3a8eba6b4b26c8c1d46001600160a01b031690636352211e90602401602060405180830381865afa158015611866573d5f803e3d5ffd5b505050506040513d601f19601f8201168201806040525081019061188a9190615212565b91505090565b606060028054610a8490614e2f565b5f5b81811015610f5e575f8383838181106118bc576118bc61522d565b9050604002018036038101906118d29190615380565b90506118ef815f015163ffffffff16826020015161ffff166111ff565b506001016118a1565b611900612e00565b80158061191357506001600160581b0381115b156119315760405163f854950960e01b815260040160405180910390fd5b61193b5f82612f03565b50565b610b3e611949612321565b8383613088565b61195b848484610e90565b610f1f84848484613127565b61196f612e00565b61193b8161324d565b60075434151580611a135750604051636e49181f60e01b8152600481018290523360248201527f0000000000000000000000000061e516886a0540f63157f112c0588ee0651dcf6001600160a01b031690636e49181f90604401602060405180830381865afa1580156119ed573d5f803e3d5ffd5b505050506040513d601f19601f82011682018060405250810190611a119190614e6c565b155b80611a22575080826020013514155b15611a40576040516394310b3d60e01b815260040160405180910390fd5b60408051808201909152600781526618d85cda13dd5d60ca1b6020909101525f80611af17f000000000000000000000000e9485c121082d3beb57d6eac267b04a0f59d176060601b7f86b14ff4df1839d4c5ed01550f2540ea56ad3e3813c5cd226eeab5890c21e3bb18611ab86101e087018761539a565b8080601f0160208091040260200160405190810160405280939291908181526020018383808284375f920191909152506132a792505050565b9150915060608215611b145781806020019051810190611b1191906151d5565b90505b5f5b8151811015611bce575f828281518110611b3257611b3261522d565b60200260200101519050865f016020810190611b4e91906147f0565b6001600160a01b0316611b75825f908152600360205260409020546001600160a01b031690565b6001600160a01b031614611bbc5780611b9160208901896147f0565b604051630694678560e21b815260048101929092526001600160a01b03166024820152604401610eb5565b611bc581613447565b50600101611b16565b50611bd88161347f565b5050505050565b604051630fab094760e01b81523060048201526060905f906001600160a01b037f0000000000000000000000002bc696b0af74042b30b2687ab5817cc824eba8ee1690630fab094790602401602060405180830381865afa158015611c46573d5f803e3d5ffd5b505050506040513d601f19601f82011682018060405250810190611c6a9190615212565b90506001600160a01b03811615611cea57604051635e703e7160e01b8152306004820152602481018490526001600160a01b03821690635e703e71906044015f60405180830381865afa158015611cc3573d5f803e3d5ffd5b505050506040513d5f823e601f3d908101601f191682016040526111f8919081019061541f565b6111f860088054611cfa90614e2f565b80601f0160208091040260200160405190810160405280929190818152602001828054611d2690614e2f565b8015611d715780601f10611d4857610100808354040283529160200191611d71565b820191905f5260205f20905b815481529060010190602001808311611d5457829003601f168201915b5050604051630c8df17160e41b8152306004820152602481018990527f0000000000000000000000002bc696b0af74042b30b2687ab5817cc824eba8ee6001600160a01b0316935063c8df171092506044019050602060405180830381865afa158015611de0573d5f803e3d5ffd5b505050506040513d601f19601f82011682018060405250810190611e049190614f94565b6134cb565b611e14610f306117a6565b5f5b81811015610f5e575f838383818110611e3157611e3161522d565b905060400201803603810190611e479190615380565b9050611e64815f015163ffffffff16826020015161ffff16612bff565b50600101611e16565b611e82611e786117a6565b6007546014612826565b8015611f74575f5b81811015611ef757828282818110611ea457611ea461522d565b905060200201357f832d89d991be5351d793c20faf4b7dd44f8aa9ce39e3cb160c6317de6fbba729611ed4612321565b6040516001600160a01b03909116815260200160405180910390a2600101611e8a565b506040516320512ba160e01b81526001600160a01b037f0000000000000000000000002bc696b0af74042b30b2687ab5817cc824eba8ee16906320512ba190611f469085908590600401615451565b5f604051808303815f87803b158015611f5d575f80fd5b505af1158015611f6f573d5f803e3d5ffd5b505050505b8215610f1f57604051631f1d05ad60e01b81525f906001600160a01b037f0000000000000000000000002bc696b0af74042b30b2687ab5817cc824eba8ee1690631f1d05ad90611fca90889088906004016155d0565b5f604051808303815f875af1158015611fe5573d5f803e3d5ffd5b505050506040513d5f823e601f3d908101601f1916820160405261200c91908101906151d5565b90505f5b848110156113f85781818151811061202a5761202a61522d565b60200260200101517fcbda9c610cbf8b0b9941c465b20ff7e1fae572086b70ef65fa3d5e4bf3d0deaa8787848181106120655761206561522d565b90506101c00201612074612321565b604051612082929190615612565b60405180910390a2600101612010565b6009805461161890614e2f565b6120a7612e00565b6001600160a01b0381166120ce5760405163f854950960e01b815260040160405180910390fd5b61193b815f612f03565b5f808060606080850135156121005760405163096afe5960e41b815260040160405180910390fd5b60408051808201909152600781526618d85cda13dd5d60ca1b6020909101525f806121787f000000000000000000000000e9485c121082d3beb57d6eac267b04a0f59d176060601b7f86b14ff4df1839d4c5ed01550f2540ea56ad3e3813c5cd226eeab5890c21e3bb18611ab86101808a018a61539a565b604080516001808252818301909252929450909250816020015b60408051606080820183525f8083526020830152918101919091528152602001906001900390816121925790505092506040518060600160405280306001600160a01b031681526020015f815260200160405180602001604052805f815250815250835f815181106122065761220661522d565b602002602001018190525060608215612230578180602001905181019061222d91906151d5565b90505b61223a818961140a565b955061224588610e07565b945087610160013596505050509193509193565b5f6001600160e01b03198216633344b87360e01b148061228957506001600160e01b0319821663eeb73e8960e01b145b806122a457506001600160e01b0319821663099bfcc360e11b145b806122bf57506001600160e01b0319821663611481d960e11b145b806122da57506001600160e01b0319821663152a902d60e11b145b80610a6f5750610a6f82613530565b5f818152600360205260408120546001600160a01b031680610a6f57604051637e27328960e01b815260048101849052602401610eb5565b5f61232a61357f565b905090565b610f5e83838360016135f2565b600c545f9063ffffffff81168061235960c0860160a08701615638565b63ffffffff16036123705760c0840135925061245d565b602882901c6001600160a01b03811615611bd85760ff602084901c1661245860c087013561239f83600a615747565b6007546001600160a01b03861690633be273fa906123c360c08d0160a08e01615638565b898d60600160200160208101906123da9190614cb7565b6040516001600160e01b031960e087901b168152600481019490945263ffffffff929092166024840152604483015260ff166064820152608401602060405180830381865afa15801561242f573d5f803e3d5ffd5b505050506040513d601f19601f820116820180604052508101906124539190614f94565b613721565b945050505b505f9050600a816124766101c086016101a087016147f0565b6001600160a01b0316815260208101919091526040015f90812054915082906124a76101c086016101a087016147f0565b6001600160a01b03166124bd60208701876147f0565b6001600160a01b0316036124d457908201906124d7565b50815b604051634228826f60e11b81523060048201525f907f0000000000000000000000002bc696b0af74042b30b2687ab5817cc824eba8ee6001600160a01b03169063845104de90602401608060405180830381865afa15801561253b573d5f803e3d5ffd5b505050506040513d601f19601f8201168201806040525081019061255f9190615752565b60609081015160408051808201909152600381526270617960e81b6020909101521591505f9081906125de907f000000000000000000000000e9485c121082d3beb57d6eac267b04a0f59d1760901b7fadc756803e4eb4ccfb136b73d5f72e3dc0d452d30ae1f4bc82af394c73ce711518611ab86101e08b018b61539a565b9150915081156126405760605f828060200190518101906125ff91906157c2565b9250905084801561260e575080155b15612617575f94505b81511561263d5761263a87836126356101c08e016101a08f016147f0565b6137f0565b96505b50505b841561277b57826126675760405163215ccc4760e11b815260048101869052602401610eb5565b848401868111156126da576126846101c08a016101a08b016147f0565b6001600160a01b0316818883037f7e71a5f6c04b0eb16949316623b9dda7bd103692f7d89678e2260afa1378a2d56126ba612321565b6040516001600160a01b03909116815260200160405180910390a4612746565b80871115612746576126f46101c08a016101a08b016147f0565b6001600160a01b0316818289037f6276f0169fb8de712b2a6c02789f6115136c589ed491ac06f9e20f41877e41fe61272a612321565b6040516001600160a01b03909116815260200160405180910390a45b80600a5f61275c6101c08d016101a08e016147f0565b6001600160a01b0316815260208101919091526040015f20555061281c565b83861461281c576127946101c089016101a08a016147f0565b6001600160a01b0316846127a8818961586e565b7f6276f0169fb8de712b2a6c02789f6115136c589ed491ac06f9e20f41877e41fe6127d1612321565b6040516001600160a01b03909116815260200160405180910390a483600a5f6128026101c08c016101a08d016147f0565b6001600160a01b0316815260208101919091526040015f20555b5050505050505050565b5f61282f612321565b9050836001600160a01b0316816001600160a01b0316141580156128fc5750604051631a45b42760e11b81526001600160a01b0382811660048301528581166024830152604482018590526064820184905260016084830181905260a48301527f00000000000000000000000004fd6913d6c32d8c216e153a43c04b1857a7793d169063348b684e9060c401602060405180830381865afa1580156128d6573d5f803e3d5ffd5b505050506040513d601f19601f820116820180604052508101906128fa9190614e6c565b155b15610f1f57604051631326f75560e11b81526001600160a01b038086166004830152821660248201526044810184905260648101839052608401610eb5565b806001600160a01b03167fe7784d93cfbfa4408e19577e6cc0436f4dbb51214b70e100905dfce9def88c1661296e612321565b6040516001600160a01b03909116815260200160405180910390a260405163036129cb60e61b81526001600160a01b0382811660048301527f0000000000000000000000002bc696b0af74042b30b2687ab5817cc824eba8ee169063d84a72c0906024015b5f604051808303815f87803b1580156129ea575f80fd5b505af1158015611bd8573d5f803e3d5ffd5b60405163c44a8e6d60e01b8152306004820152602481018390525f604482018190529081906001600160a01b037f0000000000000000000000002bc696b0af74042b30b2687ab5817cc824eba8ee169063c44a8e6d906064015f60405180830381865afa158015612a6f573d5f803e3d5ffd5b505050506040513d5f823e601f3d908101601f19168201604052612a9691908101906158ad565b9050612aa3858585613940565b91506001600160a01b03821615612b6a5780610160015115612b1b575f612acb600754612cd3565b90506001600160a01b03861615801590612afb5750612afb612af282610100015160f21c90565b60019081161490565b15612b19576040516330225eab60e11b815260040160405180910390fd5b505b5f848152600b60205260409020546001600160a01b0316612b6a575f848152600b60205260409020805473ffffffffffffffffffffffffffffffffffffffff19166001600160a01b0384161790555b80516040516330b157e560e21b815263ffffffff90911660048201526001600160a01b03838116602483015286811660448301527f0000000000000000000000002bc696b0af74042b30b2687ab5817cc824eba8ee169063c2c55f94906064015f604051808303815f87803b158015612be1575f80fd5b505af1158015612bf3573d5f803e3d5ffd5b50505050509392505050565b817f8ebf585439d8c6edc7dfa9c0e01fdbb1d4e68d9969dc5341ebd8bca5cd9a7bd482612c2a612321565b604080519283526001600160a01b0390911660208301520160405180910390a260405163284d148160e11b815260048101839052602481018290527f0000000000000000000000002bc696b0af74042b30b2687ab5817cc824eba8ee6001600160a01b03169063509a2902906044015f604051808303815f87803b158015612cb0575f80fd5b505af11580156113f8573d5f803e3d5ffd5b612ccc8282613a3f565b5050600755565b60408051610120810182525f80825260208201819052818301819052606082018190526080820181905260a0820181905260c0820181905260e0820181905261010082015290516321d1336160e11b8152600481018390526001600160a01b037f0000000000000000000000006292281d69c3593fcf6ea074e5797341476ab42816906343a266c29060240161012060405180830381865afa158015612d7b573d5f803e3d5ffd5b505050506040513d601f19601f82011682018060405250810190610a6f9190615a1d565b6001600160a01b038216612dc857604051633250574960e11b81525f6004820152602401610eb5565b5f612dd483835f6129fc565b90506001600160a01b03811615610f5e576040516339e3563760e11b81525f6004820152602401610eb5565b604080516060810182525f546001600160a01b0381168252600160a01b81046001600160581b031660208301819052600160f81b90910460ff16928201929092529061193b9015612ee55760208201516040516331a9108f60e11b81526001600160581b0390911660048201527f000000000000000000000000885f707efa18d2cb12f05a3a8eba6b4b26c8c1d46001600160a01b031690636352211e90602401602060405180830381865afa158015612ebc573d5f803e3d5ffd5b505050506040513d601f19601f82011682018060405250810190612ee09190615212565b612ee8565b81515b82602001516001600160581b0316836040015160ff16612826565b6001600160581b03811615801590612f2357506001600160a01b03821615155b15612f415760405163f854950960e01b815260040160405180910390fd5b604080516060810182525f80546001600160a01b0381168352600160a01b81046001600160581b031660208401819052600160f81b90910460ff16938301939093529091156130245760208201516040516331a9108f60e11b81526001600160581b0390911660048201527f000000000000000000000000885f707efa18d2cb12f05a3a8eba6b4b26c8c1d46001600160a01b031690636352211e90602401602060405180830381865afa158015612ffb573d5f803e3d5ffd5b505050506040513d601f19601f8201168201806040525081019061301f9190615212565b613027565b81515b604080516060810182526001600160a01b0387168082526001600160581b038716602083018190525f9290930182905281546001600160f81b03191617600160a01b909202919091176001600160f81b031690559050610f1f818585613a58565b6001600160a01b0382166130ba57604051630b61174360e31b81526001600160a01b0383166004820152602401610eb5565b6001600160a01b038381165f81815260066020908152604080832094871680845294825291829020805460ff191686151590811790915591519182527f17307eab39ab6107e8899845ad3d59bd9653f200f220920489ca2b5937696c3191015b60405180910390a3505050565b6001600160a01b0383163b15610f1f57826001600160a01b031663150b7a0261314e612321565b8685856040518563ffffffff1660e01b81526004016131709493929190615acc565b6020604051808303815f875af19250505080156131aa575060408051601f3d908101601f191682019092526131a791810190615b07565b60015b613211573d8080156131d7576040519150601f19603f3d011682016040523d82523d5f602084013e6131dc565b606091505b5080515f0361320957604051633250574960e11b81526001600160a01b0385166004820152602401610eb5565b805181602001fd5b6001600160e01b03198116630a85bd0160e11b14611bd857604051633250574960e11b81526001600160a01b0385166004820152602401610eb5565b5f80546001600160f81b0316600160f81b60ff841690810291909117909155604080519182523360208301527f3a02c735461e3ddd7b1f6ccb1620101cec0d5c7ef32a2eb50b1b02a4191d8207910160405180910390a150565b5f606060258351116132ca57505060408051602081019091525f80825290613440565b5f836132d860046020615b22565b815181106132e8576132e861522d565b0160209081015160f81c91505b5f85613302600484615b22565b815181106133125761331261522d565b01602001516001600160f81b031916148015906133385750613335602083615b35565b81105b1561343d575f8561334a600484615b22565b8151811061335a5761335a61522d565b016020908101518784019091015160f89190911c91506001600160e01b031980891690821603613433575f613390602086615b35565b61339b600986615b22565b1015806133d05750876133af600986615b22565b815181106133bf576133bf61522d565b01602001516001600160f81b031916155b613409576020886133e2600987615b22565b815181106133f2576133f261522d565b0160200151613404919060f81c615b35565b61340c565b87515b905060016134258961341f602087615b35565b84613b3c565b965096505050505050613440565b50506005016132f5565b50505b9250929050565b5f6134535f835f6129fc565b90506001600160a01b038116610b3e57604051637e27328960e01b815260048101839052602401610eb5565b6040516386bc2be360e01b81526001600160a01b037f0000000000000000000000002bc696b0af74042b30b2687ab5817cc824eba8ee16906386bc2be3906129d390849060040161498c565b604051609160f51b6020820152602281018290526060905f9060420160405160208183030381529060405290505f61350282613b81565b90508481604051602001613517929190615b4c565b6040516020818303038152906040529250505092915050565b5f6001600160e01b031982166380ac58cd60e01b148061356057506001600160e01b03198216635b5e139f60e01b145b80610a6f57506301ffc9a760e01b6001600160e01b0319831614610a6f565b5f366014336001600160a01b037f000000000000000000000000c29d6995ab3b0df4650ad643adeac55e7acbb566161480156135bb5750808210155b156135ea575f366135cc838561586e565b6135d7928290615b7a565b6135e091615ba1565b60601c9250505090565b339250505090565b808061360657506001600160a01b03821615155b156136e5575f613615846122e9565b90506001600160a01b038316158015906136415750826001600160a01b0316816001600160a01b031614155b801561367257506001600160a01b038082165f9081526006602090815260408083209387168352929052205460ff16155b1561369b5760405163a9fbf51f60e01b81526001600160a01b0384166004820152602401610eb5565b81156136e35783856001600160a01b0316826001600160a01b03167f8c5be1e5ebec7d5bd14f71427d1e84f3dd0314c0f7b2291e5b200ac8c7c3b92560405160405180910390a45b505b50505f908152600560205260409020805473ffffffffffffffffffffffffffffffffffffffff19166001600160a01b0392909216919091179055565b5f80805f19858709858702925082811083820303915050805f036137585783828161374e5761374e615bd6565b04925050506111f8565b83811061378957604051630c740aef60e31b8152600481018790526024810186905260448101859052606401610eb5565b5f8486880960026001871981018816978890046003810283188082028403028082028403028082028403028082028403028082028403029081029092039091025f889003889004909101858311909403939093029303949094049190911702949350505050565b5f60607f0000000000000000000000002bc696b0af74042b30b2687ab5817cc824eba8ee6001600160a01b031663eaa19ab386865f6040518463ffffffff1660e01b815260040161384393929190615bea565b5f604051808303815f875af115801561385e573d5f803e3d5ffd5b505050506040513d5f823e601f3d908101601f1916820160405261388591908101906152c0565b925090505f5b8151811015613937575f8282815181106138a7576138a761522d565b60200260200101519050846001600160a01b03168683815181106138cd576138cd61522d565b602002602001015161ffff16827f598baf7bf150ca2f42be9e9f8f55e81d45f5715c3ff22bf46d697fabec7f31d68a613904612321565b604080519283526001600160a01b0390911660208301520160405180910390a461392e8582612d9f565b5060010161388b565b50509392505050565b5f828152600360205260408120546001600160a01b039081169083161561396c5761396c818486613d11565b6001600160a01b038116156139a6576139875f855f806135f2565b6001600160a01b0381165f90815260046020526040902080545f190190555b6001600160a01b038516156139d4576001600160a01b0385165f908152600460205260409020805460010190555b5f84815260036020526040808220805473ffffffffffffffffffffffffffffffffffffffff19166001600160a01b0389811691821790925591518793918516917fddf252ad1be2c89b69c2b068fc378daa952ba7f163c4a11628f55a4df523b3ef91a4949350505050565b6001613a4b8382614fab565b506002610f5e8282614fab565b6001600160581b03811615613afb576040516331a9108f60e11b81526001600160581b03821660048201527f000000000000000000000000885f707efa18d2cb12f05a3a8eba6b4b26c8c1d46001600160a01b031690636352211e90602401602060405180830381865afa158015613ad2573d5f803e3d5ffd5b505050506040513d601f19601f82011682018060405250810190613af69190615212565b613afd565b815b6040513381526001600160a01b03918216918516907fc8894f26f396ce8c004245c8b7cd1b92103a6e4302fcbab883987149ac01b7ec9060200161311a565b6060828203604051915060208183010160405280825250826020850101602082015f5b84811015613b77578281015182820152602001613b5f565b5050509392505050565b606081515f03613b9e575050604080515f81526020810190915290565b60408051602e8082526105e082019092525f91602082016105c0803683370190505090505f815f81518110613bd557613bd561522d565b60ff9092166020928302919091019091015282516001905f5b81811015613ced575f868281518110613c0957613c0961522d565b016020015160f81c90505f5b8460ff16811015613c92576008868281518110613c3457613c3461522d565b602002602001015160ff16901b82613c4c9190615b22565b9150613c59603a83615c47565b868281518110613c6b57613c6b61522d565b60ff90921660209283029190910190910152613c88603a83615c5a565b9150600101613c15565b505b8015613ce457613ca5603a82615c47565b858560ff1681518110613cba57613cba61522d565b60ff90921660209283029190910190910152600190930192613cdd603a82615c5a565b9050613c94565b50600101613bee565b50613d08613d03613cfe8585613d75565b613e13565b613eb4565b95945050505050565b613d1c838383613f8b565b610f5e576001600160a01b038316613d4a57604051637e27328960e01b815260048101829052602401610eb5565b60405163177e802f60e01b81526001600160a01b038316600482015260248101829052604401610eb5565b60605f8260ff1667ffffffffffffffff811115613d9457613d946142b9565b604051908082528060200260200182016040528015613dbd578160200160208202803683370190505b5090505f5b8360ff1681101561160357848181518110613ddf57613ddf61522d565b6020026020010151828281518110613df957613df961522d565b60ff90921660209283029190910190910152600101613dc2565b80516060905f8167ffffffffffffffff811115613e3257613e326142b9565b604051908082528060200260200182016040528015613e5b578160200160208202803683370190505b5090505f5b8281101561160357848160018751030381518110613e8057613e8061522d565b6020026020010151828281518110613e9a57613e9a61522d565b60ff90921660209283029190910190910152600101613e60565b80516060905f8167ffffffffffffffff811115613ed357613ed36142b9565b6040519080825280601f01601f191660200182016040528015613efd576020820181803683370190505b5090505f5b82811015611603576040518060600160405280603a8152602001615c6e603a9139858281518110613f3557613f3561522d565b602002602001015160ff1681518110613f5057613f5061522d565b602001015160f81c60f81b828281518110613f6d57613f6d61522d565b60200101906001600160f81b03191690815f1a905350600101613f02565b5f6001600160a01b038316158015906140065750826001600160a01b0316846001600160a01b03161480613fe357506001600160a01b038085165f9081526006602090815260408083209387168352929052205460ff165b8061400657505f828152600560205260409020546001600160a01b038481169116145b949350505050565b6001600160e01b03198116811461193b575f80fd5b5f60208284031215614033575f80fd5b81356111f88161400e565b5f5b83811015614058578181015183820152602001614040565b50505f910152565b5f815180845261407781602086016020860161403e565b601f01601f19169290920160200192915050565b602081525f6111f86020830184614060565b5f602082840312156140ad575f80fd5b5035919050565b6001600160a01b038116811461193b575f80fd5b80356140d3816140b4565b919050565b5f80604083850312156140e9575f80fd5b82356140f4816140b4565b946020939093013593505050565b5f6102008284031215614113575f80fd5b50919050565b5f60208284031215614129575f80fd5b813567ffffffffffffffff81111561413f575f80fd5b61400684828501614102565b5f8083601f84011261415b575f80fd5b50813567ffffffffffffffff811115614172575f80fd5b602083019150836020828501011115613440575f80fd5b5f805f805f805f60a0888a03121561419f575f80fd5b873567ffffffffffffffff808211156141b6575f80fd5b6141c28b838c0161414b565b909950975060208a01359150808211156141da575f80fd5b506141e78a828b0161414b565b90965094505060408801356141fb816140b4565b969995985093969295946060840135945060809093013592915050565b5f6101a08284031215614113575f80fd5b5f60208284031215614239575f80fd5b813567ffffffffffffffff81111561424f575f80fd5b61400684828501614218565b5f805f6060848603121561426d575f80fd5b8335614278816140b4565b92506020840135614288816140b4565b929592945050506040919091013590565b5f80604083850312156142aa575f80fd5b50508035926020909101359150565b634e487b7160e01b5f52604160045260245ffd5b6040516080810167ffffffffffffffff811182821017156142f0576142f06142b9565b60405290565b6040516101c0810167ffffffffffffffff811182821017156142f0576142f06142b9565b604051610120810167ffffffffffffffff811182821017156142f0576142f06142b9565b6040516101e0810167ffffffffffffffff811182821017156142f0576142f06142b9565b604051601f8201601f1916810167ffffffffffffffff8111828210171561438b5761438b6142b9565b604052919050565b5f67ffffffffffffffff8211156143ac576143ac6142b9565b50601f01601f191660200190565b5f6143cc6143c784614393565b614362565b90508281528383830111156143df575f80fd5b828260208301375f602084830101529392505050565b5f82601f830112614404575f80fd5b6111f8838335602085016143ba565b5f67ffffffffffffffff82111561442c5761442c6142b9565b5060051b60200190565b6cffffffffffffffffffffffffff8116811461193b575f80fd5b80356140d381614436565b63ffffffff8116811461193b575f80fd5b80356140d38161445b565b61ffff8116811461193b575f80fd5b80356140d381614477565b62ffffff8116811461193b575f80fd5b80356140d381614491565b60ff8116811461193b575f80fd5b80356140d3816144ac565b801515811461193b575f80fd5b80356140d3816144c5565b5f60808083850312156144ee575f80fd5b6144f66142cd565b9150823567ffffffffffffffff81111561450e575f80fd5b8301601f8101851361451e575f80fd5b8035602061452e6143c783614413565b8281526101c0928302840182019282820191908985111561454d575f80fd5b948301945b848610156146625780868b031215614568575f80fd5b6145706142f6565b61457987614450565b815261458685880161446c565b85820152604061459781890161446c565b9082015260606145a8888201614486565b908201526145b78789016140c8565b8189015260a0878101359082015260c06145d28189016144a1565b9082015260e06145e38882016144ba565b908201526101006145f58882016144d2565b908201526101206146078882016144d2565b908201526101406146198882016144d2565b9082015261016061462b8882016144d2565b9082015261018061463d8882016144d2565b908201526101a061464f8882016144d2565b9082015283529485019491830191614552565b5086525061467186820161446c565b8186015250505050614685604083016144ba565b6040820152614696606083016140c8565b606082015292915050565b5f608082840312156146b1575f80fd5b6146b96142cd565b905081356146c6816144c5565b815260208201356146d6816144c5565b602082015260408201356146e9816144c5565b60408201526060820135614696816144c5565b5f805f805f805f80610160898b031215614714575f80fd5b88359750602089013567ffffffffffffffff80821115614732575f80fd5b61473e8c838d016143f5565b985060408b0135915080821115614753575f80fd5b61475f8c838d016143f5565b975060608b0135915080821115614774575f80fd5b6147808c838d016143f5565b965061478e60808c016140c8565b955060a08b01359150808211156147a3575f80fd5b6147af8c838d016143f5565b945060c08b01359150808211156147c4575f80fd5b506147d18b828c016144dd565b9250506147e18a60e08b016146a1565b90509295985092959890939650565b5f60208284031215614800575f80fd5b81356111f8816140b4565b5f806040838503121561481c575f80fd5b823567ffffffffffffffff80821115614833575f80fd5b818501915085601f830112614846575f80fd5b813560206148566143c783614413565b82815260059290921b84018101918181019089841115614874575f80fd5b948201945b8386101561489257853582529482019490820190614879565b965050860135925050808211156148a7575f80fd5b506148b485828601614218565b9150509250929050565b5f8083601f8401126148ce575f80fd5b50813567ffffffffffffffff8111156148e5575f80fd5b6020830191508360208260051b8501011115613440575f80fd5b5f805f60408486031215614911575f80fd5b833567ffffffffffffffff811115614927575f80fd5b614933868287016148be565b9094509250506020840135614947816140b4565b809150509250925092565b5f815180845260208085019450602084015f5b8381101561498157815187529582019590820190600101614965565b509495945050505050565b602081525f6111f86020830184614952565b5f602082840312156149ae575f80fd5b813567ffffffffffffffff8111156149c4575f80fd5b820161018081850312156111f8575f80fd5b5f604080830185845260206040818601528186518084526060935060608701915060608160051b8801018389015f5b83811015614a5557898303605f19018552815180516001600160a01b031684528681015187850152880151888401889052614a4288850182614060565b9587019593505090850190600101614a05565b50909a9950505050505050505050565b65ffffffffffff8116811461193b575f80fd5b80356140d381614a65565b6dffffffffffffffffffffffffffff8116811461193b575f80fd5b80356140d381614a83565b5f805f838503610160811215614abd575f80fd5b8435935061012080601f1983011215614ad4575f80fd5b614adc61431a565b9150614aea60208701614a78565b8252614af860408701614a78565b6020830152614b0960608701614a78565b6040830152614b1a60808701614a78565b6060830152614b2b60a0870161446c565b6080830152614b3c60c08701614a9e565b60a0830152614b4d60e0870161446c565b60c0830152610100614b608188016140c8565b60e084015290860135908201529150614b7c61014085016140c8565b90509250925092565b5f8083601f840112614b95575f80fd5b50813567ffffffffffffffff811115614bac575f80fd5b6020830191508360208260061b8501011115613440575f80fd5b5f8060208385031215614bd7575f80fd5b823567ffffffffffffffff811115614bed575f80fd5b614bf985828601614b85565b90969095509350505050565b5f8060408385031215614c16575f80fd5b8235614c21816140b4565b91506020830135614c31816144c5565b809150509250929050565b5f805f8060808587031215614c4f575f80fd5b8435614c5a816140b4565b93506020850135614c6a816140b4565b925060408501359150606085013567ffffffffffffffff811115614c8c575f80fd5b8501601f81018713614c9c575f80fd5b614cab878235602084016143ba565b91505092959194509250565b5f60208284031215614cc7575f80fd5b81356111f8816144ac565b5f805f8060408587031215614ce5575f80fd5b843567ffffffffffffffff80821115614cfc575f80fd5b818701915087601f830112614d0f575f80fd5b813581811115614d1d575f80fd5b8860206101c083028501011115614d32575f80fd5b602092830196509450908601359080821115614d4c575f80fd5b50614d59878288016148be565b95989497509550505050565b5f8060408385031215614d76575f80fd5b8235614d81816140b4565b91506020830135614c31816140b4565b5f6080820186835260208681850152604086604086015260606080606087015283875180865260a08801915060a08160051b89010195508489015f5b82811015614e1d57898803609f19018452815180516001600160a01b0316895287810151888a0152860151868901869052614e0a868a0182614060565b9850509286019290860190600101614dcd565b50959c9b505050505050505050505050565b600181811c90821680614e4357607f821691505b60208210810361411357634e487b7160e01b5f52602260045260245ffd5b80516140d3816144c5565b5f60208284031215614e7c575f80fd5b81516111f8816144c5565b601f821115610f5e57805f5260205f20601f840160051c81016020851015614eac5750805b601f840160051c820191505b81811015611bd8575f8155600101614eb8565b67ffffffffffffffff831115614ee357614ee36142b9565b614ef783614ef18354614e2f565b83614e87565b5f601f841160018114614f28575f8515614f115750838201355b5f19600387901b1c1916600186901b178355611bd8565b5f83815260208120601f198716915b82811015614f575786850135825560209485019460019092019101614f37565b5086821015614f73575f1960f88860031b161c19848701351681555b505060018560011b0183555050505050565b818382375f9101908152919050565b5f60208284031215614fa4575f80fd5b5051919050565b815167ffffffffffffffff811115614fc557614fc56142b9565b614fd981614fd38454614e2f565b84614e87565b602080601f83116001811461500c575f8415614ff55750858301515b5f19600386901b1c1916600185901b1785556113f8565b5f85815260208120601f198616915b8281101561503a5788860151825594840194600190910190840161501b565b508582101561505757878501515f19600388901b60f8161c191681555b5050505050600190811b01905550565b602080825282518282018190525f919060409081850190868401855b8281101561516157815180516cffffffffffffffffffffffffff1685528681015163ffffffff9081168887015286820151168686015260608082015161ffff16908601526080808201516001600160a01b03169086015260a0808201519086015260c08082015162ffffff169086015260e08082015160ff169086015261010080820151151590860152610120808201511515908601526101408082015115159086015261016080820151151590860152610180808201511515908601526101a0908101511515908501526101c09093019290850190600101615083565b5091979650505050505050565b5f82601f83011261517d575f80fd5b8151602061518d6143c783614413565b8083825260208201915060208460051b8701019350868411156151ae575f80fd5b602086015b848110156151ca57805183529183019183016151b3565b509695505050505050565b5f602082840312156151e5575f80fd5b815167ffffffffffffffff8111156151fb575f80fd5b6140068482850161516e565b80516140d3816140b4565b5f60208284031215615222575f80fd5b81516111f8816140b4565b634e487b7160e01b5f52603260045260245ffd5b6001600160a01b0383168152604060208201525f6140066040830184614952565b848152606060208083018290529082018490525f90859060808401835b878110156152a857833561529281614477565b61ffff168252928201929082019060010161527f565b50809350505050821515604083015295945050505050565b5f80604083850312156152d1575f80fd5b825167ffffffffffffffff8111156152e7575f80fd5b6152f38582860161516e565b925050602083015190509250929050565b5f60208284031215615314575f80fd5b81356111f881614477565b5f6040828403121561532f575f80fd5b6040516040810181811067ffffffffffffffff82111715615352576153526142b9565b60405290508082356153638161445b565b8152602083013561537381614477565b6020919091015292915050565b5f60408284031215615390575f80fd5b6111f8838361531f565b5f808335601e198436030181126153af575f80fd5b83018035915067ffffffffffffffff8211156153c9575f80fd5b602001915036819003821315613440575f80fd5b5f82601f8301126153ec575f80fd5b81516153fa6143c782614393565b81815284602083860101111561540e575f80fd5b61400682602083016020870161403e565b5f6020828403121561542f575f80fd5b815167ffffffffffffffff811115615445575f80fd5b614006848285016153dd565b602081528160208201525f7f07ffffffffffffffffffffffffffffffffffffffffffffffffffffffffffffff831115615488575f80fd5b8260051b80856040850137919091016040019392505050565b6154c1826154ae83614450565b6cffffffffffffffffffffffffff169052565b6154cd6020820161446c565b63ffffffff1660208301526154e46040820161446c565b63ffffffff1660408301526154fb60608201614486565b61ffff166060830152615510608082016140c8565b6001600160a01b0316608083015260a0818101359083015261553460c082016144a1565b62ffffff1660c083015261554a60e082016144ba565b60ff1660e08301526101006155608282016144d2565b1515908301526101206155748282016144d2565b1515908301526101406155888282016144d2565b15159083015261016061559c8282016144d2565b1515908301526101806155b08282016144d2565b1515908301526101a06155c48282016144d2565b80151584830152610f1f565b602080825281018290525f8360408301825b85811015615608576155f482846154a1565b6101c09283019291909101906001016155e2565b5095945050505050565b6101e0810161562182856154a1565b6001600160a01b0383166101c08301529392505050565b5f60208284031215615648575f80fd5b81356111f88161445b565b634e487b7160e01b5f52601160045260245ffd5b600181815b808511156156a157815f190482111561568757615687615653565b8085161561569457918102915b93841c939080029061566c565b509250929050565b5f826156b757506001610a6f565b816156c357505f610a6f565b81600181146156d957600281146156e3576156ff565b6001915050610a6f565b60ff8411156156f4576156f4615653565b50506001821b610a6f565b5060208310610133831016604e8410600b8410161715615722575081810a610a6f565b61572c8383615667565b805f190482111561573f5761573f615653565b029392505050565b5f6111f883836156a9565b5f60808284031215615762575f80fd5b61576a6142cd565b8251615775816144c5565b81526020830151615785816144c5565b60208201526040830151615798816144c5565b604082015260608301516157ab816144c5565b60608201529392505050565b80516140d381614477565b5f80604083850312156157d3575f80fd5b82516157de816144c5565b8092505060208084015167ffffffffffffffff8111156157fc575f80fd5b8401601f8101861361580c575f80fd5b805161581a6143c782614413565b81815260059190911b82018301908381019088831115615838575f80fd5b928401925b8284101561585f57835161585081614477565b8252928401929084019061583d565b80955050505050509250929050565b81810381811115610a6f57610a6f615653565b80516140d38161445b565b80516140d381614436565b80516140d381614491565b80516140d3816144ac565b5f602082840312156158bd575f80fd5b815167ffffffffffffffff808211156158d4575f80fd5b908301906101e082860312156158e8575f80fd5b6158f061433e565b6158f983615881565b81526159076020840161588c565b602082015261591860408401615881565b604082015261592960608401615881565b606082015261593a6080840161588c565b608082015261594b60a084016157b7565b60a082015261595c60c08401615207565b60c082015260e083015160e0820152610100615979818501615897565b9082015261012061598b8482016158a2565b9082015261014061599d848201614e61565b908201526101606159af848201614e61565b908201526101806159c1848201614e61565b908201526101a06159d3848201614e61565b908201526101c083810151838111156159ea575f80fd5b6159f6888287016153dd565b918301919091525095945050505050565b80516140d381614a65565b80516140d381614a83565b5f6101208284031215615a2e575f80fd5b615a3661431a565b615a3f83615a07565b8152615a4d60208401615a07565b6020820152615a5e60408401615a07565b6040820152615a6f60608401615a07565b6060820152615a8060808401615881565b6080820152615a9160a08401615a12565b60a0820152615aa260c08401615881565b60c0820152615ab360e08401615207565b60e0820152610100928301519281019290925250919050565b5f6001600160a01b03808716835280861660208401525083604083015260806060830152615afd6080830184614060565b9695505050505050565b5f60208284031215615b17575f80fd5b81516111f88161400e565b80820180821115610a6f57610a6f615653565b8082028115828204841417610a6f57610a6f615653565b5f8351615b5d81846020880161403e565b835190830190615b7181836020880161403e565b01949350505050565b5f8085851115615b88575f80fd5b83861115615b94575f80fd5b5050820193919092039150565b6bffffffffffffffffffffffff198135818116916014851015615bce5780818660140360031b1b83161692505b505092915050565b634e487b7160e01b5f52601260045260245ffd5b5f606082018583526020606060208501528186518084526080860191506020880193505f5b81811015615c2f57845161ffff1683529383019391830191600101615c0f565b50508093505050508215156040830152949350505050565b5f82615c5557615c55615bd6565b500690565b5f82615c6857615c68615bd6565b50049056fe31323334353637383941424344454647484a4b4c4d4e505152535455565758595a6162636465666768696a6b6d6e6f707172737475767778797aa264697066735822122076d030af360f4362e199cdd46610e0631a4723fc4c5957f873d3cba72c78bf3b64736f6c63430008170033",
			"metadata": "{\"compiler\":{\"version\":\"0.8.23+commit.f704f362\"},\"language\":\"Solidity\",\"output\":{\"abi\":[{\"inputs\":[{\"internalType\":\"contract IJBDirectory\",\"name\":\"directory\",\"type\":\"address\"},{\"internalType\":\"contract IJBPermissions\",\"name\":\"permissions\",\"type\":\"address\"},{\"internalType\":\"contract IJBRulesets\",\"name\":\"rulesets\",\"type\":\"address\"},{\"internalType\":\"contract IJB721TiersHookStore\",\"name\":\"store\",\"type\":\"address\"},{\"internalType\":\"address\",\"name\":\"trustedForwarder\",\"type\":\"address\"}],\"stateMutability\":\"nonpayable\",\"type\":\"constructor\"},{\"inputs\":[{\"internalType\":\"address\",\"name\":\"sender\",\"type\":\"address\"},{\"internalType\":\"uint256\",\"name\":\"tokenId\",\"type\":\"uint256\"},{\"internalType\":\"address\",\"name\":\"owner\",\"type\":\"address\"}],\"name\":\"ERC721IncorrectOwner\",\"type\":\"error\"},{\"inputs\":[{\"internalType\":\"address\",\"name\":\"operator\",\"type\":\"address\"},{\"internalType\":\"uint256\",\"name\":\"tokenId\",\"type\":\"uint256\"}],\"name\":\"ERC721InsufficientApproval\",\"type\":\"error\"},{\"inputs\":[{\"internalType\":\"address\",\"name\":\"approver\",\"type\":\"address\"}],\"name\":\"ERC721InvalidApprover\",\"type\":\"error\"},{\"inputs\":[{\"internalType\":\"address\",\"name\":\"operator\",\"type\":\"address\"}],\"name\":\"ERC721InvalidOperator\",\"type\":\"error\"},{\"inputs\":[{\"internalType\":\"address\",\"name\":\"owner\",\"type\":\"address\"}],\"name\":\"ERC721InvalidOwner\",\"type\":\"error\"},{\"inputs\":[{\"internalType\":\"address\",\"name\":\"receiver\",\"type\":\"address\"}],\"name\":\"ERC721InvalidReceiver\",\"type\":\"error\"},{\"inputs\":[{\"internalType\":\"address\",\"name\":\"sender\",\"type\":\"address\"}],\"name\":\"ERC721InvalidSender\",\"type\":\"error\"},{\"inputs\":[{\"internalType\":\"uint256\",\"name\":\"tokenId\",\"type\":\"uint256\"}],\"name\":\"ERC721NonexistentToken\",\"type\":\"error\"},{\"inputs\":[],\"name\":\"JB721Hook_InvalidCashOut\",\"type\":\"error\"},{\"inputs\":[],\"name\":\"JB721Hook_InvalidPay\",\"type\":\"error\"},{\"inputs\":[{\"internalType\":\"uint256\",\"name\":\"tokenId\",\"type\":\"uint256\"},{\"internalType\":\"address\",\"name\":\"holder\",\"type\":\"address\"}],\"name\":\"JB721Hook_UnauthorizedToken\",\"type\":\"error\"},{\"inputs\":[],\"name\":\"JB721Hook_UnexpectedTokenCashedOut\",\"type\":\"error\"},{\"inputs\":[{\"internalType\":\"uint256\",\"name\":\"projectId\",\"type\":\"uint256\"}],\"name\":\"JB721TiersHook_AlreadyInitialized\",\"type\":\"error\"},{\"inputs\":[],\"name\":\"JB721TiersHook_MintReserveNftsPaused\",\"type\":\"error\"},{\"inputs\":[],\"name\":\"JB721TiersHook_NoProjectId\",\"type\":\"error\"},{\"inputs\":[{\"internalType\":\"uint256\",\"name\":\"leftoverAmount\",\"type\":\"uint256\"}],\"name\":\"JB721TiersHook_Overspending\",\"type\":\"error\"},{\"inputs\":[],\"name\":\"JB721TiersHook_TierTransfersPaused\",\"type\":\"error\"},{\"inputs\":[],\"name\":\"JBOwnableOverrides_InvalidNewOwner\",\"type\":\"error\"},{\"inputs\":[{\"internalType\":\"address\",\"name\":\"account\",\"type\":\"address\"},{\"internalType\":\"address\",\"name\":\"sender\",\"type\":\"address\"},{\"internalType\":\"uint256\",\"name\":\"projectId\",\"type\":\"uint256\"},{\"internalType\":\"uint256\",\"name\":\"permissionId\",\"type\":\"uint256\"}],\"name\":\"JBPermissioned_Unauthorized\",\"type\":\"error\"},{\"inputs\":[{\"internalType\":\"uint256\",\"name\":\"x\",\"type\":\"uint256\"},{\"internalType\":\"uint256\",\"name\":\"y\",\"type\":\"uint256\"},{\"internalType\":\"uint256\",\"name\":\"denominator\",\"type\":\"uint256\"}],\"name\":\"PRBMath_MulDiv_Overflow\",\"type\":\"error\"},{\"anonymous\":false,\"inputs\":[{\"indexed\":true,\"internalType\":\"uint256\",\"name\":\"amount\",\"type\":\"uint256\"},{\"indexed\":true,\"internalType\":\"uint256\",\"name\":\"newTotalCredits\",\"type\":\"uint256\"},{\"indexed\":true,\"internalType\":\"address\",\"name\":\"account\",\"type\":\"address\"},{\"indexed\":false,\"internalType\":\"address\",\"name\":\"caller\",\"type\":\"address\"}],\"name\":\"AddPayCredits\",\"type\":\"event\"},{\"anonymous\":false,\"inputs\":[{\"indexed\":true,\"internalType\":\"uint256\",\"name\":\"tierId\",\"type\":\"uint256\"},{\"components\":[{\"internalType\":\"uint104\",\"name\":\"price\",\"type\":\"uint104\"},{\"internalType\":\"uint32\",\"name\":\"initialSupply\",\"type\":\"uint32\"},{\"internalType\":\"uint32\",\"name\":\"votingUnits\",\"type\":\"uint32\"},{\"internalType\":\"uint16\",\"name\":\"reserveFrequency\",\"type\":\"uint16\"},{\"internalType\":\"address\",\"name\":\"reserveBeneficiary\",\"type\":\"address\"},{\"internalType\":\"bytes32\",\"name\":\"encodedIPFSUri\",\"type\":\"bytes32\"},{\"internalType\":\"uint24\",\"name\":\"category\",\"type\":\"uint24\"},{\"internalType\":\"uint8\",\"name\":\"discountPercent\",\"type\":\"uint8\"},{\"internalType\":\"bool\",\"name\":\"allowOwnerMint\",\"type\":\"bool\"},{\"internalType\":\"bool\",\"name\":\"useReserveBeneficiaryAsDefault\",\"type\":\"bool\"},{\"internalType\":\"bool\",\"name\":\"transfersPausable\",\"type\":\"bool\"},{\"internalType\":\"bool\",\"name\":\"useVotingUnits\",\"type\":\"bool\"},{\"internalType\":\"bool\",\"name\":\"cannotBeRemoved\",\"type\":\"bool\"},{\"internalType\":\"bool\",\"name\":\"cannotIncreaseDiscountPercent\",\"type\":\"bool\"}],\"indexed\":false,\"internalType\":\"struct JB721TierConfig\",\"name\":\"tier\",\"type\":\"tuple\"},{\"indexed\":false,\"internalType\":\"address\",\"name\":\"caller\",\"type\":\"address\"}],\"name\":\"AddTier\",\"type\":\"event\"},{\"anonymous\":false,\"inputs\":[{\"indexed\":true,\"internalType\":\"address\",\"name\":\"owner\",\"type\":\"address\"},{\"indexed\":true,\"internalType\":\"address\",\"name\":\"approved\",\"type\":\"address\"},{\"indexed\":true,\"internalType\":\"uint256\",\"name\":\"tokenId\",\"type\":\"uint256\"}],\"name\":\"Approval\",\"type\":\"event\"},{\"anonymous\":false,\"inputs\":[{\"indexed\":true,\"internalType\":\"address\",\"name\":\"owner\",\"type\":\"address\"},{\"indexed\":true,\"internalType\":\"address\",\"name\":\"operator\",\"type\":\"address\"},{\"indexed\":false,\"internalType\":\"bool\",\"name\":\"approved\",\"type\":\"bool\"}],\"name\":\"ApprovalForAll\",\"type\":\"event\"},{\"anonymous\":false,\"inputs\":[{\"indexed\":true,\"internalType\":\"uint256\",\"name\":\"tokenId\",\"type\":\"uint256\"},{\"indexed\":true,\"internalType\":\"uint256\",\"name\":\"tierId\",\"type\":\"uint256\"},{\"indexed\":true,\"internalType\":\"address\",\"name\":\"beneficiary\",\"type\":\"address\"},{\"indexed\":false,\"internalType\":\"uint256\",\"name\":\"totalAmountPaid\",\"type\":\"uint256\"},{\"indexed\":false,\"internalType\":\"address\",\"name\":\"caller\",\"type\":\"address\"}],\"name\":\"Mint\",\"type\":\"event\"},{\"anonymous\":false,\"inputs\":[{\"indexed\":true,\"internalType\":\"uint256\",\"name\":\"tokenId\",\"type\":\"uint256\"},{\"indexed\":true,\"internalType\":\"uint256\",\"name\":\"tierId\",\"type\":\"uint256\"},{\"indexed\":true,\"internalType\":\"address\",\"name\":\"beneficiary\",\"type\":\"address\"},{\"indexed\":false,\"internalType\":\"address\",\"name\":\"caller\",\"type\":\"address\"}],\"name\":\"MintReservedNft\",\"type\":\"event\"},{\"anonymous\":false,\"inputs\":[{\"indexed\":true,\"internalType\":\"address\",\"name\":\"previousOwner\",\"type\":\"address\"},{\"indexed\":true,\"internalType\":\"address\",\"name\":\"newOwner\",\"type\":\"address\"},{\"indexed\":false,\"internalType\":\"address\",\"name\":\"caller\",\"type\":\"address\"}],\"name\":\"OwnershipTransferred\",\"type\":\"event\"},{\"anonymous\":false,\"inputs\":[{\"indexed\":false,\"internalType\":\"uint8\",\"name\":\"newId\",\"type\":\"uint8\"},{\"indexed\":false,\"internalType\":\"address\",\"name\":\"caller\",\"type\":\"address\"}],\"name\":\"PermissionIdChanged\",\"type\":\"event\"},{\"anonymous\":false,\"inputs\":[{\"indexed\":true,\"internalType\":\"uint256\",\"name\":\"tierId\",\"type\":\"uint256\"},{\"indexed\":false,\"internalType\":\"address\",\"name\":\"caller\",\"type\":\"address\"}],\"name\":\"RemoveTier\",\"type\":\"event\"},{\"anonymous\":false,\"inputs\":[{\"indexed\":true,\"internalType\":\"string\",\"name\":\"baseUri\",\"type\":\"string\"},{\"indexed\":false,\"internalType\":\"address\",\"name\":\"caller\",\"type\":\"address\"}],\"name\":\"SetBaseUri\",\"type\":\"event\"},{\"anonymous\":false,\"inputs\":[{\"indexed\":true,\"internalType\":\"string\",\"name\":\"uri\",\"type\":\"string\"},{\"indexed\":false,\"internalType\":\"address\",\"name\":\"caller\",\"type\":\"address\"}],\"name\":\"SetContractUri\",\"type\":\"event\"},{\"anonymous\":false,\"inputs\":[{\"indexed\":true,\"internalType\":\"uint256\",\"name\":\"tierId\",\"type\":\"uint256\"},{\"indexed\":false,\"internalType\":\"uint256\",\"name\":\"discountPercent\",\"type\":\"uint256\"},{\"indexed\":false,\"internalType\":\"address\",\"name\":\"caller\",\"type\":\"address\"}],\"name\":\"SetDiscountPercent\",\"type\":\"event\"},{\"anonymous\":false,\"inputs\":[{\"indexed\":true,\"internalType\":\"uint256\",\"name\":\"tierId\",\"type\":\"uint256\"},{\"indexed\":false,\"internalType\":\"bytes32\",\"name\":\"encodedUri\",\"type\":\"bytes32\"},{\"indexed\":false,\"internalType\":\"address\",\"name\":\"caller\",\"type\":\"address\"}],\"name\":\"SetEncodedIPFSUri\",\"type\":\"event\"},{\"anonymous\":false,\"inputs\":[{\"indexed\":true,\"internalType\":\"contract IJB721TokenUriResolver\",\"name\":\"resolver\",\"type\":\"address\"},{\"indexed\":false,\"internalType\":\"address\",\"name\":\"caller\",\"type\":\"address\"}],\"name\":\"SetTokenUriResolver\",\"type\":\"event\"},{\"anonymous\":false,\"inputs\":[{\"indexed\":true,\"internalType\":\"address\",\"name\":\"from\",\"type\":\"address\"},{\"indexed\":true,\"internalType\":\"address\",\"name\":\"to\",\"type\":\"address\"},{\"indexed\":true,\"internalType\":\"uint256\",\"name\":\"tokenId\",\"type\":\"uint256\"}],\"name\":\"Transfer\",\"type\":\"event\"},{\"anonymous\":false,\"inputs\":[{\"indexed\":true,\"internalType\":\"uint256\",\"name\":\"amount\",\"type\":\"uint256\"},{\"indexed\":true,\"internalType\":\"uint256\",\"name\":\"newTotalCredits\",\"type\":\"uint256\"},{\"indexed\":true,\"internalType\":\"address\",\"name\":\"account\",\"type\":\"address\"},{\"indexed\":false,\"internalType\":\"address\",\"name\":\"caller\",\"type\":\"address\"}],\"name\":\"UsePayCredits\",\"type\":\"event\"},{\"inputs\":[],\"name\":\"DIRECTORY\",\"outputs\":[{\"internalType\":\"contract IJBDirectory\",\"name\":\"\",\"type\":\"address\"}],\"stateMutability\":\"view\",\"type\":\"function\"},{\"inputs\":[],\"name\":\"METADATA_ID_TARGET\",\"outputs\":[{\"internalType\":\"address\",\"name\":\"\",\"type\":\"address\"}],\"stateMutability\":\"view\",\"type\":\"function\"},{\"inputs\":[],\"name\":\"PERMISSIONS\",\"outputs\":[{\"internalType\":\"contract IJBPermissions\",\"name\":\"\",\"type\":\"address\"}],\"stateMutability\":\"view\",\"type\":\"function\"},{\"inputs\":[],\"name\":\"PROJECTS\",\"outputs\":[{\"internalType\":\"contract IJBProjects\",\"name\":\"\",\"type\":\"address\"}],\"stateMutability\":\"view\",\"type\":\"function\"},{\"inputs\":[],\"name\":\"PROJECT_ID\",\"outputs\":[{\"internalType\":\"uint256\",\"name\":\"\",\"type\":\"uint256\"}],\"stateMutability\":\"view\",\"type\":\"function\"},{\"inputs\":[],\"name\":\"RULESETS\",\"outputs\":[{\"internalType\":\"contract IJBRulesets\",\"name\":\"\",\"type\":\"address\"}],\"stateMutability\":\"view\",\"type\":\"function\"},{\"inputs\":[],\"name\":\"STORE\",\"outputs\":[{\"internalType\":\"contract IJB721TiersHookStore\",\"name\":\"\",\"type\":\"address\"}],\"stateMutability\":\"view\",\"type\":\"function\"},{\"inputs\":[{\"components\":[{\"internalType\":\"uint104\",\"name\":\"price\",\"type\":\"uint104\"},{\"internalType\":\"uint32\",\"name\":\"initialSupply\",\"type\":\"uint32\"},{\"internalType\":\"uint32\",\"name\":\"votingUnits\",\"type\":\"uint32\"},{\"internalType\":\"uint16\",\"name\":\"reserveFrequency\",\"type\":\"uint16\"},{\"internalType\":\"address\",\"name\":\"reserveBeneficiary\",\"type\":\"address\"},{\"internalType\":\"bytes32\",\"name\":\"encodedIPFSUri\",\"type\":\"bytes32\"},{\"internalType\":\"uint24\",\"name\":\"category\",\"type\":\"uint24\"},{\"internalType\":\"uint8\",\"name\":\"discountPercent\",\"type\":\"uint8\"},{\"internalType\":\"bool\",\"name\":\"allowOwnerMint\",\"type\":\"bool\"},{\"internalType\":\"bool\",\"name\":\"useReserveBeneficiaryAsDefault\",\"type\":\"bool\"},{\"internalType\":\"bool\",\"name\":\"transfersPausable\",\"type\":\"bool\"},{\"internalType\":\"bool\",\"name\":\"useVotingUnits\",\"type\":\"bool\"},{\"internalType\":\"bool\",\"name\":\"cannotBeRemoved\",\"type\":\"bool\"},{\"internalType\":\"bool\",\"name\":\"cannotIncreaseDiscountPercent\",\"type\":\"bool\"}],\"internalType\":\"struct JB721TierConfig[]\",\"name\":\"tiersToAdd\",\"type\":\"tuple[]\"},{\"internalType\":\"uint256[]\",\"name\":\"tierIdsToRemove\",\"type\":\"uint256[]\"}],\"name\":\"adjustTiers\",\"stateMutability\":\"nonpayable\",\"type\":\"function\"},{\"inputs\":[{\"components\":[{\"internalType\":\"address\",\"name\":\"holder\",\"type\":\"address\"},{\"internalType\":\"uint256\",\"name\":\"projectId\",\"type\":\"uint256\"},{\"internalType\":\"uint256\",\"name\":\"rulesetId\",\"type\":\"uint256\"},{\"internalType\":\"uint256\",\"name\":\"cashOutCount\",\"type\":\"uint256\"},{\"components\":[{\"internalType\":\"address\",\"name\":\"token\",\"type\":\"address\"},{\"internalType\":\"uint8\",\"name\":\"decimals\",\"type\":\"uint8\"},{\"internalType\":\"uint32\",\"name\":\"currency\",\"type\":\"uint32\"},{\"internalType\":\"uint256\",\"name\":\"value\",\"type\":\"uint256\"}],\"internalType\":\"struct JBTokenAmount\",\"name\":\"reclaimedAmount\",\"type\":\"tuple\"},{\"components\":[{\"internalType\":\"address\",\"name\":\"token\",\"type\":\"address\"},{\"internalType\":\"uint8\",\"name\":\"decimals\",\"type\":\"uint8\"},{\"internalType\":\"uint32\",\"name\":\"currency\",\"type\":\"uint32\"},{\"internalType\":\"uint256\",\"name\":\"value\",\"type\":\"uint256\"}],\"internalType\":\"struct JBTokenAmount\",\"name\":\"forwardedAmount\",\"type\":\"tuple\"},{\"internalType\":\"uint256\",\"name\":\"cashOutTaxRate\",\"type\":\"uint256\"},{\"internalType\":\"address payable\",\"name\":\"beneficiary\",\"type\":\"address\"},{\"internalType\":\"bytes\",\"name\":\"hookMetadata\",\"type\":\"bytes\"},{\"internalType\":\"bytes\",\"name\":\"cashOutMetadata\",\"type\":\"bytes\"}],\"internalType\":\"struct JBAfterCashOutRecordedContext\",\"name\":\"context\",\"type\":\"tuple\"}],\"name\":\"afterCashOutRecordedWith\",\"stateMutability\":\"payable\",\"type\":\"function\"},{\"inputs\":[{\"components\":[{\"internalType\":\"address\",\"name\":\"payer\",\"type\":\"address\"},{\"internalType\":\"uint256\",\"name\":\"projectId\",\"type\":\"uint256\"},{\"internalType\":\"uint256\",\"name\":\"rulesetId\",\"type\":\"uint256\"},{\"components\":[{\"internalType\":\"address\",\"name\":\"token\",\"type\":\"address\"},{\"internalType\":\"uint8\",\"name\":\"decimals\",\"type\":\"uint8\"},{\"internalType\":\"uint32\",\"name\":\"currency\",\"type\":\"uint32\"},{\"internalType\":\"uint256\",\"name\":\"value\",\"type\":\"uint256\"}],\"internalType\":\"struct JBTokenAmount\",\"name\":\"amount\",\"type\":\"tuple\"},{\"components\":[{\"internalType\":\"address\",\"name\":\"token\",\"type\":\"address\"},{\"internalType\":\"uint8\",\"name\":\"decimals\",\"type\":\"uint8\"},{\"internalType\":\"uint32\",\"name\":\"currency\",\"type\":\"uint32\"},{\"internalType\":\"uint256\",\"name\":\"value\",\"type\":\"uint256\"}],\"internalType\":\"struct JBTokenAmount\",\"name\":\"forwardedAmount\",\"type\":\"tuple\"},{\"internalType\":\"uint256\",\"name\":\"weight\",\"type\":\"uint256\"},{\"internalType\":\"uint256\",\"name\":\"newlyIssuedTokenCount\",\"type\":\"uint256\"},{\"internalType\":\"address\",\"name\":\"beneficiary\",\"type\":\"address\"},{\"internalType\":\"bytes\",\"name\":\"hookMetadata\",\"type\":\"bytes\"},{\"internalType\":\"bytes\",\"name\":\"payerMetadata\",\"type\":\"bytes\"}],\"internalType\":\"struct JBAfterPayRecordedContext\",\"name\":\"context\",\"type\":\"tuple\"}],\"name\":\"afterPayRecordedWith\",\"stateMutability\":\"payable\",\"type\":\"function\"},{\"inputs\":[{\"internalType\":\"address\",\"name\":\"to\",\"type\":\"address\"},{\"internalType\":\"uint256\",\"name\":\"tokenId\",\"type\":\"uint256\"}],\"name\":\"approve\",\"stateMutability\":\"nonpayable\",\"type\":\"function\"},{\"inputs\":[{\"internalType\":\"address\",\"name\":\"owner\",\"type\":\"address\"}],\"name\":\"balanceOf\",\"outputs\":[{\"internalType\":\"uint256\",\"name\":\"balance\",\"type\":\"uint256\"}],\"stateMutability\":\"view\",\"type\":\"function\"},{\"inputs\":[],\"name\":\"baseURI\",\"outputs\":[{\"internalType\":\"string\",\"name\":\"\",\"type\":\"string\"}],\"stateMutability\":\"view\",\"type\":\"function\"},{\"inputs\":[{\"components\":[{\"internalType\":\"address\",\"name\":\"terminal\",\"type\":\"address\"},{\"internalType\":\"address\",\"name\":\"holder\",\"type\":\"address\"},{\"internalType\":\"uint256\",\"name\":\"projectId\",\"type\":\"uint256\"},{\"internalType\":\"uint256\",\"name\":\"rulesetId\",\"type\":\"uint256\"},{\"internalType\":\"uint256\",\"name\":\"cashOutCount\",\"type\":\"uint256\"},{\"internalType\":\"uint256\",\"name\":\"totalSupply\",\"type\":\"uint256\"},{\"components\":[{\"internalType\":\"address\",\"name\":\"token\",\"type\":\"address\"},{\"internalType\":\"uint8\",\"name\":\"decimals\",\"type\":\"uint8\"},{\"internalType\":\"uint32\",\"name\":\"currency\",\"type\":\"uint32\"},{\"internalType\":\"uint256\",\"name\":\"value\",\"type\":\"uint256\"}],\"internalType\":\"struct JBTokenAmount\",\"name\":\"surplus\",\"type\":\"tuple\"},{\"internalType\":\"bool\",\"name\":\"useTotalSurplus\",\"type\":\"bool\"},{\"internalType\":\"uint256\",\"name\":\"cashOutTaxRate\",\"type\":\"uint256\"},{\"internalType\":\"bytes\",\"name\":\"metadata\",\"type\":\"bytes\"}],\"internalType\":\"struct JBBeforeCashOutRecordedContext\",\"name\":\"context\",\"type\":\"tuple\"}],\"name\":\"beforeCashOutRecordedWith\",\"outputs\":[{\"internalType\":\"uint256\",\"name\":\"cashOutTaxRate\",\"type\":\"uint256\"},{\"internalType\":\"uint256\",\"name\":\"cashOutCount\",\"type\":\"uint256\"},{\"internalType\":\"uint256\",\"name\":\"totalSupply\",\"type\":\"uint256\"},{\"components\":[{\"internalType\":\"contract IJBCashOutHook\",\"name\":\"hook\",\"type\":\"address\"},{\"internalType\":\"uint256\",\"name\":\"amount\",\"type\":\"uint256\"},{\"internalType\":\"bytes\",\"name\":\"metadata\",\"type\":\"bytes\"}],\"internalType\":\"struct JBCashOutHookSpecification[]\",\"name\":\"hookSpecifications\",\"type\":\"tuple[]\"}],\"stateMutability\":\"view\",\"type\":\"function\"},{\"inputs\":[{\"components\":[{\"internalType\":\"address\",\"name\":\"terminal\",\"type\":\"address\"},{\"internalType\":\"address\",\"name\":\"payer\",\"type\":\"address\"},{\"components\":[{\"internalType\":\"address\",\"name\":\"token\",\"type\":\"address\"},{\"internalType\":\"uint8\",\"name\":\"decimals\",\"type\":\"uint8\"},{\"internalType\":\"uint32\",\"name\":\"currency\",\"type\":\"uint32\"},{\"internalType\":\"uint256\",\"name\":\"value\",\"type\":\"uint256\"}],\"internalType\":\"struct JBTokenAmount\",\"name\":\"amount\",\"type\":\"tuple\"},{\"internalType\":\"uint256\",\"name\":\"projectId\",\"type\":\"uint256\"},{\"internalType\":\"uint256\",\"name\":\"rulesetId\",\"type\":\"uint256\"},{\"internalType\":\"address\",\"name\":\"beneficiary\",\"type\":\"address\"},{\"internalType\":\"uint256\",\"name\":\"weight\",\"type\":\"uint256\"},{\"internalType\":\"uint256\",\"name\":\"reservedPercent\",\"type\":\"uint256\"},{\"internalType\":\"bytes\",\"name\":\"metadata\",\"type\":\"bytes\"}],\"internalType\":\"struct JBBeforePayRecordedContext\",\"name\":\"context\",\"type\":\"tuple\"}],\"name\":\"beforePayRecordedWith\",\"outputs\":[{\"internalType\":\"uint256\",\"name\":\"weight\",\"type\":\"uint256\"},{\"components\":[{\"internalType\":\"contract IJBPayHook\",\"name\":\"hook\",\"type\":\"address\"},{\"internalType\":\"uint256\",\"name\":\"amount\",\"type\":\"uint256\"},{\"internalType\":\"bytes\",\"name\":\"metadata\",\"type\":\"bytes\"}],\"internalType\":\"struct JBPayHookSpecification[]\",\"name\":\"hookSpecifications\",\"type\":\"tuple[]\"}],\"stateMutability\":\"view\",\"type\":\"function\"},{\"inputs\":[{\"internalType\":\"uint256[]\",\"name\":\"tokenIds\",\"type\":\"uint256[]\"},{\"components\":[{\"internalType\":\"address\",\"name\":\"terminal\",\"type\":\"address\"},{\"internalType\":\"address\",\"name\":\"holder\",\"type\":\"address\"},{\"internalType\":\"uint256\",\"name\":\"projectId\",\"type\":\"uint256\"},{\"internalType\":\"uint256\",\"name\":\"rulesetId\",\"type\":\"uint256\"},{\"internalType\":\"uint256\",\"name\":\"cashOutCount\",\"type\":\"uint256\"},{\"internalType\":\"uint256\",\"name\":\"totalSupply\",\"type\":\"uint256\"},{\"components\":[{\"internalType\":\"address\",\"name\":\"token\",\"type\":\"address\"},{\"internalType\":\"uint8\",\"name\":\"decimals\",\"type\":\"uint8\"},{\"internalType\":\"uint32\",\"name\":\"currency\",\"type\":\"uint32\"},{\"internalType\":\"uint256\",\"name\":\"value\",\"type\":\"uint256\"}],\"internalType\":\"struct JBTokenAmount\",\"name\":\"surplus\",\"type\":\"tuple\"},{\"internalType\":\"bool\",\"name\":\"useTotalSurplus\",\"type\":\"bool\"},{\"internalType\":\"uint256\",\"name\":\"cashOutTaxRate\",\"type\":\"uint256\"},{\"internalType\":\"bytes\",\"name\":\"metadata\",\"type\":\"bytes\"}],\"internalType\":\"struct JBBeforeCashOutRecordedContext\",\"name\":\"\",\"type\":\"tuple\"}],\"name\":\"cashOutWeightOf\",\"outputs\":[{\"internalType\":\"uint256\",\"name\":\"\",\"type\":\"uint256\"}],\"stateMutability\":\"view\",\"type\":\"function\"},{\"inputs\":[],\"name\":\"contractURI\",\"outputs\":[{\"internalType\":\"string\",\"name\":\"\",\"type\":\"string\"}],\"stateMutability\":\"view\",\"type\":\"function\"},{\"inputs\":[{\"internalType\":\"uint256\",\"name\":\"tokenId\",\"type\":\"uint256\"}],\"name\":\"firstOwnerOf\",\"outputs\":[{\"internalType\":\"address\",\"name\":\"\",\"type\":\"address\"}],\"stateMutability\":\"view\",\"type\":\"function\"},{\"inputs\":[{\"internalType\":\"uint256\",\"name\":\"tokenId\",\"type\":\"uint256\"}],\"name\":\"getApproved\",\"outputs\":[{\"internalType\":\"address\",\"name\":\"\",\"type\":\"address\"}],\"stateMutability\":\"view\",\"type\":\"function\"},{\"inputs\":[{\"internalType\":\"uint256\",\"name\":\"\",\"type\":\"uint256\"},{\"components\":[{\"internalType\":\"uint48\",\"name\":\"cycleNumber\",\"type\":\"uint48\"},{\"internalType\":\"uint48\",\"name\":\"id\",\"type\":\"uint48\"},{\"internalType\":\"uint48\",\"name\":\"basedOnId\",\"type\":\"uint48\"},{\"internalType\":\"uint48\",\"name\":\"start\",\"type\":\"uint48\"},{\"internalType\":\"uint32\",\"name\":\"duration\",\"type\":\"uint32\"},{\"internalType\":\"uint112\",\"name\":\"weight\",\"type\":\"uint112\"},{\"internalType\":\"uint32\",\"name\":\"weightCutPercent\",\"type\":\"uint32\"},{\"internalType\":\"contract IJBRulesetApprovalHook\",\"name\":\"approvalHook\",\"type\":\"address\"},{\"internalType\":\"uint256\",\"name\":\"metadata\",\"type\":\"uint256\"}],\"internalType\":\"struct JBRuleset\",\"name\":\"\",\"type\":\"tuple\"},{\"internalType\":\"address\",\"name\":\"\",\"type\":\"address\"}],\"name\":\"hasMintPermissionFor\",\"outputs\":[{\"internalType\":\"bool\",\"name\":\"\",\"type\":\"bool\"}],\"stateMutability\":\"pure\",\"type\":\"function\"},{\"inputs\":[{\"internalType\":\"uint256\",\"name\":\"projectId\",\"type\":\"uint256\"},{\"internalType\":\"string\",\"name\":\"name\",\"type\":\"string\"},{\"internalType\":\"string\",\"name\":\"symbol\",\"type\":\"string\"},{\"internalType\":\"string\",\"name\":\"baseUri\",\"type\":\"string\"},{\"internalType\":\"contract IJB721TokenUriResolver\",\"name\":\"tokenUriResolver\",\"type\":\"address\"},{\"internalType\":\"string\",\"name\":\"contractUri\",\"type\":\"string\"},{\"components\":[{\"components\":[{\"internalType\":\"uint104\",\"name\":\"price\",\"type\":\"uint104\"},{\"internalType\":\"uint32\",\"name\":\"initialSupply\",\"type\":\"uint32\"},{\"internalType\":\"uint32\",\"name\":\"votingUnits\",\"type\":\"uint32\"},{\"internalType\":\"uint16\",\"name\":\"reserveFrequency\",\"type\":\"uint16\"},{\"internalType\":\"address\",\"name\":\"reserveBeneficiary\",\"type\":\"address\"},{\"internalType\":\"bytes32\",\"name\":\"encodedIPFSUri\",\"type\":\"bytes32\"},{\"internalType\":\"uint24\",\"name\":\"category\",\"type\":\"uint24\"},{\"internalType\":\"uint8\",\"name\":\"discountPercent\",\"type\":\"uint8\"},{\"internalType\":\"bool\",\"name\":\"allowOwnerMint\",\"type\":\"bool\"},{\"internalType\":\"bool\",\"name\":\"useReserveBeneficiaryAsDefault\",\"type\":\"bool\"},{\"internalType\":\"bool\",\"name\":\"transfersPausable\",\"type\":\"bool\"},{\"internalType\":\"bool\",\"name\":\"useVotingUnits\",\"type\":\"bool\"},{\"internalType\":\"bool\",\"name\":\"cannotBeRemoved\",\"type\":\"bool\"},{\"internalType\":\"bool\",\"name\":\"cannotIncreaseDiscountPercent\",\"type\":\"bool\"}],\"internalType\":\"struct JB721TierConfig[]\",\"name\":\"tiers\",\"type\":\"tuple[]\"},{\"internalType\":\"uint32\",\"name\":\"currency\",\"type\":\"uint32\"},{\"internalType\":\"uint8\",\"name\":\"decimals\",\"type\":\"uint8\"},{\"internalType\":\"contract IJBPrices\",\"name\":\"prices\",\"type\":\"address\"}],\"internalType\":\"struct JB721InitTiersConfig\",\"name\":\"tiersConfig\",\"type\":\"tuple\"},{\"components\":[{\"internalType\":\"bool\",\"name\":\"noNewTiersWithReserves\",\"type\":\"bool\"},{\"internalType\":\"bool\",\"name\":\"noNewTiersWithVotes\",\"type\":\"bool\"},{\"internalType\":\"bool\",\"name\":\"noNewTiersWithOwnerMinting\",\"type\":\"bool\"},{\"internalType\":\"bool\",\"name\":\"preventOverspending\",\"type\":\"bool\"}],\"internalType\":\"struct JB721TiersHookFlags\",\"name\":\"flags\",\"type\":\"tuple\"}],\"name\":\"initialize\",\"stateMutability\":\"nonpayable\",\"type\":\"function\"},{\"inputs\":[{\"internalType\":\"address\",\"name\":\"owner\",\"type\":\"address\"},{\"internalType\":\"address\",\"name\":\"operator\",\"type\":\"address\"}],\"name\":\"isApprovedForAll\",\"outputs\":[{\"internalType\":\"bool\",\"name\":\"\",\"type\":\"bool\"}],\"stateMutability\":\"view\",\"type\":\"function\"},{\"inputs\":[{\"internalType\":\"address\",\"name\":\"forwarder\",\"type\":\"address\"}],\"name\":\"isTrustedForwarder\",\"outputs\":[{\"internalType\":\"bool\",\"name\":\"\",\"type\":\"bool\"}],\"stateMutability\":\"view\",\"type\":\"function\"},{\"inputs\":[],\"name\":\"jbOwner\",\"outputs\":[{\"internalType\":\"address\",\"name\":\"owner\",\"type\":\"address\"},{\"internalType\":\"uint88\",\"name\":\"projectId\",\"type\":\"uint88\"},{\"internalType\":\"uint8\",\"name\":\"permissionId\",\"type\":\"uint8\"}],\"stateMutability\":\"view\",\"type\":\"function\"},{\"inputs\":[{\"internalType\":\"uint16[]\",\"name\":\"tierIds\",\"type\":\"uint16[]\"},{\"internalType\":\"address\",\"name\":\"beneficiary\",\"type\":\"address\"}],\"name\":\"mintFor\",\"outputs\":[{\"internalType\":\"uint256[]\",\"name\":\"tokenIds\",\"type\":\"uint256[]\"}],\"stateMutability\":\"nonpayable\",\"type\":\"function\"},{\"inputs\":[{\"internalType\":\"uint256\",\"name\":\"tierId\",\"type\":\"uint256\"},{\"internalType\":\"uint256\",\"name\":\"count\",\"type\":\"uint256\"}],\"name\":\"mintPendingReservesFor\",\"stateMutability\":\"nonpayable\",\"type\":\"function\"},{\"inputs\":[{\"components\":[{\"internalType\":\"uint32\",\"name\":\"tierId\",\"type\":\"uint32\"},{\"internalType\":\"uint16\",\"name\":\"count\",\"type\":\"uint16\"}],\"internalType\":\"struct JB721TiersMintReservesConfig[]\",\"name\":\"reserveMintConfigs\",\"type\":\"tuple[]\"}],\"name\":\"mintPendingReservesFor\",\"stateMutability\":\"nonpayable\",\"type\":\"function\"},{\"inputs\":[],\"name\":\"name\",\"outputs\":[{\"internalType\":\"string\",\"name\":\"\",\"type\":\"string\"}],\"stateMutability\":\"view\",\"type\":\"function\"},{\"inputs\":[],\"name\":\"owner\",\"outputs\":[{\"internalType\":\"address\",\"name\":\"\",\"type\":\"address\"}],\"stateMutability\":\"view\",\"type\":\"function\"},{\"inputs\":[{\"internalType\":\"uint256\",\"name\":\"tokenId\",\"type\":\"uint256\"}],\"name\":\"ownerOf\",\"outputs\":[{\"internalType\":\"address\",\"name\":\"\",\"type\":\"address\"}],\"stateMutability\":\"view\",\"type\":\"function\"},{\"inputs\":[{\"internalType\":\"address\",\"name\":\"addr\",\"type\":\"address\"}],\"name\":\"payCreditsOf\",\"outputs\":[{\"internalType\":\"uint256\",\"name\":\"\",\"type\":\"uint256\"}],\"stateMutability\":\"view\",\"type\":\"function\"},{\"inputs\":[],\"name\":\"pricingContext\",\"outputs\":[{\"internalType\":\"uint256\",\"name\":\"currency\",\"type\":\"uint256\"},{\"internalType\":\"uint256\",\"name\":\"decimals\",\"type\":\"uint256\"},{\"internalType\":\"contract IJBPrices\",\"name\":\"prices\",\"type\":\"address\"}],\"stateMutability\":\"view\",\"type\":\"function\"},{\"inputs\":[],\"name\":\"renounceOwnership\",\"stateMutability\":\"nonpayable\",\"type\":\"function\"},{\"inputs\":[{\"internalType\":\"address\",\"name\":\"from\",\"type\":\"address\"},{\"internalType\":\"address\",\"name\":\"to\",\"type\":\"address\"},{\"internalType\":\"uint256\",\"name\":\"tokenId\",\"type\":\"uint256\"}],\"name\":\"safeTransferFrom\",\"stateMutability\":\"nonpayable\",\"type\":\"function\"},{\"inputs\":[{\"internalType\":\"address\",\"name\":\"from\",\"type\":\"address\"},{\"internalType\":\"address\",\"name\":\"to\",\"type\":\"address\"},{\"internalType\":\"uint256\",\"name\":\"tokenId\",\"type\":\"uint256\"},{\"internalType\":\"bytes\",\"name\":\"data\",\"type\":\"bytes\"}],\"name\":\"safeTransferFrom\",\"stateMutability\":\"nonpayable\",\"type\":\"function\"},{\"inputs\":[{\"internalType\":\"address\",\"name\":\"operator\",\"type\":\"address\"},{\"internalType\":\"bool\",\"name\":\"approved\",\"type\":\"bool\"}],\"name\":\"setApprovalForAll\",\"stateMutability\":\"nonpayable\",\"type\":\"function\"},{\"inputs\":[{\"internalType\":\"uint256\",\"name\":\"tierId\",\"type\":\"uint256\"},{\"internalType\":\"uint256\",\"name\":\"discountPercent\",\"type\":\"uint256\"}],\"name\":\"setDiscountPercentOf\",\"stateMutability\":\"nonpayable\",\"type\":\"function\"},{\"inputs\":[{\"components\":[{\"internalType\":\"uint32\",\"name\":\"tierId\",\"type\":\"uint32\"},{\"internalType\":\"uint16\",\"name\":\"discountPercent\",\"type\":\"uint16\"}],\"internalType\":\"struct JB721TiersSetDiscountPercentConfig[]\",\"name\":\"configs\",\"type\":\"tuple[]\"}],\"name\":\"setDiscountPercentsOf\",\"stateMutability\":\"nonpayable\",\"type\":\"function\"},{\"inputs\":[{\"internalType\":\"string\",\"name\":\"baseUri\",\"type\":\"string\"},{\"internalType\":\"string\",\"name\":\"contractUri\",\"type\":\"string\"},{\"internalType\":\"contract IJB721TokenUriResolver\",\"name\":\"tokenUriResolver\",\"type\":\"address\"},{\"internalType\":\"uint256\",\"name\":\"encodedIPFSTUriTierId\",\"type\":\"uint256\"},{\"internalType\":\"bytes32\",\"name\":\"encodedIPFSUri\",\"type\":\"bytes32\"}],\"name\":\"setMetadata\",\"stateMutability\":\"nonpayable\",\"type\":\"function\"},{\"inputs\":[{\"internalType\":\"uint8\",\"name\":\"permissionId\",\"type\":\"uint8\"}],\"name\":\"setPermissionId\",\"stateMutability\":\"nonpayable\",\"type\":\"function\"},{\"inputs\":[{\"internalType\":\"bytes4\",\"name\":\"interfaceId\",\"type\":\"bytes4\"}],\"name\":\"supportsInterface\",\"outputs\":[{\"internalType\":\"bool\",\"name\":\"\",\"type\":\"bool\"}],\"stateMutability\":\"view\",\"type\":\"function\"},{\"inputs\":[],\"name\":\"symbol\",\"outputs\":[{\"internalType\":\"string\",\"name\":\"\",\"type\":\"string\"}],\"stateMutability\":\"view\",\"type\":\"function\"},{\"inputs\":[{\"internalType\":\"uint256\",\"name\":\"tokenId\",\"type\":\"uint256\"}],\"name\":\"tokenURI\",\"outputs\":[{\"internalType\":\"string\",\"name\":\"\",\"type\":\"string\"}],\"stateMutability\":\"view\",\"type\":\"function\"},{\"inputs\":[{\"components\":[{\"internalType\":\"address\",\"name\":\"terminal\",\"type\":\"address\"},{\"internalType\":\"address\",\"name\":\"holder\",\"type\":\"address\"},{\"internalType\":\"uint256\",\"name\":\"projectId\",\"type\":\"uint256\"},{\"internalType\":\"uint256\",\"name\":\"rulesetId\",\"type\":\"uint256\"},{\"internalType\":\"uint256\",\"name\":\"cashOutCount\",\"type\":\"uint256\"},{\"internalType\":\"uint256\",\"name\":\"totalSupply\",\"type\":\"uint256\"},{\"components\":[{\"internalType\":\"address\",\"name\":\"token\",\"type\":\"address\"},{\"internalType\":\"uint8\",\"name\":\"decimals\",\"type\":\"uint8\"},{\"internalType\":\"uint32\",\"name\":\"currency\",\"type\":\"uint32\"},{\"internalType\":\"uint256\",\"name\":\"value\",\"type\":\"uint256\"}],\"internalType\":\"struct JBTokenAmount\",\"name\":\"surplus\",\"type\":\"tuple\"},{\"internalType\":\"bool\",\"name\":\"useTotalSurplus\",\"type\":\"bool\"},{\"internalType\":\"uint256\",\"name\":\"cashOutTaxRate\",\"type\":\"uint256\"},{\"internalType\":\"bytes\",\"name\":\"metadata\",\"type\":\"bytes\"}],\"internalType\":\"struct JBBeforeCashOutRecordedContext\",\"name\":\"\",\"type\":\"tuple\"}],\"name\":\"totalCashOutWeight\",\"outputs\":[{\"internalType\":\"uint256\",\"name\":\"\",\"type\":\"uint256\"}],\"stateMutability\":\"view\",\"type\":\"function\"},{\"inputs\":[{\"internalType\":\"address\",\"name\":\"from\",\"type\":\"address\"},{\"internalType\":\"address\",\"name\":\"to\",\"type\":\"address\"},{\"internalType\":\"uint256\",\"name\":\"tokenId\",\"type\":\"uint256\"}],\"name\":\"transferFrom\",\"stateMutability\":\"nonpayable\",\"type\":\"function\"},{\"inputs\":[{\"internalType\":\"address\",\"name\":\"newOwner\",\"type\":\"address\"}],\"name\":\"transferOwnership\",\"stateMutability\":\"nonpayable\",\"type\":\"function\"},{\"inputs\":[{\"internalType\":\"uint256\",\"name\":\"projectId\",\"type\":\"uint256\"}],\"name\":\"transferOwnershipToProject\",\"stateMutability\":\"nonpayable\",\"type\":\"function\"},{\"inputs\":[],\"name\":\"trustedForwarder\",\"outputs\":[{\"internalType\":\"address\",\"name\":\"\",\"type\":\"address\"}],\"stateMutability\":\"view\",\"type\":\"function\"}],\"devdoc\":{\"kind\":\"dev\",\"methods\":{\"adjustTiers((uint104,uint32,uint32,uint16,address,bytes32,uint24,uint8,bool,bool,bool,bool,bool,bool)[],uint256[])\":{\"details\":\"Only the contract's owner or an operator with the `ADJUST_TIERS` permission from the owner can adjust the tiers.Any added tiers must adhere to this hook's `JB721TiersHookFlags`.\",\"params\":{\"tierIdsToRemove\":\"The tiers to remove, as an array of tier IDs.\",\"tiersToAdd\":\"The tiers to add, as an array of `JB721TierConfig` structs`.\"}},\"afterCashOutRecordedWith((address,uint256,uint256,uint256,(address,uint8,uint32,uint256),(address,uint8,uint32,uint256),uint256,address,bytes,bytes))\":{\"details\":\"Reverts if the calling contract is not one of the project's terminals.\",\"params\":{\"context\":\"The cash out context passed in by the terminal.\"}},\"afterPayRecordedWith((address,uint256,uint256,(address,uint8,uint32,uint256),(address,uint8,uint32,uint256),uint256,uint256,address,bytes,bytes))\":{\"details\":\"Reverts if the calling contract is not one of the project's terminals.\",\"params\":{\"context\":\"The payment context passed in by the terminal.\"}},\"approve(address,uint256)\":{\"details\":\"See {IERC721-approve}.\"},\"balanceOf(address)\":{\"params\":{\"owner\":\"The address to check the balance of.\"},\"returns\":{\"balance\":\"The number of NFTs the address owns across this hook's tiers.\"}},\"beforeCashOutRecordedWith((address,address,uint256,uint256,uint256,uint256,(address,uint8,uint32,uint256),bool,uint256,bytes))\":{\"details\":\"Sets this contract as the cash out hook. Part of `IJBRulesetDataHook`.This function is used for NFT cash outs, and will only be called if the project's ruleset has `useDataHookForCashOut` set to `true`.\",\"params\":{\"context\":\"The cash out context passed to this contract by the `cashOutTokensOf(...)` function.\"},\"returns\":{\"cashOutCount\":\"The amount of tokens that should be considered cashed out.\",\"cashOutTaxRate\":\"The cash out tax rate influencing the reclaim amount.\",\"hookSpecifications\":\"The amount and data to send to cash out hooks (this contract) instead of returning to the beneficiary.\",\"totalSupply\":\"The total amount of tokens that are considered to be existing.\"}},\"beforePayRecordedWith((address,address,(address,uint8,uint32,uint256),uint256,uint256,address,uint256,uint256,bytes))\":{\"details\":\"Sets this contract as the pay hook. Part of `IJBRulesetDataHook`.\",\"params\":{\"context\":\"The payment context passed to this contract by the `pay(...)` function.\"},\"returns\":{\"hookSpecifications\":\"The amount and data to send to pay hooks (this contract) instead of adding to the terminal's balance.\",\"weight\":\"The new `weight` to use, overriding the ruleset's `weight`.\"}},\"cashOutWeightOf(uint256[],(address,address,uint256,uint256,uint256,uint256,(address,uint8,uint32,uint256),bool,uint256,bytes))\":{\"details\":\"An NFT's cash out weight is its price.To get their relative cash out weight, divide the result by the `totalCashOutWeight(...)`.\",\"params\":{\"tokenIds\":\"The token IDs of the NFTs to get the cumulative cash out weight of.\"},\"returns\":{\"_0\":\"weight The cash out weight of the tokenIds.\"}},\"constructor\":{\"params\":{\"directory\":\"A directory of terminals and controllers for projects.\",\"permissions\":\"A contract storing permissions.\",\"rulesets\":\"A contract storing and managing project rulesets.\",\"store\":\"The contract which stores the NFT's data.\",\"trustedForwarder\":\"The trusted forwarder for the ERC2771Context.\"}},\"firstOwnerOf(uint256)\":{\"details\":\"This is generally the address which paid for the NFT.\",\"params\":{\"tokenId\":\"The token ID of the NFT to get the first owner of.\"},\"returns\":{\"_0\":\"The address of the NFT's first owner.\"}},\"getApproved(uint256)\":{\"details\":\"See {IERC721-getApproved}.\"},\"initialize(uint256,string,string,string,address,string,((uint104,uint32,uint32,uint16,address,bytes32,uint24,uint8,bool,bool,bool,bool,bool,bool)[],uint32,uint8,address),(bool,bool,bool,bool))\":{\"params\":{\"baseUri\":\"The URI to use as a base for full NFT `tokenUri`s.\",\"contractUri\":\"A URI where this contract's metadata can be found.\",\"flags\":\"A set of additional options which dictate how the hook behaves.\",\"name\":\"The name of the NFT collection.\",\"projectId\":\"The ID of the project this this hook is associated with.\",\"symbol\":\"The symbol representing the NFT collection.\",\"tiersConfig\":\"The NFT tiers and pricing context to initialize the hook with. The tiers must be sorted by category (from least to greatest).\",\"tokenUriResolver\":\"An optional contract responsible for resolving the token URI for each NFT's token ID.\"}},\"isApprovedForAll(address,address)\":{\"details\":\"See {IERC721-isApprovedForAll}.\"},\"isTrustedForwarder(address)\":{\"details\":\"Indicates whether any particular address is the trusted forwarder.\"},\"mintFor(uint16[],address)\":{\"params\":{\"beneficiary\":\"The address to mint to.\",\"tierIds\":\"The IDs of the tiers to mint from.\"},\"returns\":{\"tokenIds\":\"The IDs of the newly minted tokens.\"}},\"mintPendingReservesFor((uint32,uint16)[])\":{\"details\":\"\\\"Pending\\\" means that the NFTs have been reserved, but have not been minted yet.\",\"params\":{\"reserveMintConfigs\":\"Contains information about how many reserved tokens to mint for each tier.\"}},\"mintPendingReservesFor(uint256,uint256)\":{\"details\":\"\\\"Pending\\\" means that the NFTs have been reserved, but have not been minted yet.\",\"params\":{\"count\":\"The number of reserved NFTs to mint.\",\"tierId\":\"The ID of the tier to mint reserved NFTs from.\"}},\"name()\":{\"details\":\"See {IERC721Metadata-name}.\"},\"ownerOf(uint256)\":{\"details\":\"See {IERC721-ownerOf}.\"},\"pricingContext()\":{\"details\":\"If the `prices` contract is the zero address, this contract only accepts payments in the `currency` token.\",\"returns\":{\"currency\":\"The currency used for tier prices.\",\"decimals\":\"The amount of decimals being used in tier prices.\",\"prices\":\"The prices contract used to resolve the value of payments in currencies other than `currency`.\"}},\"safeTransferFrom(address,address,uint256)\":{\"details\":\"See {IERC721-safeTransferFrom}.\"},\"safeTransferFrom(address,address,uint256,bytes)\":{\"details\":\"See {IERC721-safeTransferFrom}.\"},\"setApprovalForAll(address,bool)\":{\"details\":\"See {IERC721-setApprovalForAll}.\"},\"setDiscountPercentOf(uint256,uint256)\":{\"details\":\"Only the contract's owner or an operator with the `SET_721_DISCOUNT_PERCENT` permission from the owner can adjust the tiers.\",\"params\":{\"discountPercent\":\"The discount percent to set.\",\"tierId\":\"The ID of the tier to set the discount of.\"}},\"setDiscountPercentsOf((uint32,uint16)[])\":{\"params\":{\"configs\":\"The configs to set the discount percent for.\"}},\"setMetadata(string,string,address,uint256,bytes32)\":{\"details\":\"Only this contract's owner can set the metadata.\",\"params\":{\"baseUri\":\"The new base URI.\",\"contractUri\":\"The new contract URI.\",\"encodedIPFSTUriTierId\":\"The ID of the tier to set the encoded IPFS URI of.\",\"encodedIPFSUri\":\"The encoded IPFS URI to set.\",\"tokenUriResolver\":\"The new URI resolver.\"}},\"setPermissionId(uint8)\":{\"params\":{\"permissionId\":\"The permission ID to use for `onlyOwner`.\"}},\"supportsInterface(bytes4)\":{\"details\":\"See {IERC165-supportsInterface}.\",\"params\":{\"interfaceId\":\"The ID of the interface to check for adherence to.\"}},\"symbol()\":{\"details\":\"See {IERC721Metadata-symbol}.\"},\"tokenURI(uint256)\":{\"details\":\"Defers to the `tokenUriResolver` if it is set. Otherwise, use the `tokenUri` corresponding with the NFT's tier.\",\"params\":{\"tokenId\":\"The token ID of the NFT to get the metadata URI of.\"},\"returns\":{\"_0\":\"The token URI from the `tokenUriResolver` if it is set. If it isn't set, the token URI for the NFT's tier.\"}},\"totalCashOutWeight((address,address,uint256,uint256,uint256,uint256,(address,uint8,uint32,uint256),bool,uint256,bytes))\":{\"details\":\"An NFT's cash out weight is its price.\",\"returns\":{\"_0\":\"weight The total cash out weight.\"}},\"transferFrom(address,address,uint256)\":{\"details\":\"See {IERC721-transferFrom}.\"},\"transferOwnership(address)\":{\"params\":{\"newOwner\":\"The address to transfer ownership to.\"}},\"transferOwnershipToProject(uint256)\":{\"details\":\"The `projectId` must fit within a `uint88`.\",\"params\":{\"projectId\":\"The ID of the project to transfer ownership to.\"}},\"trustedForwarder()\":{\"details\":\"Returns the address of the trusted forwarder.\"}},\"version\":1},\"userdoc\":{\"kind\":\"user\",\"methods\":{\"DIRECTORY()\":{\"notice\":\"The directory of terminals and controllers for projects.\"},\"METADATA_ID_TARGET()\":{\"notice\":\"The ID used when parsing metadata.\"},\"PERMISSIONS()\":{\"notice\":\"A contract storing permissions.\"},\"PROJECTS()\":{\"notice\":\"Mints ERC-721s that represent project ownership and transfers.\"},\"PROJECT_ID()\":{\"notice\":\"The ID of the project that this contract is associated with.\"},\"RULESETS()\":{\"notice\":\"The contract storing and managing project rulesets.\"},\"STORE()\":{\"notice\":\"The contract that stores and manages data for this contract's NFTs.\"},\"adjustTiers((uint104,uint32,uint32,uint16,address,bytes32,uint24,uint8,bool,bool,bool,bool,bool,bool)[],uint256[])\":{\"notice\":\"Add or delete tiers.\"},\"afterCashOutRecordedWith((address,uint256,uint256,uint256,(address,uint8,uint32,uint256),(address,uint8,uint32,uint256),uint256,address,bytes,bytes))\":{\"notice\":\"Burns the specified NFTs upon token holder cash out, reclaiming funds from the project's balance for `context.beneficiary`. Part of `IJBCashOutHook`.\"},\"afterPayRecordedWith((address,uint256,uint256,(address,uint8,uint32,uint256),(address,uint8,uint32,uint256),uint256,uint256,address,bytes,bytes))\":{\"notice\":\"Mints one or more NFTs to the `context.benficiary` upon payment if conditions are met. Part of `IJBPayHook`.\"},\"balanceOf(address)\":{\"notice\":\"The total number of this hook's NFTs that an address holds (from all tiers).\"},\"baseURI()\":{\"notice\":\"The base URI for the NFT `tokenUris`.\"},\"beforeCashOutRecordedWith((address,address,uint256,uint256,uint256,uint256,(address,uint8,uint32,uint256),bool,uint256,bytes))\":{\"notice\":\"The data calculated before a cash out is recorded in the terminal store. This data is provided to the terminal's `cashOutTokensOf(...)` transaction.\"},\"beforePayRecordedWith((address,address,(address,uint8,uint32,uint256),uint256,uint256,address,uint256,uint256,bytes))\":{\"notice\":\"The data calculated before a payment is recorded in the terminal store. This data is provided to the terminal's `pay(...)` transaction.\"},\"cashOutWeightOf(uint256[],(address,address,uint256,uint256,uint256,uint256,(address,uint8,uint32,uint256),bool,uint256,bytes))\":{\"notice\":\"The combined cash out weight of the NFTs with the specified token IDs.\"},\"contractURI()\":{\"notice\":\"This contract's metadata URI.\"},\"firstOwnerOf(uint256)\":{\"notice\":\"The first owner of an NFT.\"},\"hasMintPermissionFor(uint256,(uint48,uint48,uint48,uint48,uint32,uint112,uint32,address,uint256),address)\":{\"notice\":\"Required by the IJBRulesetDataHook interfaces. Return false to not leak any permissions.\"},\"initialize(uint256,string,string,string,address,string,((uint104,uint32,uint32,uint16,address,bytes32,uint24,uint8,bool,bool,bool,bool,bool,bool)[],uint32,uint8,address),(bool,bool,bool,bool))\":{\"notice\":\"Initializes a cloned copy of the original `JB721Hook` contract.\"},\"jbOwner()\":{\"notice\":\"This contract's owner information.\"},\"mintFor(uint16[],address)\":{\"notice\":\"Manually mint NFTs from the provided tiers .\"},\"mintPendingReservesFor((uint32,uint16)[])\":{\"notice\":\"Mint pending reserved NFTs based on the provided information.\"},\"mintPendingReservesFor(uint256,uint256)\":{\"notice\":\"Mint reserved pending reserved NFTs within the provided tier.\"},\"owner()\":{\"notice\":\"Returns the owner's address based on this contract's `JBOwner`.\"},\"payCreditsOf(address)\":{\"notice\":\"If an address pays more than the price of the NFT they received, the extra amount is stored as credits which can be cashed out to mint NFTs.\"},\"pricingContext()\":{\"notice\":\"Context for the pricing of this hook's tiers.\"},\"renounceOwnership()\":{\"notice\":\"Gives up ownership of this contract, making it impossible to call `onlyOwner` and `_checkOwner` functions.This can only be called by the current owner.\"},\"setDiscountPercentOf(uint256,uint256)\":{\"notice\":\"Allows the collection's owner to set the discount for a tier, if the tier allows it.\"},\"setDiscountPercentsOf((uint32,uint16)[])\":{\"notice\":\"Allows the collection's owner to set the discount percent for multiple tiers.\"},\"setMetadata(string,string,address,uint256,bytes32)\":{\"notice\":\"Update this hook's URI metadata properties.\"},\"setPermissionId(uint8)\":{\"notice\":\"Sets the permission ID the owner can use to give other addresses owner access.This can only be called by the current owner.\"},\"supportsInterface(bytes4)\":{\"notice\":\"Indicates if this contract adheres to the specified interface.\"},\"tokenURI(uint256)\":{\"notice\":\"The metadata URI of the NFT with the specified token ID.\"},\"totalCashOutWeight((address,address,uint256,uint256,uint256,uint256,(address,uint8,uint32,uint256),bool,uint256,bytes))\":{\"notice\":\"The combined cash out weight of all outstanding NFTs.\"},\"transferOwnership(address)\":{\"notice\":\"Transfers ownership of this contract to a new address (the `newOwner`). Can only be called by the current owner.This can only be called by the current owner.\"},\"transferOwnershipToProject(uint256)\":{\"notice\":\"Transfer ownership of this contract to a new Juicebox project.This can only be called by the current owner.\"}},\"version\":1}},\"settings\":{\"compilationTarget\":{\"src/JB721TiersHook.sol\":\"JB721TiersHook\"},\"evmVersion\":\"shanghai\",\"libraries\":{},\"metadata\":{\"bytecodeHash\":\"ipfs\"},\"optimizer\":{\"enabled\":true,\"runs\":800},\"remappings\":[\"@arbitrum/=node_modules/@arbitrum/\",\"@bananapus/=node_modules/@bananapus/\",\"@chainlink/=node_modules/@chainlink/\",\"@eth-optimism/=node_modules/@eth-optimism/\",\"@offchainlabs/=node_modules/@offchainlabs/\",\"@openzeppelin/=node_modules/@openzeppelin/\",\"@prb/=node_modules/@prb/\",\"@scroll-tech/=node_modules/@scroll-tech/\",\"@sphinx-labs/contracts/=node_modules/@sphinx-labs/contracts/contracts/foundry/\",\"@uniswap/=node_modules/@uniswap/\",\"@zksync/=node_modules/@zksync/\",\"ds-test/=lib/forge-std/lib/ds-test/src/\",\"forge-std/=lib/forge-std/src/\",\"hardhat/=node_modules/hardhat/\",\"solady/=node_modules/solady/\",\"solmate/=node_modules/solmate/\",\"sphinx/=lib/sphinx/packages/contracts/contracts/forge-std/src/\"]},\"sources\":{\"node_modules/@bananapus/core-v5/src/abstract/JBPermissioned.sol\":{\"keccak256\":\"0xbaaa61c6aa043522617d3c1a86960c23b9978ee2a6c9d593b00beeeb6ce64423\",\"license\":\"MIT\",\"urls\":[\"bzz-raw://09beed8608e02ce9dbf28814309aaf62c9eec67e0701a26113bdbb4cbae56c42\",\"dweb:/ipfs/QmZrHFnpjX9uBzbFrSjqQgQBkvpJ1ZyvjtT9RfneNGv32S\"]},\"node_modules/@bananapus/core-v5/src/enums/JBApprovalStatus.sol\":{\"keccak256\":\"0x61c69b6bac7d24b566d87cda23a77e4ca9cdb87200b106aba8534cb9a0973e33\",\"license\":\"MIT\",\"urls\":[\"bzz-raw://6a9ca7249de76f77a8252eefe6bd1b63d47952f25a2acfa2c8db967cdff4470c\",\"dweb:/ipfs/QmaxSxptRQNj8bNy96EreENmrnRWdKmhyihBcxyWzBX5BN\"]},\"node_modules/@bananapus/core-v5/src/interfaces/IJBCashOutHook.sol\":{\"keccak256\":\"0x6c516b030f55065eb169d666d11dbd82c4a0b8cea7782ebc5e79433cade38670\",\"license\":\"MIT\",\"urls\":[\"bzz-raw://fa0659eb08477176f130ccaf387d4bde71f0ecca2b24f61124d225f2f50397a3\",\"dweb:/ipfs/QmRNBRGhdGpLQLkC4wK4VrgNEw4EdSiJ4ZZJfiJU4aNt2L\"]},\"node_modules/@bananapus/core-v5/src/interfaces/IJBDirectory.sol\":{\"keccak256\":\"0xcb97db460d2948a7f51c660fe0d1b1749047a419027711c476b86ad3573534c5\",\"license\":\"MIT\",\"urls\":[\"bzz-raw://a909c7a3d471054537894dca827e6e018e92ac25299b43026e5b1e335ec4de68\",\"dweb:/ipfs/QmU1GT3F8PNMjSiPPP5cSLLofefHYFJXnywMCdqqM9xUeh\"]},\"node_modules/@bananapus/core-v5/src/interfaces/IJBPayHook.sol\":{\"keccak256\":\"0x9438866782c652c2942f4d114e35f393cd3c8b0334abce8387eed90bca35e8b2\",\"license\":\"MIT\",\"urls\":[\"bzz-raw://cfd99daf57213f92325aad7d7d16e98476d38e870470e95ba01e3ae3cdecc95d\",\"dweb:/ipfs/QmUKKAVGf7ki8BHksr99tFcRW8APveeB5tNH63ctTbbCW8\"]},\"node_modules/@bananapus/core-v5/src/interfaces/IJBPermissioned.sol\":{\"keccak256\":\"0x5b038d4dee116584e88b230920e56d48e135053e3f7e5642eaea14a775c1dad7\",\"license\":\"MIT\",\"urls\":[\"bzz-raw://19e43102f349fd4a1da1c0943ffb8f2950007fe4bb4bb7e8f74fc142575d091b\",\"dweb:/ipfs/QmXHAt4KzDTdDZgDDefEXH2WKi7NcfkJb9R7nxW5uDqsNp\"]},\"node_modules/@bananapus/core-v5/src/interfaces/IJBPermissions.sol\":{\"keccak256\":\"0x49d2b91a866004af098a6770b28040071885b048b4b50744b12a1e5b212c5e5e\",\"license\":\"MIT\",\"urls\":[\"bzz-raw://089b4dda50be91412ffe1fbe333f78cc894f073c1a7afe469f10a2cee12fbf9e\",\"dweb:/ipfs/QmYPPBZ6HwBa1RNkNGqGcR2xgj4fnWBzrPHHoJG3kZA6AN\"]},\"node_modules/@bananapus/core-v5/src/interfaces/IJBPriceFeed.sol\":{\"keccak256\":\"0x4bd84c0f1a5d4729ed709bcddd43f4c50ec4a165ece79780af8dce482ed07d4a\",\"license\":\"MIT\",\"urls\":[\"bzz-raw://62bac4bfb6982fb002f620c77e5c445e62d50241a5aa64a07e51d929f5a42180\",\"dweb:/ipfs/QmWgJUDreVY2BuMX38a1iUUR5kNbMwGnKG3VvurB7oZtuM\"]},\"node_modules/@bananapus/core-v5/src/interfaces/IJBPrices.sol\":{\"keccak256\":\"0xb4d5244daa52aafab0c9b8806b7f973afa6a3b298add5966d586d27b78424cfb\",\"license\":\"MIT\",\"urls\":[\"bzz-raw://a819f74455aaa4f679ded378424702f3992608a640d7f943b19938eb4ff711da\",\"dweb:/ipfs/QmSMGvVTsMW3L5YSUyXTKoEsgNpGEutnq4frEZHuDdeDvz\"]},\"node_modules/@bananapus/core-v5/src/interfaces/IJBProjects.sol\":{\"keccak256\":\"0x4ae42a9cc29b517b26d2b9b635deb82c16696b777deeca92dfcad33b0f81c0a0\",\"license\":\"MIT\",\"urls\":[\"bzz-raw://1dcbd860e7d7f05232d90c5e9cfd3d01e2ce986ffcdb053473d8a4d387b1a48a\",\"dweb:/ipfs/QmWKWoSJJbVWDumbnzXJBJyXmAacgC97bxMtchh8te41bn\"]},\"node_modules/@bananapus/core-v5/src/interfaces/IJBRulesetApprovalHook.sol\":{\"keccak256\":\"0x5f0dc5968277b572ba5dc74518906dfb33a9684b7a199c7843f4e66af1c11fb9\",\"license\":\"MIT\",\"urls\":[\"bzz-raw://323ce3731aebdf5bf8055b8550055e856feed700d293af8beaf8a750625a0975\",\"dweb:/ipfs/QmU2ErV2uzvXnsJt1qBKm73H2qWcEqYtQGHtZEpx93DaWJ\"]},\"node_modules/@bananapus/core-v5/src/interfaces/IJBRulesetDataHook.sol\":{\"keccak256\":\"0x45a88aa9f26512f7fc3deff6d00be9a292fc07a76c8311f175249400e83d1837\",\"license\":\"MIT\",\"urls\":[\"bzz-raw://1e88b996c3a05f87f7391ebcb9cd6d46c6ce8768083945f26a98c4ac4509e64c\",\"dweb:/ipfs/QmbpuYi6mYV8K8qrh8syWvbPc34pFrXG6QeC23m4MsX3r9\"]},\"node_modules/@bananapus/core-v5/src/interfaces/IJBRulesets.sol\":{\"keccak256\":\"0xf287c7a4a162cd58084ed10ee5f9f31c992addff0ce2f2ac7e810cc393546f30\",\"license\":\"MIT\",\"urls\":[\"bzz-raw://c851b72de52c3ceb73c6b1849ad0cc7c0832fd126ee52cc838a163ab6d3055b8\",\"dweb:/ipfs/Qmbv6k6pSeNMwZoTUKzDNb18DMGR8DboRMrYQBydATuVZw\"]},\"node_modules/@bananapus/core-v5/src/interfaces/IJBTerminal.sol\":{\"keccak256\":\"0x5a4c0ef6c8fd10069a408cc42a862909f7b47aba46327da5003203508d8f17d9\",\"license\":\"MIT\",\"urls\":[\"bzz-raw://09d8854151c21046b6b939189ad2139c669888e6baf47034a0cb754104d1efe6\",\"dweb:/ipfs/QmaMrxnf6K6znvDBwdAqsw5x6yuR4SY1BdNtyz226siAt5\"]},\"node_modules/@bananapus/core-v5/src/interfaces/IJBTokenUriResolver.sol\":{\"keccak256\":\"0xfa5cb00dcd6085d1ef912d071fe73c63f9478a2cd0f9d8bddaf659b6af2d0967\",\"license\":\"MIT\",\"urls\":[\"bzz-raw://282e4e7c342d65f77cde0e9a08fcaf20ef5cf379c7a48b639842c0ffd0b2afb8\",\"dweb:/ipfs/QmbnN3PEQeZaXdPLT75V1J79kMg7KqSMru37RHrL3z8Yf2\"]},\"node_modules/@bananapus/core-v5/src/libraries/JBConstants.sol\":{\"keccak256\":\"0x4dd0f809f1f10cf961e85632e5f3ea5e49716b104a0e8bc4d8ccc2081e9d007a\",\"license\":\"MIT\",\"urls\":[\"bzz-raw://09432ec01de81f7c295579fa3176610776cb186fba4c50d799108a18f14e5cc6\",\"dweb:/ipfs/QmS52c525xJui5u1xoY76PTq2n1pvnUzThBK38A1fsWdLp\"]},\"node_modules/@bananapus/core-v5/src/libraries/JBMetadataResolver.sol\":{\"keccak256\":\"0x52402cc945b1a23d0560a2a9c93a11271ce0ab18e592a4d78fc449a8b417526d\",\"license\":\"MIT\",\"urls\":[\"bzz-raw://912b5056f5768b14f26e4e2a754b90ce631a1f4898af6883f6d1e4a1f4ce87c8\",\"dweb:/ipfs/QmdnGcjTQtxscD1QDTERN2xqVA6iJnLCkfq1vWSUmDYYtX\"]},\"node_modules/@bananapus/core-v5/src/libraries/JBRulesetMetadataResolver.sol\":{\"keccak256\":\"0x3ed84aa51ce7ee94c65c507bb6f209fef4ae89c7446a2ed841602a235afcf43d\",\"license\":\"MIT\",\"urls\":[\"bzz-raw://cbeb6faae79112f85366ee53ad5c65f41a68f799912a5f09b0d6a49f8d9df647\",\"dweb:/ipfs/QmdEyZ6QF5q9UHMwbxWA9RrFwtL5iYHRydCAnHdKqqukDB\"]},\"node_modules/@bananapus/core-v5/src/structs/JBAccountingContext.sol\":{\"keccak256\":\"0x9c47e048a719f784f601df69a583505432217b9868a0244876d277f84dd1ebdf\",\"license\":\"MIT\",\"urls\":[\"bzz-raw://8565f194b87914da9a02af2e760ae2ed2a9d185c6f11229f7035140776d2fec9\",\"dweb:/ipfs/QmPs2fic8W3F5e5zNRwmGmJFjb3JWGPWJ3YUe5o82nQgEn\"]},\"node_modules/@bananapus/core-v5/src/structs/JBAfterCashOutRecordedContext.sol\":{\"keccak256\":\"0xa1acdb1a5670f66f730e71f8eff120766b6f5c934e6cd699c7f1a7cc93adf658\",\"license\":\"MIT\",\"urls\":[\"bzz-raw://a9c7655c9c42b30132688b395251748c809c334370ee584cb9bac46e1fb8f162\",\"dweb:/ipfs/QmbMV1wg1Fm236HaA6nnMSvRkzeYCKPRhMYDbqkAxieY7x\"]},\"node_modules/@bananapus/core-v5/src/structs/JBAfterPayRecordedContext.sol\":{\"keccak256\":\"0x3bfc01ae9944a0ff5c41125e18ebb8efca58d7aa4e471d2ffa6d8588afb689ab\",\"license\":\"MIT\",\"urls\":[\"bzz-raw://beb21399142d9b89539cfc8aa94119bc106bd1ea847b922d4c78f3f8804a5cba\",\"dweb:/ipfs/QmXDwJXrzCb6zh1KYwVdN2PEY86uK62MTfYF1M2MBtbEP7\"]},\"node_modules/@bananapus/core-v5/src/structs/JBBeforeCashOutRecordedContext.sol\":{\"keccak256\":\"0x7b2119f3e0725becc552ed5dcfa51683960a8772550c95ac5e2f75240ced367c\",\"license\":\"MIT\",\"urls\":[\"bzz-raw://03369dd07a9126ce453d83ac409919326f0aaa48ff9eac5c703092b3824d79c9\",\"dweb:/ipfs/Qmc1QKw6FfmeBD372RnDyeW27QyzEUjMX5up5rk8SHRYGa\"]},\"node_modules/@bananapus/core-v5/src/structs/JBBeforePayRecordedContext.sol\":{\"keccak256\":\"0xbc98b968d84be2f0ddbb24240723c7179ec9c5e02e5fbd5843dd0e76623a3ea5\",\"license\":\"MIT\",\"urls\":[\"bzz-raw://1310e522696a9fc6f7f96b04c293fab3b4cf1e722bdbb7aa1eec7b3ecc25402f\",\"dweb:/ipfs/QmTYiijDJRuQcMhLrmpbHzHAQFPq6jurPP5HjyYtnzbpnK\"]},\"node_modules/@bananapus/core-v5/src/structs/JBCashOutHookSpecification.sol\":{\"keccak256\":\"0x67a6e781019979e626eaa81d84a800b2656603c23ae455e15d0fa1a6f03c1736\",\"license\":\"MIT\",\"urls\":[\"bzz-raw://b43ce54447dda62d449a1e3575a9e4cb9c5a2adb41b45423dcefeb7d9afe8336\",\"dweb:/ipfs/QmW77REnQcvsfv4gwTLj2CyynmaGC3a6om7zCFWmERhrPY\"]},\"node_modules/@bananapus/core-v5/src/structs/JBPayHookSpecification.sol\":{\"keccak256\":\"0x955f0bfca97300b9e5927dc181753830ee362f83fa9ca32a90daade32aa0cfd5\",\"license\":\"MIT\",\"urls\":[\"bzz-raw://f517af1597c7c40f8d3da53f7a6684a3e162950a16559d6bf6ea3b727bb11546\",\"dweb:/ipfs/QmRWo2ZTYXmVZTzNJDYhsJNsEaHphjpUfx9eNz2cciyz86\"]},\"node_modules/@bananapus/core-v5/src/structs/JBPermissionsData.sol\":{\"keccak256\":\"0x65e26b78a1f00d81a21abd255c9670b600efca60cf36a993b8f48ecb268464a4\",\"license\":\"MIT\",\"urls\":[\"bzz-raw://d108c721c4281b13de34641befd2a1e9fac73a70195ef5ca957abda6fca9acca\",\"dweb:/ipfs/QmWoJo7wzSKY3z4YCpFvR8DoCUTKviiuFEj2tBkcgKUqW1\"]},\"node_modules/@bananapus/core-v5/src/structs/JBRuleset.sol\":{\"keccak256\":\"0x2d1f0a8457e94addae51a8222b1837e372847624fde96bb3178e7aee52ab2b24\",\"license\":\"MIT\",\"urls\":[\"bzz-raw://bbb1478e8f5d1c20f981e5a0d5e526d002add1e05ddced87ccd45543ed00c9e4\",\"dweb:/ipfs/QmZkgaYdwkbnvW2MGwVe9FeHjac8XyZTP1YZcWUApiGZgE\"]},\"node_modules/@bananapus/core-v5/src/structs/JBRulesetMetadata.sol\":{\"keccak256\":\"0x318f0b75275c3822df53a02e98782c9e98e7961116f2ad66a528c6adcd14c946\",\"license\":\"MIT\",\"urls\":[\"bzz-raw://d60f62390e43d182bfe875d1ac57e9de10426d81038ba7d8c3727b22392299e2\",\"dweb:/ipfs/QmUtE6fcP25wEhVJNEbrPHyFPkg5hp2PFf5xcwBeHPmNAf\"]},\"node_modules/@bananapus/core-v5/src/structs/JBTokenAmount.sol\":{\"keccak256\":\"0xc61593d33d5ec30e695d382948a1b944d01e29a8f2bfd29f75ecebcdbc7816de\",\"license\":\"MIT\",\"urls\":[\"bzz-raw://8992c1e5fca0c2342ecc0e734dfba6a2a752e4c29184784931d0971e44305051\",\"dweb:/ipfs/QmYNcaW3qeCkgAExUaFTq238fgfJuoYCTwjCn7jm94U4dJ\"]},\"node_modules/@bananapus/ownable-v5/src/JBOwnable.sol\":{\"keccak256\":\"0xad1f9fcc7cfa404a6c20b0eafbc71a2c90a4a3f9aebeaa4b2cab63355892ed30\",\"license\":\"MIT\",\"urls\":[\"bzz-raw://cd0ef227f070c6c68c998c711e70e61850eabe789a026e34f11e8e0d506739a6\",\"dweb:/ipfs/QmPeZXX7Lq8Q3jHSMvQR5W6UprCy5z5BPY8tz6KXEt4a5S\"]},\"node_modules/@bananapus/ownable-v5/src/JBOwnableOverrides.sol\":{\"keccak256\":\"0x3ccb51dfe5ea52398b63013dba97552f5b1a443bc6df8713458ee5ce75230bd0\",\"license\":\"MIT\",\"urls\":[\"bzz-raw://cd2985c7e5783482a64b774d3be8bcf6736c5e754ffd4c0baa3647fb0ff53b69\",\"dweb:/ipfs/QmfEYE8EXGPbvNcWZj4H4DX2HLxscYcFSckpAGwttt4SRS\"]},\"node_modules/@bananapus/ownable-v5/src/interfaces/IJBOwnable.sol\":{\"keccak256\":\"0xa94807eab5362c523d403a10902db431753b9b1e4b73259d4d7e217fc6cdf766\",\"license\":\"MIT\",\"urls\":[\"bzz-raw://d5cd284927df617997d055dfaa5f17b9c22c5ce678b9c87b627d14aaa87fa8d2\",\"dweb:/ipfs/Qma1M9MV1FFsaPF5oAMDL7KdidFzCjZ6EZ8mdLo9MXkgxa\"]},\"node_modules/@bananapus/ownable-v5/src/structs/JBOwner.sol\":{\"keccak256\":\"0x535d669344addf9ce4a62320960699ae8c47b4a615327a1cb32590b4e046c069\",\"license\":\"MIT\",\"urls\":[\"bzz-raw://64e228cc198dafde001eb65092eebf6e99f91420b993deb9c5dc8204cf2469ce\",\"dweb:/ipfs/QmWpKRsMt3SwToaVyNjF6ZJZaL3Kz2QDfee8BBN2FExV3i\"]},\"node_modules/@bananapus/permission-ids-v5/src/JBPermissionIds.sol\":{\"keccak256\":\"0x03d598c570091f294bebe9c7b59bfc2d907d5b70a3193c3bdb9ddec67edae1e0\",\"license\":\"MIT\",\"urls\":[\"bzz-raw://afb1aefda01e53fa79441bab1fa9cb46154e0db9d16bec8f9b7fa80d200916db\",\"dweb:/ipfs/Qmbkt9HgWmz5rgehRttkzFqW9SkwRYvXYqtHmuxHVxz8ZD\"]},\"node_modules/@openzeppelin/contracts/interfaces/IERC2981.sol\":{\"keccak256\":\"0x3b017a19c1730050d0fdff8dfa9255741634699aa4217442724746ca49e13292\",\"license\":\"MIT\",\"urls\":[\"bzz-raw://05530a2959e8be01cd88993970924cd6081c3462395f6fc0e73c034519259b05\",\"dweb:/ipfs/QmXAG8dF9fiYE8iVWJYWxmbEMNL6RvBAxzRGq2nyLanB2M\"]},\"node_modules/@openzeppelin/contracts/interfaces/draft-IERC6093.sol\":{\"keccak256\":\"0x880da465c203cec76b10d72dbd87c80f387df4102274f23eea1f9c9b0918792b\",\"license\":\"MIT\",\"urls\":[\"bzz-raw://399594cd8bb0143bc9e55e0f1d071d0d8c850a394fb7a319d50edd55d9ed822b\",\"dweb:/ipfs/QmbPZzgtT6LEm9CMqWfagQFwETbV1ztpECBB1DtQHrKiRz\"]},\"node_modules/@openzeppelin/contracts/metatx/ERC2771Context.sol\":{\"keccak256\":\"0x0b030a33274bde015419d99e54c9164f876a7d10eb590317b79b1d5e4ab23d99\",\"license\":\"MIT\",\"urls\":[\"bzz-raw://68e5f96988198e8efd25ddef0d89750b4daebb7fd1204fa7f5eaccdfcb3398c8\",\"dweb:/ipfs/QmaM6nNkf9UmEtQraopuZamEWCdTWp7GvuN3pjMQrNCHxm\"]},\"node_modules/@openzeppelin/contracts/token/ERC721/IERC721.sol\":{\"keccak256\":\"0x5dc63d1c6a12fe1b17793e1745877b2fcbe1964c3edfd0a482fac21ca8f18261\",\"license\":\"MIT\",\"urls\":[\"bzz-raw://6b7f97c5960a50fd1822cb298551ffc908e37b7893a68d6d08bce18a11cb0f11\",\"dweb:/ipfs/QmQQvxBytoY1eBt3pRQDmvH2hZ2yjhs12YqVfzGm7KSURq\"]},\"node_modules/@openzeppelin/contracts/token/ERC721/IERC721Receiver.sol\":{\"keccak256\":\"0xb5afb8e8eebc4d1c6404df2f5e1e6d2c3d24fd01e5dfc855314951ecfaae462d\",\"license\":\"MIT\",\"urls\":[\"bzz-raw://78586466c424f076c6a2a551d848cfbe3f7c49e723830807598484a1047b3b34\",\"dweb:/ipfs/Qmb717ovcFxm7qgNKEShiV6M9SPR3v1qnNpAGH84D6w29p\"]},\"node_modules/@openzeppelin/contracts/token/ERC721/extensions/IERC721Metadata.sol\":{\"keccak256\":\"0x37d1aaaa5a2908a09e9dcf56a26ddf762ecf295afb5964695937344fc6802ce1\",\"license\":\"MIT\",\"urls\":[\"bzz-raw://ed0bfc1b92153c5000e50f4021367b931bbe96372ac6facec3c4961b72053d02\",\"dweb:/ipfs/Qmbwp8VDerjS5SV1quwHH1oMXxPQ93fzfLVqJ2RCqbowGE\"]},\"node_modules/@openzeppelin/contracts/utils/Context.sol\":{\"keccak256\":\"0x493033a8d1b176a037b2cc6a04dad01a5c157722049bbecf632ca876224dd4b2\",\"license\":\"MIT\",\"urls\":[\"bzz-raw://6a708e8a5bdb1011c2c381c9a5cfd8a9a956d7d0a9dc1bd8bcdaf52f76ef2f12\",\"dweb:/ipfs/Qmax9WHBnVsZP46ZxEMNRQpLQnrdE4dK8LehML1Py8FowF\"]},\"node_modules/@openzeppelin/contracts/utils/Panic.sol\":{\"keccak256\":\"0xf7fe324703a64fc51702311dc51562d5cb1497734f074e4f483bfb6717572d7a\",\"license\":\"MIT\",\"urls\":[\"bzz-raw://c6a5ff4f9fd8649b7ee20800b7fa387d3465bd77cf20c2d1068cd5c98e1ed57a\",\"dweb:/ipfs/QmVSaVJf9FXFhdYEYeCEfjMVHrxDh5qL4CGkxdMWpQCrqG\"]},\"node_modules/@openzeppelin/contracts/utils/Strings.sol\":{\"keccak256\":\"0x44f87e91783e88415bde66f1a63f6c7f0076f2d511548820407d5c95643ac56c\",\"license\":\"MIT\",\"urls\":[\"bzz-raw://13a51bc2b23827744dcf5bad10c69e72528cf015a6fe48c93632cdb2c0eb1251\",\"dweb:/ipfs/QmZwPA47Yqgje1qtkdEFEja8ntTahMStYzKf5q3JRnaR7d\"]},\"node_modules/@openzeppelin/contracts/utils/introspection/ERC165.sol\":{\"keccak256\":\"0xddce8e17e3d3f9ed818b4f4c4478a8262aab8b11ed322f1bf5ed705bb4bd97fa\",\"license\":\"MIT\",\"urls\":[\"bzz-raw://8084aa71a4cc7d2980972412a88fe4f114869faea3fefa5436431644eb5c0287\",\"dweb:/ipfs/Qmbqfs5dRdPvHVKY8kTaeyc65NdqXRQwRK7h9s5UJEhD1p\"]},\"node_modules/@openzeppelin/contracts/utils/introspection/IERC165.sol\":{\"keccak256\":\"0x79796192ec90263f21b464d5bc90b777a525971d3de8232be80d9c4f9fb353b8\",\"license\":\"MIT\",\"urls\":[\"bzz-raw://f6fda447a62815e8064f47eff0dd1cf58d9207ad69b5d32280f8d7ed1d1e4621\",\"dweb:/ipfs/QmfDRc7pxfaXB2Dh9np5Uf29Na3pQ7tafRS684wd3GLjVL\"]},\"node_modules/@openzeppelin/contracts/utils/math/Math.sol\":{\"keccak256\":\"0xa00be322d7db5786750ce0ac7e2f5b633ac30a5ed5fa1ced1e74acfc19acecea\",\"license\":\"MIT\",\"urls\":[\"bzz-raw://6c84e822f87cbdc4082533b626667b6928715bb2b1e8e7eb96954cebb9e38c8d\",\"dweb:/ipfs/QmZmy9dgxLTerBAQDuuHqbL6EpgRxddqgv5KmwpXYVbKz1\"]},\"node_modules/@openzeppelin/contracts/utils/math/SafeCast.sol\":{\"keccak256\":\"0x195533c86d0ef72bcc06456a4f66a9b941f38eb403739b00f21fd7c1abd1ae54\",\"license\":\"MIT\",\"urls\":[\"bzz-raw://b1d578337048cad08c1c03041cca5978eff5428aa130c781b271ad9e5566e1f8\",\"dweb:/ipfs/QmPFKL2r9CBsMwmUqqdcFPfHZB2qcs9g1HDrPxzWSxomvy\"]},\"node_modules/@openzeppelin/contracts/utils/math/SignedMath.sol\":{\"keccak256\":\"0xb1970fac7b64e6c09611e6691791e848d5e3fe410fa5899e7df2e0afd77a99e3\",\"license\":\"MIT\",\"urls\":[\"bzz-raw://db5fbb3dddd8b7047465b62575d96231ba8a2774d37fb4737fbf23340fabbb03\",\"dweb:/ipfs/QmVUSvooZKEdEdap619tcJjTLcAuH6QBdZqAzWwnAXZAWJ\"]},\"node_modules/@prb/math/src/Common.sol\":{\"keccak256\":\"0x8225a3898d2f11f585da1fb82234800e9717fa080dbe53d450fd429a3a632e99\",\"license\":\"MIT\",\"urls\":[\"bzz-raw://2dcbf39ca575f68f32f0d1c66391de94082424956e7585e849813966f8c0fc05\",\"dweb:/ipfs/QmYvk8vXFDUJHrmqbtutYXfoLomLBosYLyBzuPoYBxsQ42\"]},\"src/JB721TiersHook.sol\":{\"keccak256\":\"0x286e699f4ca81ea84217bbdcc4e4efa426ba9cc5d0886719232dd4d2e604a1b6\",\"license\":\"MIT\",\"urls\":[\"bzz-raw://adf31e0beae7d3381a1a841786e2f78dee5b73084ba030c345440b11d8aa0b67\",\"dweb:/ipfs/QmNmXeaVoTrQ9hSMXMZ1r7vvemDpB8FAbdfxPfXqWrj4SE\"]},\"src/abstract/ERC721.sol\":{\"keccak256\":\"0xee3758d50043b58a173dada85fb33a0a2b4a9f8e57e11a213d0f1d021cd2ffc6\",\"license\":\"MIT\",\"urls\":[\"bzz-raw://f9b8cbac216d14a83dcc54fee0e660e8131afee94a21ec0c0af5dd7853692bb1\",\"dweb:/ipfs/QmRU67EeBHtqE7osaBd286poaTDjS7cAVMwt6UXdBBDRGP\"]},\"src/abstract/JB721Hook.sol\":{\"keccak256\":\"0x3de2a2a70ce211879e6f49e3032a6630b5c56589ff222410c1e375c3ba34e87c\",\"license\":\"MIT\",\"urls\":[\"bzz-raw://d9e944468f255e8cafa01b485e9eb8e8abfa2cd28462a9013547000c5484272a\",\"dweb:/ipfs/QmfKDiSgxW7Miq4jwFqeJEtFLLUTYgTEEGirwtNBKMGaUi\"]},\"src/interfaces/IJB721Hook.sol\":{\"keccak256\":\"0x1e7b684c86c0f44b0b680c7aba9e511c89892bc0638424722920368911a087f2\",\"license\":\"MIT\",\"urls\":[\"bzz-raw://96995e70a8f15d5600b509ad689c8f2ea6f8116cc7cce9c529b7a41c12c854dc\",\"dweb:/ipfs/QmaAARj3BDSQNsPwkFxauDpWBNgb4kYdzo19tUNdBbc6cX\"]},\"src/interfaces/IJB721TiersHook.sol\":{\"keccak256\":\"0x107f91c5a0674717684d75e0c71106dd1d2937c0089366c7bb555be7fffdd6b2\",\"license\":\"MIT\",\"urls\":[\"bzz-raw://3ce29d75e454845d0636e671c60c7a691e4a77d1c88fe17dbc435945890465b1\",\"dweb:/ipfs/QmewJn8HeiqKggWA8scLUbwv1TMiit8Va8A5A3K7N9Euss\"]},\"src/interfaces/IJB721TiersHookStore.sol\":{\"keccak256\":\"0x01d419bf6b9dce2ab162f8aac82f0e4a6d948f53819a42ed023e8f23e358c9c2\",\"license\":\"MIT\",\"urls\":[\"bzz-raw://0e0b14b2ae2032bd256614522078cf0f831c35d1f64d1ea2050227117d08c060\",\"dweb:/ipfs/QmP1xbw5597GDvNVgT5Te6w8LBqeXHq4x6HeXYmqLqw2RC\"]},\"src/interfaces/IJB721TokenUriResolver.sol\":{\"keccak256\":\"0xfa599167098f4459320ec4141a98a17b2dfffbce422baa27d8b4e4530f61ece1\",\"license\":\"MIT\",\"urls\":[\"bzz-raw://8b758b161f4c7b520b2c34b4d91e585e961b8f4ca278eebb91d791f7f2f45140\",\"dweb:/ipfs/QmcD9DF7NJ9QykQpT4KPzm4bs3fkjzukdAUWwdU6Atfw85\"]},\"src/libraries/JB721TiersRulesetMetadataResolver.sol\":{\"keccak256\":\"0xe1e224860fce816c0566c4b22044eb2f5a767a09764d00482b954733bf18e51e\",\"license\":\"MIT\",\"urls\":[\"bzz-raw://043663de2a9c7e822e947e0b68833e77985d493bebcb48f86bf1b67f937417fc\",\"dweb:/ipfs/QmXVXPdpLfmT2a97gUQ5d2XSsHXhgpiTfs7w2ZtoD55uAd\"]},\"src/libraries/JBIpfsDecoder.sol\":{\"keccak256\":\"0xb93ba562ac1fc9d3829be00e61f3a90f51df5661cf0f2c819a7f1d8ba19ec171\",\"license\":\"MIT\",\"urls\":[\"bzz-raw://fc9bc948fac8897d9720ef25b13d63c60b40a18aa1897dd1c657fc278c416b4f\",\"dweb:/ipfs/QmNtiJTALZW5zfyKVy7XG5GkqGgMrfkVvU4Auu4bb9cGQc\"]},\"src/structs/JB721InitTiersConfig.sol\":{\"keccak256\":\"0xfe7147d09467fd8f9b755d2a1485f22bb4a8797acd0e97623258498ddac2e441\",\"license\":\"MIT\",\"urls\":[\"bzz-raw://9ee21464af9e6c78f580c6920757017cdfbd276728773338a67660fedfea0fd2\",\"dweb:/ipfs/QmVYviC7uQ7rEvdpzD6U4BN19P5f8uMuC7jWffzQWvuFcu\"]},\"src/structs/JB721Tier.sol\":{\"keccak256\":\"0x99232aa73d5715977332dc7c93b03552a93259e59ae00e86b4ddc200f06adaf1\",\"license\":\"MIT\",\"urls\":[\"bzz-raw://721c0cf10a29fa11677718faafb3a2ecfcb4fbe4e1c09e70a7fac681c80fcc94\",\"dweb:/ipfs/QmSUR77E9PqnpB5kBcKNz2CGBjG9XL9FH57RWVYu3Q7GMR\"]},\"src/structs/JB721TierConfig.sol\":{\"keccak256\":\"0x86e54a0de4deab9d105bf276586aebe256188b193e83eb7a6f6f93e4a29ae9c5\",\"license\":\"MIT\",\"urls\":[\"bzz-raw://04bfcc07d452c26dfc50d3a5eb62df4b3b81e063defd752e0aa5ed049a78eef4\",\"dweb:/ipfs/QmWd5nJHUvZPHxJXkrYCboXaqdtiWWkQG26sNM6qkJuAgD\"]},\"src/structs/JB721TiersHookFlags.sol\":{\"keccak256\":\"0x283d8429f31bd58875c056515aa42abd09c95362bd929e85cfc44a0d92585766\",\"license\":\"MIT\",\"urls\":[\"bzz-raw://9a580b89fe99d9f8e930c58a4d0d63a5ff7c01c79d210af01373d066c9e72ed6\",\"dweb:/ipfs/QmdY1eSGSoTjv4KSdsG4Tm5CzJN6iqk3qTRga5ZWNbejRz\"]},\"src/structs/JB721TiersMintReservesConfig.sol\":{\"keccak256\":\"0x86fe586a05e6d4bc6fab9b68996a7f4b74c5362ca6f24b9d8057ed7e4cd1c5ac\",\"license\":\"MIT\",\"urls\":[\"bzz-raw://0915f17d1f958ab1fe6b214d99ed62f1f858684898c803f1a8a6a557472dd140\",\"dweb:/ipfs/QmUhdnSV8UzkgvbtkYEKHrpyDEmc2aJxW5HQ1gucuxxu5A\"]},\"src/structs/JB721TiersRulesetMetadata.sol\":{\"keccak256\":\"0x6720a6ada2a882f99afa050e40b6c925439da4339240565a0e706521b3aadc6b\",\"license\":\"MIT\",\"urls\":[\"bzz-raw://ede4a3165276d9d89eeea2dfd56f68d77dbfaedb738b30c8a0faa81c3a153b1b\",\"dweb:/ipfs/QmXa4QCb6K9MXxwNKed17VWeX9crKeMjkQnVk2xMARzh76\"]},\"src/structs/JB721TiersSetDiscountPercentConfig.sol\":{\"keccak256\":\"0x4672eacb6b0cda5e6f5f72ddb91463c52fb90b4df421053e3b40024f19a59954\",\"license\":\"MIT\",\"urls\":[\"bzz-raw://9d8e3a0b35d6b2a6ec66527594263400189b6c766bfd6943c83704380a989aec\",\"dweb:/ipfs/QmUE7NhFWsxjFRzTuRyHJ7oRx3JXD9CnG83t29PjGAhwPR\"]}},\"version\":1}",
			"gitCommit": "6440e6ca00fa1c67d04c269726bb3639c165efc9",
			"history": []
		}
	]
}